{
	"LEARNING_SOLIDITY/ETH Transfers.sol": {
		"SendEther_call": {
			"abi": [
				{
					"inputs": [
						{
							"internalType": "address payable",
							"name": "_to",
							"type": "address"
						}
					],
					"name": "sendEth",
					"outputs": [],
					"stateMutability": "payable",
					"type": "function"
				}
			],
			"devdoc": {
				"kind": "dev",
				"methods": {},
				"version": 1
			},
			"evm": {
				"assembly": "    /* \"LEARNING_SOLIDITY/ETH Transfers.sol\":1461:1899  contract SendEther_call {... */\n  mstore(0x40, 0x80)\n  callvalue\n  dup1\n  iszero\n  tag_1\n  jumpi\n  0x00\n  dup1\n  revert\ntag_1:\n  pop\n  dataSize(sub_0)\n  dup1\n  dataOffset(sub_0)\n  0x00\n  codecopy\n  0x00\n  return\nstop\n\nsub_0: assembly {\n        /* \"LEARNING_SOLIDITY/ETH Transfers.sol\":1461:1899  contract SendEther_call {... */\n      mstore(0x40, 0x80)\n      jumpi(tag_1, lt(calldatasize, 0x04))\n      shr(0xe0, calldataload(0x00))\n      dup1\n      0x76a54c60\n      eq\n      tag_2\n      jumpi\n    tag_1:\n      0x00\n      dup1\n      revert\n        /* \"LEARNING_SOLIDITY/ETH Transfers.sol\":1492:1896  function sendEth(address payable _to) public payable {... */\n    tag_2:\n      tag_3\n      0x04\n      dup1\n      calldatasize\n      sub\n      dup2\n      add\n      swap1\n      tag_4\n      swap2\n      swap1\n      tag_5\n      jump\t// in\n    tag_4:\n      tag_6\n      jump\t// in\n    tag_3:\n      stop\n    tag_6:\n        /* \"LEARNING_SOLIDITY/ETH Transfers.sol\":1656:1673  uint amountTosend */\n      0x00\n        /* \"LEARNING_SOLIDITY/ETH Transfers.sol\":1676:1685  msg.value */\n      callvalue\n        /* \"LEARNING_SOLIDITY/ETH Transfers.sol\":1656:1685  uint amountTosend = msg.value */\n      swap1\n      pop\n        /* \"LEARNING_SOLIDITY/ETH Transfers.sol\":1767:1779  bool success */\n      0x00\n        /* \"LEARNING_SOLIDITY/ETH Transfers.sol\":1780:1797  bytes memory data */\n      dup1\n        /* \"LEARNING_SOLIDITY/ETH Transfers.sol\":1801:1804  _to */\n      dup4\n        /* \"LEARNING_SOLIDITY/ETH Transfers.sol\":1801:1809  _to.call */\n      0xffffffffffffffffffffffffffffffffffffffff\n      and\n        /* \"LEARNING_SOLIDITY/ETH Transfers.sol\":1817:1826  msg.value */\n      callvalue\n        /* \"LEARNING_SOLIDITY/ETH Transfers.sol\":1801:1831  _to.call{value: msg.value}(\"\") */\n      mload(0x40)\n      tag_8\n      swap1\n      tag_9\n      jump\t// in\n    tag_8:\n      0x00\n      mload(0x40)\n      dup1\n      dup4\n      sub\n      dup2\n      dup6\n      dup8\n      gas\n      call\n      swap3\n      pop\n      pop\n      pop\n      returndatasize\n      dup1\n      0x00\n      dup2\n      eq\n      tag_12\n      jumpi\n      mload(0x40)\n      swap2\n      pop\n      and(add(returndatasize, 0x3f), not(0x1f))\n      dup3\n      add\n      0x40\n      mstore\n      returndatasize\n      dup3\n      mstore\n      returndatasize\n      0x00\n      0x20\n      dup5\n      add\n      returndatacopy\n      jump(tag_11)\n    tag_12:\n      0x60\n      swap2\n      pop\n    tag_11:\n      pop\n        /* \"LEARNING_SOLIDITY/ETH Transfers.sol\":1766:1831  (bool success,bytes memory data) = _to.call{value: msg.value}(\"\") */\n      swap2\n      pop\n      swap2\n      pop\n        /* \"LEARNING_SOLIDITY/ETH Transfers.sol\":1861:1865  true */\n      0x01\n        /* \"LEARNING_SOLIDITY/ETH Transfers.sol\":1850:1865  success == true */\n      iszero\n      iszero\n        /* \"LEARNING_SOLIDITY/ETH Transfers.sol\":1850:1857  success */\n      dup3\n        /* \"LEARNING_SOLIDITY/ETH Transfers.sol\":1850:1865  success == true */\n      iszero\n      iszero\n      eq\n        /* \"LEARNING_SOLIDITY/ETH Transfers.sol\":1842:1888  require(success == true, \"Failed to send ETH\") */\n      tag_13\n      jumpi\n      mload(0x40)\n      0x08c379a000000000000000000000000000000000000000000000000000000000\n      dup2\n      mstore\n      0x04\n      add\n      tag_14\n      swap1\n      tag_15\n      jump\t// in\n    tag_14:\n      mload(0x40)\n      dup1\n      swap2\n      sub\n      swap1\n      revert\n    tag_13:\n        /* \"LEARNING_SOLIDITY/ETH Transfers.sol\":1545:1896  {... */\n      pop\n      pop\n      pop\n        /* \"LEARNING_SOLIDITY/ETH Transfers.sol\":1492:1896  function sendEth(address payable _to) public payable {... */\n      pop\n      jump\t// out\n        /* \"#utility.yul\":88:205   */\n    tag_17:\n        /* \"#utility.yul\":197:198   */\n      0x00\n        /* \"#utility.yul\":194:195   */\n      dup1\n        /* \"#utility.yul\":187:199   */\n      revert\n        /* \"#utility.yul\":334:460   */\n    tag_19:\n        /* \"#utility.yul\":371:378   */\n      0x00\n        /* \"#utility.yul\":411:453   */\n      0xffffffffffffffffffffffffffffffffffffffff\n        /* \"#utility.yul\":404:409   */\n      dup3\n        /* \"#utility.yul\":400:454   */\n      and\n        /* \"#utility.yul\":389:454   */\n      swap1\n      pop\n        /* \"#utility.yul\":334:460   */\n      swap2\n      swap1\n      pop\n      jump\t// out\n        /* \"#utility.yul\":466:570   */\n    tag_20:\n        /* \"#utility.yul\":511:518   */\n      0x00\n        /* \"#utility.yul\":540:564   */\n      tag_35\n        /* \"#utility.yul\":558:563   */\n      dup3\n        /* \"#utility.yul\":540:564   */\n      tag_19\n      jump\t// in\n    tag_35:\n        /* \"#utility.yul\":529:564   */\n      swap1\n      pop\n        /* \"#utility.yul\":466:570   */\n      swap2\n      swap1\n      pop\n      jump\t// out\n        /* \"#utility.yul\":576:714   */\n    tag_21:\n        /* \"#utility.yul\":657:689   */\n      tag_37\n        /* \"#utility.yul\":683:688   */\n      dup2\n        /* \"#utility.yul\":657:689   */\n      tag_20\n      jump\t// in\n    tag_37:\n        /* \"#utility.yul\":650:655   */\n      dup2\n        /* \"#utility.yul\":647:690   */\n      eq\n        /* \"#utility.yul\":637:708   */\n      tag_38\n      jumpi\n        /* \"#utility.yul\":704:705   */\n      0x00\n        /* \"#utility.yul\":701:702   */\n      dup1\n        /* \"#utility.yul\":694:706   */\n      revert\n        /* \"#utility.yul\":637:708   */\n    tag_38:\n        /* \"#utility.yul\":576:714   */\n      pop\n      jump\t// out\n        /* \"#utility.yul\":720:875   */\n    tag_22:\n        /* \"#utility.yul\":774:779   */\n      0x00\n        /* \"#utility.yul\":812:818   */\n      dup2\n        /* \"#utility.yul\":799:819   */\n      calldataload\n        /* \"#utility.yul\":790:819   */\n      swap1\n      pop\n        /* \"#utility.yul\":828:869   */\n      tag_40\n        /* \"#utility.yul\":863:868   */\n      dup2\n        /* \"#utility.yul\":828:869   */\n      tag_21\n      jump\t// in\n    tag_40:\n        /* \"#utility.yul\":720:875   */\n      swap3\n      swap2\n      pop\n      pop\n      jump\t// out\n        /* \"#utility.yul\":881:1226   */\n    tag_5:\n        /* \"#utility.yul\":948:954   */\n      0x00\n        /* \"#utility.yul\":997:999   */\n      0x20\n        /* \"#utility.yul\":985:994   */\n      dup3\n        /* \"#utility.yul\":976:983   */\n      dup5\n        /* \"#utility.yul\":972:995   */\n      sub\n        /* \"#utility.yul\":968:1000   */\n      slt\n        /* \"#utility.yul\":965:1084   */\n      iszero\n      tag_42\n      jumpi\n        /* \"#utility.yul\":1003:1082   */\n      tag_43\n      tag_17\n      jump\t// in\n    tag_43:\n        /* \"#utility.yul\":965:1084   */\n    tag_42:\n        /* \"#utility.yul\":1123:1124   */\n      0x00\n        /* \"#utility.yul\":1148:1209   */\n      tag_44\n        /* \"#utility.yul\":1201:1208   */\n      dup5\n        /* \"#utility.yul\":1192:1198   */\n      dup3\n        /* \"#utility.yul\":1181:1190   */\n      dup6\n        /* \"#utility.yul\":1177:1199   */\n      add\n        /* \"#utility.yul\":1148:1209   */\n      tag_22\n      jump\t// in\n    tag_44:\n        /* \"#utility.yul\":1138:1209   */\n      swap2\n      pop\n        /* \"#utility.yul\":1094:1219   */\n      pop\n        /* \"#utility.yul\":881:1226   */\n      swap3\n      swap2\n      pop\n      pop\n      jump\t// out\n        /* \"#utility.yul\":1232:1379   */\n    tag_23:\n        /* \"#utility.yul\":1333:1344   */\n      0x00\n        /* \"#utility.yul\":1370:1373   */\n      dup2\n        /* \"#utility.yul\":1355:1373   */\n      swap1\n      pop\n        /* \"#utility.yul\":1232:1379   */\n      swap3\n      swap2\n      pop\n      pop\n      jump\t// out\n        /* \"#utility.yul\":1385:1499   */\n    tag_24:\n      pop\n      jump\t// out\n        /* \"#utility.yul\":1505:1903   */\n    tag_25:\n        /* \"#utility.yul\":1664:1667   */\n      0x00\n        /* \"#utility.yul\":1685:1768   */\n      tag_48\n        /* \"#utility.yul\":1766:1767   */\n      0x00\n        /* \"#utility.yul\":1761:1764   */\n      dup4\n        /* \"#utility.yul\":1685:1768   */\n      tag_23\n      jump\t// in\n    tag_48:\n        /* \"#utility.yul\":1678:1768   */\n      swap2\n      pop\n        /* \"#utility.yul\":1777:1870   */\n      tag_49\n        /* \"#utility.yul\":1866:1869   */\n      dup3\n        /* \"#utility.yul\":1777:1870   */\n      tag_24\n      jump\t// in\n    tag_49:\n        /* \"#utility.yul\":1895:1896   */\n      0x00\n        /* \"#utility.yul\":1890:1893   */\n      dup3\n        /* \"#utility.yul\":1886:1897   */\n      add\n        /* \"#utility.yul\":1879:1897   */\n      swap1\n      pop\n        /* \"#utility.yul\":1505:1903   */\n      swap2\n      swap1\n      pop\n      jump\t// out\n        /* \"#utility.yul\":1909:2288   */\n    tag_9:\n        /* \"#utility.yul\":2093:2096   */\n      0x00\n        /* \"#utility.yul\":2115:2262   */\n      tag_51\n        /* \"#utility.yul\":2258:2261   */\n      dup3\n        /* \"#utility.yul\":2115:2262   */\n      tag_25\n      jump\t// in\n    tag_51:\n        /* \"#utility.yul\":2108:2262   */\n      swap2\n      pop\n        /* \"#utility.yul\":2279:2282   */\n      dup2\n        /* \"#utility.yul\":2272:2282   */\n      swap1\n      pop\n        /* \"#utility.yul\":1909:2288   */\n      swap2\n      swap1\n      pop\n      jump\t// out\n        /* \"#utility.yul\":2294:2463   */\n    tag_26:\n        /* \"#utility.yul\":2378:2389   */\n      0x00\n        /* \"#utility.yul\":2412:2418   */\n      dup3\n        /* \"#utility.yul\":2407:2410   */\n      dup3\n        /* \"#utility.yul\":2400:2419   */\n      mstore\n        /* \"#utility.yul\":2452:2456   */\n      0x20\n        /* \"#utility.yul\":2447:2450   */\n      dup3\n        /* \"#utility.yul\":2443:2457   */\n      add\n        /* \"#utility.yul\":2428:2457   */\n      swap1\n      pop\n        /* \"#utility.yul\":2294:2463   */\n      swap3\n      swap2\n      pop\n      pop\n      jump\t// out\n        /* \"#utility.yul\":2469:2637   */\n    tag_27:\n        /* \"#utility.yul\":2609:2629   */\n      0x4661696c656420746f2073656e64204554480000000000000000000000000000\n        /* \"#utility.yul\":2605:2606   */\n      0x00\n        /* \"#utility.yul\":2597:2603   */\n      dup3\n        /* \"#utility.yul\":2593:2607   */\n      add\n        /* \"#utility.yul\":2586:2630   */\n      mstore\n        /* \"#utility.yul\":2469:2637   */\n      pop\n      jump\t// out\n        /* \"#utility.yul\":2643:3009   */\n    tag_28:\n        /* \"#utility.yul\":2785:2788   */\n      0x00\n        /* \"#utility.yul\":2806:2873   */\n      tag_55\n        /* \"#utility.yul\":2870:2872   */\n      0x12\n        /* \"#utility.yul\":2865:2868   */\n      dup4\n        /* \"#utility.yul\":2806:2873   */\n      tag_26\n      jump\t// in\n    tag_55:\n        /* \"#utility.yul\":2799:2873   */\n      swap2\n      pop\n        /* \"#utility.yul\":2882:2975   */\n      tag_56\n        /* \"#utility.yul\":2971:2974   */\n      dup3\n        /* \"#utility.yul\":2882:2975   */\n      tag_27\n      jump\t// in\n    tag_56:\n        /* \"#utility.yul\":3000:3002   */\n      0x20\n        /* \"#utility.yul\":2995:2998   */\n      dup3\n        /* \"#utility.yul\":2991:3003   */\n      add\n        /* \"#utility.yul\":2984:3003   */\n      swap1\n      pop\n        /* \"#utility.yul\":2643:3009   */\n      swap2\n      swap1\n      pop\n      jump\t// out\n        /* \"#utility.yul\":3015:3434   */\n    tag_15:\n        /* \"#utility.yul\":3181:3185   */\n      0x00\n        /* \"#utility.yul\":3219:3221   */\n      0x20\n        /* \"#utility.yul\":3208:3217   */\n      dup3\n        /* \"#utility.yul\":3204:3222   */\n      add\n        /* \"#utility.yul\":3196:3222   */\n      swap1\n      pop\n        /* \"#utility.yul\":3268:3277   */\n      dup2\n        /* \"#utility.yul\":3262:3266   */\n      dup2\n        /* \"#utility.yul\":3258:3278   */\n      sub\n        /* \"#utility.yul\":3254:3255   */\n      0x00\n        /* \"#utility.yul\":3243:3252   */\n      dup4\n        /* \"#utility.yul\":3239:3256   */\n      add\n        /* \"#utility.yul\":3232:3279   */\n      mstore\n        /* \"#utility.yul\":3296:3427   */\n      tag_58\n        /* \"#utility.yul\":3422:3426   */\n      dup2\n        /* \"#utility.yul\":3296:3427   */\n      tag_28\n      jump\t// in\n    tag_58:\n        /* \"#utility.yul\":3288:3427   */\n      swap1\n      pop\n        /* \"#utility.yul\":3015:3434   */\n      swap2\n      swap1\n      pop\n      jump\t// out\n\n    auxdata: 0xa2646970667358221220c94ea68a4f9505e4da363ef94b2c010b6427768e45f372d7fca38207418ca20464736f6c634300081a0033\n}\n",
				"bytecode": {
					"linkReferences": {},
					"object": "6080604052348015600e575f80fd5b506102708061001c5f395ff3fe60806040526004361061001d575f3560e01c806376a54c6014610021575b5f80fd5b61003b60048036038101906100369190610156565b61003d565b005b5f3490505f808373ffffffffffffffffffffffffffffffffffffffff1634604051610067906101ae565b5f6040518083038185875af1925050503d805f81146100a1576040519150601f19603f3d011682016040523d82523d5f602084013e6100a6565b606091505b509150915060011515821515146100f2576040517f08c379a00000000000000000000000000000000000000000000000000000000081526004016100e99061021c565b60405180910390fd5b50505050565b5f80fd5b5f73ffffffffffffffffffffffffffffffffffffffff82169050919050565b5f610125826100fc565b9050919050565b6101358161011b565b811461013f575f80fd5b50565b5f813590506101508161012c565b92915050565b5f6020828403121561016b5761016a6100f8565b5b5f61017884828501610142565b91505092915050565b5f81905092915050565b50565b5f6101995f83610181565b91506101a48261018b565b5f82019050919050565b5f6101b88261018e565b9150819050919050565b5f82825260208201905092915050565b7f4661696c656420746f2073656e642045544800000000000000000000000000005f82015250565b5f6102066012836101c2565b9150610211826101d2565b602082019050919050565b5f6020820190508181035f830152610233816101fa565b905091905056fea2646970667358221220c94ea68a4f9505e4da363ef94b2c010b6427768e45f372d7fca38207418ca20464736f6c634300081a0033",
					"opcodes": "PUSH1 0x80 PUSH1 0x40 MSTORE CALLVALUE DUP1 ISZERO PUSH1 0xE JUMPI PUSH0 DUP1 REVERT JUMPDEST POP PUSH2 0x270 DUP1 PUSH2 0x1C PUSH0 CODECOPY PUSH0 RETURN INVALID PUSH1 0x80 PUSH1 0x40 MSTORE PUSH1 0x4 CALLDATASIZE LT PUSH2 0x1D JUMPI PUSH0 CALLDATALOAD PUSH1 0xE0 SHR DUP1 PUSH4 0x76A54C60 EQ PUSH2 0x21 JUMPI JUMPDEST PUSH0 DUP1 REVERT JUMPDEST PUSH2 0x3B PUSH1 0x4 DUP1 CALLDATASIZE SUB DUP2 ADD SWAP1 PUSH2 0x36 SWAP2 SWAP1 PUSH2 0x156 JUMP JUMPDEST PUSH2 0x3D JUMP JUMPDEST STOP JUMPDEST PUSH0 CALLVALUE SWAP1 POP PUSH0 DUP1 DUP4 PUSH20 0xFFFFFFFFFFFFFFFFFFFFFFFFFFFFFFFFFFFFFFFF AND CALLVALUE PUSH1 0x40 MLOAD PUSH2 0x67 SWAP1 PUSH2 0x1AE JUMP JUMPDEST PUSH0 PUSH1 0x40 MLOAD DUP1 DUP4 SUB DUP2 DUP6 DUP8 GAS CALL SWAP3 POP POP POP RETURNDATASIZE DUP1 PUSH0 DUP2 EQ PUSH2 0xA1 JUMPI PUSH1 0x40 MLOAD SWAP2 POP PUSH1 0x1F NOT PUSH1 0x3F RETURNDATASIZE ADD AND DUP3 ADD PUSH1 0x40 MSTORE RETURNDATASIZE DUP3 MSTORE RETURNDATASIZE PUSH0 PUSH1 0x20 DUP5 ADD RETURNDATACOPY PUSH2 0xA6 JUMP JUMPDEST PUSH1 0x60 SWAP2 POP JUMPDEST POP SWAP2 POP SWAP2 POP PUSH1 0x1 ISZERO ISZERO DUP3 ISZERO ISZERO EQ PUSH2 0xF2 JUMPI PUSH1 0x40 MLOAD PUSH32 0x8C379A000000000000000000000000000000000000000000000000000000000 DUP2 MSTORE PUSH1 0x4 ADD PUSH2 0xE9 SWAP1 PUSH2 0x21C JUMP JUMPDEST PUSH1 0x40 MLOAD DUP1 SWAP2 SUB SWAP1 REVERT JUMPDEST POP POP POP POP JUMP JUMPDEST PUSH0 DUP1 REVERT JUMPDEST PUSH0 PUSH20 0xFFFFFFFFFFFFFFFFFFFFFFFFFFFFFFFFFFFFFFFF DUP3 AND SWAP1 POP SWAP2 SWAP1 POP JUMP JUMPDEST PUSH0 PUSH2 0x125 DUP3 PUSH2 0xFC JUMP JUMPDEST SWAP1 POP SWAP2 SWAP1 POP JUMP JUMPDEST PUSH2 0x135 DUP2 PUSH2 0x11B JUMP JUMPDEST DUP2 EQ PUSH2 0x13F JUMPI PUSH0 DUP1 REVERT JUMPDEST POP JUMP JUMPDEST PUSH0 DUP2 CALLDATALOAD SWAP1 POP PUSH2 0x150 DUP2 PUSH2 0x12C JUMP JUMPDEST SWAP3 SWAP2 POP POP JUMP JUMPDEST PUSH0 PUSH1 0x20 DUP3 DUP5 SUB SLT ISZERO PUSH2 0x16B JUMPI PUSH2 0x16A PUSH2 0xF8 JUMP JUMPDEST JUMPDEST PUSH0 PUSH2 0x178 DUP5 DUP3 DUP6 ADD PUSH2 0x142 JUMP JUMPDEST SWAP2 POP POP SWAP3 SWAP2 POP POP JUMP JUMPDEST PUSH0 DUP2 SWAP1 POP SWAP3 SWAP2 POP POP JUMP JUMPDEST POP JUMP JUMPDEST PUSH0 PUSH2 0x199 PUSH0 DUP4 PUSH2 0x181 JUMP JUMPDEST SWAP2 POP PUSH2 0x1A4 DUP3 PUSH2 0x18B JUMP JUMPDEST PUSH0 DUP3 ADD SWAP1 POP SWAP2 SWAP1 POP JUMP JUMPDEST PUSH0 PUSH2 0x1B8 DUP3 PUSH2 0x18E JUMP JUMPDEST SWAP2 POP DUP2 SWAP1 POP SWAP2 SWAP1 POP JUMP JUMPDEST PUSH0 DUP3 DUP3 MSTORE PUSH1 0x20 DUP3 ADD SWAP1 POP SWAP3 SWAP2 POP POP JUMP JUMPDEST PUSH32 0x4661696C656420746F2073656E64204554480000000000000000000000000000 PUSH0 DUP3 ADD MSTORE POP JUMP JUMPDEST PUSH0 PUSH2 0x206 PUSH1 0x12 DUP4 PUSH2 0x1C2 JUMP JUMPDEST SWAP2 POP PUSH2 0x211 DUP3 PUSH2 0x1D2 JUMP JUMPDEST PUSH1 0x20 DUP3 ADD SWAP1 POP SWAP2 SWAP1 POP JUMP JUMPDEST PUSH0 PUSH1 0x20 DUP3 ADD SWAP1 POP DUP2 DUP2 SUB PUSH0 DUP4 ADD MSTORE PUSH2 0x233 DUP2 PUSH2 0x1FA JUMP JUMPDEST SWAP1 POP SWAP2 SWAP1 POP JUMP INVALID LOG2 PUSH5 0x6970667358 0x22 SLT KECCAK256 0xC9 0x4E 0xA6 DUP11 0x4F SWAP6 SDIV 0xE4 0xDA CALLDATASIZE RETURNDATACOPY 0xF9 0x4B 0x2C ADD SIGNEXTEND PUSH5 0x27768E45F3 PUSH19 0xD7FCA38207418CA20464736F6C634300081A00 CALLER "
				},
				"gasEstimates": {
					"creation": {
						"codeDepositCost": "124800",
						"executionCost": "169",
						"totalCost": "124969"
					},
					"external": {
						"sendEth(address)": "infinite"
					}
				},
				"methodIdentifiers": {
					"sendEth(address)": "76a54c60"
				}
			},
			"storageLayout": {
				"storage": [],
				"types": null
			},
			"userdoc": {
				"kind": "user",
				"methods": {},
				"version": 1
			}
		}
	}
}