{
	"LEARNING_SOLIDITY/ETH Transfers.sol": {
		"SendEther_transfer": {
			"abi": [
				{
					"inputs": [
						{
							"internalType": "address payable",
							"name": "_to",
							"type": "address"
						}
					],
					"name": "sendEth",
					"outputs": [],
					"stateMutability": "payable",
					"type": "function"
				}
			],
			"devdoc": {
				"kind": "dev",
				"methods": {},
				"version": 1
			},
			"evm": {
				"assembly": "    /* \"LEARNING_SOLIDITY/ETH Transfers.sol\":2355:2683  contract SendEther_transfer {... */\n  mstore(0x40, 0x80)\n  callvalue\n  dup1\n  iszero\n  tag_1\n  jumpi\n  0x00\n  dup1\n  revert\ntag_1:\n  pop\n  dataSize(sub_0)\n  dup1\n  dataOffset(sub_0)\n  0x00\n  codecopy\n  0x00\n  return\nstop\n\nsub_0: assembly {\n        /* \"LEARNING_SOLIDITY/ETH Transfers.sol\":2355:2683  contract SendEther_transfer {... */\n      mstore(0x40, 0x80)\n      jumpi(tag_1, lt(calldatasize, 0x04))\n      shr(0xe0, calldataload(0x00))\n      dup1\n      0x76a54c60\n      eq\n      tag_2\n      jumpi\n    tag_1:\n      0x00\n      dup1\n      revert\n        /* \"LEARNING_SOLIDITY/ETH Transfers.sol\":2390:2680  function sendEth(address payable _to) public payable {... */\n    tag_2:\n      tag_3\n      0x04\n      dup1\n      calldatasize\n      sub\n      dup2\n      add\n      swap1\n      tag_4\n      swap2\n      swap1\n      tag_5\n      jump\t// in\n    tag_4:\n      tag_6\n      jump\t// in\n    tag_3:\n      stop\n    tag_6:\n        /* \"LEARNING_SOLIDITY/ETH Transfers.sol\":2554:2571  uint amountTosend */\n      0x00\n        /* \"LEARNING_SOLIDITY/ETH Transfers.sol\":2574:2583  msg.value */\n      callvalue\n        /* \"LEARNING_SOLIDITY/ETH Transfers.sol\":2554:2583  uint amountTosend = msg.value */\n      swap1\n      pop\n        /* \"LEARNING_SOLIDITY/ETH Transfers.sol\":2649:2652  _to */\n      dup2\n        /* \"LEARNING_SOLIDITY/ETH Transfers.sol\":2649:2661  _to.transfer */\n      0xffffffffffffffffffffffffffffffffffffffff\n      and\n        /* \"LEARNING_SOLIDITY/ETH Transfers.sol\":2649:2672  _to.transfer(msg.value) */\n      0x08fc\n        /* \"LEARNING_SOLIDITY/ETH Transfers.sol\":2662:2671  msg.value */\n      callvalue\n        /* \"LEARNING_SOLIDITY/ETH Transfers.sol\":2649:2672  _to.transfer(msg.value) */\n      swap1\n      dup2\n      iszero\n      mul\n      swap1\n      mload(0x40)\n      0x00\n      mload(0x40)\n      dup1\n      dup4\n      sub\n      dup2\n      dup6\n      dup9\n      dup9\n      call\n      swap4\n      pop\n      pop\n      pop\n      pop\n      iszero\n      dup1\n      iszero\n      tag_9\n      jumpi\n      returndatasize\n      0x00\n      dup1\n      returndatacopy\n      revert(0x00, returndatasize)\n    tag_9:\n      pop\n        /* \"LEARNING_SOLIDITY/ETH Transfers.sol\":2443:2680  {... */\n      pop\n        /* \"LEARNING_SOLIDITY/ETH Transfers.sol\":2390:2680  function sendEth(address payable _to) public payable {... */\n      pop\n      jump\t// out\n        /* \"#utility.yul\":88:205   */\n    tag_11:\n        /* \"#utility.yul\":197:198   */\n      0x00\n        /* \"#utility.yul\":194:195   */\n      dup1\n        /* \"#utility.yul\":187:199   */\n      revert\n        /* \"#utility.yul\":334:460   */\n    tag_13:\n        /* \"#utility.yul\":371:378   */\n      0x00\n        /* \"#utility.yul\":411:453   */\n      0xffffffffffffffffffffffffffffffffffffffff\n        /* \"#utility.yul\":404:409   */\n      dup3\n        /* \"#utility.yul\":400:454   */\n      and\n        /* \"#utility.yul\":389:454   */\n      swap1\n      pop\n        /* \"#utility.yul\":334:460   */\n      swap2\n      swap1\n      pop\n      jump\t// out\n        /* \"#utility.yul\":466:570   */\n    tag_14:\n        /* \"#utility.yul\":511:518   */\n      0x00\n        /* \"#utility.yul\":540:564   */\n      tag_23\n        /* \"#utility.yul\":558:563   */\n      dup3\n        /* \"#utility.yul\":540:564   */\n      tag_13\n      jump\t// in\n    tag_23:\n        /* \"#utility.yul\":529:564   */\n      swap1\n      pop\n        /* \"#utility.yul\":466:570   */\n      swap2\n      swap1\n      pop\n      jump\t// out\n        /* \"#utility.yul\":576:714   */\n    tag_15:\n        /* \"#utility.yul\":657:689   */\n      tag_25\n        /* \"#utility.yul\":683:688   */\n      dup2\n        /* \"#utility.yul\":657:689   */\n      tag_14\n      jump\t// in\n    tag_25:\n        /* \"#utility.yul\":650:655   */\n      dup2\n        /* \"#utility.yul\":647:690   */\n      eq\n        /* \"#utility.yul\":637:708   */\n      tag_26\n      jumpi\n        /* \"#utility.yul\":704:705   */\n      0x00\n        /* \"#utility.yul\":701:702   */\n      dup1\n        /* \"#utility.yul\":694:706   */\n      revert\n        /* \"#utility.yul\":637:708   */\n    tag_26:\n        /* \"#utility.yul\":576:714   */\n      pop\n      jump\t// out\n        /* \"#utility.yul\":720:875   */\n    tag_16:\n        /* \"#utility.yul\":774:779   */\n      0x00\n        /* \"#utility.yul\":812:818   */\n      dup2\n        /* \"#utility.yul\":799:819   */\n      calldataload\n        /* \"#utility.yul\":790:819   */\n      swap1\n      pop\n        /* \"#utility.yul\":828:869   */\n      tag_28\n        /* \"#utility.yul\":863:868   */\n      dup2\n        /* \"#utility.yul\":828:869   */\n      tag_15\n      jump\t// in\n    tag_28:\n        /* \"#utility.yul\":720:875   */\n      swap3\n      swap2\n      pop\n      pop\n      jump\t// out\n        /* \"#utility.yul\":881:1226   */\n    tag_5:\n        /* \"#utility.yul\":948:954   */\n      0x00\n        /* \"#utility.yul\":997:999   */\n      0x20\n        /* \"#utility.yul\":985:994   */\n      dup3\n        /* \"#utility.yul\":976:983   */\n      dup5\n        /* \"#utility.yul\":972:995   */\n      sub\n        /* \"#utility.yul\":968:1000   */\n      slt\n        /* \"#utility.yul\":965:1084   */\n      iszero\n      tag_30\n      jumpi\n        /* \"#utility.yul\":1003:1082   */\n      tag_31\n      tag_11\n      jump\t// in\n    tag_31:\n        /* \"#utility.yul\":965:1084   */\n    tag_30:\n        /* \"#utility.yul\":1123:1124   */\n      0x00\n        /* \"#utility.yul\":1148:1209   */\n      tag_32\n        /* \"#utility.yul\":1201:1208   */\n      dup5\n        /* \"#utility.yul\":1192:1198   */\n      dup3\n        /* \"#utility.yul\":1181:1190   */\n      dup6\n        /* \"#utility.yul\":1177:1199   */\n      add\n        /* \"#utility.yul\":1148:1209   */\n      tag_16\n      jump\t// in\n    tag_32:\n        /* \"#utility.yul\":1138:1209   */\n      swap2\n      pop\n        /* \"#utility.yul\":1094:1219   */\n      pop\n        /* \"#utility.yul\":881:1226   */\n      swap3\n      swap2\n      pop\n      pop\n      jump\t// out\n\n    auxdata: 0xa2646970667358221220e2259ac157f8d00339afdcdaa16267ab65fe288b46e9b5dbcef68889f94ae89164736f6c634300081a0033\n}\n",
				"bytecode": {
					"linkReferences": {},
					"object": "6080604052348015600e575f80fd5b506101488061001c5f395ff3fe60806040526004361061001d575f3560e01c806376a54c6014610021575b5f80fd5b61003b600480360381019061003691906100e7565b61003d565b005b5f3490508173ffffffffffffffffffffffffffffffffffffffff166108fc3490811502906040515f60405180830381858888f19350505050158015610084573d5f803e3d5ffd5b505050565b5f80fd5b5f73ffffffffffffffffffffffffffffffffffffffff82169050919050565b5f6100b68261008d565b9050919050565b6100c6816100ac565b81146100d0575f80fd5b50565b5f813590506100e1816100bd565b92915050565b5f602082840312156100fc576100fb610089565b5b5f610109848285016100d3565b9150509291505056fea2646970667358221220e2259ac157f8d00339afdcdaa16267ab65fe288b46e9b5dbcef68889f94ae89164736f6c634300081a0033",
					"opcodes": "PUSH1 0x80 PUSH1 0x40 MSTORE CALLVALUE DUP1 ISZERO PUSH1 0xE JUMPI PUSH0 DUP1 REVERT JUMPDEST POP PUSH2 0x148 DUP1 PUSH2 0x1C PUSH0 CODECOPY PUSH0 RETURN INVALID PUSH1 0x80 PUSH1 0x40 MSTORE PUSH1 0x4 CALLDATASIZE LT PUSH2 0x1D JUMPI PUSH0 CALLDATALOAD PUSH1 0xE0 SHR DUP1 PUSH4 0x76A54C60 EQ PUSH2 0x21 JUMPI JUMPDEST PUSH0 DUP1 REVERT JUMPDEST PUSH2 0x3B PUSH1 0x4 DUP1 CALLDATASIZE SUB DUP2 ADD SWAP1 PUSH2 0x36 SWAP2 SWAP1 PUSH2 0xE7 JUMP JUMPDEST PUSH2 0x3D JUMP JUMPDEST STOP JUMPDEST PUSH0 CALLVALUE SWAP1 POP DUP2 PUSH20 0xFFFFFFFFFFFFFFFFFFFFFFFFFFFFFFFFFFFFFFFF AND PUSH2 0x8FC CALLVALUE SWAP1 DUP2 ISZERO MUL SWAP1 PUSH1 0x40 MLOAD PUSH0 PUSH1 0x40 MLOAD DUP1 DUP4 SUB DUP2 DUP6 DUP9 DUP9 CALL SWAP4 POP POP POP POP ISZERO DUP1 ISZERO PUSH2 0x84 JUMPI RETURNDATASIZE PUSH0 DUP1 RETURNDATACOPY RETURNDATASIZE PUSH0 REVERT JUMPDEST POP POP POP JUMP JUMPDEST PUSH0 DUP1 REVERT JUMPDEST PUSH0 PUSH20 0xFFFFFFFFFFFFFFFFFFFFFFFFFFFFFFFFFFFFFFFF DUP3 AND SWAP1 POP SWAP2 SWAP1 POP JUMP JUMPDEST PUSH0 PUSH2 0xB6 DUP3 PUSH2 0x8D JUMP JUMPDEST SWAP1 POP SWAP2 SWAP1 POP JUMP JUMPDEST PUSH2 0xC6 DUP2 PUSH2 0xAC JUMP JUMPDEST DUP2 EQ PUSH2 0xD0 JUMPI PUSH0 DUP1 REVERT JUMPDEST POP JUMP JUMPDEST PUSH0 DUP2 CALLDATALOAD SWAP1 POP PUSH2 0xE1 DUP2 PUSH2 0xBD JUMP JUMPDEST SWAP3 SWAP2 POP POP JUMP JUMPDEST PUSH0 PUSH1 0x20 DUP3 DUP5 SUB SLT ISZERO PUSH2 0xFC JUMPI PUSH2 0xFB PUSH2 0x89 JUMP JUMPDEST JUMPDEST PUSH0 PUSH2 0x109 DUP5 DUP3 DUP6 ADD PUSH2 0xD3 JUMP JUMPDEST SWAP2 POP POP SWAP3 SWAP2 POP POP JUMP INVALID LOG2 PUSH5 0x6970667358 0x22 SLT KECCAK256 0xE2 0x25 SWAP11 0xC1 JUMPI 0xF8 0xD0 SUB CODECOPY 0xAF 0xDC 0xDA LOG1 PUSH3 0x67AB65 INVALID 0x28 DUP12 CHAINID 0xE9 0xB5 0xDB 0xCE 0xF6 DUP9 DUP10 0xF9 BLOBBASEFEE 0xE8 SWAP2 PUSH5 0x736F6C6343 STOP ADDMOD BYTE STOP CALLER "
				},
				"gasEstimates": {
					"creation": {
						"codeDepositCost": "65600",
						"executionCost": "115",
						"totalCost": "65715"
					},
					"external": {
						"sendEth(address)": "infinite"
					}
				},
				"methodIdentifiers": {
					"sendEth(address)": "76a54c60"
				}
			},
			"storageLayout": {
				"storage": [],
				"types": null
			},
			"userdoc": {
				"kind": "user",
				"methods": {},
				"version": 1
			}
		}
	}
}