{
	"LEARNING_SOLIDITY/Mapping.sol": {
		"MyMapping": {
			"abi": [
				{
					"inputs": [],
					"stateMutability": "nonpayable",
					"type": "constructor"
				},
				{
					"inputs": [
						{
							"internalType": "address",
							"name": "",
							"type": "address"
						},
						{
							"internalType": "uint256",
							"name": "",
							"type": "uint256"
						}
					],
					"name": "MyBooks",
					"outputs": [
						{
							"internalType": "string",
							"name": "title",
							"type": "string"
						},
						{
							"internalType": "string",
							"name": "author",
							"type": "string"
						}
					],
					"stateMutability": "view",
					"type": "function"
				},
				{
					"inputs": [
						{
							"internalType": "uint256",
							"name": "_id",
							"type": "uint256"
						},
						{
							"internalType": "string",
							"name": "_title",
							"type": "string"
						},
						{
							"internalType": "string",
							"name": "author",
							"type": "string"
						}
					],
					"name": "addBook",
					"outputs": [],
					"stateMutability": "nonpayable",
					"type": "function"
				},
				{
					"inputs": [
						{
							"internalType": "uint256",
							"name": "_id",
							"type": "uint256"
						},
						{
							"internalType": "string",
							"name": "_title",
							"type": "string"
						},
						{
							"internalType": "string",
							"name": "author",
							"type": "string"
						}
					],
					"name": "addMyBook",
					"outputs": [],
					"stateMutability": "nonpayable",
					"type": "function"
				},
				{
					"inputs": [
						{
							"internalType": "uint256",
							"name": "",
							"type": "uint256"
						}
					],
					"name": "books",
					"outputs": [
						{
							"internalType": "string",
							"name": "title",
							"type": "string"
						},
						{
							"internalType": "string",
							"name": "author",
							"type": "string"
						}
					],
					"stateMutability": "view",
					"type": "function"
				},
				{
					"inputs": [
						{
							"internalType": "address",
							"name": "_addr1",
							"type": "address"
						},
						{
							"internalType": "uint256",
							"name": "_i",
							"type": "uint256"
						}
					],
					"name": "get",
					"outputs": [
						{
							"internalType": "bool",
							"name": "",
							"type": "bool"
						}
					],
					"stateMutability": "view",
					"type": "function"
				},
				{
					"inputs": [
						{
							"internalType": "address",
							"name": "_addr",
							"type": "address"
						}
					],
					"name": "get",
					"outputs": [
						{
							"internalType": "uint256",
							"name": "",
							"type": "uint256"
						}
					],
					"stateMutability": "view",
					"type": "function"
				},
				{
					"inputs": [
						{
							"internalType": "address",
							"name": "",
							"type": "address"
						}
					],
					"name": "myMap",
					"outputs": [
						{
							"internalType": "uint256",
							"name": "",
							"type": "uint256"
						}
					],
					"stateMutability": "view",
					"type": "function"
				},
				{
					"inputs": [
						{
							"internalType": "uint256",
							"name": "",
							"type": "uint256"
						}
					],
					"name": "names",
					"outputs": [
						{
							"internalType": "string",
							"name": "",
							"type": "string"
						}
					],
					"stateMutability": "view",
					"type": "function"
				},
				{
					"inputs": [
						{
							"internalType": "address",
							"name": "",
							"type": "address"
						},
						{
							"internalType": "uint256",
							"name": "",
							"type": "uint256"
						}
					],
					"name": "nestedMap",
					"outputs": [
						{
							"internalType": "bool",
							"name": "",
							"type": "bool"
						}
					],
					"stateMutability": "view",
					"type": "function"
				},
				{
					"inputs": [
						{
							"internalType": "address",
							"name": "_addr",
							"type": "address"
						}
					],
					"name": "remove",
					"outputs": [],
					"stateMutability": "nonpayable",
					"type": "function"
				},
				{
					"inputs": [
						{
							"internalType": "address",
							"name": "_addr1",
							"type": "address"
						},
						{
							"internalType": "uint256",
							"name": "_i",
							"type": "uint256"
						}
					],
					"name": "remove",
					"outputs": [],
					"stateMutability": "nonpayable",
					"type": "function"
				},
				{
					"inputs": [
						{
							"internalType": "address",
							"name": "_addr1",
							"type": "address"
						},
						{
							"internalType": "uint256",
							"name": "_i",
							"type": "uint256"
						},
						{
							"internalType": "bool",
							"name": "_boo",
							"type": "bool"
						}
					],
					"name": "set",
					"outputs": [],
					"stateMutability": "nonpayable",
					"type": "function"
				},
				{
					"inputs": [
						{
							"internalType": "address",
							"name": "_addr",
							"type": "address"
						},
						{
							"internalType": "uint256",
							"name": "_i",
							"type": "uint256"
						}
					],
					"name": "set",
					"outputs": [],
					"stateMutability": "nonpayable",
					"type": "function"
				}
			],
			"devdoc": {
				"kind": "dev",
				"methods": {},
				"version": 1
			},
			"evm": {
				"assembly": "    /* \"LEARNING_SOLIDITY/Mapping.sol\":226:4291  contract MyMapping {... */\n  mstore(0x40, 0x80)\n    /* \"LEARNING_SOLIDITY/Mapping.sol\":2742:3036  constructor()  {... */\n  callvalue\n  dup1\n  iszero\n  tag_1\n  jumpi\n  0x00\n  dup1\n  revert\ntag_1:\n  pop\n    /* \"LEARNING_SOLIDITY/Mapping.sol\":2857:2873  names[1] = \"Jay\" */\n  mload(0x40)\n  dup1\n  0x40\n  add\n  0x40\n  mstore\n  dup1\n  0x03\n  dup2\n  mstore\n  0x20\n  add\n  0x4a61790000000000000000000000000000000000000000000000000000000000\n  dup2\n  mstore\n  pop\n    /* \"LEARNING_SOLIDITY/Mapping.sol\":2857:2862  names */\n  0x01\n    /* \"LEARNING_SOLIDITY/Mapping.sol\":2857:2865  names[1] */\n  0x00\n    /* \"LEARNING_SOLIDITY/Mapping.sol\":2863:2864  1 */\n  0x01\n    /* \"LEARNING_SOLIDITY/Mapping.sol\":2857:2865  names[1] */\n  dup2\n  mstore\n  0x20\n  add\n  swap1\n  dup2\n  mstore\n  0x20\n  add\n  0x00\n  keccak256\n    /* \"LEARNING_SOLIDITY/Mapping.sol\":2857:2873  names[1] = \"Jay\" */\n  swap1\n  dup2\n  tag_4\n  swap2\n  swap1\n  tag_5\n  jump\t// in\ntag_4:\n  pop\n    /* \"LEARNING_SOLIDITY/Mapping.sol\":2915:2933  names[2] = \"Selim\" */\n  mload(0x40)\n  dup1\n  0x40\n  add\n  0x40\n  mstore\n  dup1\n  0x05\n  dup2\n  mstore\n  0x20\n  add\n  0x53656c696d000000000000000000000000000000000000000000000000000000\n  dup2\n  mstore\n  pop\n    /* \"LEARNING_SOLIDITY/Mapping.sol\":2915:2920  names */\n  0x01\n    /* \"LEARNING_SOLIDITY/Mapping.sol\":2915:2923  names[2] */\n  0x00\n    /* \"LEARNING_SOLIDITY/Mapping.sol\":2921:2922  2 */\n  0x02\n    /* \"LEARNING_SOLIDITY/Mapping.sol\":2915:2923  names[2] */\n  dup2\n  mstore\n  0x20\n  add\n  swap1\n  dup2\n  mstore\n  0x20\n  add\n  0x00\n  keccak256\n    /* \"LEARNING_SOLIDITY/Mapping.sol\":2915:2933  names[2] = \"Selim\" */\n  swap1\n  dup2\n  tag_6\n  swap2\n  swap1\n  tag_5\n  jump\t// in\ntag_6:\n  pop\n    /* \"LEARNING_SOLIDITY/Mapping.sol\":2975:2995  names[3] = \"Mohamed\" */\n  mload(0x40)\n  dup1\n  0x40\n  add\n  0x40\n  mstore\n  dup1\n  0x07\n  dup2\n  mstore\n  0x20\n  add\n  0x4d6f68616d656400000000000000000000000000000000000000000000000000\n  dup2\n  mstore\n  pop\n    /* \"LEARNING_SOLIDITY/Mapping.sol\":2975:2980  names */\n  0x01\n    /* \"LEARNING_SOLIDITY/Mapping.sol\":2975:2983  names[3] */\n  0x00\n    /* \"LEARNING_SOLIDITY/Mapping.sol\":2981:2982  3 */\n  0x03\n    /* \"LEARNING_SOLIDITY/Mapping.sol\":2975:2983  names[3] */\n  dup2\n  mstore\n  0x20\n  add\n  swap1\n  dup2\n  mstore\n  0x20\n  add\n  0x00\n  keccak256\n    /* \"LEARNING_SOLIDITY/Mapping.sol\":2975:2995  names[3] = \"Mohamed\" */\n  swap1\n  dup2\n  tag_7\n  swap2\n  swap1\n  tag_5\n  jump\t// in\ntag_7:\n  pop\n    /* \"LEARNING_SOLIDITY/Mapping.sol\":226:4291  contract MyMapping {... */\n  jump(tag_8)\n    /* \"#utility.yul\":7:106   */\ntag_9:\n    /* \"#utility.yul\":59:65   */\n  0x00\n    /* \"#utility.yul\":93:98   */\n  dup2\n    /* \"#utility.yul\":87:99   */\n  mload\n    /* \"#utility.yul\":77:99   */\n  swap1\n  pop\n    /* \"#utility.yul\":7:106   */\n  swap2\n  swap1\n  pop\n  jump\t// out\n    /* \"#utility.yul\":112:292   */\ntag_10:\n    /* \"#utility.yul\":160:237   */\n  0x4e487b7100000000000000000000000000000000000000000000000000000000\n    /* \"#utility.yul\":157:158   */\n  0x00\n    /* \"#utility.yul\":150:238   */\n  mstore\n    /* \"#utility.yul\":257:261   */\n  0x41\n    /* \"#utility.yul\":254:255   */\n  0x04\n    /* \"#utility.yul\":247:262   */\n  mstore\n    /* \"#utility.yul\":281:285   */\n  0x24\n    /* \"#utility.yul\":278:279   */\n  0x00\n    /* \"#utility.yul\":271:286   */\n  revert\n    /* \"#utility.yul\":298:478   */\ntag_11:\n    /* \"#utility.yul\":346:423   */\n  0x4e487b7100000000000000000000000000000000000000000000000000000000\n    /* \"#utility.yul\":343:344   */\n  0x00\n    /* \"#utility.yul\":336:424   */\n  mstore\n    /* \"#utility.yul\":443:447   */\n  0x22\n    /* \"#utility.yul\":440:441   */\n  0x04\n    /* \"#utility.yul\":433:448   */\n  mstore\n    /* \"#utility.yul\":467:471   */\n  0x24\n    /* \"#utility.yul\":464:465   */\n  0x00\n    /* \"#utility.yul\":457:472   */\n  revert\n    /* \"#utility.yul\":484:804   */\ntag_12:\n    /* \"#utility.yul\":528:534   */\n  0x00\n    /* \"#utility.yul\":565:566   */\n  0x02\n    /* \"#utility.yul\":559:563   */\n  dup3\n    /* \"#utility.yul\":555:567   */\n  div\n    /* \"#utility.yul\":545:567   */\n  swap1\n  pop\n    /* \"#utility.yul\":612:613   */\n  0x01\n    /* \"#utility.yul\":606:610   */\n  dup3\n    /* \"#utility.yul\":602:614   */\n  and\n    /* \"#utility.yul\":633:651   */\n  dup1\n    /* \"#utility.yul\":623:704   */\n  tag_34\n  jumpi\n    /* \"#utility.yul\":689:693   */\n  0x7f\n    /* \"#utility.yul\":681:687   */\n  dup3\n    /* \"#utility.yul\":677:694   */\n  and\n    /* \"#utility.yul\":667:694   */\n  swap2\n  pop\n    /* \"#utility.yul\":623:704   */\ntag_34:\n    /* \"#utility.yul\":751:753   */\n  0x20\n    /* \"#utility.yul\":743:749   */\n  dup3\n    /* \"#utility.yul\":740:754   */\n  lt\n    /* \"#utility.yul\":720:738   */\n  dup2\n    /* \"#utility.yul\":717:755   */\n  sub\n    /* \"#utility.yul\":714:798   */\n  tag_35\n  jumpi\n    /* \"#utility.yul\":770:788   */\n  tag_36\n  tag_11\n  jump\t// in\ntag_36:\n    /* \"#utility.yul\":714:798   */\ntag_35:\n    /* \"#utility.yul\":535:804   */\n  pop\n    /* \"#utility.yul\":484:804   */\n  swap2\n  swap1\n  pop\n  jump\t// out\n    /* \"#utility.yul\":810:951   */\ntag_13:\n    /* \"#utility.yul\":859:863   */\n  0x00\n    /* \"#utility.yul\":882:885   */\n  dup2\n    /* \"#utility.yul\":874:885   */\n  swap1\n  pop\n    /* \"#utility.yul\":905:908   */\n  dup2\n    /* \"#utility.yul\":902:903   */\n  0x00\n    /* \"#utility.yul\":895:909   */\n  mstore\n    /* \"#utility.yul\":939:943   */\n  0x20\n    /* \"#utility.yul\":936:937   */\n  0x00\n    /* \"#utility.yul\":926:944   */\n  keccak256\n    /* \"#utility.yul\":918:944   */\n  swap1\n  pop\n    /* \"#utility.yul\":810:951   */\n  swap2\n  swap1\n  pop\n  jump\t// out\n    /* \"#utility.yul\":957:1050   */\ntag_14:\n    /* \"#utility.yul\":994:1000   */\n  0x00\n    /* \"#utility.yul\":1041:1043   */\n  0x20\n    /* \"#utility.yul\":1036:1038   */\n  0x1f\n    /* \"#utility.yul\":1029:1034   */\n  dup4\n    /* \"#utility.yul\":1025:1039   */\n  add\n    /* \"#utility.yul\":1021:1044   */\n  div\n    /* \"#utility.yul\":1011:1044   */\n  swap1\n  pop\n    /* \"#utility.yul\":957:1050   */\n  swap2\n  swap1\n  pop\n  jump\t// out\n    /* \"#utility.yul\":1056:1163   */\ntag_15:\n    /* \"#utility.yul\":1100:1108   */\n  0x00\n    /* \"#utility.yul\":1150:1155   */\n  dup3\n    /* \"#utility.yul\":1144:1148   */\n  dup3\n    /* \"#utility.yul\":1140:1156   */\n  shl\n    /* \"#utility.yul\":1119:1156   */\n  swap1\n  pop\n    /* \"#utility.yul\":1056:1163   */\n  swap3\n  swap2\n  pop\n  pop\n  jump\t// out\n    /* \"#utility.yul\":1169:1562   */\ntag_16:\n    /* \"#utility.yul\":1238:1244   */\n  0x00\n    /* \"#utility.yul\":1288:1289   */\n  0x08\n    /* \"#utility.yul\":1276:1286   */\n  dup4\n    /* \"#utility.yul\":1272:1290   */\n  mul\n    /* \"#utility.yul\":1311:1408   */\n  tag_41\n    /* \"#utility.yul\":1341:1407   */\n  0xffffffffffffffffffffffffffffffffffffffffffffffffffffffffffffffff\n    /* \"#utility.yul\":1330:1339   */\n  dup3\n    /* \"#utility.yul\":1311:1408   */\n  tag_15\n  jump\t// in\ntag_41:\n    /* \"#utility.yul\":1429:1468   */\n  tag_42\n    /* \"#utility.yul\":1459:1467   */\n  dup7\n    /* \"#utility.yul\":1448:1457   */\n  dup4\n    /* \"#utility.yul\":1429:1468   */\n  tag_15\n  jump\t// in\ntag_42:\n    /* \"#utility.yul\":1417:1468   */\n  swap6\n  pop\n    /* \"#utility.yul\":1501:1505   */\n  dup1\n    /* \"#utility.yul\":1497:1506   */\n  not\n    /* \"#utility.yul\":1490:1495   */\n  dup5\n    /* \"#utility.yul\":1486:1507   */\n  and\n    /* \"#utility.yul\":1477:1507   */\n  swap4\n  pop\n    /* \"#utility.yul\":1550:1554   */\n  dup1\n    /* \"#utility.yul\":1540:1548   */\n  dup7\n    /* \"#utility.yul\":1536:1555   */\n  and\n    /* \"#utility.yul\":1529:1534   */\n  dup5\n    /* \"#utility.yul\":1526:1556   */\n  or\n    /* \"#utility.yul\":1516:1556   */\n  swap3\n  pop\n    /* \"#utility.yul\":1245:1562   */\n  pop\n  pop\n    /* \"#utility.yul\":1169:1562   */\n  swap4\n  swap3\n  pop\n  pop\n  pop\n  jump\t// out\n    /* \"#utility.yul\":1568:1645   */\ntag_17:\n    /* \"#utility.yul\":1605:1612   */\n  0x00\n    /* \"#utility.yul\":1634:1639   */\n  dup2\n    /* \"#utility.yul\":1623:1639   */\n  swap1\n  pop\n    /* \"#utility.yul\":1568:1645   */\n  swap2\n  swap1\n  pop\n  jump\t// out\n    /* \"#utility.yul\":1651:1711   */\ntag_18:\n    /* \"#utility.yul\":1679:1682   */\n  0x00\n    /* \"#utility.yul\":1700:1705   */\n  dup2\n    /* \"#utility.yul\":1693:1705   */\n  swap1\n  pop\n    /* \"#utility.yul\":1651:1711   */\n  swap2\n  swap1\n  pop\n  jump\t// out\n    /* \"#utility.yul\":1717:1859   */\ntag_19:\n    /* \"#utility.yul\":1767:1776   */\n  0x00\n    /* \"#utility.yul\":1800:1853   */\n  tag_46\n    /* \"#utility.yul\":1818:1852   */\n  tag_47\n    /* \"#utility.yul\":1827:1851   */\n  tag_48\n    /* \"#utility.yul\":1845:1850   */\n  dup5\n    /* \"#utility.yul\":1827:1851   */\n  tag_17\n  jump\t// in\ntag_48:\n    /* \"#utility.yul\":1818:1852   */\n  tag_18\n  jump\t// in\ntag_47:\n    /* \"#utility.yul\":1800:1853   */\n  tag_17\n  jump\t// in\ntag_46:\n    /* \"#utility.yul\":1787:1853   */\n  swap1\n  pop\n    /* \"#utility.yul\":1717:1859   */\n  swap2\n  swap1\n  pop\n  jump\t// out\n    /* \"#utility.yul\":1865:1940   */\ntag_20:\n    /* \"#utility.yul\":1908:1911   */\n  0x00\n    /* \"#utility.yul\":1929:1934   */\n  dup2\n    /* \"#utility.yul\":1922:1934   */\n  swap1\n  pop\n    /* \"#utility.yul\":1865:1940   */\n  swap2\n  swap1\n  pop\n  jump\t// out\n    /* \"#utility.yul\":1946:2215   */\ntag_21:\n    /* \"#utility.yul\":2056:2095   */\n  tag_51\n    /* \"#utility.yul\":2087:2094   */\n  dup4\n    /* \"#utility.yul\":2056:2095   */\n  tag_19\n  jump\t// in\ntag_51:\n    /* \"#utility.yul\":2117:2208   */\n  tag_52\n    /* \"#utility.yul\":2166:2207   */\n  tag_53\n    /* \"#utility.yul\":2190:2206   */\n  dup3\n    /* \"#utility.yul\":2166:2207   */\n  tag_20\n  jump\t// in\ntag_53:\n    /* \"#utility.yul\":2158:2164   */\n  dup5\n    /* \"#utility.yul\":2151:2155   */\n  dup5\n    /* \"#utility.yul\":2145:2156   */\n  sload\n    /* \"#utility.yul\":2117:2208   */\n  tag_16\n  jump\t// in\ntag_52:\n    /* \"#utility.yul\":2111:2115   */\n  dup3\n    /* \"#utility.yul\":2104:2209   */\n  sstore\n    /* \"#utility.yul\":2022:2215   */\n  pop\n    /* \"#utility.yul\":1946:2215   */\n  pop\n  pop\n  pop\n  jump\t// out\n    /* \"#utility.yul\":2221:2294   */\ntag_22:\n    /* \"#utility.yul\":2266:2269   */\n  0x00\n    /* \"#utility.yul\":2221:2294   */\n  swap1\n  jump\t// out\n    /* \"#utility.yul\":2300:2489   */\ntag_23:\n    /* \"#utility.yul\":2377:2409   */\n  tag_56\n  tag_22\n  jump\t// in\ntag_56:\n    /* \"#utility.yul\":2418:2483   */\n  tag_57\n    /* \"#utility.yul\":2476:2482   */\n  dup2\n    /* \"#utility.yul\":2468:2474   */\n  dup5\n    /* \"#utility.yul\":2462:2466   */\n  dup5\n    /* \"#utility.yul\":2418:2483   */\n  tag_21\n  jump\t// in\ntag_57:\n    /* \"#utility.yul\":2353:2489   */\n  pop\n    /* \"#utility.yul\":2300:2489   */\n  pop\n  pop\n  jump\t// out\n    /* \"#utility.yul\":2495:2681   */\ntag_24:\n    /* \"#utility.yul\":2555:2675   */\ntag_59:\n    /* \"#utility.yul\":2572:2575   */\n  dup2\n    /* \"#utility.yul\":2565:2570   */\n  dup2\n    /* \"#utility.yul\":2562:2576   */\n  lt\n    /* \"#utility.yul\":2555:2675   */\n  iszero\n  tag_61\n  jumpi\n    /* \"#utility.yul\":2626:2665   */\n  tag_62\n    /* \"#utility.yul\":2663:2664   */\n  0x00\n    /* \"#utility.yul\":2656:2661   */\n  dup3\n    /* \"#utility.yul\":2626:2665   */\n  tag_23\n  jump\t// in\ntag_62:\n    /* \"#utility.yul\":2599:2600   */\n  0x01\n    /* \"#utility.yul\":2592:2597   */\n  dup2\n    /* \"#utility.yul\":2588:2601   */\n  add\n    /* \"#utility.yul\":2579:2601   */\n  swap1\n  pop\n    /* \"#utility.yul\":2555:2675   */\n  jump(tag_59)\ntag_61:\n    /* \"#utility.yul\":2495:2681   */\n  pop\n  pop\n  jump\t// out\n    /* \"#utility.yul\":2687:3230   */\ntag_25:\n    /* \"#utility.yul\":2788:2790   */\n  0x1f\n    /* \"#utility.yul\":2783:2786   */\n  dup3\n    /* \"#utility.yul\":2780:2791   */\n  gt\n    /* \"#utility.yul\":2777:3223   */\n  iszero\n  tag_64\n  jumpi\n    /* \"#utility.yul\":2822:2860   */\n  tag_65\n    /* \"#utility.yul\":2854:2859   */\n  dup2\n    /* \"#utility.yul\":2822:2860   */\n  tag_13\n  jump\t// in\ntag_65:\n    /* \"#utility.yul\":2906:2935   */\n  tag_66\n    /* \"#utility.yul\":2924:2934   */\n  dup5\n    /* \"#utility.yul\":2906:2935   */\n  tag_14\n  jump\t// in\ntag_66:\n    /* \"#utility.yul\":2896:2904   */\n  dup2\n    /* \"#utility.yul\":2892:2936   */\n  add\n    /* \"#utility.yul\":3089:3091   */\n  0x20\n    /* \"#utility.yul\":3077:3087   */\n  dup6\n    /* \"#utility.yul\":3074:3092   */\n  lt\n    /* \"#utility.yul\":3071:3120   */\n  iszero\n  tag_67\n  jumpi\n    /* \"#utility.yul\":3110:3118   */\n  dup2\n    /* \"#utility.yul\":3095:3118   */\n  swap1\n  pop\n    /* \"#utility.yul\":3071:3120   */\ntag_67:\n    /* \"#utility.yul\":3133:3213   */\n  tag_68\n    /* \"#utility.yul\":3189:3211   */\n  tag_69\n    /* \"#utility.yul\":3207:3210   */\n  dup6\n    /* \"#utility.yul\":3189:3211   */\n  tag_14\n  jump\t// in\ntag_69:\n    /* \"#utility.yul\":3179:3187   */\n  dup4\n    /* \"#utility.yul\":3175:3212   */\n  add\n    /* \"#utility.yul\":3162:3173   */\n  dup3\n    /* \"#utility.yul\":3133:3213   */\n  tag_24\n  jump\t// in\ntag_68:\n    /* \"#utility.yul\":2792:3223   */\n  pop\n  pop\n    /* \"#utility.yul\":2777:3223   */\ntag_64:\n    /* \"#utility.yul\":2687:3230   */\n  pop\n  pop\n  pop\n  jump\t// out\n    /* \"#utility.yul\":3236:3353   */\ntag_26:\n    /* \"#utility.yul\":3290:3298   */\n  0x00\n    /* \"#utility.yul\":3340:3345   */\n  dup3\n    /* \"#utility.yul\":3334:3338   */\n  dup3\n    /* \"#utility.yul\":3330:3346   */\n  shr\n    /* \"#utility.yul\":3309:3346   */\n  swap1\n  pop\n    /* \"#utility.yul\":3236:3353   */\n  swap3\n  swap2\n  pop\n  pop\n  jump\t// out\n    /* \"#utility.yul\":3359:3528   */\ntag_27:\n    /* \"#utility.yul\":3403:3409   */\n  0x00\n    /* \"#utility.yul\":3436:3487   */\n  tag_72\n    /* \"#utility.yul\":3484:3485   */\n  0x00\n    /* \"#utility.yul\":3480:3486   */\n  not\n    /* \"#utility.yul\":3472:3477   */\n  dup5\n    /* \"#utility.yul\":3469:3470   */\n  0x08\n    /* \"#utility.yul\":3465:3478   */\n  mul\n    /* \"#utility.yul\":3436:3487   */\n  tag_26\n  jump\t// in\ntag_72:\n    /* \"#utility.yul\":3432:3488   */\n  not\n    /* \"#utility.yul\":3517:3521   */\n  dup1\n    /* \"#utility.yul\":3511:3515   */\n  dup4\n    /* \"#utility.yul\":3507:3522   */\n  and\n    /* \"#utility.yul\":3497:3522   */\n  swap2\n  pop\n    /* \"#utility.yul\":3410:3528   */\n  pop\n    /* \"#utility.yul\":3359:3528   */\n  swap3\n  swap2\n  pop\n  pop\n  jump\t// out\n    /* \"#utility.yul\":3533:3828   */\ntag_28:\n    /* \"#utility.yul\":3609:3613   */\n  0x00\n    /* \"#utility.yul\":3755:3784   */\n  tag_74\n    /* \"#utility.yul\":3780:3783   */\n  dup4\n    /* \"#utility.yul\":3774:3778   */\n  dup4\n    /* \"#utility.yul\":3755:3784   */\n  tag_27\n  jump\t// in\ntag_74:\n    /* \"#utility.yul\":3747:3784   */\n  swap2\n  pop\n    /* \"#utility.yul\":3817:3820   */\n  dup3\n    /* \"#utility.yul\":3814:3815   */\n  0x02\n    /* \"#utility.yul\":3810:3821   */\n  mul\n    /* \"#utility.yul\":3804:3808   */\n  dup3\n    /* \"#utility.yul\":3801:3822   */\n  or\n    /* \"#utility.yul\":3793:3822   */\n  swap1\n  pop\n    /* \"#utility.yul\":3533:3828   */\n  swap3\n  swap2\n  pop\n  pop\n  jump\t// out\n    /* \"#utility.yul\":3833:5228   */\ntag_5:\n    /* \"#utility.yul\":3950:3987   */\n  tag_76\n    /* \"#utility.yul\":3983:3986   */\n  dup3\n    /* \"#utility.yul\":3950:3987   */\n  tag_9\n  jump\t// in\ntag_76:\n    /* \"#utility.yul\":4052:4070   */\n  0xffffffffffffffff\n    /* \"#utility.yul\":4044:4050   */\n  dup2\n    /* \"#utility.yul\":4041:4071   */\n  gt\n    /* \"#utility.yul\":4038:4094   */\n  iszero\n  tag_77\n  jumpi\n    /* \"#utility.yul\":4074:4092   */\n  tag_78\n  tag_10\n  jump\t// in\ntag_78:\n    /* \"#utility.yul\":4038:4094   */\ntag_77:\n    /* \"#utility.yul\":4118:4156   */\n  tag_79\n    /* \"#utility.yul\":4150:4154   */\n  dup3\n    /* \"#utility.yul\":4144:4155   */\n  sload\n    /* \"#utility.yul\":4118:4156   */\n  tag_12\n  jump\t// in\ntag_79:\n    /* \"#utility.yul\":4203:4270   */\n  tag_80\n    /* \"#utility.yul\":4263:4269   */\n  dup3\n    /* \"#utility.yul\":4255:4261   */\n  dup3\n    /* \"#utility.yul\":4249:4253   */\n  dup6\n    /* \"#utility.yul\":4203:4270   */\n  tag_25\n  jump\t// in\ntag_80:\n    /* \"#utility.yul\":4297:4298   */\n  0x00\n    /* \"#utility.yul\":4321:4325   */\n  0x20\n    /* \"#utility.yul\":4308:4325   */\n  swap1\n  pop\n    /* \"#utility.yul\":4353:4355   */\n  0x1f\n    /* \"#utility.yul\":4345:4351   */\n  dup4\n    /* \"#utility.yul\":4342:4356   */\n  gt\n    /* \"#utility.yul\":4370:4371   */\n  0x01\n    /* \"#utility.yul\":4365:4983   */\n  dup2\n  eq\n  tag_82\n  jumpi\n    /* \"#utility.yul\":5027:5028   */\n  0x00\n    /* \"#utility.yul\":5044:5050   */\n  dup5\n    /* \"#utility.yul\":5041:5118   */\n  iszero\n  tag_83\n  jumpi\n    /* \"#utility.yul\":5093:5102   */\n  dup3\n    /* \"#utility.yul\":5088:5091   */\n  dup8\n    /* \"#utility.yul\":5084:5103   */\n  add\n    /* \"#utility.yul\":5078:5104   */\n  mload\n    /* \"#utility.yul\":5069:5104   */\n  swap1\n  pop\n    /* \"#utility.yul\":5041:5118   */\ntag_83:\n    /* \"#utility.yul\":5144:5211   */\n  tag_84\n    /* \"#utility.yul\":5204:5210   */\n  dup6\n    /* \"#utility.yul\":5197:5202   */\n  dup3\n    /* \"#utility.yul\":5144:5211   */\n  tag_28\n  jump\t// in\ntag_84:\n    /* \"#utility.yul\":5138:5142   */\n  dup7\n    /* \"#utility.yul\":5131:5212   */\n  sstore\n    /* \"#utility.yul\":5000:5222   */\n  pop\n    /* \"#utility.yul\":4335:5222   */\n  jump(tag_81)\n    /* \"#utility.yul\":4365:4983   */\ntag_82:\n    /* \"#utility.yul\":4417:4421   */\n  0x1f\n    /* \"#utility.yul\":4413:4422   */\n  not\n    /* \"#utility.yul\":4405:4411   */\n  dup5\n    /* \"#utility.yul\":4401:4423   */\n  and\n    /* \"#utility.yul\":4451:4488   */\n  tag_85\n    /* \"#utility.yul\":4483:4487   */\n  dup7\n    /* \"#utility.yul\":4451:4488   */\n  tag_13\n  jump\t// in\ntag_85:\n    /* \"#utility.yul\":4510:4511   */\n  0x00\n    /* \"#utility.yul\":4524:4732   */\ntag_86:\n    /* \"#utility.yul\":4538:4545   */\n  dup3\n    /* \"#utility.yul\":4535:4536   */\n  dup2\n    /* \"#utility.yul\":4532:4546   */\n  lt\n    /* \"#utility.yul\":4524:4732   */\n  iszero\n  tag_88\n  jumpi\n    /* \"#utility.yul\":4617:4626   */\n  dup5\n    /* \"#utility.yul\":4612:4615   */\n  dup10\n    /* \"#utility.yul\":4608:4627   */\n  add\n    /* \"#utility.yul\":4602:4628   */\n  mload\n    /* \"#utility.yul\":4594:4600   */\n  dup3\n    /* \"#utility.yul\":4587:4629   */\n  sstore\n    /* \"#utility.yul\":4668:4669   */\n  0x01\n    /* \"#utility.yul\":4660:4666   */\n  dup3\n    /* \"#utility.yul\":4656:4670   */\n  add\n    /* \"#utility.yul\":4646:4670   */\n  swap2\n  pop\n    /* \"#utility.yul\":4715:4717   */\n  0x20\n    /* \"#utility.yul\":4704:4713   */\n  dup6\n    /* \"#utility.yul\":4700:4718   */\n  add\n    /* \"#utility.yul\":4687:4718   */\n  swap5\n  pop\n    /* \"#utility.yul\":4561:4565   */\n  0x20\n    /* \"#utility.yul\":4558:4559   */\n  dup2\n    /* \"#utility.yul\":4554:4566   */\n  add\n    /* \"#utility.yul\":4549:4566   */\n  swap1\n  pop\n    /* \"#utility.yul\":4524:4732   */\n  jump(tag_86)\ntag_88:\n    /* \"#utility.yul\":4760:4766   */\n  dup7\n    /* \"#utility.yul\":4751:4758   */\n  dup4\n    /* \"#utility.yul\":4748:4767   */\n  lt\n    /* \"#utility.yul\":4745:4924   */\n  iszero\n  tag_89\n  jumpi\n    /* \"#utility.yul\":4818:4827   */\n  dup5\n    /* \"#utility.yul\":4813:4816   */\n  dup10\n    /* \"#utility.yul\":4809:4828   */\n  add\n    /* \"#utility.yul\":4803:4829   */\n  mload\n    /* \"#utility.yul\":4861:4909   */\n  tag_90\n    /* \"#utility.yul\":4903:4907   */\n  0x1f\n    /* \"#utility.yul\":4895:4901   */\n  dup10\n    /* \"#utility.yul\":4891:4908   */\n  and\n    /* \"#utility.yul\":4880:4889   */\n  dup3\n    /* \"#utility.yul\":4861:4909   */\n  tag_27\n  jump\t// in\ntag_90:\n    /* \"#utility.yul\":4853:4859   */\n  dup4\n    /* \"#utility.yul\":4846:4910   */\n  sstore\n    /* \"#utility.yul\":4768:4924   */\n  pop\n    /* \"#utility.yul\":4745:4924   */\ntag_89:\n    /* \"#utility.yul\":4970:4971   */\n  0x01\n    /* \"#utility.yul\":4966:4967   */\n  0x02\n    /* \"#utility.yul\":4958:4964   */\n  dup9\n    /* \"#utility.yul\":4954:4968   */\n  mul\n    /* \"#utility.yul\":4950:4972   */\n  add\n    /* \"#utility.yul\":4944:4948   */\n  dup9\n    /* \"#utility.yul\":4937:4973   */\n  sstore\n    /* \"#utility.yul\":4372:4983   */\n  pop\n  pop\n  pop\n    /* \"#utility.yul\":4335:5222   */\ntag_81:\n  pop\n    /* \"#utility.yul\":3925:5228   */\n  pop\n  pop\n  pop\n    /* \"#utility.yul\":3833:5228   */\n  pop\n  pop\n  jump\t// out\n    /* \"LEARNING_SOLIDITY/Mapping.sol\":226:4291  contract MyMapping {... */\ntag_8:\n  dataSize(sub_0)\n  dup1\n  dataOffset(sub_0)\n  0x00\n  codecopy\n  0x00\n  return\nstop\n\nsub_0: assembly {\n        /* \"LEARNING_SOLIDITY/Mapping.sol\":226:4291  contract MyMapping {... */\n      mstore(0x40, 0x80)\n      callvalue\n      dup1\n      iszero\n      tag_1\n      jumpi\n      0x00\n      dup1\n      revert\n    tag_1:\n      pop\n      jumpi(tag_2, lt(calldatasize, 0x04))\n      shr(0xe0, calldataload(0x00))\n      dup1\n      0x4622ab03\n      gt\n      tag_16\n      jumpi\n      dup1\n      0xabe7f1ab\n      gt\n      tag_17\n      jumpi\n      dup1\n      0xabe7f1ab\n      eq\n      tag_12\n      jumpi\n      dup1\n      0xb464631b\n      eq\n      tag_13\n      jumpi\n      dup1\n      0xc2bc2efc\n      eq\n      tag_14\n      jumpi\n      dup1\n      0xe5355268\n      eq\n      tag_15\n      jumpi\n      jump(tag_2)\n    tag_17:\n      dup1\n      0x4622ab03\n      eq\n      tag_9\n      jumpi\n      dup1\n      0x493ec707\n      eq\n      tag_10\n      jumpi\n      dup1\n      0x68744046\n      eq\n      tag_11\n      jumpi\n      jump(tag_2)\n    tag_16:\n      dup1\n      0x028414f2\n      eq\n      tag_3\n      jumpi\n      dup1\n      0x0b139194\n      eq\n      tag_4\n      jumpi\n      dup1\n      0x1481d24f\n      eq\n      tag_5\n      jumpi\n      dup1\n      0x27cbd529\n      eq\n      tag_6\n      jumpi\n      dup1\n      0x29092d0e\n      eq\n      tag_7\n      jumpi\n      dup1\n      0x3825d828\n      eq\n      tag_8\n      jumpi\n    tag_2:\n      0x00\n      dup1\n      revert\n        /* \"LEARNING_SOLIDITY/Mapping.sol\":3313:3684  function addBook(uint _id,... */\n    tag_3:\n      tag_18\n      0x04\n      dup1\n      calldatasize\n      sub\n      dup2\n      add\n      swap1\n      tag_19\n      swap2\n      swap1\n      tag_20\n      jump\t// in\n    tag_19:\n      tag_21\n      jump\t// in\n    tag_18:\n      stop\n        /* \"LEARNING_SOLIDITY/Mapping.sol\":1588:1924  function set(... */\n    tag_4:\n      tag_22\n      0x04\n      dup1\n      calldatasize\n      sub\n      dup2\n      add\n      swap1\n      tag_23\n      swap2\n      swap1\n      tag_24\n      jump\t// in\n    tag_23:\n      tag_25\n      jump\t// in\n    tag_22:\n      stop\n        /* \"LEARNING_SOLIDITY/Mapping.sol\":741:799  mapping(address => mapping(uint => bool)) public nestedMap */\n    tag_5:\n      tag_26\n      0x04\n      dup1\n      calldatasize\n      sub\n      dup2\n      add\n      swap1\n      tag_27\n      swap2\n      swap1\n      tag_28\n      jump\t// in\n    tag_27:\n      tag_29\n      jump\t// in\n    tag_26:\n      mload(0x40)\n      tag_30\n      swap2\n      swap1\n      tag_31\n      jump\t// in\n    tag_30:\n      mload(0x40)\n      dup1\n      swap2\n      sub\n      swap1\n      return\n        /* \"LEARNING_SOLIDITY/Mapping.sol\":393:430  mapping(address => uint) public myMap */\n    tag_6:\n      tag_32\n      0x04\n      dup1\n      calldatasize\n      sub\n      dup2\n      add\n      swap1\n      tag_33\n      swap2\n      swap1\n      tag_34\n      jump\t// in\n    tag_33:\n      tag_35\n      jump\t// in\n    tag_32:\n      mload(0x40)\n      tag_36\n      swap2\n      swap1\n      tag_37\n      jump\t// in\n    tag_36:\n      mload(0x40)\n      dup1\n      swap2\n      sub\n      swap1\n      return\n        /* \"LEARNING_SOLIDITY/Mapping.sol\":2485:2734  function remove(address _addr) public {... */\n    tag_7:\n      tag_38\n      0x04\n      dup1\n      calldatasize\n      sub\n      dup2\n      add\n      swap1\n      tag_39\n      swap2\n      swap1\n      tag_34\n      jump\t// in\n    tag_39:\n      tag_40\n      jump\t// in\n    tag_38:\n      stop\n        /* \"LEARNING_SOLIDITY/Mapping.sol\":2221:2477  function set(address _addr, uint _i) public {... */\n    tag_8:\n      tag_41\n      0x04\n      dup1\n      calldatasize\n      sub\n      dup2\n      add\n      swap1\n      tag_42\n      swap2\n      swap1\n      tag_28\n      jump\t// in\n    tag_42:\n      tag_43\n      jump\t// in\n    tag_41:\n      stop\n        /* \"LEARNING_SOLIDITY/Mapping.sol\":529:565  mapping(uint => string) public names */\n    tag_9:\n      tag_44\n      0x04\n      dup1\n      calldatasize\n      sub\n      dup2\n      add\n      swap1\n      tag_45\n      swap2\n      swap1\n      tag_46\n      jump\t// in\n    tag_45:\n      tag_47\n      jump\t// in\n    tag_44:\n      mload(0x40)\n      tag_48\n      swap2\n      swap1\n      tag_49\n      jump\t// in\n    tag_48:\n      mload(0x40)\n      dup1\n      swap2\n      sub\n      swap1\n      return\n        /* \"LEARNING_SOLIDITY/Mapping.sol\":3877:4288  function addMyBook(uint _id,... */\n    tag_10:\n      tag_50\n      0x04\n      dup1\n      calldatasize\n      sub\n      dup2\n      add\n      swap1\n      tag_51\n      swap2\n      swap1\n      tag_20\n      jump\t// in\n    tag_51:\n      tag_52\n      jump\t// in\n    tag_50:\n      stop\n        /* \"LEARNING_SOLIDITY/Mapping.sol\":3044:3078  mapping(uint => Book) public books */\n    tag_11:\n      tag_53\n      0x04\n      dup1\n      calldatasize\n      sub\n      dup2\n      add\n      swap1\n      tag_54\n      swap2\n      swap1\n      tag_46\n      jump\t// in\n    tag_54:\n      tag_55\n      jump\t// in\n    tag_53:\n      mload(0x40)\n      tag_56\n      swap3\n      swap2\n      swap1\n      tag_57\n      jump\t// in\n    tag_56:\n      mload(0x40)\n      dup1\n      swap2\n      sub\n      swap1\n      return\n        /* \"LEARNING_SOLIDITY/Mapping.sol\":1932:2213  function remove(address _addr1, uint _i) public {... */\n    tag_12:\n      tag_58\n      0x04\n      dup1\n      calldatasize\n      sub\n      dup2\n      add\n      swap1\n      tag_59\n      swap2\n      swap1\n      tag_28\n      jump\t// in\n    tag_59:\n      tag_60\n      jump\t// in\n    tag_58:\n      stop\n        /* \"LEARNING_SOLIDITY/Mapping.sol\":1243:1580  function get(address _addr1, uint _i) public view returns (bool) {... */\n    tag_13:\n      tag_61\n      0x04\n      dup1\n      calldatasize\n      sub\n      dup2\n      add\n      swap1\n      tag_62\n      swap2\n      swap1\n      tag_28\n      jump\t// in\n    tag_62:\n      tag_63\n      jump\t// in\n    tag_61:\n      mload(0x40)\n      tag_64\n      swap2\n      swap1\n      tag_31\n      jump\t// in\n    tag_64:\n      mload(0x40)\n      dup1\n      swap2\n      sub\n      swap1\n      return\n        /* \"LEARNING_SOLIDITY/Mapping.sol\":940:1235  function get(address _addr) public view returns (uint) {... */\n    tag_14:\n      tag_65\n      0x04\n      dup1\n      calldatasize\n      sub\n      dup2\n      add\n      swap1\n      tag_66\n      swap2\n      swap1\n      tag_34\n      jump\t// in\n    tag_66:\n      tag_67\n      jump\t// in\n    tag_65:\n      mload(0x40)\n      tag_68\n      swap2\n      swap1\n      tag_37\n      jump\t// in\n    tag_68:\n      mload(0x40)\n      dup1\n      swap2\n      sub\n      swap1\n      return\n        /* \"LEARNING_SOLIDITY/Mapping.sol\":3692:3749  mapping (address => mapping(uint => Book)) public MyBooks */\n    tag_15:\n      tag_69\n      0x04\n      dup1\n      calldatasize\n      sub\n      dup2\n      add\n      swap1\n      tag_70\n      swap2\n      swap1\n      tag_28\n      jump\t// in\n    tag_70:\n      tag_71\n      jump\t// in\n    tag_69:\n      mload(0x40)\n      tag_72\n      swap3\n      swap2\n      swap1\n      tag_57\n      jump\t// in\n    tag_72:\n      mload(0x40)\n      dup1\n      swap2\n      sub\n      swap1\n      return\n        /* \"LEARNING_SOLIDITY/Mapping.sol\":3313:3684  function addBook(uint _id,... */\n    tag_21:\n        /* \"LEARNING_SOLIDITY/Mapping.sol\":3544:3564  Book(_title, author) */\n      mload(0x40)\n      dup1\n      0x40\n      add\n      0x40\n      mstore\n      dup1\n        /* \"LEARNING_SOLIDITY/Mapping.sol\":3549:3555  _title */\n      dup4\n        /* \"LEARNING_SOLIDITY/Mapping.sol\":3544:3564  Book(_title, author) */\n      dup2\n      mstore\n      0x20\n      add\n        /* \"LEARNING_SOLIDITY/Mapping.sol\":3557:3563  author */\n      dup3\n        /* \"LEARNING_SOLIDITY/Mapping.sol\":3544:3564  Book(_title, author) */\n      dup2\n      mstore\n      pop\n        /* \"LEARNING_SOLIDITY/Mapping.sol\":3531:3536  books */\n      0x03\n        /* \"LEARNING_SOLIDITY/Mapping.sol\":3531:3541  books[_id] */\n      0x00\n        /* \"LEARNING_SOLIDITY/Mapping.sol\":3537:3540  _id */\n      dup6\n        /* \"LEARNING_SOLIDITY/Mapping.sol\":3531:3541  books[_id] */\n      dup2\n      mstore\n      0x20\n      add\n      swap1\n      dup2\n      mstore\n      0x20\n      add\n      0x00\n      keccak256\n        /* \"LEARNING_SOLIDITY/Mapping.sol\":3531:3564  books[_id] = Book(_title, author) */\n      0x00\n      dup3\n      add\n      mload\n      dup2\n      0x00\n      add\n      swap1\n      dup2\n      tag_74\n      swap2\n      swap1\n      tag_75\n      jump\t// in\n    tag_74:\n      pop\n      0x20\n      dup3\n      add\n      mload\n      dup2\n      0x01\n      add\n      swap1\n      dup2\n      tag_76\n      swap2\n      swap1\n      tag_75\n      jump\t// in\n    tag_76:\n      pop\n      swap1\n      pop\n      pop\n        /* \"LEARNING_SOLIDITY/Mapping.sol\":3313:3684  function addBook(uint _id,... */\n      pop\n      pop\n      pop\n      jump\t// out\n        /* \"LEARNING_SOLIDITY/Mapping.sol\":1588:1924  function set(... */\n    tag_25:\n        /* \"LEARNING_SOLIDITY/Mapping.sol\":1799:1803  _boo */\n      dup1\n        /* \"LEARNING_SOLIDITY/Mapping.sol\":1775:1784  nestedMap */\n      0x02\n        /* \"LEARNING_SOLIDITY/Mapping.sol\":1775:1792  nestedMap[_addr1] */\n      0x00\n        /* \"LEARNING_SOLIDITY/Mapping.sol\":1785:1791  _addr1 */\n      dup6\n        /* \"LEARNING_SOLIDITY/Mapping.sol\":1775:1792  nestedMap[_addr1] */\n      0xffffffffffffffffffffffffffffffffffffffff\n      and\n      0xffffffffffffffffffffffffffffffffffffffff\n      and\n      dup2\n      mstore\n      0x20\n      add\n      swap1\n      dup2\n      mstore\n      0x20\n      add\n      0x00\n      keccak256\n        /* \"LEARNING_SOLIDITY/Mapping.sol\":1775:1796  nestedMap[_addr1][_i] */\n      0x00\n        /* \"LEARNING_SOLIDITY/Mapping.sol\":1793:1795  _i */\n      dup5\n        /* \"LEARNING_SOLIDITY/Mapping.sol\":1775:1796  nestedMap[_addr1][_i] */\n      dup2\n      mstore\n      0x20\n      add\n      swap1\n      dup2\n      mstore\n      0x20\n      add\n      0x00\n      keccak256\n      0x00\n        /* \"LEARNING_SOLIDITY/Mapping.sol\":1775:1803  nestedMap[_addr1][_i] = _boo */\n      0x0100\n      exp\n      dup2\n      sload\n      dup2\n      0xff\n      mul\n      not\n      and\n      swap1\n      dup4\n      iszero\n      iszero\n      mul\n      or\n      swap1\n      sstore\n      pop\n        /* \"LEARNING_SOLIDITY/Mapping.sol\":1588:1924  function set(... */\n      pop\n      pop\n      pop\n      jump\t// out\n        /* \"LEARNING_SOLIDITY/Mapping.sol\":741:799  mapping(address => mapping(uint => bool)) public nestedMap */\n    tag_29:\n      mstore(0x20, 0x02)\n      dup2\n      0x00\n      mstore\n      mstore(0x20, keccak256(0x00, 0x40))\n      dup1\n      0x00\n      mstore\n      keccak256(0x00, 0x40)\n      0x00\n      swap2\n      pop\n      swap2\n      pop\n      swap1\n      sload\n      swap1\n      0x0100\n      exp\n      swap1\n      div\n      0xff\n      and\n      dup2\n      jump\t// out\n        /* \"LEARNING_SOLIDITY/Mapping.sol\":393:430  mapping(address => uint) public myMap */\n    tag_35:\n      mstore(0x20, 0x00)\n      dup1\n      0x00\n      mstore\n      keccak256(0x00, 0x40)\n      0x00\n      swap2\n      pop\n      swap1\n      pop\n      sload\n      dup2\n      jump\t// out\n        /* \"LEARNING_SOLIDITY/Mapping.sol\":2485:2734  function remove(address _addr) public {... */\n    tag_40:\n        /* \"LEARNING_SOLIDITY/Mapping.sol\":2630:2635  myMap */\n      0x00\n        /* \"LEARNING_SOLIDITY/Mapping.sol\":2630:2642  myMap[_addr] */\n      dup1\n        /* \"LEARNING_SOLIDITY/Mapping.sol\":2636:2641  _addr */\n      dup3\n        /* \"LEARNING_SOLIDITY/Mapping.sol\":2630:2642  myMap[_addr] */\n      0xffffffffffffffffffffffffffffffffffffffff\n      and\n      0xffffffffffffffffffffffffffffffffffffffff\n      and\n      dup2\n      mstore\n      0x20\n      add\n      swap1\n      dup2\n      mstore\n      0x20\n      add\n      0x00\n      keccak256\n        /* \"LEARNING_SOLIDITY/Mapping.sol\":2623:2642  delete myMap[_addr] */\n      0x00\n      swap1\n      sstore\n        /* \"LEARNING_SOLIDITY/Mapping.sol\":2485:2734  function remove(address _addr) public {... */\n      pop\n      jump\t// out\n        /* \"LEARNING_SOLIDITY/Mapping.sol\":2221:2477  function set(address _addr, uint _i) public {... */\n    tag_43:\n        /* \"LEARNING_SOLIDITY/Mapping.sol\":2385:2387  _i */\n      dup1\n        /* \"LEARNING_SOLIDITY/Mapping.sol\":2370:2375  myMap */\n      0x00\n        /* \"LEARNING_SOLIDITY/Mapping.sol\":2370:2382  myMap[_addr] */\n      dup1\n        /* \"LEARNING_SOLIDITY/Mapping.sol\":2376:2381  _addr */\n      dup5\n        /* \"LEARNING_SOLIDITY/Mapping.sol\":2370:2382  myMap[_addr] */\n      0xffffffffffffffffffffffffffffffffffffffff\n      and\n      0xffffffffffffffffffffffffffffffffffffffff\n      and\n      dup2\n      mstore\n      0x20\n      add\n      swap1\n      dup2\n      mstore\n      0x20\n      add\n      0x00\n      keccak256\n        /* \"LEARNING_SOLIDITY/Mapping.sol\":2370:2387  myMap[_addr] = _i */\n      dup2\n      swap1\n      sstore\n      pop\n        /* \"LEARNING_SOLIDITY/Mapping.sol\":2221:2477  function set(address _addr, uint _i) public {... */\n      pop\n      pop\n      jump\t// out\n        /* \"LEARNING_SOLIDITY/Mapping.sol\":529:565  mapping(uint => string) public names */\n    tag_47:\n      mstore(0x20, 0x01)\n      dup1\n      0x00\n      mstore\n      keccak256(0x00, 0x40)\n      0x00\n      swap2\n      pop\n      swap1\n      pop\n      dup1\n      sload\n      tag_80\n      swap1\n      tag_81\n      jump\t// in\n    tag_80:\n      dup1\n      0x1f\n      add\n      0x20\n      dup1\n      swap2\n      div\n      mul\n      0x20\n      add\n      mload(0x40)\n      swap1\n      dup2\n      add\n      0x40\n      mstore\n      dup1\n      swap3\n      swap2\n      swap1\n      dup2\n      dup2\n      mstore\n      0x20\n      add\n      dup3\n      dup1\n      sload\n      tag_82\n      swap1\n      tag_81\n      jump\t// in\n    tag_82:\n      dup1\n      iszero\n      tag_83\n      jumpi\n      dup1\n      0x1f\n      lt\n      tag_84\n      jumpi\n      0x0100\n      dup1\n      dup4\n      sload\n      div\n      mul\n      dup4\n      mstore\n      swap2\n      0x20\n      add\n      swap2\n      jump(tag_83)\n    tag_84:\n      dup3\n      add\n      swap2\n      swap1\n      0x00\n      mstore\n      keccak256(0x00, 0x20)\n      swap1\n    tag_85:\n      dup2\n      sload\n      dup2\n      mstore\n      swap1\n      0x01\n      add\n      swap1\n      0x20\n      add\n      dup1\n      dup4\n      gt\n      tag_85\n      jumpi\n      dup3\n      swap1\n      sub\n      0x1f\n      and\n      dup3\n      add\n      swap2\n    tag_83:\n      pop\n      pop\n      pop\n      pop\n      pop\n      dup2\n      jump\t// out\n        /* \"LEARNING_SOLIDITY/Mapping.sol\":3877:4288  function addMyBook(uint _id,... */\n    tag_52:\n        /* \"LEARNING_SOLIDITY/Mapping.sol\":4132:4152  Book(_title, author) */\n      mload(0x40)\n      dup1\n      0x40\n      add\n      0x40\n      mstore\n      dup1\n        /* \"LEARNING_SOLIDITY/Mapping.sol\":4137:4143  _title */\n      dup4\n        /* \"LEARNING_SOLIDITY/Mapping.sol\":4132:4152  Book(_title, author) */\n      dup2\n      mstore\n      0x20\n      add\n        /* \"LEARNING_SOLIDITY/Mapping.sol\":4145:4151  author */\n      dup3\n        /* \"LEARNING_SOLIDITY/Mapping.sol\":4132:4152  Book(_title, author) */\n      dup2\n      mstore\n      pop\n        /* \"LEARNING_SOLIDITY/Mapping.sol\":4105:4112  MyBooks */\n      0x04\n        /* \"LEARNING_SOLIDITY/Mapping.sol\":4105:4124  MyBooks[msg.sender] */\n      0x00\n        /* \"LEARNING_SOLIDITY/Mapping.sol\":4113:4123  msg.sender */\n      caller\n        /* \"LEARNING_SOLIDITY/Mapping.sol\":4105:4124  MyBooks[msg.sender] */\n      0xffffffffffffffffffffffffffffffffffffffff\n      and\n      0xffffffffffffffffffffffffffffffffffffffff\n      and\n      dup2\n      mstore\n      0x20\n      add\n      swap1\n      dup2\n      mstore\n      0x20\n      add\n      0x00\n      keccak256\n        /* \"LEARNING_SOLIDITY/Mapping.sol\":4105:4129  MyBooks[msg.sender][_id] */\n      0x00\n        /* \"LEARNING_SOLIDITY/Mapping.sol\":4125:4128  _id */\n      dup6\n        /* \"LEARNING_SOLIDITY/Mapping.sol\":4105:4129  MyBooks[msg.sender][_id] */\n      dup2\n      mstore\n      0x20\n      add\n      swap1\n      dup2\n      mstore\n      0x20\n      add\n      0x00\n      keccak256\n        /* \"LEARNING_SOLIDITY/Mapping.sol\":4105:4152  MyBooks[msg.sender][_id] = Book(_title, author) */\n      0x00\n      dup3\n      add\n      mload\n      dup2\n      0x00\n      add\n      swap1\n      dup2\n      tag_87\n      swap2\n      swap1\n      tag_75\n      jump\t// in\n    tag_87:\n      pop\n      0x20\n      dup3\n      add\n      mload\n      dup2\n      0x01\n      add\n      swap1\n      dup2\n      tag_88\n      swap2\n      swap1\n      tag_75\n      jump\t// in\n    tag_88:\n      pop\n      swap1\n      pop\n      pop\n        /* \"LEARNING_SOLIDITY/Mapping.sol\":3877:4288  function addMyBook(uint _id,... */\n      pop\n      pop\n      pop\n      jump\t// out\n        /* \"LEARNING_SOLIDITY/Mapping.sol\":3044:3078  mapping(uint => Book) public books */\n    tag_55:\n      mstore(0x20, 0x03)\n      dup1\n      0x00\n      mstore\n      keccak256(0x00, 0x40)\n      0x00\n      swap2\n      pop\n      swap1\n      pop\n      dup1\n      0x00\n      add\n      dup1\n      sload\n      tag_89\n      swap1\n      tag_81\n      jump\t// in\n    tag_89:\n      dup1\n      0x1f\n      add\n      0x20\n      dup1\n      swap2\n      div\n      mul\n      0x20\n      add\n      mload(0x40)\n      swap1\n      dup2\n      add\n      0x40\n      mstore\n      dup1\n      swap3\n      swap2\n      swap1\n      dup2\n      dup2\n      mstore\n      0x20\n      add\n      dup3\n      dup1\n      sload\n      tag_90\n      swap1\n      tag_81\n      jump\t// in\n    tag_90:\n      dup1\n      iszero\n      tag_91\n      jumpi\n      dup1\n      0x1f\n      lt\n      tag_92\n      jumpi\n      0x0100\n      dup1\n      dup4\n      sload\n      div\n      mul\n      dup4\n      mstore\n      swap2\n      0x20\n      add\n      swap2\n      jump(tag_91)\n    tag_92:\n      dup3\n      add\n      swap2\n      swap1\n      0x00\n      mstore\n      keccak256(0x00, 0x20)\n      swap1\n    tag_93:\n      dup2\n      sload\n      dup2\n      mstore\n      swap1\n      0x01\n      add\n      swap1\n      0x20\n      add\n      dup1\n      dup4\n      gt\n      tag_93\n      jumpi\n      dup3\n      swap1\n      sub\n      0x1f\n      and\n      dup3\n      add\n      swap2\n    tag_91:\n      pop\n      pop\n      pop\n      pop\n      pop\n      swap1\n      dup1\n      0x01\n      add\n      dup1\n      sload\n      tag_94\n      swap1\n      tag_81\n      jump\t// in\n    tag_94:\n      dup1\n      0x1f\n      add\n      0x20\n      dup1\n      swap2\n      div\n      mul\n      0x20\n      add\n      mload(0x40)\n      swap1\n      dup2\n      add\n      0x40\n      mstore\n      dup1\n      swap3\n      swap2\n      swap1\n      dup2\n      dup2\n      mstore\n      0x20\n      add\n      dup3\n      dup1\n      sload\n      tag_95\n      swap1\n      tag_81\n      jump\t// in\n    tag_95:\n      dup1\n      iszero\n      tag_96\n      jumpi\n      dup1\n      0x1f\n      lt\n      tag_97\n      jumpi\n      0x0100\n      dup1\n      dup4\n      sload\n      div\n      mul\n      dup4\n      mstore\n      swap2\n      0x20\n      add\n      swap2\n      jump(tag_96)\n    tag_97:\n      dup3\n      add\n      swap2\n      swap1\n      0x00\n      mstore\n      keccak256(0x00, 0x20)\n      swap1\n    tag_98:\n      dup2\n      sload\n      dup2\n      mstore\n      swap1\n      0x01\n      add\n      swap1\n      0x20\n      add\n      dup1\n      dup4\n      gt\n      tag_98\n      jumpi\n      dup3\n      swap1\n      sub\n      0x1f\n      and\n      dup3\n      add\n      swap2\n    tag_96:\n      pop\n      pop\n      pop\n      pop\n      pop\n      swap1\n      pop\n      dup3\n      jump\t// out\n        /* \"LEARNING_SOLIDITY/Mapping.sol\":1932:2213  function remove(address _addr1, uint _i) public {... */\n    tag_60:\n        /* \"LEARNING_SOLIDITY/Mapping.sol\":2081:2090  nestedMap */\n      0x02\n        /* \"LEARNING_SOLIDITY/Mapping.sol\":2081:2098  nestedMap[_addr1] */\n      0x00\n        /* \"LEARNING_SOLIDITY/Mapping.sol\":2091:2097  _addr1 */\n      dup4\n        /* \"LEARNING_SOLIDITY/Mapping.sol\":2081:2098  nestedMap[_addr1] */\n      0xffffffffffffffffffffffffffffffffffffffff\n      and\n      0xffffffffffffffffffffffffffffffffffffffff\n      and\n      dup2\n      mstore\n      0x20\n      add\n      swap1\n      dup2\n      mstore\n      0x20\n      add\n      0x00\n      keccak256\n        /* \"LEARNING_SOLIDITY/Mapping.sol\":2081:2102  nestedMap[_addr1][_i] */\n      0x00\n        /* \"LEARNING_SOLIDITY/Mapping.sol\":2099:2101  _i */\n      dup3\n        /* \"LEARNING_SOLIDITY/Mapping.sol\":2081:2102  nestedMap[_addr1][_i] */\n      dup2\n      mstore\n      0x20\n      add\n      swap1\n      dup2\n      mstore\n      0x20\n      add\n      0x00\n      keccak256\n      0x00\n        /* \"LEARNING_SOLIDITY/Mapping.sol\":2074:2102  delete nestedMap[_addr1][_i] */\n      0x0100\n      exp\n      dup2\n      sload\n      swap1\n      0xff\n      mul\n      not\n      and\n      swap1\n      sstore\n        /* \"LEARNING_SOLIDITY/Mapping.sol\":1932:2213  function remove(address _addr1, uint _i) public {... */\n      pop\n      pop\n      jump\t// out\n        /* \"LEARNING_SOLIDITY/Mapping.sol\":1243:1580  function get(address _addr1, uint _i) public view returns (bool) {... */\n    tag_63:\n        /* \"LEARNING_SOLIDITY/Mapping.sol\":1302:1306  bool */\n      0x00\n        /* \"LEARNING_SOLIDITY/Mapping.sol\":1416:1425  nestedMap */\n      0x02\n        /* \"LEARNING_SOLIDITY/Mapping.sol\":1416:1433  nestedMap[_addr1] */\n      0x00\n        /* \"LEARNING_SOLIDITY/Mapping.sol\":1426:1432  _addr1 */\n      dup5\n        /* \"LEARNING_SOLIDITY/Mapping.sol\":1416:1433  nestedMap[_addr1] */\n      0xffffffffffffffffffffffffffffffffffffffff\n      and\n      0xffffffffffffffffffffffffffffffffffffffff\n      and\n      dup2\n      mstore\n      0x20\n      add\n      swap1\n      dup2\n      mstore\n      0x20\n      add\n      0x00\n      keccak256\n        /* \"LEARNING_SOLIDITY/Mapping.sol\":1416:1437  nestedMap[_addr1][_i] */\n      0x00\n        /* \"LEARNING_SOLIDITY/Mapping.sol\":1434:1436  _i */\n      dup4\n        /* \"LEARNING_SOLIDITY/Mapping.sol\":1416:1437  nestedMap[_addr1][_i] */\n      dup2\n      mstore\n      0x20\n      add\n      swap1\n      dup2\n      mstore\n      0x20\n      add\n      0x00\n      keccak256\n      0x00\n      swap1\n      sload\n      swap1\n      0x0100\n      exp\n      swap1\n      div\n      0xff\n      and\n        /* \"LEARNING_SOLIDITY/Mapping.sol\":1409:1437  return nestedMap[_addr1][_i] */\n      swap1\n      pop\n        /* \"LEARNING_SOLIDITY/Mapping.sol\":1243:1580  function get(address _addr1, uint _i) public view returns (bool) {... */\n      swap3\n      swap2\n      pop\n      pop\n      jump\t// out\n        /* \"LEARNING_SOLIDITY/Mapping.sol\":940:1235  function get(address _addr) public view returns (uint) {... */\n    tag_67:\n        /* \"LEARNING_SOLIDITY/Mapping.sol\":989:993  uint */\n      0x00\n        /* \"LEARNING_SOLIDITY/Mapping.sol\":1099:1104  myMap */\n      dup1\n        /* \"LEARNING_SOLIDITY/Mapping.sol\":1099:1111  myMap[_addr] */\n      0x00\n        /* \"LEARNING_SOLIDITY/Mapping.sol\":1105:1110  _addr */\n      dup4\n        /* \"LEARNING_SOLIDITY/Mapping.sol\":1099:1111  myMap[_addr] */\n      0xffffffffffffffffffffffffffffffffffffffff\n      and\n      0xffffffffffffffffffffffffffffffffffffffff\n      and\n      dup2\n      mstore\n      0x20\n      add\n      swap1\n      dup2\n      mstore\n      0x20\n      add\n      0x00\n      keccak256\n      sload\n        /* \"LEARNING_SOLIDITY/Mapping.sol\":1092:1111  return myMap[_addr] */\n      swap1\n      pop\n        /* \"LEARNING_SOLIDITY/Mapping.sol\":940:1235  function get(address _addr) public view returns (uint) {... */\n      swap2\n      swap1\n      pop\n      jump\t// out\n        /* \"LEARNING_SOLIDITY/Mapping.sol\":3692:3749  mapping (address => mapping(uint => Book)) public MyBooks */\n    tag_71:\n      mstore(0x20, 0x04)\n      dup2\n      0x00\n      mstore\n      mstore(0x20, keccak256(0x00, 0x40))\n      dup1\n      0x00\n      mstore\n      keccak256(0x00, 0x40)\n      0x00\n      swap2\n      pop\n      swap2\n      pop\n      pop\n      dup1\n      0x00\n      add\n      dup1\n      sload\n      tag_102\n      swap1\n      tag_81\n      jump\t// in\n    tag_102:\n      dup1\n      0x1f\n      add\n      0x20\n      dup1\n      swap2\n      div\n      mul\n      0x20\n      add\n      mload(0x40)\n      swap1\n      dup2\n      add\n      0x40\n      mstore\n      dup1\n      swap3\n      swap2\n      swap1\n      dup2\n      dup2\n      mstore\n      0x20\n      add\n      dup3\n      dup1\n      sload\n      tag_103\n      swap1\n      tag_81\n      jump\t// in\n    tag_103:\n      dup1\n      iszero\n      tag_104\n      jumpi\n      dup1\n      0x1f\n      lt\n      tag_105\n      jumpi\n      0x0100\n      dup1\n      dup4\n      sload\n      div\n      mul\n      dup4\n      mstore\n      swap2\n      0x20\n      add\n      swap2\n      jump(tag_104)\n    tag_105:\n      dup3\n      add\n      swap2\n      swap1\n      0x00\n      mstore\n      keccak256(0x00, 0x20)\n      swap1\n    tag_106:\n      dup2\n      sload\n      dup2\n      mstore\n      swap1\n      0x01\n      add\n      swap1\n      0x20\n      add\n      dup1\n      dup4\n      gt\n      tag_106\n      jumpi\n      dup3\n      swap1\n      sub\n      0x1f\n      and\n      dup3\n      add\n      swap2\n    tag_104:\n      pop\n      pop\n      pop\n      pop\n      pop\n      swap1\n      dup1\n      0x01\n      add\n      dup1\n      sload\n      tag_107\n      swap1\n      tag_81\n      jump\t// in\n    tag_107:\n      dup1\n      0x1f\n      add\n      0x20\n      dup1\n      swap2\n      div\n      mul\n      0x20\n      add\n      mload(0x40)\n      swap1\n      dup2\n      add\n      0x40\n      mstore\n      dup1\n      swap3\n      swap2\n      swap1\n      dup2\n      dup2\n      mstore\n      0x20\n      add\n      dup3\n      dup1\n      sload\n      tag_108\n      swap1\n      tag_81\n      jump\t// in\n    tag_108:\n      dup1\n      iszero\n      tag_109\n      jumpi\n      dup1\n      0x1f\n      lt\n      tag_110\n      jumpi\n      0x0100\n      dup1\n      dup4\n      sload\n      div\n      mul\n      dup4\n      mstore\n      swap2\n      0x20\n      add\n      swap2\n      jump(tag_109)\n    tag_110:\n      dup3\n      add\n      swap2\n      swap1\n      0x00\n      mstore\n      keccak256(0x00, 0x20)\n      swap1\n    tag_111:\n      dup2\n      sload\n      dup2\n      mstore\n      swap1\n      0x01\n      add\n      swap1\n      0x20\n      add\n      dup1\n      dup4\n      gt\n      tag_111\n      jumpi\n      dup3\n      swap1\n      sub\n      0x1f\n      and\n      dup3\n      add\n      swap2\n    tag_109:\n      pop\n      pop\n      pop\n      pop\n      pop\n      swap1\n      pop\n      dup3\n      jump\t// out\n        /* \"#utility.yul\":7:82   */\n    tag_112:\n        /* \"#utility.yul\":40:46   */\n      0x00\n        /* \"#utility.yul\":73:75   */\n      0x40\n        /* \"#utility.yul\":67:76   */\n      mload\n        /* \"#utility.yul\":57:76   */\n      swap1\n      pop\n        /* \"#utility.yul\":7:82   */\n      swap1\n      jump\t// out\n        /* \"#utility.yul\":88:205   */\n    tag_113:\n        /* \"#utility.yul\":197:198   */\n      0x00\n        /* \"#utility.yul\":194:195   */\n      dup1\n        /* \"#utility.yul\":187:199   */\n      revert\n        /* \"#utility.yul\":211:328   */\n    tag_114:\n        /* \"#utility.yul\":320:321   */\n      0x00\n        /* \"#utility.yul\":317:318   */\n      dup1\n        /* \"#utility.yul\":310:322   */\n      revert\n        /* \"#utility.yul\":334:411   */\n    tag_115:\n        /* \"#utility.yul\":371:378   */\n      0x00\n        /* \"#utility.yul\":400:405   */\n      dup2\n        /* \"#utility.yul\":389:405   */\n      swap1\n      pop\n        /* \"#utility.yul\":334:411   */\n      swap2\n      swap1\n      pop\n      jump\t// out\n        /* \"#utility.yul\":417:539   */\n    tag_116:\n        /* \"#utility.yul\":490:514   */\n      tag_163\n        /* \"#utility.yul\":508:513   */\n      dup2\n        /* \"#utility.yul\":490:514   */\n      tag_115\n      jump\t// in\n    tag_163:\n        /* \"#utility.yul\":483:488   */\n      dup2\n        /* \"#utility.yul\":480:515   */\n      eq\n        /* \"#utility.yul\":470:533   */\n      tag_164\n      jumpi\n        /* \"#utility.yul\":529:530   */\n      0x00\n        /* \"#utility.yul\":526:527   */\n      dup1\n        /* \"#utility.yul\":519:531   */\n      revert\n        /* \"#utility.yul\":470:533   */\n    tag_164:\n        /* \"#utility.yul\":417:539   */\n      pop\n      jump\t// out\n        /* \"#utility.yul\":545:684   */\n    tag_117:\n        /* \"#utility.yul\":591:596   */\n      0x00\n        /* \"#utility.yul\":629:635   */\n      dup2\n        /* \"#utility.yul\":616:636   */\n      calldataload\n        /* \"#utility.yul\":607:636   */\n      swap1\n      pop\n        /* \"#utility.yul\":645:678   */\n      tag_166\n        /* \"#utility.yul\":672:677   */\n      dup2\n        /* \"#utility.yul\":645:678   */\n      tag_116\n      jump\t// in\n    tag_166:\n        /* \"#utility.yul\":545:684   */\n      swap3\n      swap2\n      pop\n      pop\n      jump\t// out\n        /* \"#utility.yul\":690:807   */\n    tag_118:\n        /* \"#utility.yul\":799:800   */\n      0x00\n        /* \"#utility.yul\":796:797   */\n      dup1\n        /* \"#utility.yul\":789:801   */\n      revert\n        /* \"#utility.yul\":813:930   */\n    tag_119:\n        /* \"#utility.yul\":922:923   */\n      0x00\n        /* \"#utility.yul\":919:920   */\n      dup1\n        /* \"#utility.yul\":912:924   */\n      revert\n        /* \"#utility.yul\":936:1038   */\n    tag_120:\n        /* \"#utility.yul\":977:983   */\n      0x00\n        /* \"#utility.yul\":1028:1030   */\n      0x1f\n        /* \"#utility.yul\":1024:1031   */\n      not\n        /* \"#utility.yul\":1019:1021   */\n      0x1f\n        /* \"#utility.yul\":1012:1017   */\n      dup4\n        /* \"#utility.yul\":1008:1022   */\n      add\n        /* \"#utility.yul\":1004:1032   */\n      and\n        /* \"#utility.yul\":994:1032   */\n      swap1\n      pop\n        /* \"#utility.yul\":936:1038   */\n      swap2\n      swap1\n      pop\n      jump\t// out\n        /* \"#utility.yul\":1044:1224   */\n    tag_121:\n        /* \"#utility.yul\":1092:1169   */\n      0x4e487b7100000000000000000000000000000000000000000000000000000000\n        /* \"#utility.yul\":1089:1090   */\n      0x00\n        /* \"#utility.yul\":1082:1170   */\n      mstore\n        /* \"#utility.yul\":1189:1193   */\n      0x41\n        /* \"#utility.yul\":1186:1187   */\n      0x04\n        /* \"#utility.yul\":1179:1194   */\n      mstore\n        /* \"#utility.yul\":1213:1217   */\n      0x24\n        /* \"#utility.yul\":1210:1211   */\n      0x00\n        /* \"#utility.yul\":1203:1218   */\n      revert\n        /* \"#utility.yul\":1230:1511   */\n    tag_122:\n        /* \"#utility.yul\":1313:1340   */\n      tag_172\n        /* \"#utility.yul\":1335:1339   */\n      dup3\n        /* \"#utility.yul\":1313:1340   */\n      tag_120\n      jump\t// in\n    tag_172:\n        /* \"#utility.yul\":1305:1311   */\n      dup2\n        /* \"#utility.yul\":1301:1341   */\n      add\n        /* \"#utility.yul\":1443:1449   */\n      dup2\n        /* \"#utility.yul\":1431:1441   */\n      dup2\n        /* \"#utility.yul\":1428:1450   */\n      lt\n        /* \"#utility.yul\":1407:1425   */\n      0xffffffffffffffff\n        /* \"#utility.yul\":1395:1405   */\n      dup3\n        /* \"#utility.yul\":1392:1426   */\n      gt\n        /* \"#utility.yul\":1389:1451   */\n      or\n        /* \"#utility.yul\":1386:1474   */\n      iszero\n      tag_173\n      jumpi\n        /* \"#utility.yul\":1454:1472   */\n      tag_174\n      tag_121\n      jump\t// in\n    tag_174:\n        /* \"#utility.yul\":1386:1474   */\n    tag_173:\n        /* \"#utility.yul\":1494:1504   */\n      dup1\n        /* \"#utility.yul\":1490:1492   */\n      0x40\n        /* \"#utility.yul\":1483:1505   */\n      mstore\n        /* \"#utility.yul\":1273:1511   */\n      pop\n        /* \"#utility.yul\":1230:1511   */\n      pop\n      pop\n      jump\t// out\n        /* \"#utility.yul\":1517:1646   */\n    tag_123:\n        /* \"#utility.yul\":1551:1557   */\n      0x00\n        /* \"#utility.yul\":1578:1598   */\n      tag_176\n      tag_112\n      jump\t// in\n    tag_176:\n        /* \"#utility.yul\":1568:1598   */\n      swap1\n      pop\n        /* \"#utility.yul\":1607:1640   */\n      tag_177\n        /* \"#utility.yul\":1635:1639   */\n      dup3\n        /* \"#utility.yul\":1627:1633   */\n      dup3\n        /* \"#utility.yul\":1607:1640   */\n      tag_122\n      jump\t// in\n    tag_177:\n        /* \"#utility.yul\":1517:1646   */\n      swap2\n      swap1\n      pop\n      jump\t// out\n        /* \"#utility.yul\":1652:1960   */\n    tag_124:\n        /* \"#utility.yul\":1714:1718   */\n      0x00\n        /* \"#utility.yul\":1804:1822   */\n      0xffffffffffffffff\n        /* \"#utility.yul\":1796:1802   */\n      dup3\n        /* \"#utility.yul\":1793:1823   */\n      gt\n        /* \"#utility.yul\":1790:1846   */\n      iszero\n      tag_179\n      jumpi\n        /* \"#utility.yul\":1826:1844   */\n      tag_180\n      tag_121\n      jump\t// in\n    tag_180:\n        /* \"#utility.yul\":1790:1846   */\n    tag_179:\n        /* \"#utility.yul\":1864:1893   */\n      tag_181\n        /* \"#utility.yul\":1886:1892   */\n      dup3\n        /* \"#utility.yul\":1864:1893   */\n      tag_120\n      jump\t// in\n    tag_181:\n        /* \"#utility.yul\":1856:1893   */\n      swap1\n      pop\n        /* \"#utility.yul\":1948:1952   */\n      0x20\n        /* \"#utility.yul\":1942:1946   */\n      dup2\n        /* \"#utility.yul\":1938:1953   */\n      add\n        /* \"#utility.yul\":1930:1953   */\n      swap1\n      pop\n        /* \"#utility.yul\":1652:1960   */\n      swap2\n      swap1\n      pop\n      jump\t// out\n        /* \"#utility.yul\":1966:2114   */\n    tag_125:\n        /* \"#utility.yul\":2064:2070   */\n      dup3\n        /* \"#utility.yul\":2059:2062   */\n      dup2\n        /* \"#utility.yul\":2054:2057   */\n      dup4\n        /* \"#utility.yul\":2041:2071   */\n      calldatacopy\n        /* \"#utility.yul\":2105:2106   */\n      0x00\n        /* \"#utility.yul\":2096:2102   */\n      dup4\n        /* \"#utility.yul\":2091:2094   */\n      dup4\n        /* \"#utility.yul\":2087:2103   */\n      add\n        /* \"#utility.yul\":2080:2107   */\n      mstore\n        /* \"#utility.yul\":1966:2114   */\n      pop\n      pop\n      pop\n      jump\t// out\n        /* \"#utility.yul\":2120:2545   */\n    tag_126:\n        /* \"#utility.yul\":2198:2203   */\n      0x00\n        /* \"#utility.yul\":2223:2289   */\n      tag_184\n        /* \"#utility.yul\":2239:2288   */\n      tag_185\n        /* \"#utility.yul\":2281:2287   */\n      dup5\n        /* \"#utility.yul\":2239:2288   */\n      tag_124\n      jump\t// in\n    tag_185:\n        /* \"#utility.yul\":2223:2289   */\n      tag_123\n      jump\t// in\n    tag_184:\n        /* \"#utility.yul\":2214:2289   */\n      swap1\n      pop\n        /* \"#utility.yul\":2312:2318   */\n      dup3\n        /* \"#utility.yul\":2305:2310   */\n      dup2\n        /* \"#utility.yul\":2298:2319   */\n      mstore\n        /* \"#utility.yul\":2350:2354   */\n      0x20\n        /* \"#utility.yul\":2343:2348   */\n      dup2\n        /* \"#utility.yul\":2339:2355   */\n      add\n        /* \"#utility.yul\":2388:2391   */\n      dup5\n        /* \"#utility.yul\":2379:2385   */\n      dup5\n        /* \"#utility.yul\":2374:2377   */\n      dup5\n        /* \"#utility.yul\":2370:2386   */\n      add\n        /* \"#utility.yul\":2367:2392   */\n      gt\n        /* \"#utility.yul\":2364:2476   */\n      iszero\n      tag_186\n      jumpi\n        /* \"#utility.yul\":2395:2474   */\n      tag_187\n      tag_119\n      jump\t// in\n    tag_187:\n        /* \"#utility.yul\":2364:2476   */\n    tag_186:\n        /* \"#utility.yul\":2485:2539   */\n      tag_188\n        /* \"#utility.yul\":2532:2538   */\n      dup5\n        /* \"#utility.yul\":2527:2530   */\n      dup3\n        /* \"#utility.yul\":2522:2525   */\n      dup6\n        /* \"#utility.yul\":2485:2539   */\n      tag_125\n      jump\t// in\n    tag_188:\n        /* \"#utility.yul\":2204:2545   */\n      pop\n        /* \"#utility.yul\":2120:2545   */\n      swap4\n      swap3\n      pop\n      pop\n      pop\n      jump\t// out\n        /* \"#utility.yul\":2565:2905   */\n    tag_127:\n        /* \"#utility.yul\":2621:2626   */\n      0x00\n        /* \"#utility.yul\":2670:2673   */\n      dup3\n        /* \"#utility.yul\":2663:2667   */\n      0x1f\n        /* \"#utility.yul\":2655:2661   */\n      dup4\n        /* \"#utility.yul\":2651:2668   */\n      add\n        /* \"#utility.yul\":2647:2674   */\n      slt\n        /* \"#utility.yul\":2637:2759   */\n      tag_190\n      jumpi\n        /* \"#utility.yul\":2678:2757   */\n      tag_191\n      tag_118\n      jump\t// in\n    tag_191:\n        /* \"#utility.yul\":2637:2759   */\n    tag_190:\n        /* \"#utility.yul\":2795:2801   */\n      dup2\n        /* \"#utility.yul\":2782:2802   */\n      calldataload\n        /* \"#utility.yul\":2820:2899   */\n      tag_192\n        /* \"#utility.yul\":2895:2898   */\n      dup5\n        /* \"#utility.yul\":2887:2893   */\n      dup3\n        /* \"#utility.yul\":2880:2884   */\n      0x20\n        /* \"#utility.yul\":2872:2878   */\n      dup7\n        /* \"#utility.yul\":2868:2885   */\n      add\n        /* \"#utility.yul\":2820:2899   */\n      tag_126\n      jump\t// in\n    tag_192:\n        /* \"#utility.yul\":2811:2899   */\n      swap2\n      pop\n        /* \"#utility.yul\":2627:2905   */\n      pop\n        /* \"#utility.yul\":2565:2905   */\n      swap3\n      swap2\n      pop\n      pop\n      jump\t// out\n        /* \"#utility.yul\":2911:3890   */\n    tag_20:\n        /* \"#utility.yul\":3008:3014   */\n      0x00\n        /* \"#utility.yul\":3016:3022   */\n      dup1\n        /* \"#utility.yul\":3024:3030   */\n      0x00\n        /* \"#utility.yul\":3073:3075   */\n      0x60\n        /* \"#utility.yul\":3061:3070   */\n      dup5\n        /* \"#utility.yul\":3052:3059   */\n      dup7\n        /* \"#utility.yul\":3048:3071   */\n      sub\n        /* \"#utility.yul\":3044:3076   */\n      slt\n        /* \"#utility.yul\":3041:3160   */\n      iszero\n      tag_194\n      jumpi\n        /* \"#utility.yul\":3079:3158   */\n      tag_195\n      tag_113\n      jump\t// in\n    tag_195:\n        /* \"#utility.yul\":3041:3160   */\n    tag_194:\n        /* \"#utility.yul\":3199:3200   */\n      0x00\n        /* \"#utility.yul\":3224:3277   */\n      tag_196\n        /* \"#utility.yul\":3269:3276   */\n      dup7\n        /* \"#utility.yul\":3260:3266   */\n      dup3\n        /* \"#utility.yul\":3249:3258   */\n      dup8\n        /* \"#utility.yul\":3245:3267   */\n      add\n        /* \"#utility.yul\":3224:3277   */\n      tag_117\n      jump\t// in\n    tag_196:\n        /* \"#utility.yul\":3214:3277   */\n      swap4\n      pop\n        /* \"#utility.yul\":3170:3287   */\n      pop\n        /* \"#utility.yul\":3354:3356   */\n      0x20\n        /* \"#utility.yul\":3343:3352   */\n      dup5\n        /* \"#utility.yul\":3339:3357   */\n      add\n        /* \"#utility.yul\":3326:3358   */\n      calldataload\n        /* \"#utility.yul\":3385:3403   */\n      0xffffffffffffffff\n        /* \"#utility.yul\":3377:3383   */\n      dup2\n        /* \"#utility.yul\":3374:3404   */\n      gt\n        /* \"#utility.yul\":3371:3488   */\n      iszero\n      tag_197\n      jumpi\n        /* \"#utility.yul\":3407:3486   */\n      tag_198\n      tag_114\n      jump\t// in\n    tag_198:\n        /* \"#utility.yul\":3371:3488   */\n    tag_197:\n        /* \"#utility.yul\":3512:3575   */\n      tag_199\n        /* \"#utility.yul\":3567:3574   */\n      dup7\n        /* \"#utility.yul\":3558:3564   */\n      dup3\n        /* \"#utility.yul\":3547:3556   */\n      dup8\n        /* \"#utility.yul\":3543:3565   */\n      add\n        /* \"#utility.yul\":3512:3575   */\n      tag_127\n      jump\t// in\n    tag_199:\n        /* \"#utility.yul\":3502:3575   */\n      swap3\n      pop\n        /* \"#utility.yul\":3297:3585   */\n      pop\n        /* \"#utility.yul\":3652:3654   */\n      0x40\n        /* \"#utility.yul\":3641:3650   */\n      dup5\n        /* \"#utility.yul\":3637:3655   */\n      add\n        /* \"#utility.yul\":3624:3656   */\n      calldataload\n        /* \"#utility.yul\":3683:3701   */\n      0xffffffffffffffff\n        /* \"#utility.yul\":3675:3681   */\n      dup2\n        /* \"#utility.yul\":3672:3702   */\n      gt\n        /* \"#utility.yul\":3669:3786   */\n      iszero\n      tag_200\n      jumpi\n        /* \"#utility.yul\":3705:3784   */\n      tag_201\n      tag_114\n      jump\t// in\n    tag_201:\n        /* \"#utility.yul\":3669:3786   */\n    tag_200:\n        /* \"#utility.yul\":3810:3873   */\n      tag_202\n        /* \"#utility.yul\":3865:3872   */\n      dup7\n        /* \"#utility.yul\":3856:3862   */\n      dup3\n        /* \"#utility.yul\":3845:3854   */\n      dup8\n        /* \"#utility.yul\":3841:3863   */\n      add\n        /* \"#utility.yul\":3810:3873   */\n      tag_127\n      jump\t// in\n    tag_202:\n        /* \"#utility.yul\":3800:3873   */\n      swap2\n      pop\n        /* \"#utility.yul\":3595:3883   */\n      pop\n        /* \"#utility.yul\":2911:3890   */\n      swap3\n      pop\n      swap3\n      pop\n      swap3\n      jump\t// out\n        /* \"#utility.yul\":3896:4022   */\n    tag_128:\n        /* \"#utility.yul\":3933:3940   */\n      0x00\n        /* \"#utility.yul\":3973:4015   */\n      0xffffffffffffffffffffffffffffffffffffffff\n        /* \"#utility.yul\":3966:3971   */\n      dup3\n        /* \"#utility.yul\":3962:4016   */\n      and\n        /* \"#utility.yul\":3951:4016   */\n      swap1\n      pop\n        /* \"#utility.yul\":3896:4022   */\n      swap2\n      swap1\n      pop\n      jump\t// out\n        /* \"#utility.yul\":4028:4124   */\n    tag_129:\n        /* \"#utility.yul\":4065:4072   */\n      0x00\n        /* \"#utility.yul\":4094:4118   */\n      tag_205\n        /* \"#utility.yul\":4112:4117   */\n      dup3\n        /* \"#utility.yul\":4094:4118   */\n      tag_128\n      jump\t// in\n    tag_205:\n        /* \"#utility.yul\":4083:4118   */\n      swap1\n      pop\n        /* \"#utility.yul\":4028:4124   */\n      swap2\n      swap1\n      pop\n      jump\t// out\n        /* \"#utility.yul\":4130:4252   */\n    tag_130:\n        /* \"#utility.yul\":4203:4227   */\n      tag_207\n        /* \"#utility.yul\":4221:4226   */\n      dup2\n        /* \"#utility.yul\":4203:4227   */\n      tag_129\n      jump\t// in\n    tag_207:\n        /* \"#utility.yul\":4196:4201   */\n      dup2\n        /* \"#utility.yul\":4193:4228   */\n      eq\n        /* \"#utility.yul\":4183:4246   */\n      tag_208\n      jumpi\n        /* \"#utility.yul\":4242:4243   */\n      0x00\n        /* \"#utility.yul\":4239:4240   */\n      dup1\n        /* \"#utility.yul\":4232:4244   */\n      revert\n        /* \"#utility.yul\":4183:4246   */\n    tag_208:\n        /* \"#utility.yul\":4130:4252   */\n      pop\n      jump\t// out\n        /* \"#utility.yul\":4258:4397   */\n    tag_131:\n        /* \"#utility.yul\":4304:4309   */\n      0x00\n        /* \"#utility.yul\":4342:4348   */\n      dup2\n        /* \"#utility.yul\":4329:4349   */\n      calldataload\n        /* \"#utility.yul\":4320:4349   */\n      swap1\n      pop\n        /* \"#utility.yul\":4358:4391   */\n      tag_210\n        /* \"#utility.yul\":4385:4390   */\n      dup2\n        /* \"#utility.yul\":4358:4391   */\n      tag_130\n      jump\t// in\n    tag_210:\n        /* \"#utility.yul\":4258:4397   */\n      swap3\n      swap2\n      pop\n      pop\n      jump\t// out\n        /* \"#utility.yul\":4403:4493   */\n    tag_132:\n        /* \"#utility.yul\":4437:4444   */\n      0x00\n        /* \"#utility.yul\":4480:4485   */\n      dup2\n        /* \"#utility.yul\":4473:4486   */\n      iszero\n        /* \"#utility.yul\":4466:4487   */\n      iszero\n        /* \"#utility.yul\":4455:4487   */\n      swap1\n      pop\n        /* \"#utility.yul\":4403:4493   */\n      swap2\n      swap1\n      pop\n      jump\t// out\n        /* \"#utility.yul\":4499:4615   */\n    tag_133:\n        /* \"#utility.yul\":4569:4590   */\n      tag_213\n        /* \"#utility.yul\":4584:4589   */\n      dup2\n        /* \"#utility.yul\":4569:4590   */\n      tag_132\n      jump\t// in\n    tag_213:\n        /* \"#utility.yul\":4562:4567   */\n      dup2\n        /* \"#utility.yul\":4559:4591   */\n      eq\n        /* \"#utility.yul\":4549:4609   */\n      tag_214\n      jumpi\n        /* \"#utility.yul\":4605:4606   */\n      0x00\n        /* \"#utility.yul\":4602:4603   */\n      dup1\n        /* \"#utility.yul\":4595:4607   */\n      revert\n        /* \"#utility.yul\":4549:4609   */\n    tag_214:\n        /* \"#utility.yul\":4499:4615   */\n      pop\n      jump\t// out\n        /* \"#utility.yul\":4621:4754   */\n    tag_134:\n        /* \"#utility.yul\":4664:4669   */\n      0x00\n        /* \"#utility.yul\":4702:4708   */\n      dup2\n        /* \"#utility.yul\":4689:4709   */\n      calldataload\n        /* \"#utility.yul\":4680:4709   */\n      swap1\n      pop\n        /* \"#utility.yul\":4718:4748   */\n      tag_216\n        /* \"#utility.yul\":4742:4747   */\n      dup2\n        /* \"#utility.yul\":4718:4748   */\n      tag_133\n      jump\t// in\n    tag_216:\n        /* \"#utility.yul\":4621:4754   */\n      swap3\n      swap2\n      pop\n      pop\n      jump\t// out\n        /* \"#utility.yul\":4760:5373   */\n    tag_24:\n        /* \"#utility.yul\":4834:4840   */\n      0x00\n        /* \"#utility.yul\":4842:4848   */\n      dup1\n        /* \"#utility.yul\":4850:4856   */\n      0x00\n        /* \"#utility.yul\":4899:4901   */\n      0x60\n        /* \"#utility.yul\":4887:4896   */\n      dup5\n        /* \"#utility.yul\":4878:4885   */\n      dup7\n        /* \"#utility.yul\":4874:4897   */\n      sub\n        /* \"#utility.yul\":4870:4902   */\n      slt\n        /* \"#utility.yul\":4867:4986   */\n      iszero\n      tag_218\n      jumpi\n        /* \"#utility.yul\":4905:4984   */\n      tag_219\n      tag_113\n      jump\t// in\n    tag_219:\n        /* \"#utility.yul\":4867:4986   */\n    tag_218:\n        /* \"#utility.yul\":5025:5026   */\n      0x00\n        /* \"#utility.yul\":5050:5103   */\n      tag_220\n        /* \"#utility.yul\":5095:5102   */\n      dup7\n        /* \"#utility.yul\":5086:5092   */\n      dup3\n        /* \"#utility.yul\":5075:5084   */\n      dup8\n        /* \"#utility.yul\":5071:5093   */\n      add\n        /* \"#utility.yul\":5050:5103   */\n      tag_131\n      jump\t// in\n    tag_220:\n        /* \"#utility.yul\":5040:5103   */\n      swap4\n      pop\n        /* \"#utility.yul\":4996:5113   */\n      pop\n        /* \"#utility.yul\":5152:5154   */\n      0x20\n        /* \"#utility.yul\":5178:5231   */\n      tag_221\n        /* \"#utility.yul\":5223:5230   */\n      dup7\n        /* \"#utility.yul\":5214:5220   */\n      dup3\n        /* \"#utility.yul\":5203:5212   */\n      dup8\n        /* \"#utility.yul\":5199:5221   */\n      add\n        /* \"#utility.yul\":5178:5231   */\n      tag_117\n      jump\t// in\n    tag_221:\n        /* \"#utility.yul\":5168:5231   */\n      swap3\n      pop\n        /* \"#utility.yul\":5123:5241   */\n      pop\n        /* \"#utility.yul\":5280:5282   */\n      0x40\n        /* \"#utility.yul\":5306:5356   */\n      tag_222\n        /* \"#utility.yul\":5348:5355   */\n      dup7\n        /* \"#utility.yul\":5339:5345   */\n      dup3\n        /* \"#utility.yul\":5328:5337   */\n      dup8\n        /* \"#utility.yul\":5324:5346   */\n      add\n        /* \"#utility.yul\":5306:5356   */\n      tag_134\n      jump\t// in\n    tag_222:\n        /* \"#utility.yul\":5296:5356   */\n      swap2\n      pop\n        /* \"#utility.yul\":5251:5366   */\n      pop\n        /* \"#utility.yul\":4760:5373   */\n      swap3\n      pop\n      swap3\n      pop\n      swap3\n      jump\t// out\n        /* \"#utility.yul\":5379:5853   */\n    tag_28:\n        /* \"#utility.yul\":5447:5453   */\n      0x00\n        /* \"#utility.yul\":5455:5461   */\n      dup1\n        /* \"#utility.yul\":5504:5506   */\n      0x40\n        /* \"#utility.yul\":5492:5501   */\n      dup4\n        /* \"#utility.yul\":5483:5490   */\n      dup6\n        /* \"#utility.yul\":5479:5502   */\n      sub\n        /* \"#utility.yul\":5475:5507   */\n      slt\n        /* \"#utility.yul\":5472:5591   */\n      iszero\n      tag_224\n      jumpi\n        /* \"#utility.yul\":5510:5589   */\n      tag_225\n      tag_113\n      jump\t// in\n    tag_225:\n        /* \"#utility.yul\":5472:5591   */\n    tag_224:\n        /* \"#utility.yul\":5630:5631   */\n      0x00\n        /* \"#utility.yul\":5655:5708   */\n      tag_226\n        /* \"#utility.yul\":5700:5707   */\n      dup6\n        /* \"#utility.yul\":5691:5697   */\n      dup3\n        /* \"#utility.yul\":5680:5689   */\n      dup7\n        /* \"#utility.yul\":5676:5698   */\n      add\n        /* \"#utility.yul\":5655:5708   */\n      tag_131\n      jump\t// in\n    tag_226:\n        /* \"#utility.yul\":5645:5708   */\n      swap3\n      pop\n        /* \"#utility.yul\":5601:5718   */\n      pop\n        /* \"#utility.yul\":5757:5759   */\n      0x20\n        /* \"#utility.yul\":5783:5836   */\n      tag_227\n        /* \"#utility.yul\":5828:5835   */\n      dup6\n        /* \"#utility.yul\":5819:5825   */\n      dup3\n        /* \"#utility.yul\":5808:5817   */\n      dup7\n        /* \"#utility.yul\":5804:5826   */\n      add\n        /* \"#utility.yul\":5783:5836   */\n      tag_117\n      jump\t// in\n    tag_227:\n        /* \"#utility.yul\":5773:5836   */\n      swap2\n      pop\n        /* \"#utility.yul\":5728:5846   */\n      pop\n        /* \"#utility.yul\":5379:5853   */\n      swap3\n      pop\n      swap3\n      swap1\n      pop\n      jump\t// out\n        /* \"#utility.yul\":5859:5968   */\n    tag_135:\n        /* \"#utility.yul\":5940:5961   */\n      tag_229\n        /* \"#utility.yul\":5955:5960   */\n      dup2\n        /* \"#utility.yul\":5940:5961   */\n      tag_132\n      jump\t// in\n    tag_229:\n        /* \"#utility.yul\":5935:5938   */\n      dup3\n        /* \"#utility.yul\":5928:5962   */\n      mstore\n        /* \"#utility.yul\":5859:5968   */\n      pop\n      pop\n      jump\t// out\n        /* \"#utility.yul\":5974:6184   */\n    tag_31:\n        /* \"#utility.yul\":6061:6065   */\n      0x00\n        /* \"#utility.yul\":6099:6101   */\n      0x20\n        /* \"#utility.yul\":6088:6097   */\n      dup3\n        /* \"#utility.yul\":6084:6102   */\n      add\n        /* \"#utility.yul\":6076:6102   */\n      swap1\n      pop\n        /* \"#utility.yul\":6112:6177   */\n      tag_231\n        /* \"#utility.yul\":6174:6175   */\n      0x00\n        /* \"#utility.yul\":6163:6172   */\n      dup4\n        /* \"#utility.yul\":6159:6176   */\n      add\n        /* \"#utility.yul\":6150:6156   */\n      dup5\n        /* \"#utility.yul\":6112:6177   */\n      tag_135\n      jump\t// in\n    tag_231:\n        /* \"#utility.yul\":5974:6184   */\n      swap3\n      swap2\n      pop\n      pop\n      jump\t// out\n        /* \"#utility.yul\":6190:6519   */\n    tag_34:\n        /* \"#utility.yul\":6249:6255   */\n      0x00\n        /* \"#utility.yul\":6298:6300   */\n      0x20\n        /* \"#utility.yul\":6286:6295   */\n      dup3\n        /* \"#utility.yul\":6277:6284   */\n      dup5\n        /* \"#utility.yul\":6273:6296   */\n      sub\n        /* \"#utility.yul\":6269:6301   */\n      slt\n        /* \"#utility.yul\":6266:6385   */\n      iszero\n      tag_233\n      jumpi\n        /* \"#utility.yul\":6304:6383   */\n      tag_234\n      tag_113\n      jump\t// in\n    tag_234:\n        /* \"#utility.yul\":6266:6385   */\n    tag_233:\n        /* \"#utility.yul\":6424:6425   */\n      0x00\n        /* \"#utility.yul\":6449:6502   */\n      tag_235\n        /* \"#utility.yul\":6494:6501   */\n      dup5\n        /* \"#utility.yul\":6485:6491   */\n      dup3\n        /* \"#utility.yul\":6474:6483   */\n      dup6\n        /* \"#utility.yul\":6470:6492   */\n      add\n        /* \"#utility.yul\":6449:6502   */\n      tag_131\n      jump\t// in\n    tag_235:\n        /* \"#utility.yul\":6439:6502   */\n      swap2\n      pop\n        /* \"#utility.yul\":6395:6512   */\n      pop\n        /* \"#utility.yul\":6190:6519   */\n      swap3\n      swap2\n      pop\n      pop\n      jump\t// out\n        /* \"#utility.yul\":6525:6643   */\n    tag_136:\n        /* \"#utility.yul\":6612:6636   */\n      tag_237\n        /* \"#utility.yul\":6630:6635   */\n      dup2\n        /* \"#utility.yul\":6612:6636   */\n      tag_115\n      jump\t// in\n    tag_237:\n        /* \"#utility.yul\":6607:6610   */\n      dup3\n        /* \"#utility.yul\":6600:6637   */\n      mstore\n        /* \"#utility.yul\":6525:6643   */\n      pop\n      pop\n      jump\t// out\n        /* \"#utility.yul\":6649:6871   */\n    tag_37:\n        /* \"#utility.yul\":6742:6746   */\n      0x00\n        /* \"#utility.yul\":6780:6782   */\n      0x20\n        /* \"#utility.yul\":6769:6778   */\n      dup3\n        /* \"#utility.yul\":6765:6783   */\n      add\n        /* \"#utility.yul\":6757:6783   */\n      swap1\n      pop\n        /* \"#utility.yul\":6793:6864   */\n      tag_239\n        /* \"#utility.yul\":6861:6862   */\n      0x00\n        /* \"#utility.yul\":6850:6859   */\n      dup4\n        /* \"#utility.yul\":6846:6863   */\n      add\n        /* \"#utility.yul\":6837:6843   */\n      dup5\n        /* \"#utility.yul\":6793:6864   */\n      tag_136\n      jump\t// in\n    tag_239:\n        /* \"#utility.yul\":6649:6871   */\n      swap3\n      swap2\n      pop\n      pop\n      jump\t// out\n        /* \"#utility.yul\":6877:7206   */\n    tag_46:\n        /* \"#utility.yul\":6936:6942   */\n      0x00\n        /* \"#utility.yul\":6985:6987   */\n      0x20\n        /* \"#utility.yul\":6973:6982   */\n      dup3\n        /* \"#utility.yul\":6964:6971   */\n      dup5\n        /* \"#utility.yul\":6960:6983   */\n      sub\n        /* \"#utility.yul\":6956:6988   */\n      slt\n        /* \"#utility.yul\":6953:7072   */\n      iszero\n      tag_241\n      jumpi\n        /* \"#utility.yul\":6991:7070   */\n      tag_242\n      tag_113\n      jump\t// in\n    tag_242:\n        /* \"#utility.yul\":6953:7072   */\n    tag_241:\n        /* \"#utility.yul\":7111:7112   */\n      0x00\n        /* \"#utility.yul\":7136:7189   */\n      tag_243\n        /* \"#utility.yul\":7181:7188   */\n      dup5\n        /* \"#utility.yul\":7172:7178   */\n      dup3\n        /* \"#utility.yul\":7161:7170   */\n      dup6\n        /* \"#utility.yul\":7157:7179   */\n      add\n        /* \"#utility.yul\":7136:7189   */\n      tag_117\n      jump\t// in\n    tag_243:\n        /* \"#utility.yul\":7126:7189   */\n      swap2\n      pop\n        /* \"#utility.yul\":7082:7199   */\n      pop\n        /* \"#utility.yul\":6877:7206   */\n      swap3\n      swap2\n      pop\n      pop\n      jump\t// out\n        /* \"#utility.yul\":7212:7311   */\n    tag_137:\n        /* \"#utility.yul\":7264:7270   */\n      0x00\n        /* \"#utility.yul\":7298:7303   */\n      dup2\n        /* \"#utility.yul\":7292:7304   */\n      mload\n        /* \"#utility.yul\":7282:7304   */\n      swap1\n      pop\n        /* \"#utility.yul\":7212:7311   */\n      swap2\n      swap1\n      pop\n      jump\t// out\n        /* \"#utility.yul\":7317:7486   */\n    tag_138:\n        /* \"#utility.yul\":7401:7412   */\n      0x00\n        /* \"#utility.yul\":7435:7441   */\n      dup3\n        /* \"#utility.yul\":7430:7433   */\n      dup3\n        /* \"#utility.yul\":7423:7442   */\n      mstore\n        /* \"#utility.yul\":7475:7479   */\n      0x20\n        /* \"#utility.yul\":7470:7473   */\n      dup3\n        /* \"#utility.yul\":7466:7480   */\n      add\n        /* \"#utility.yul\":7451:7480   */\n      swap1\n      pop\n        /* \"#utility.yul\":7317:7486   */\n      swap3\n      swap2\n      pop\n      pop\n      jump\t// out\n        /* \"#utility.yul\":7492:7631   */\n    tag_139:\n        /* \"#utility.yul\":7581:7587   */\n      dup3\n        /* \"#utility.yul\":7576:7579   */\n      dup2\n        /* \"#utility.yul\":7571:7574   */\n      dup4\n        /* \"#utility.yul\":7565:7588   */\n      mcopy\n        /* \"#utility.yul\":7622:7623   */\n      0x00\n        /* \"#utility.yul\":7613:7619   */\n      dup4\n        /* \"#utility.yul\":7608:7611   */\n      dup4\n        /* \"#utility.yul\":7604:7620   */\n      add\n        /* \"#utility.yul\":7597:7624   */\n      mstore\n        /* \"#utility.yul\":7492:7631   */\n      pop\n      pop\n      pop\n      jump\t// out\n        /* \"#utility.yul\":7637:8014   */\n    tag_140:\n        /* \"#utility.yul\":7725:7728   */\n      0x00\n        /* \"#utility.yul\":7753:7792   */\n      tag_248\n        /* \"#utility.yul\":7786:7791   */\n      dup3\n        /* \"#utility.yul\":7753:7792   */\n      tag_137\n      jump\t// in\n    tag_248:\n        /* \"#utility.yul\":7808:7879   */\n      tag_249\n        /* \"#utility.yul\":7872:7878   */\n      dup2\n        /* \"#utility.yul\":7867:7870   */\n      dup6\n        /* \"#utility.yul\":7808:7879   */\n      tag_138\n      jump\t// in\n    tag_249:\n        /* \"#utility.yul\":7801:7879   */\n      swap4\n      pop\n        /* \"#utility.yul\":7888:7953   */\n      tag_250\n        /* \"#utility.yul\":7946:7952   */\n      dup2\n        /* \"#utility.yul\":7941:7944   */\n      dup6\n        /* \"#utility.yul\":7934:7938   */\n      0x20\n        /* \"#utility.yul\":7927:7932   */\n      dup7\n        /* \"#utility.yul\":7923:7939   */\n      add\n        /* \"#utility.yul\":7888:7953   */\n      tag_139\n      jump\t// in\n    tag_250:\n        /* \"#utility.yul\":7978:8007   */\n      tag_251\n        /* \"#utility.yul\":8000:8006   */\n      dup2\n        /* \"#utility.yul\":7978:8007   */\n      tag_120\n      jump\t// in\n    tag_251:\n        /* \"#utility.yul\":7973:7976   */\n      dup5\n        /* \"#utility.yul\":7969:8008   */\n      add\n        /* \"#utility.yul\":7962:8008   */\n      swap2\n      pop\n        /* \"#utility.yul\":7729:8014   */\n      pop\n        /* \"#utility.yul\":7637:8014   */\n      swap3\n      swap2\n      pop\n      pop\n      jump\t// out\n        /* \"#utility.yul\":8020:8333   */\n    tag_49:\n        /* \"#utility.yul\":8133:8137   */\n      0x00\n        /* \"#utility.yul\":8171:8173   */\n      0x20\n        /* \"#utility.yul\":8160:8169   */\n      dup3\n        /* \"#utility.yul\":8156:8174   */\n      add\n        /* \"#utility.yul\":8148:8174   */\n      swap1\n      pop\n        /* \"#utility.yul\":8220:8229   */\n      dup2\n        /* \"#utility.yul\":8214:8218   */\n      dup2\n        /* \"#utility.yul\":8210:8230   */\n      sub\n        /* \"#utility.yul\":8206:8207   */\n      0x00\n        /* \"#utility.yul\":8195:8204   */\n      dup4\n        /* \"#utility.yul\":8191:8208   */\n      add\n        /* \"#utility.yul\":8184:8231   */\n      mstore\n        /* \"#utility.yul\":8248:8326   */\n      tag_253\n        /* \"#utility.yul\":8321:8325   */\n      dup2\n        /* \"#utility.yul\":8312:8318   */\n      dup5\n        /* \"#utility.yul\":8248:8326   */\n      tag_140\n      jump\t// in\n    tag_253:\n        /* \"#utility.yul\":8240:8326   */\n      swap1\n      pop\n        /* \"#utility.yul\":8020:8333   */\n      swap3\n      swap2\n      pop\n      pop\n      jump\t// out\n        /* \"#utility.yul\":8339:8853   */\n    tag_57:\n        /* \"#utility.yul\":8500:8504   */\n      0x00\n        /* \"#utility.yul\":8538:8540   */\n      0x40\n        /* \"#utility.yul\":8527:8536   */\n      dup3\n        /* \"#utility.yul\":8523:8541   */\n      add\n        /* \"#utility.yul\":8515:8541   */\n      swap1\n      pop\n        /* \"#utility.yul\":8587:8596   */\n      dup2\n        /* \"#utility.yul\":8581:8585   */\n      dup2\n        /* \"#utility.yul\":8577:8597   */\n      sub\n        /* \"#utility.yul\":8573:8574   */\n      0x00\n        /* \"#utility.yul\":8562:8571   */\n      dup4\n        /* \"#utility.yul\":8558:8575   */\n      add\n        /* \"#utility.yul\":8551:8598   */\n      mstore\n        /* \"#utility.yul\":8615:8693   */\n      tag_255\n        /* \"#utility.yul\":8688:8692   */\n      dup2\n        /* \"#utility.yul\":8679:8685   */\n      dup6\n        /* \"#utility.yul\":8615:8693   */\n      tag_140\n      jump\t// in\n    tag_255:\n        /* \"#utility.yul\":8607:8693   */\n      swap1\n      pop\n        /* \"#utility.yul\":8740:8749   */\n      dup2\n        /* \"#utility.yul\":8734:8738   */\n      dup2\n        /* \"#utility.yul\":8730:8750   */\n      sub\n        /* \"#utility.yul\":8725:8727   */\n      0x20\n        /* \"#utility.yul\":8714:8723   */\n      dup4\n        /* \"#utility.yul\":8710:8728   */\n      add\n        /* \"#utility.yul\":8703:8751   */\n      mstore\n        /* \"#utility.yul\":8768:8846   */\n      tag_256\n        /* \"#utility.yul\":8841:8845   */\n      dup2\n        /* \"#utility.yul\":8832:8838   */\n      dup5\n        /* \"#utility.yul\":8768:8846   */\n      tag_140\n      jump\t// in\n    tag_256:\n        /* \"#utility.yul\":8760:8846   */\n      swap1\n      pop\n        /* \"#utility.yul\":8339:8853   */\n      swap4\n      swap3\n      pop\n      pop\n      pop\n      jump\t// out\n        /* \"#utility.yul\":8859:9039   */\n    tag_141:\n        /* \"#utility.yul\":8907:8984   */\n      0x4e487b7100000000000000000000000000000000000000000000000000000000\n        /* \"#utility.yul\":8904:8905   */\n      0x00\n        /* \"#utility.yul\":8897:8985   */\n      mstore\n        /* \"#utility.yul\":9004:9008   */\n      0x22\n        /* \"#utility.yul\":9001:9002   */\n      0x04\n        /* \"#utility.yul\":8994:9009   */\n      mstore\n        /* \"#utility.yul\":9028:9032   */\n      0x24\n        /* \"#utility.yul\":9025:9026   */\n      0x00\n        /* \"#utility.yul\":9018:9033   */\n      revert\n        /* \"#utility.yul\":9045:9365   */\n    tag_81:\n        /* \"#utility.yul\":9089:9095   */\n      0x00\n        /* \"#utility.yul\":9126:9127   */\n      0x02\n        /* \"#utility.yul\":9120:9124   */\n      dup3\n        /* \"#utility.yul\":9116:9128   */\n      div\n        /* \"#utility.yul\":9106:9128   */\n      swap1\n      pop\n        /* \"#utility.yul\":9173:9174   */\n      0x01\n        /* \"#utility.yul\":9167:9171   */\n      dup3\n        /* \"#utility.yul\":9163:9175   */\n      and\n        /* \"#utility.yul\":9194:9212   */\n      dup1\n        /* \"#utility.yul\":9184:9265   */\n      tag_259\n      jumpi\n        /* \"#utility.yul\":9250:9254   */\n      0x7f\n        /* \"#utility.yul\":9242:9248   */\n      dup3\n        /* \"#utility.yul\":9238:9255   */\n      and\n        /* \"#utility.yul\":9228:9255   */\n      swap2\n      pop\n        /* \"#utility.yul\":9184:9265   */\n    tag_259:\n        /* \"#utility.yul\":9312:9314   */\n      0x20\n        /* \"#utility.yul\":9304:9310   */\n      dup3\n        /* \"#utility.yul\":9301:9315   */\n      lt\n        /* \"#utility.yul\":9281:9299   */\n      dup2\n        /* \"#utility.yul\":9278:9316   */\n      sub\n        /* \"#utility.yul\":9275:9359   */\n      tag_260\n      jumpi\n        /* \"#utility.yul\":9331:9349   */\n      tag_261\n      tag_141\n      jump\t// in\n    tag_261:\n        /* \"#utility.yul\":9275:9359   */\n    tag_260:\n        /* \"#utility.yul\":9096:9365   */\n      pop\n        /* \"#utility.yul\":9045:9365   */\n      swap2\n      swap1\n      pop\n      jump\t// out\n        /* \"#utility.yul\":9371:9512   */\n    tag_142:\n        /* \"#utility.yul\":9420:9424   */\n      0x00\n        /* \"#utility.yul\":9443:9446   */\n      dup2\n        /* \"#utility.yul\":9435:9446   */\n      swap1\n      pop\n        /* \"#utility.yul\":9466:9469   */\n      dup2\n        /* \"#utility.yul\":9463:9464   */\n      0x00\n        /* \"#utility.yul\":9456:9470   */\n      mstore\n        /* \"#utility.yul\":9500:9504   */\n      0x20\n        /* \"#utility.yul\":9497:9498   */\n      0x00\n        /* \"#utility.yul\":9487:9505   */\n      keccak256\n        /* \"#utility.yul\":9479:9505   */\n      swap1\n      pop\n        /* \"#utility.yul\":9371:9512   */\n      swap2\n      swap1\n      pop\n      jump\t// out\n        /* \"#utility.yul\":9518:9611   */\n    tag_143:\n        /* \"#utility.yul\":9555:9561   */\n      0x00\n        /* \"#utility.yul\":9602:9604   */\n      0x20\n        /* \"#utility.yul\":9597:9599   */\n      0x1f\n        /* \"#utility.yul\":9590:9595   */\n      dup4\n        /* \"#utility.yul\":9586:9600   */\n      add\n        /* \"#utility.yul\":9582:9605   */\n      div\n        /* \"#utility.yul\":9572:9605   */\n      swap1\n      pop\n        /* \"#utility.yul\":9518:9611   */\n      swap2\n      swap1\n      pop\n      jump\t// out\n        /* \"#utility.yul\":9617:9724   */\n    tag_144:\n        /* \"#utility.yul\":9661:9669   */\n      0x00\n        /* \"#utility.yul\":9711:9716   */\n      dup3\n        /* \"#utility.yul\":9705:9709   */\n      dup3\n        /* \"#utility.yul\":9701:9717   */\n      shl\n        /* \"#utility.yul\":9680:9717   */\n      swap1\n      pop\n        /* \"#utility.yul\":9617:9724   */\n      swap3\n      swap2\n      pop\n      pop\n      jump\t// out\n        /* \"#utility.yul\":9730:10123   */\n    tag_145:\n        /* \"#utility.yul\":9799:9805   */\n      0x00\n        /* \"#utility.yul\":9849:9850   */\n      0x08\n        /* \"#utility.yul\":9837:9847   */\n      dup4\n        /* \"#utility.yul\":9833:9851   */\n      mul\n        /* \"#utility.yul\":9872:9969   */\n      tag_266\n        /* \"#utility.yul\":9902:9968   */\n      0xffffffffffffffffffffffffffffffffffffffffffffffffffffffffffffffff\n        /* \"#utility.yul\":9891:9900   */\n      dup3\n        /* \"#utility.yul\":9872:9969   */\n      tag_144\n      jump\t// in\n    tag_266:\n        /* \"#utility.yul\":9990:10029   */\n      tag_267\n        /* \"#utility.yul\":10020:10028   */\n      dup7\n        /* \"#utility.yul\":10009:10018   */\n      dup4\n        /* \"#utility.yul\":9990:10029   */\n      tag_144\n      jump\t// in\n    tag_267:\n        /* \"#utility.yul\":9978:10029   */\n      swap6\n      pop\n        /* \"#utility.yul\":10062:10066   */\n      dup1\n        /* \"#utility.yul\":10058:10067   */\n      not\n        /* \"#utility.yul\":10051:10056   */\n      dup5\n        /* \"#utility.yul\":10047:10068   */\n      and\n        /* \"#utility.yul\":10038:10068   */\n      swap4\n      pop\n        /* \"#utility.yul\":10111:10115   */\n      dup1\n        /* \"#utility.yul\":10101:10109   */\n      dup7\n        /* \"#utility.yul\":10097:10116   */\n      and\n        /* \"#utility.yul\":10090:10095   */\n      dup5\n        /* \"#utility.yul\":10087:10117   */\n      or\n        /* \"#utility.yul\":10077:10117   */\n      swap3\n      pop\n        /* \"#utility.yul\":9806:10123   */\n      pop\n      pop\n        /* \"#utility.yul\":9730:10123   */\n      swap4\n      swap3\n      pop\n      pop\n      pop\n      jump\t// out\n        /* \"#utility.yul\":10129:10189   */\n    tag_146:\n        /* \"#utility.yul\":10157:10160   */\n      0x00\n        /* \"#utility.yul\":10178:10183   */\n      dup2\n        /* \"#utility.yul\":10171:10183   */\n      swap1\n      pop\n        /* \"#utility.yul\":10129:10189   */\n      swap2\n      swap1\n      pop\n      jump\t// out\n        /* \"#utility.yul\":10195:10337   */\n    tag_147:\n        /* \"#utility.yul\":10245:10254   */\n      0x00\n        /* \"#utility.yul\":10278:10331   */\n      tag_270\n        /* \"#utility.yul\":10296:10330   */\n      tag_271\n        /* \"#utility.yul\":10305:10329   */\n      tag_272\n        /* \"#utility.yul\":10323:10328   */\n      dup5\n        /* \"#utility.yul\":10305:10329   */\n      tag_115\n      jump\t// in\n    tag_272:\n        /* \"#utility.yul\":10296:10330   */\n      tag_146\n      jump\t// in\n    tag_271:\n        /* \"#utility.yul\":10278:10331   */\n      tag_115\n      jump\t// in\n    tag_270:\n        /* \"#utility.yul\":10265:10331   */\n      swap1\n      pop\n        /* \"#utility.yul\":10195:10337   */\n      swap2\n      swap1\n      pop\n      jump\t// out\n        /* \"#utility.yul\":10343:10418   */\n    tag_148:\n        /* \"#utility.yul\":10386:10389   */\n      0x00\n        /* \"#utility.yul\":10407:10412   */\n      dup2\n        /* \"#utility.yul\":10400:10412   */\n      swap1\n      pop\n        /* \"#utility.yul\":10343:10418   */\n      swap2\n      swap1\n      pop\n      jump\t// out\n        /* \"#utility.yul\":10424:10693   */\n    tag_149:\n        /* \"#utility.yul\":10534:10573   */\n      tag_275\n        /* \"#utility.yul\":10565:10572   */\n      dup4\n        /* \"#utility.yul\":10534:10573   */\n      tag_147\n      jump\t// in\n    tag_275:\n        /* \"#utility.yul\":10595:10686   */\n      tag_276\n        /* \"#utility.yul\":10644:10685   */\n      tag_277\n        /* \"#utility.yul\":10668:10684   */\n      dup3\n        /* \"#utility.yul\":10644:10685   */\n      tag_148\n      jump\t// in\n    tag_277:\n        /* \"#utility.yul\":10636:10642   */\n      dup5\n        /* \"#utility.yul\":10629:10633   */\n      dup5\n        /* \"#utility.yul\":10623:10634   */\n      sload\n        /* \"#utility.yul\":10595:10686   */\n      tag_145\n      jump\t// in\n    tag_276:\n        /* \"#utility.yul\":10589:10593   */\n      dup3\n        /* \"#utility.yul\":10582:10687   */\n      sstore\n        /* \"#utility.yul\":10500:10693   */\n      pop\n        /* \"#utility.yul\":10424:10693   */\n      pop\n      pop\n      pop\n      jump\t// out\n        /* \"#utility.yul\":10699:10772   */\n    tag_150:\n        /* \"#utility.yul\":10744:10747   */\n      0x00\n        /* \"#utility.yul\":10699:10772   */\n      swap1\n      jump\t// out\n        /* \"#utility.yul\":10778:10967   */\n    tag_151:\n        /* \"#utility.yul\":10855:10887   */\n      tag_280\n      tag_150\n      jump\t// in\n    tag_280:\n        /* \"#utility.yul\":10896:10961   */\n      tag_281\n        /* \"#utility.yul\":10954:10960   */\n      dup2\n        /* \"#utility.yul\":10946:10952   */\n      dup5\n        /* \"#utility.yul\":10940:10944   */\n      dup5\n        /* \"#utility.yul\":10896:10961   */\n      tag_149\n      jump\t// in\n    tag_281:\n        /* \"#utility.yul\":10831:10967   */\n      pop\n        /* \"#utility.yul\":10778:10967   */\n      pop\n      pop\n      jump\t// out\n        /* \"#utility.yul\":10973:11159   */\n    tag_152:\n        /* \"#utility.yul\":11033:11153   */\n    tag_283:\n        /* \"#utility.yul\":11050:11053   */\n      dup2\n        /* \"#utility.yul\":11043:11048   */\n      dup2\n        /* \"#utility.yul\":11040:11054   */\n      lt\n        /* \"#utility.yul\":11033:11153   */\n      iszero\n      tag_285\n      jumpi\n        /* \"#utility.yul\":11104:11143   */\n      tag_286\n        /* \"#utility.yul\":11141:11142   */\n      0x00\n        /* \"#utility.yul\":11134:11139   */\n      dup3\n        /* \"#utility.yul\":11104:11143   */\n      tag_151\n      jump\t// in\n    tag_286:\n        /* \"#utility.yul\":11077:11078   */\n      0x01\n        /* \"#utility.yul\":11070:11075   */\n      dup2\n        /* \"#utility.yul\":11066:11079   */\n      add\n        /* \"#utility.yul\":11057:11079   */\n      swap1\n      pop\n        /* \"#utility.yul\":11033:11153   */\n      jump(tag_283)\n    tag_285:\n        /* \"#utility.yul\":10973:11159   */\n      pop\n      pop\n      jump\t// out\n        /* \"#utility.yul\":11165:11708   */\n    tag_153:\n        /* \"#utility.yul\":11266:11268   */\n      0x1f\n        /* \"#utility.yul\":11261:11264   */\n      dup3\n        /* \"#utility.yul\":11258:11269   */\n      gt\n        /* \"#utility.yul\":11255:11701   */\n      iszero\n      tag_288\n      jumpi\n        /* \"#utility.yul\":11300:11338   */\n      tag_289\n        /* \"#utility.yul\":11332:11337   */\n      dup2\n        /* \"#utility.yul\":11300:11338   */\n      tag_142\n      jump\t// in\n    tag_289:\n        /* \"#utility.yul\":11384:11413   */\n      tag_290\n        /* \"#utility.yul\":11402:11412   */\n      dup5\n        /* \"#utility.yul\":11384:11413   */\n      tag_143\n      jump\t// in\n    tag_290:\n        /* \"#utility.yul\":11374:11382   */\n      dup2\n        /* \"#utility.yul\":11370:11414   */\n      add\n        /* \"#utility.yul\":11567:11569   */\n      0x20\n        /* \"#utility.yul\":11555:11565   */\n      dup6\n        /* \"#utility.yul\":11552:11570   */\n      lt\n        /* \"#utility.yul\":11549:11598   */\n      iszero\n      tag_291\n      jumpi\n        /* \"#utility.yul\":11588:11596   */\n      dup2\n        /* \"#utility.yul\":11573:11596   */\n      swap1\n      pop\n        /* \"#utility.yul\":11549:11598   */\n    tag_291:\n        /* \"#utility.yul\":11611:11691   */\n      tag_292\n        /* \"#utility.yul\":11667:11689   */\n      tag_293\n        /* \"#utility.yul\":11685:11688   */\n      dup6\n        /* \"#utility.yul\":11667:11689   */\n      tag_143\n      jump\t// in\n    tag_293:\n        /* \"#utility.yul\":11657:11665   */\n      dup4\n        /* \"#utility.yul\":11653:11690   */\n      add\n        /* \"#utility.yul\":11640:11651   */\n      dup3\n        /* \"#utility.yul\":11611:11691   */\n      tag_152\n      jump\t// in\n    tag_292:\n        /* \"#utility.yul\":11270:11701   */\n      pop\n      pop\n        /* \"#utility.yul\":11255:11701   */\n    tag_288:\n        /* \"#utility.yul\":11165:11708   */\n      pop\n      pop\n      pop\n      jump\t// out\n        /* \"#utility.yul\":11714:11831   */\n    tag_154:\n        /* \"#utility.yul\":11768:11776   */\n      0x00\n        /* \"#utility.yul\":11818:11823   */\n      dup3\n        /* \"#utility.yul\":11812:11816   */\n      dup3\n        /* \"#utility.yul\":11808:11824   */\n      shr\n        /* \"#utility.yul\":11787:11824   */\n      swap1\n      pop\n        /* \"#utility.yul\":11714:11831   */\n      swap3\n      swap2\n      pop\n      pop\n      jump\t// out\n        /* \"#utility.yul\":11837:12006   */\n    tag_155:\n        /* \"#utility.yul\":11881:11887   */\n      0x00\n        /* \"#utility.yul\":11914:11965   */\n      tag_296\n        /* \"#utility.yul\":11962:11963   */\n      0x00\n        /* \"#utility.yul\":11958:11964   */\n      not\n        /* \"#utility.yul\":11950:11955   */\n      dup5\n        /* \"#utility.yul\":11947:11948   */\n      0x08\n        /* \"#utility.yul\":11943:11956   */\n      mul\n        /* \"#utility.yul\":11914:11965   */\n      tag_154\n      jump\t// in\n    tag_296:\n        /* \"#utility.yul\":11910:11966   */\n      not\n        /* \"#utility.yul\":11995:11999   */\n      dup1\n        /* \"#utility.yul\":11989:11993   */\n      dup4\n        /* \"#utility.yul\":11985:12000   */\n      and\n        /* \"#utility.yul\":11975:12000   */\n      swap2\n      pop\n        /* \"#utility.yul\":11888:12006   */\n      pop\n        /* \"#utility.yul\":11837:12006   */\n      swap3\n      swap2\n      pop\n      pop\n      jump\t// out\n        /* \"#utility.yul\":12011:12306   */\n    tag_156:\n        /* \"#utility.yul\":12087:12091   */\n      0x00\n        /* \"#utility.yul\":12233:12262   */\n      tag_298\n        /* \"#utility.yul\":12258:12261   */\n      dup4\n        /* \"#utility.yul\":12252:12256   */\n      dup4\n        /* \"#utility.yul\":12233:12262   */\n      tag_155\n      jump\t// in\n    tag_298:\n        /* \"#utility.yul\":12225:12262   */\n      swap2\n      pop\n        /* \"#utility.yul\":12295:12298   */\n      dup3\n        /* \"#utility.yul\":12292:12293   */\n      0x02\n        /* \"#utility.yul\":12288:12299   */\n      mul\n        /* \"#utility.yul\":12282:12286   */\n      dup3\n        /* \"#utility.yul\":12279:12300   */\n      or\n        /* \"#utility.yul\":12271:12300   */\n      swap1\n      pop\n        /* \"#utility.yul\":12011:12306   */\n      swap3\n      swap2\n      pop\n      pop\n      jump\t// out\n        /* \"#utility.yul\":12311:13706   */\n    tag_75:\n        /* \"#utility.yul\":12428:12465   */\n      tag_300\n        /* \"#utility.yul\":12461:12464   */\n      dup3\n        /* \"#utility.yul\":12428:12465   */\n      tag_137\n      jump\t// in\n    tag_300:\n        /* \"#utility.yul\":12530:12548   */\n      0xffffffffffffffff\n        /* \"#utility.yul\":12522:12528   */\n      dup2\n        /* \"#utility.yul\":12519:12549   */\n      gt\n        /* \"#utility.yul\":12516:12572   */\n      iszero\n      tag_301\n      jumpi\n        /* \"#utility.yul\":12552:12570   */\n      tag_302\n      tag_121\n      jump\t// in\n    tag_302:\n        /* \"#utility.yul\":12516:12572   */\n    tag_301:\n        /* \"#utility.yul\":12596:12634   */\n      tag_303\n        /* \"#utility.yul\":12628:12632   */\n      dup3\n        /* \"#utility.yul\":12622:12633   */\n      sload\n        /* \"#utility.yul\":12596:12634   */\n      tag_81\n      jump\t// in\n    tag_303:\n        /* \"#utility.yul\":12681:12748   */\n      tag_304\n        /* \"#utility.yul\":12741:12747   */\n      dup3\n        /* \"#utility.yul\":12733:12739   */\n      dup3\n        /* \"#utility.yul\":12727:12731   */\n      dup6\n        /* \"#utility.yul\":12681:12748   */\n      tag_153\n      jump\t// in\n    tag_304:\n        /* \"#utility.yul\":12775:12776   */\n      0x00\n        /* \"#utility.yul\":12799:12803   */\n      0x20\n        /* \"#utility.yul\":12786:12803   */\n      swap1\n      pop\n        /* \"#utility.yul\":12831:12833   */\n      0x1f\n        /* \"#utility.yul\":12823:12829   */\n      dup4\n        /* \"#utility.yul\":12820:12834   */\n      gt\n        /* \"#utility.yul\":12848:12849   */\n      0x01\n        /* \"#utility.yul\":12843:13461   */\n      dup2\n      eq\n      tag_306\n      jumpi\n        /* \"#utility.yul\":13505:13506   */\n      0x00\n        /* \"#utility.yul\":13522:13528   */\n      dup5\n        /* \"#utility.yul\":13519:13596   */\n      iszero\n      tag_307\n      jumpi\n        /* \"#utility.yul\":13571:13580   */\n      dup3\n        /* \"#utility.yul\":13566:13569   */\n      dup8\n        /* \"#utility.yul\":13562:13581   */\n      add\n        /* \"#utility.yul\":13556:13582   */\n      mload\n        /* \"#utility.yul\":13547:13582   */\n      swap1\n      pop\n        /* \"#utility.yul\":13519:13596   */\n    tag_307:\n        /* \"#utility.yul\":13622:13689   */\n      tag_308\n        /* \"#utility.yul\":13682:13688   */\n      dup6\n        /* \"#utility.yul\":13675:13680   */\n      dup3\n        /* \"#utility.yul\":13622:13689   */\n      tag_156\n      jump\t// in\n    tag_308:\n        /* \"#utility.yul\":13616:13620   */\n      dup7\n        /* \"#utility.yul\":13609:13690   */\n      sstore\n        /* \"#utility.yul\":13478:13700   */\n      pop\n        /* \"#utility.yul\":12813:13700   */\n      jump(tag_305)\n        /* \"#utility.yul\":12843:13461   */\n    tag_306:\n        /* \"#utility.yul\":12895:12899   */\n      0x1f\n        /* \"#utility.yul\":12891:12900   */\n      not\n        /* \"#utility.yul\":12883:12889   */\n      dup5\n        /* \"#utility.yul\":12879:12901   */\n      and\n        /* \"#utility.yul\":12929:12966   */\n      tag_309\n        /* \"#utility.yul\":12961:12965   */\n      dup7\n        /* \"#utility.yul\":12929:12966   */\n      tag_142\n      jump\t// in\n    tag_309:\n        /* \"#utility.yul\":12988:12989   */\n      0x00\n        /* \"#utility.yul\":13002:13210   */\n    tag_310:\n        /* \"#utility.yul\":13016:13023   */\n      dup3\n        /* \"#utility.yul\":13013:13014   */\n      dup2\n        /* \"#utility.yul\":13010:13024   */\n      lt\n        /* \"#utility.yul\":13002:13210   */\n      iszero\n      tag_312\n      jumpi\n        /* \"#utility.yul\":13095:13104   */\n      dup5\n        /* \"#utility.yul\":13090:13093   */\n      dup10\n        /* \"#utility.yul\":13086:13105   */\n      add\n        /* \"#utility.yul\":13080:13106   */\n      mload\n        /* \"#utility.yul\":13072:13078   */\n      dup3\n        /* \"#utility.yul\":13065:13107   */\n      sstore\n        /* \"#utility.yul\":13146:13147   */\n      0x01\n        /* \"#utility.yul\":13138:13144   */\n      dup3\n        /* \"#utility.yul\":13134:13148   */\n      add\n        /* \"#utility.yul\":13124:13148   */\n      swap2\n      pop\n        /* \"#utility.yul\":13193:13195   */\n      0x20\n        /* \"#utility.yul\":13182:13191   */\n      dup6\n        /* \"#utility.yul\":13178:13196   */\n      add\n        /* \"#utility.yul\":13165:13196   */\n      swap5\n      pop\n        /* \"#utility.yul\":13039:13043   */\n      0x20\n        /* \"#utility.yul\":13036:13037   */\n      dup2\n        /* \"#utility.yul\":13032:13044   */\n      add\n        /* \"#utility.yul\":13027:13044   */\n      swap1\n      pop\n        /* \"#utility.yul\":13002:13210   */\n      jump(tag_310)\n    tag_312:\n        /* \"#utility.yul\":13238:13244   */\n      dup7\n        /* \"#utility.yul\":13229:13236   */\n      dup4\n        /* \"#utility.yul\":13226:13245   */\n      lt\n        /* \"#utility.yul\":13223:13402   */\n      iszero\n      tag_313\n      jumpi\n        /* \"#utility.yul\":13296:13305   */\n      dup5\n        /* \"#utility.yul\":13291:13294   */\n      dup10\n        /* \"#utility.yul\":13287:13306   */\n      add\n        /* \"#utility.yul\":13281:13307   */\n      mload\n        /* \"#utility.yul\":13339:13387   */\n      tag_314\n        /* \"#utility.yul\":13381:13385   */\n      0x1f\n        /* \"#utility.yul\":13373:13379   */\n      dup10\n        /* \"#utility.yul\":13369:13386   */\n      and\n        /* \"#utility.yul\":13358:13367   */\n      dup3\n        /* \"#utility.yul\":13339:13387   */\n      tag_155\n      jump\t// in\n    tag_314:\n        /* \"#utility.yul\":13331:13337   */\n      dup4\n        /* \"#utility.yul\":13324:13388   */\n      sstore\n        /* \"#utility.yul\":13246:13402   */\n      pop\n        /* \"#utility.yul\":13223:13402   */\n    tag_313:\n        /* \"#utility.yul\":13448:13449   */\n      0x01\n        /* \"#utility.yul\":13444:13445   */\n      0x02\n        /* \"#utility.yul\":13436:13442   */\n      dup9\n        /* \"#utility.yul\":13432:13446   */\n      mul\n        /* \"#utility.yul\":13428:13450   */\n      add\n        /* \"#utility.yul\":13422:13426   */\n      dup9\n        /* \"#utility.yul\":13415:13451   */\n      sstore\n        /* \"#utility.yul\":12850:13461   */\n      pop\n      pop\n      pop\n        /* \"#utility.yul\":12813:13700   */\n    tag_305:\n      pop\n        /* \"#utility.yul\":12403:13706   */\n      pop\n      pop\n      pop\n        /* \"#utility.yul\":12311:13706   */\n      pop\n      pop\n      jump\t// out\n\n    auxdata: 0xa26469706673582212203dc965398066b66d7e4977d533ebd84850bf22aeb14393bc880281488c081b7764736f6c634300081a0033\n}\n",
				"bytecode": {
					"linkReferences": {},
					"object": "608060405234801561000f575f80fd5b506040518060400160405280600381526020017f4a6179000000000000000000000000000000000000000000000000000000000081525060015f600181526020019081526020015f209081610064919061034e565b506040518060400160405280600581526020017f53656c696d00000000000000000000000000000000000000000000000000000081525060015f600281526020019081526020015f2090816100b9919061034e565b506040518060400160405280600781526020017f4d6f68616d65640000000000000000000000000000000000000000000000000081525060015f600381526020019081526020015f20908161010e919061034e565b5061041d565b5f81519050919050565b7f4e487b71000000000000000000000000000000000000000000000000000000005f52604160045260245ffd5b7f4e487b71000000000000000000000000000000000000000000000000000000005f52602260045260245ffd5b5f600282049050600182168061018f57607f821691505b6020821081036101a2576101a161014b565b5b50919050565b5f819050815f5260205f209050919050565b5f6020601f8301049050919050565b5f82821b905092915050565b5f600883026102047fffffffffffffffffffffffffffffffffffffffffffffffffffffffffffffffff826101c9565b61020e86836101c9565b95508019841693508086168417925050509392505050565b5f819050919050565b5f819050919050565b5f61025261024d61024884610226565b61022f565b610226565b9050919050565b5f819050919050565b61026b83610238565b61027f61027782610259565b8484546101d5565b825550505050565b5f90565b610293610287565b61029e818484610262565b505050565b5b818110156102c1576102b65f8261028b565b6001810190506102a4565b5050565b601f821115610306576102d7816101a8565b6102e0846101ba565b810160208510156102ef578190505b6103036102fb856101ba565b8301826102a3565b50505b505050565b5f82821c905092915050565b5f6103265f198460080261030b565b1980831691505092915050565b5f61033e8383610317565b9150826002028217905092915050565b61035782610114565b67ffffffffffffffff8111156103705761036f61011e565b5b61037a8254610178565b6103858282856102c5565b5f60209050601f8311600181146103b6575f84156103a4578287015190505b6103ae8582610333565b865550610415565b601f1984166103c4866101a8565b5f5b828110156103eb578489015182556001820191506020850194506020810190506103c6565b868310156104085784890151610404601f891682610317565b8355505b6001600288020188555050505b505050505050565b6110668061042a5f395ff3fe608060405234801561000f575f80fd5b50600436106100cd575f3560e01c80634622ab031161008a578063abe7f1ab11610064578063abe7f1ab1461021e578063b464631b1461023a578063c2bc2efc1461026a578063e53552681461029a576100cd565b80634622ab03146101a1578063493ec707146101d157806368744046146101ed576100cd565b8063028414f2146100d15780630b139194146100ed5780631481d24f1461010957806327cbd5291461013957806329092d0e146101695780633825d82814610185575b5f80fd5b6100eb60048036038101906100e69190610a67565b6102cb565b005b61010760048036038101906101029190610b7e565b610323565b005b610123600480360381019061011e9190610bce565b61038b565b6040516101309190610c1b565b60405180910390f35b610153600480360381019061014e9190610c34565b6103b5565b6040516101609190610c6e565b60405180910390f35b610183600480360381019061017e9190610c34565b6103c9565b005b61019f600480360381019061019a9190610bce565b61040b565b005b6101bb60048036038101906101b69190610c87565b610450565b6040516101c89190610d12565b60405180910390f35b6101eb60048036038101906101e69190610a67565b6104eb565b005b61020760048036038101906102029190610c87565b61057e565b604051610215929190610d32565b60405180910390f35b61023860048036038101906102339190610bce565b6106aa565b005b610254600480360381019061024f9190610bce565b610709565b6040516102619190610c1b565b60405180910390f35b610284600480360381019061027f9190610c34565b61076b565b6040516102919190610c6e565b60405180910390f35b6102b460048036038101906102af9190610bce565b6107b0565b6040516102c2929190610d32565b60405180910390f35b60405180604001604052808381526020018281525060035f8581526020019081526020015f205f820151815f0190816103049190610f61565b50602082015181600101908161031a9190610f61565b50905050505050565b8060025f8573ffffffffffffffffffffffffffffffffffffffff1673ffffffffffffffffffffffffffffffffffffffff1681526020019081526020015f205f8481526020019081526020015f205f6101000a81548160ff021916908315150217905550505050565b6002602052815f5260405f20602052805f5260405f205f915091509054906101000a900460ff1681565b5f602052805f5260405f205f915090505481565b5f808273ffffffffffffffffffffffffffffffffffffffff1673ffffffffffffffffffffffffffffffffffffffff1681526020019081526020015f205f905550565b805f808473ffffffffffffffffffffffffffffffffffffffff1673ffffffffffffffffffffffffffffffffffffffff1681526020019081526020015f20819055505050565b6001602052805f5260405f205f91509050805461046c90610d94565b80601f016020809104026020016040519081016040528092919081815260200182805461049890610d94565b80156104e35780601f106104ba576101008083540402835291602001916104e3565b820191905f5260205f20905b8154815290600101906020018083116104c657829003601f168201915b505050505081565b60405180604001604052808381526020018281525060045f3373ffffffffffffffffffffffffffffffffffffffff1673ffffffffffffffffffffffffffffffffffffffff1681526020019081526020015f205f8581526020019081526020015f205f820151815f01908161055f9190610f61565b5060208201518160010190816105759190610f61565b50905050505050565b6003602052805f5260405f205f91509050805f01805461059d90610d94565b80601f01602080910402602001604051908101604052809291908181526020018280546105c990610d94565b80156106145780601f106105eb57610100808354040283529160200191610614565b820191905f5260205f20905b8154815290600101906020018083116105f757829003601f168201915b50505050509080600101805461062990610d94565b80601f016020809104026020016040519081016040528092919081815260200182805461065590610d94565b80156106a05780601f10610677576101008083540402835291602001916106a0565b820191905f5260205f20905b81548152906001019060200180831161068357829003601f168201915b5050505050905082565b60025f8373ffffffffffffffffffffffffffffffffffffffff1673ffffffffffffffffffffffffffffffffffffffff1681526020019081526020015f205f8281526020019081526020015f205f6101000a81549060ff02191690555050565b5f60025f8473ffffffffffffffffffffffffffffffffffffffff1673ffffffffffffffffffffffffffffffffffffffff1681526020019081526020015f205f8381526020019081526020015f205f9054906101000a900460ff16905092915050565b5f805f8373ffffffffffffffffffffffffffffffffffffffff1673ffffffffffffffffffffffffffffffffffffffff1681526020019081526020015f20549050919050565b6004602052815f5260405f20602052805f5260405f205f9150915050805f0180546107da90610d94565b80601f016020809104026020016040519081016040528092919081815260200182805461080690610d94565b80156108515780601f1061082857610100808354040283529160200191610851565b820191905f5260205f20905b81548152906001019060200180831161083457829003601f168201915b50505050509080600101805461086690610d94565b80601f016020809104026020016040519081016040528092919081815260200182805461089290610d94565b80156108dd5780601f106108b4576101008083540402835291602001916108dd565b820191905f5260205f20905b8154815290600101906020018083116108c057829003601f168201915b5050505050905082565b5f604051905090565b5f80fd5b5f80fd5b5f819050919050565b61090a816108f8565b8114610914575f80fd5b50565b5f8135905061092581610901565b92915050565b5f80fd5b5f80fd5b5f601f19601f8301169050919050565b7f4e487b71000000000000000000000000000000000000000000000000000000005f52604160045260245ffd5b61097982610933565b810181811067ffffffffffffffff8211171561099857610997610943565b5b80604052505050565b5f6109aa6108e7565b90506109b68282610970565b919050565b5f67ffffffffffffffff8211156109d5576109d4610943565b5b6109de82610933565b9050602081019050919050565b828183375f83830152505050565b5f610a0b610a06846109bb565b6109a1565b905082815260208101848484011115610a2757610a2661092f565b5b610a328482856109eb565b509392505050565b5f82601f830112610a4e57610a4d61092b565b5b8135610a5e8482602086016109f9565b91505092915050565b5f805f60608486031215610a7e57610a7d6108f0565b5b5f610a8b86828701610917565b935050602084013567ffffffffffffffff811115610aac57610aab6108f4565b5b610ab886828701610a3a565b925050604084013567ffffffffffffffff811115610ad957610ad86108f4565b5b610ae586828701610a3a565b9150509250925092565b5f73ffffffffffffffffffffffffffffffffffffffff82169050919050565b5f610b1882610aef565b9050919050565b610b2881610b0e565b8114610b32575f80fd5b50565b5f81359050610b4381610b1f565b92915050565b5f8115159050919050565b610b5d81610b49565b8114610b67575f80fd5b50565b5f81359050610b7881610b54565b92915050565b5f805f60608486031215610b9557610b946108f0565b5b5f610ba286828701610b35565b9350506020610bb386828701610917565b9250506040610bc486828701610b6a565b9150509250925092565b5f8060408385031215610be457610be36108f0565b5b5f610bf185828601610b35565b9250506020610c0285828601610917565b9150509250929050565b610c1581610b49565b82525050565b5f602082019050610c2e5f830184610c0c565b92915050565b5f60208284031215610c4957610c486108f0565b5b5f610c5684828501610b35565b91505092915050565b610c68816108f8565b82525050565b5f602082019050610c815f830184610c5f565b92915050565b5f60208284031215610c9c57610c9b6108f0565b5b5f610ca984828501610917565b91505092915050565b5f81519050919050565b5f82825260208201905092915050565b8281835e5f83830152505050565b5f610ce482610cb2565b610cee8185610cbc565b9350610cfe818560208601610ccc565b610d0781610933565b840191505092915050565b5f6020820190508181035f830152610d2a8184610cda565b905092915050565b5f6040820190508181035f830152610d4a8185610cda565b90508181036020830152610d5e8184610cda565b90509392505050565b7f4e487b71000000000000000000000000000000000000000000000000000000005f52602260045260245ffd5b5f6002820490506001821680610dab57607f821691505b602082108103610dbe57610dbd610d67565b5b50919050565b5f819050815f5260205f209050919050565b5f6020601f8301049050919050565b5f82821b905092915050565b5f60088302610e207fffffffffffffffffffffffffffffffffffffffffffffffffffffffffffffffff82610de5565b610e2a8683610de5565b95508019841693508086168417925050509392505050565b5f819050919050565b5f610e65610e60610e5b846108f8565b610e42565b6108f8565b9050919050565b5f819050919050565b610e7e83610e4b565b610e92610e8a82610e6c565b848454610df1565b825550505050565b5f90565b610ea6610e9a565b610eb1818484610e75565b505050565b5b81811015610ed457610ec95f82610e9e565b600181019050610eb7565b5050565b601f821115610f1957610eea81610dc4565b610ef384610dd6565b81016020851015610f02578190505b610f16610f0e85610dd6565b830182610eb6565b50505b505050565b5f82821c905092915050565b5f610f395f1984600802610f1e565b1980831691505092915050565b5f610f518383610f2a565b9150826002028217905092915050565b610f6a82610cb2565b67ffffffffffffffff811115610f8357610f82610943565b5b610f8d8254610d94565b610f98828285610ed8565b5f60209050601f831160018114610fc9575f8415610fb7578287015190505b610fc18582610f46565b865550611028565b601f198416610fd786610dc4565b5f5b82811015610ffe57848901518255600182019150602085019450602081019050610fd9565b8683101561101b5784890151611017601f891682610f2a565b8355505b6001600288020188555050505b50505050505056fea26469706673582212203dc965398066b66d7e4977d533ebd84850bf22aeb14393bc880281488c081b7764736f6c634300081a0033",
					"opcodes": "PUSH1 0x80 PUSH1 0x40 MSTORE CALLVALUE DUP1 ISZERO PUSH2 0xF JUMPI PUSH0 DUP1 REVERT JUMPDEST POP PUSH1 0x40 MLOAD DUP1 PUSH1 0x40 ADD PUSH1 0x40 MSTORE DUP1 PUSH1 0x3 DUP2 MSTORE PUSH1 0x20 ADD PUSH32 0x4A61790000000000000000000000000000000000000000000000000000000000 DUP2 MSTORE POP PUSH1 0x1 PUSH0 PUSH1 0x1 DUP2 MSTORE PUSH1 0x20 ADD SWAP1 DUP2 MSTORE PUSH1 0x20 ADD PUSH0 KECCAK256 SWAP1 DUP2 PUSH2 0x64 SWAP2 SWAP1 PUSH2 0x34E JUMP JUMPDEST POP PUSH1 0x40 MLOAD DUP1 PUSH1 0x40 ADD PUSH1 0x40 MSTORE DUP1 PUSH1 0x5 DUP2 MSTORE PUSH1 0x20 ADD PUSH32 0x53656C696D000000000000000000000000000000000000000000000000000000 DUP2 MSTORE POP PUSH1 0x1 PUSH0 PUSH1 0x2 DUP2 MSTORE PUSH1 0x20 ADD SWAP1 DUP2 MSTORE PUSH1 0x20 ADD PUSH0 KECCAK256 SWAP1 DUP2 PUSH2 0xB9 SWAP2 SWAP1 PUSH2 0x34E JUMP JUMPDEST POP PUSH1 0x40 MLOAD DUP1 PUSH1 0x40 ADD PUSH1 0x40 MSTORE DUP1 PUSH1 0x7 DUP2 MSTORE PUSH1 0x20 ADD PUSH32 0x4D6F68616D656400000000000000000000000000000000000000000000000000 DUP2 MSTORE POP PUSH1 0x1 PUSH0 PUSH1 0x3 DUP2 MSTORE PUSH1 0x20 ADD SWAP1 DUP2 MSTORE PUSH1 0x20 ADD PUSH0 KECCAK256 SWAP1 DUP2 PUSH2 0x10E SWAP2 SWAP1 PUSH2 0x34E JUMP JUMPDEST POP PUSH2 0x41D JUMP JUMPDEST PUSH0 DUP2 MLOAD SWAP1 POP SWAP2 SWAP1 POP JUMP JUMPDEST PUSH32 0x4E487B7100000000000000000000000000000000000000000000000000000000 PUSH0 MSTORE PUSH1 0x41 PUSH1 0x4 MSTORE PUSH1 0x24 PUSH0 REVERT JUMPDEST PUSH32 0x4E487B7100000000000000000000000000000000000000000000000000000000 PUSH0 MSTORE PUSH1 0x22 PUSH1 0x4 MSTORE PUSH1 0x24 PUSH0 REVERT JUMPDEST PUSH0 PUSH1 0x2 DUP3 DIV SWAP1 POP PUSH1 0x1 DUP3 AND DUP1 PUSH2 0x18F JUMPI PUSH1 0x7F DUP3 AND SWAP2 POP JUMPDEST PUSH1 0x20 DUP3 LT DUP2 SUB PUSH2 0x1A2 JUMPI PUSH2 0x1A1 PUSH2 0x14B JUMP JUMPDEST JUMPDEST POP SWAP2 SWAP1 POP JUMP JUMPDEST PUSH0 DUP2 SWAP1 POP DUP2 PUSH0 MSTORE PUSH1 0x20 PUSH0 KECCAK256 SWAP1 POP SWAP2 SWAP1 POP JUMP JUMPDEST PUSH0 PUSH1 0x20 PUSH1 0x1F DUP4 ADD DIV SWAP1 POP SWAP2 SWAP1 POP JUMP JUMPDEST PUSH0 DUP3 DUP3 SHL SWAP1 POP SWAP3 SWAP2 POP POP JUMP JUMPDEST PUSH0 PUSH1 0x8 DUP4 MUL PUSH2 0x204 PUSH32 0xFFFFFFFFFFFFFFFFFFFFFFFFFFFFFFFFFFFFFFFFFFFFFFFFFFFFFFFFFFFFFFFF DUP3 PUSH2 0x1C9 JUMP JUMPDEST PUSH2 0x20E DUP7 DUP4 PUSH2 0x1C9 JUMP JUMPDEST SWAP6 POP DUP1 NOT DUP5 AND SWAP4 POP DUP1 DUP7 AND DUP5 OR SWAP3 POP POP POP SWAP4 SWAP3 POP POP POP JUMP JUMPDEST PUSH0 DUP2 SWAP1 POP SWAP2 SWAP1 POP JUMP JUMPDEST PUSH0 DUP2 SWAP1 POP SWAP2 SWAP1 POP JUMP JUMPDEST PUSH0 PUSH2 0x252 PUSH2 0x24D PUSH2 0x248 DUP5 PUSH2 0x226 JUMP JUMPDEST PUSH2 0x22F JUMP JUMPDEST PUSH2 0x226 JUMP JUMPDEST SWAP1 POP SWAP2 SWAP1 POP JUMP JUMPDEST PUSH0 DUP2 SWAP1 POP SWAP2 SWAP1 POP JUMP JUMPDEST PUSH2 0x26B DUP4 PUSH2 0x238 JUMP JUMPDEST PUSH2 0x27F PUSH2 0x277 DUP3 PUSH2 0x259 JUMP JUMPDEST DUP5 DUP5 SLOAD PUSH2 0x1D5 JUMP JUMPDEST DUP3 SSTORE POP POP POP POP JUMP JUMPDEST PUSH0 SWAP1 JUMP JUMPDEST PUSH2 0x293 PUSH2 0x287 JUMP JUMPDEST PUSH2 0x29E DUP2 DUP5 DUP5 PUSH2 0x262 JUMP JUMPDEST POP POP POP JUMP JUMPDEST JUMPDEST DUP2 DUP2 LT ISZERO PUSH2 0x2C1 JUMPI PUSH2 0x2B6 PUSH0 DUP3 PUSH2 0x28B JUMP JUMPDEST PUSH1 0x1 DUP2 ADD SWAP1 POP PUSH2 0x2A4 JUMP JUMPDEST POP POP JUMP JUMPDEST PUSH1 0x1F DUP3 GT ISZERO PUSH2 0x306 JUMPI PUSH2 0x2D7 DUP2 PUSH2 0x1A8 JUMP JUMPDEST PUSH2 0x2E0 DUP5 PUSH2 0x1BA JUMP JUMPDEST DUP2 ADD PUSH1 0x20 DUP6 LT ISZERO PUSH2 0x2EF JUMPI DUP2 SWAP1 POP JUMPDEST PUSH2 0x303 PUSH2 0x2FB DUP6 PUSH2 0x1BA JUMP JUMPDEST DUP4 ADD DUP3 PUSH2 0x2A3 JUMP JUMPDEST POP POP JUMPDEST POP POP POP JUMP JUMPDEST PUSH0 DUP3 DUP3 SHR SWAP1 POP SWAP3 SWAP2 POP POP JUMP JUMPDEST PUSH0 PUSH2 0x326 PUSH0 NOT DUP5 PUSH1 0x8 MUL PUSH2 0x30B JUMP JUMPDEST NOT DUP1 DUP4 AND SWAP2 POP POP SWAP3 SWAP2 POP POP JUMP JUMPDEST PUSH0 PUSH2 0x33E DUP4 DUP4 PUSH2 0x317 JUMP JUMPDEST SWAP2 POP DUP3 PUSH1 0x2 MUL DUP3 OR SWAP1 POP SWAP3 SWAP2 POP POP JUMP JUMPDEST PUSH2 0x357 DUP3 PUSH2 0x114 JUMP JUMPDEST PUSH8 0xFFFFFFFFFFFFFFFF DUP2 GT ISZERO PUSH2 0x370 JUMPI PUSH2 0x36F PUSH2 0x11E JUMP JUMPDEST JUMPDEST PUSH2 0x37A DUP3 SLOAD PUSH2 0x178 JUMP JUMPDEST PUSH2 0x385 DUP3 DUP3 DUP6 PUSH2 0x2C5 JUMP JUMPDEST PUSH0 PUSH1 0x20 SWAP1 POP PUSH1 0x1F DUP4 GT PUSH1 0x1 DUP2 EQ PUSH2 0x3B6 JUMPI PUSH0 DUP5 ISZERO PUSH2 0x3A4 JUMPI DUP3 DUP8 ADD MLOAD SWAP1 POP JUMPDEST PUSH2 0x3AE DUP6 DUP3 PUSH2 0x333 JUMP JUMPDEST DUP7 SSTORE POP PUSH2 0x415 JUMP JUMPDEST PUSH1 0x1F NOT DUP5 AND PUSH2 0x3C4 DUP7 PUSH2 0x1A8 JUMP JUMPDEST PUSH0 JUMPDEST DUP3 DUP2 LT ISZERO PUSH2 0x3EB JUMPI DUP5 DUP10 ADD MLOAD DUP3 SSTORE PUSH1 0x1 DUP3 ADD SWAP2 POP PUSH1 0x20 DUP6 ADD SWAP5 POP PUSH1 0x20 DUP2 ADD SWAP1 POP PUSH2 0x3C6 JUMP JUMPDEST DUP7 DUP4 LT ISZERO PUSH2 0x408 JUMPI DUP5 DUP10 ADD MLOAD PUSH2 0x404 PUSH1 0x1F DUP10 AND DUP3 PUSH2 0x317 JUMP JUMPDEST DUP4 SSTORE POP JUMPDEST PUSH1 0x1 PUSH1 0x2 DUP9 MUL ADD DUP9 SSTORE POP POP POP JUMPDEST POP POP POP POP POP POP JUMP JUMPDEST PUSH2 0x1066 DUP1 PUSH2 0x42A PUSH0 CODECOPY PUSH0 RETURN INVALID PUSH1 0x80 PUSH1 0x40 MSTORE CALLVALUE DUP1 ISZERO PUSH2 0xF JUMPI PUSH0 DUP1 REVERT JUMPDEST POP PUSH1 0x4 CALLDATASIZE LT PUSH2 0xCD JUMPI PUSH0 CALLDATALOAD PUSH1 0xE0 SHR DUP1 PUSH4 0x4622AB03 GT PUSH2 0x8A JUMPI DUP1 PUSH4 0xABE7F1AB GT PUSH2 0x64 JUMPI DUP1 PUSH4 0xABE7F1AB EQ PUSH2 0x21E JUMPI DUP1 PUSH4 0xB464631B EQ PUSH2 0x23A JUMPI DUP1 PUSH4 0xC2BC2EFC EQ PUSH2 0x26A JUMPI DUP1 PUSH4 0xE5355268 EQ PUSH2 0x29A JUMPI PUSH2 0xCD JUMP JUMPDEST DUP1 PUSH4 0x4622AB03 EQ PUSH2 0x1A1 JUMPI DUP1 PUSH4 0x493EC707 EQ PUSH2 0x1D1 JUMPI DUP1 PUSH4 0x68744046 EQ PUSH2 0x1ED JUMPI PUSH2 0xCD JUMP JUMPDEST DUP1 PUSH4 0x28414F2 EQ PUSH2 0xD1 JUMPI DUP1 PUSH4 0xB139194 EQ PUSH2 0xED JUMPI DUP1 PUSH4 0x1481D24F EQ PUSH2 0x109 JUMPI DUP1 PUSH4 0x27CBD529 EQ PUSH2 0x139 JUMPI DUP1 PUSH4 0x29092D0E EQ PUSH2 0x169 JUMPI DUP1 PUSH4 0x3825D828 EQ PUSH2 0x185 JUMPI JUMPDEST PUSH0 DUP1 REVERT JUMPDEST PUSH2 0xEB PUSH1 0x4 DUP1 CALLDATASIZE SUB DUP2 ADD SWAP1 PUSH2 0xE6 SWAP2 SWAP1 PUSH2 0xA67 JUMP JUMPDEST PUSH2 0x2CB JUMP JUMPDEST STOP JUMPDEST PUSH2 0x107 PUSH1 0x4 DUP1 CALLDATASIZE SUB DUP2 ADD SWAP1 PUSH2 0x102 SWAP2 SWAP1 PUSH2 0xB7E JUMP JUMPDEST PUSH2 0x323 JUMP JUMPDEST STOP JUMPDEST PUSH2 0x123 PUSH1 0x4 DUP1 CALLDATASIZE SUB DUP2 ADD SWAP1 PUSH2 0x11E SWAP2 SWAP1 PUSH2 0xBCE JUMP JUMPDEST PUSH2 0x38B JUMP JUMPDEST PUSH1 0x40 MLOAD PUSH2 0x130 SWAP2 SWAP1 PUSH2 0xC1B JUMP JUMPDEST PUSH1 0x40 MLOAD DUP1 SWAP2 SUB SWAP1 RETURN JUMPDEST PUSH2 0x153 PUSH1 0x4 DUP1 CALLDATASIZE SUB DUP2 ADD SWAP1 PUSH2 0x14E SWAP2 SWAP1 PUSH2 0xC34 JUMP JUMPDEST PUSH2 0x3B5 JUMP JUMPDEST PUSH1 0x40 MLOAD PUSH2 0x160 SWAP2 SWAP1 PUSH2 0xC6E JUMP JUMPDEST PUSH1 0x40 MLOAD DUP1 SWAP2 SUB SWAP1 RETURN JUMPDEST PUSH2 0x183 PUSH1 0x4 DUP1 CALLDATASIZE SUB DUP2 ADD SWAP1 PUSH2 0x17E SWAP2 SWAP1 PUSH2 0xC34 JUMP JUMPDEST PUSH2 0x3C9 JUMP JUMPDEST STOP JUMPDEST PUSH2 0x19F PUSH1 0x4 DUP1 CALLDATASIZE SUB DUP2 ADD SWAP1 PUSH2 0x19A SWAP2 SWAP1 PUSH2 0xBCE JUMP JUMPDEST PUSH2 0x40B JUMP JUMPDEST STOP JUMPDEST PUSH2 0x1BB PUSH1 0x4 DUP1 CALLDATASIZE SUB DUP2 ADD SWAP1 PUSH2 0x1B6 SWAP2 SWAP1 PUSH2 0xC87 JUMP JUMPDEST PUSH2 0x450 JUMP JUMPDEST PUSH1 0x40 MLOAD PUSH2 0x1C8 SWAP2 SWAP1 PUSH2 0xD12 JUMP JUMPDEST PUSH1 0x40 MLOAD DUP1 SWAP2 SUB SWAP1 RETURN JUMPDEST PUSH2 0x1EB PUSH1 0x4 DUP1 CALLDATASIZE SUB DUP2 ADD SWAP1 PUSH2 0x1E6 SWAP2 SWAP1 PUSH2 0xA67 JUMP JUMPDEST PUSH2 0x4EB JUMP JUMPDEST STOP JUMPDEST PUSH2 0x207 PUSH1 0x4 DUP1 CALLDATASIZE SUB DUP2 ADD SWAP1 PUSH2 0x202 SWAP2 SWAP1 PUSH2 0xC87 JUMP JUMPDEST PUSH2 0x57E JUMP JUMPDEST PUSH1 0x40 MLOAD PUSH2 0x215 SWAP3 SWAP2 SWAP1 PUSH2 0xD32 JUMP JUMPDEST PUSH1 0x40 MLOAD DUP1 SWAP2 SUB SWAP1 RETURN JUMPDEST PUSH2 0x238 PUSH1 0x4 DUP1 CALLDATASIZE SUB DUP2 ADD SWAP1 PUSH2 0x233 SWAP2 SWAP1 PUSH2 0xBCE JUMP JUMPDEST PUSH2 0x6AA JUMP JUMPDEST STOP JUMPDEST PUSH2 0x254 PUSH1 0x4 DUP1 CALLDATASIZE SUB DUP2 ADD SWAP1 PUSH2 0x24F SWAP2 SWAP1 PUSH2 0xBCE JUMP JUMPDEST PUSH2 0x709 JUMP JUMPDEST PUSH1 0x40 MLOAD PUSH2 0x261 SWAP2 SWAP1 PUSH2 0xC1B JUMP JUMPDEST PUSH1 0x40 MLOAD DUP1 SWAP2 SUB SWAP1 RETURN JUMPDEST PUSH2 0x284 PUSH1 0x4 DUP1 CALLDATASIZE SUB DUP2 ADD SWAP1 PUSH2 0x27F SWAP2 SWAP1 PUSH2 0xC34 JUMP JUMPDEST PUSH2 0x76B JUMP JUMPDEST PUSH1 0x40 MLOAD PUSH2 0x291 SWAP2 SWAP1 PUSH2 0xC6E JUMP JUMPDEST PUSH1 0x40 MLOAD DUP1 SWAP2 SUB SWAP1 RETURN JUMPDEST PUSH2 0x2B4 PUSH1 0x4 DUP1 CALLDATASIZE SUB DUP2 ADD SWAP1 PUSH2 0x2AF SWAP2 SWAP1 PUSH2 0xBCE JUMP JUMPDEST PUSH2 0x7B0 JUMP JUMPDEST PUSH1 0x40 MLOAD PUSH2 0x2C2 SWAP3 SWAP2 SWAP1 PUSH2 0xD32 JUMP JUMPDEST PUSH1 0x40 MLOAD DUP1 SWAP2 SUB SWAP1 RETURN JUMPDEST PUSH1 0x40 MLOAD DUP1 PUSH1 0x40 ADD PUSH1 0x40 MSTORE DUP1 DUP4 DUP2 MSTORE PUSH1 0x20 ADD DUP3 DUP2 MSTORE POP PUSH1 0x3 PUSH0 DUP6 DUP2 MSTORE PUSH1 0x20 ADD SWAP1 DUP2 MSTORE PUSH1 0x20 ADD PUSH0 KECCAK256 PUSH0 DUP3 ADD MLOAD DUP2 PUSH0 ADD SWAP1 DUP2 PUSH2 0x304 SWAP2 SWAP1 PUSH2 0xF61 JUMP JUMPDEST POP PUSH1 0x20 DUP3 ADD MLOAD DUP2 PUSH1 0x1 ADD SWAP1 DUP2 PUSH2 0x31A SWAP2 SWAP1 PUSH2 0xF61 JUMP JUMPDEST POP SWAP1 POP POP POP POP POP JUMP JUMPDEST DUP1 PUSH1 0x2 PUSH0 DUP6 PUSH20 0xFFFFFFFFFFFFFFFFFFFFFFFFFFFFFFFFFFFFFFFF AND PUSH20 0xFFFFFFFFFFFFFFFFFFFFFFFFFFFFFFFFFFFFFFFF AND DUP2 MSTORE PUSH1 0x20 ADD SWAP1 DUP2 MSTORE PUSH1 0x20 ADD PUSH0 KECCAK256 PUSH0 DUP5 DUP2 MSTORE PUSH1 0x20 ADD SWAP1 DUP2 MSTORE PUSH1 0x20 ADD PUSH0 KECCAK256 PUSH0 PUSH2 0x100 EXP DUP2 SLOAD DUP2 PUSH1 0xFF MUL NOT AND SWAP1 DUP4 ISZERO ISZERO MUL OR SWAP1 SSTORE POP POP POP POP JUMP JUMPDEST PUSH1 0x2 PUSH1 0x20 MSTORE DUP2 PUSH0 MSTORE PUSH1 0x40 PUSH0 KECCAK256 PUSH1 0x20 MSTORE DUP1 PUSH0 MSTORE PUSH1 0x40 PUSH0 KECCAK256 PUSH0 SWAP2 POP SWAP2 POP SWAP1 SLOAD SWAP1 PUSH2 0x100 EXP SWAP1 DIV PUSH1 0xFF AND DUP2 JUMP JUMPDEST PUSH0 PUSH1 0x20 MSTORE DUP1 PUSH0 MSTORE PUSH1 0x40 PUSH0 KECCAK256 PUSH0 SWAP2 POP SWAP1 POP SLOAD DUP2 JUMP JUMPDEST PUSH0 DUP1 DUP3 PUSH20 0xFFFFFFFFFFFFFFFFFFFFFFFFFFFFFFFFFFFFFFFF AND PUSH20 0xFFFFFFFFFFFFFFFFFFFFFFFFFFFFFFFFFFFFFFFF AND DUP2 MSTORE PUSH1 0x20 ADD SWAP1 DUP2 MSTORE PUSH1 0x20 ADD PUSH0 KECCAK256 PUSH0 SWAP1 SSTORE POP JUMP JUMPDEST DUP1 PUSH0 DUP1 DUP5 PUSH20 0xFFFFFFFFFFFFFFFFFFFFFFFFFFFFFFFFFFFFFFFF AND PUSH20 0xFFFFFFFFFFFFFFFFFFFFFFFFFFFFFFFFFFFFFFFF AND DUP2 MSTORE PUSH1 0x20 ADD SWAP1 DUP2 MSTORE PUSH1 0x20 ADD PUSH0 KECCAK256 DUP2 SWAP1 SSTORE POP POP POP JUMP JUMPDEST PUSH1 0x1 PUSH1 0x20 MSTORE DUP1 PUSH0 MSTORE PUSH1 0x40 PUSH0 KECCAK256 PUSH0 SWAP2 POP SWAP1 POP DUP1 SLOAD PUSH2 0x46C SWAP1 PUSH2 0xD94 JUMP JUMPDEST DUP1 PUSH1 0x1F ADD PUSH1 0x20 DUP1 SWAP2 DIV MUL PUSH1 0x20 ADD PUSH1 0x40 MLOAD SWAP1 DUP2 ADD PUSH1 0x40 MSTORE DUP1 SWAP3 SWAP2 SWAP1 DUP2 DUP2 MSTORE PUSH1 0x20 ADD DUP3 DUP1 SLOAD PUSH2 0x498 SWAP1 PUSH2 0xD94 JUMP JUMPDEST DUP1 ISZERO PUSH2 0x4E3 JUMPI DUP1 PUSH1 0x1F LT PUSH2 0x4BA JUMPI PUSH2 0x100 DUP1 DUP4 SLOAD DIV MUL DUP4 MSTORE SWAP2 PUSH1 0x20 ADD SWAP2 PUSH2 0x4E3 JUMP JUMPDEST DUP3 ADD SWAP2 SWAP1 PUSH0 MSTORE PUSH1 0x20 PUSH0 KECCAK256 SWAP1 JUMPDEST DUP2 SLOAD DUP2 MSTORE SWAP1 PUSH1 0x1 ADD SWAP1 PUSH1 0x20 ADD DUP1 DUP4 GT PUSH2 0x4C6 JUMPI DUP3 SWAP1 SUB PUSH1 0x1F AND DUP3 ADD SWAP2 JUMPDEST POP POP POP POP POP DUP2 JUMP JUMPDEST PUSH1 0x40 MLOAD DUP1 PUSH1 0x40 ADD PUSH1 0x40 MSTORE DUP1 DUP4 DUP2 MSTORE PUSH1 0x20 ADD DUP3 DUP2 MSTORE POP PUSH1 0x4 PUSH0 CALLER PUSH20 0xFFFFFFFFFFFFFFFFFFFFFFFFFFFFFFFFFFFFFFFF AND PUSH20 0xFFFFFFFFFFFFFFFFFFFFFFFFFFFFFFFFFFFFFFFF AND DUP2 MSTORE PUSH1 0x20 ADD SWAP1 DUP2 MSTORE PUSH1 0x20 ADD PUSH0 KECCAK256 PUSH0 DUP6 DUP2 MSTORE PUSH1 0x20 ADD SWAP1 DUP2 MSTORE PUSH1 0x20 ADD PUSH0 KECCAK256 PUSH0 DUP3 ADD MLOAD DUP2 PUSH0 ADD SWAP1 DUP2 PUSH2 0x55F SWAP2 SWAP1 PUSH2 0xF61 JUMP JUMPDEST POP PUSH1 0x20 DUP3 ADD MLOAD DUP2 PUSH1 0x1 ADD SWAP1 DUP2 PUSH2 0x575 SWAP2 SWAP1 PUSH2 0xF61 JUMP JUMPDEST POP SWAP1 POP POP POP POP POP JUMP JUMPDEST PUSH1 0x3 PUSH1 0x20 MSTORE DUP1 PUSH0 MSTORE PUSH1 0x40 PUSH0 KECCAK256 PUSH0 SWAP2 POP SWAP1 POP DUP1 PUSH0 ADD DUP1 SLOAD PUSH2 0x59D SWAP1 PUSH2 0xD94 JUMP JUMPDEST DUP1 PUSH1 0x1F ADD PUSH1 0x20 DUP1 SWAP2 DIV MUL PUSH1 0x20 ADD PUSH1 0x40 MLOAD SWAP1 DUP2 ADD PUSH1 0x40 MSTORE DUP1 SWAP3 SWAP2 SWAP1 DUP2 DUP2 MSTORE PUSH1 0x20 ADD DUP3 DUP1 SLOAD PUSH2 0x5C9 SWAP1 PUSH2 0xD94 JUMP JUMPDEST DUP1 ISZERO PUSH2 0x614 JUMPI DUP1 PUSH1 0x1F LT PUSH2 0x5EB JUMPI PUSH2 0x100 DUP1 DUP4 SLOAD DIV MUL DUP4 MSTORE SWAP2 PUSH1 0x20 ADD SWAP2 PUSH2 0x614 JUMP JUMPDEST DUP3 ADD SWAP2 SWAP1 PUSH0 MSTORE PUSH1 0x20 PUSH0 KECCAK256 SWAP1 JUMPDEST DUP2 SLOAD DUP2 MSTORE SWAP1 PUSH1 0x1 ADD SWAP1 PUSH1 0x20 ADD DUP1 DUP4 GT PUSH2 0x5F7 JUMPI DUP3 SWAP1 SUB PUSH1 0x1F AND DUP3 ADD SWAP2 JUMPDEST POP POP POP POP POP SWAP1 DUP1 PUSH1 0x1 ADD DUP1 SLOAD PUSH2 0x629 SWAP1 PUSH2 0xD94 JUMP JUMPDEST DUP1 PUSH1 0x1F ADD PUSH1 0x20 DUP1 SWAP2 DIV MUL PUSH1 0x20 ADD PUSH1 0x40 MLOAD SWAP1 DUP2 ADD PUSH1 0x40 MSTORE DUP1 SWAP3 SWAP2 SWAP1 DUP2 DUP2 MSTORE PUSH1 0x20 ADD DUP3 DUP1 SLOAD PUSH2 0x655 SWAP1 PUSH2 0xD94 JUMP JUMPDEST DUP1 ISZERO PUSH2 0x6A0 JUMPI DUP1 PUSH1 0x1F LT PUSH2 0x677 JUMPI PUSH2 0x100 DUP1 DUP4 SLOAD DIV MUL DUP4 MSTORE SWAP2 PUSH1 0x20 ADD SWAP2 PUSH2 0x6A0 JUMP JUMPDEST DUP3 ADD SWAP2 SWAP1 PUSH0 MSTORE PUSH1 0x20 PUSH0 KECCAK256 SWAP1 JUMPDEST DUP2 SLOAD DUP2 MSTORE SWAP1 PUSH1 0x1 ADD SWAP1 PUSH1 0x20 ADD DUP1 DUP4 GT PUSH2 0x683 JUMPI DUP3 SWAP1 SUB PUSH1 0x1F AND DUP3 ADD SWAP2 JUMPDEST POP POP POP POP POP SWAP1 POP DUP3 JUMP JUMPDEST PUSH1 0x2 PUSH0 DUP4 PUSH20 0xFFFFFFFFFFFFFFFFFFFFFFFFFFFFFFFFFFFFFFFF AND PUSH20 0xFFFFFFFFFFFFFFFFFFFFFFFFFFFFFFFFFFFFFFFF AND DUP2 MSTORE PUSH1 0x20 ADD SWAP1 DUP2 MSTORE PUSH1 0x20 ADD PUSH0 KECCAK256 PUSH0 DUP3 DUP2 MSTORE PUSH1 0x20 ADD SWAP1 DUP2 MSTORE PUSH1 0x20 ADD PUSH0 KECCAK256 PUSH0 PUSH2 0x100 EXP DUP2 SLOAD SWAP1 PUSH1 0xFF MUL NOT AND SWAP1 SSTORE POP POP JUMP JUMPDEST PUSH0 PUSH1 0x2 PUSH0 DUP5 PUSH20 0xFFFFFFFFFFFFFFFFFFFFFFFFFFFFFFFFFFFFFFFF AND PUSH20 0xFFFFFFFFFFFFFFFFFFFFFFFFFFFFFFFFFFFFFFFF AND DUP2 MSTORE PUSH1 0x20 ADD SWAP1 DUP2 MSTORE PUSH1 0x20 ADD PUSH0 KECCAK256 PUSH0 DUP4 DUP2 MSTORE PUSH1 0x20 ADD SWAP1 DUP2 MSTORE PUSH1 0x20 ADD PUSH0 KECCAK256 PUSH0 SWAP1 SLOAD SWAP1 PUSH2 0x100 EXP SWAP1 DIV PUSH1 0xFF AND SWAP1 POP SWAP3 SWAP2 POP POP JUMP JUMPDEST PUSH0 DUP1 PUSH0 DUP4 PUSH20 0xFFFFFFFFFFFFFFFFFFFFFFFFFFFFFFFFFFFFFFFF AND PUSH20 0xFFFFFFFFFFFFFFFFFFFFFFFFFFFFFFFFFFFFFFFF AND DUP2 MSTORE PUSH1 0x20 ADD SWAP1 DUP2 MSTORE PUSH1 0x20 ADD PUSH0 KECCAK256 SLOAD SWAP1 POP SWAP2 SWAP1 POP JUMP JUMPDEST PUSH1 0x4 PUSH1 0x20 MSTORE DUP2 PUSH0 MSTORE PUSH1 0x40 PUSH0 KECCAK256 PUSH1 0x20 MSTORE DUP1 PUSH0 MSTORE PUSH1 0x40 PUSH0 KECCAK256 PUSH0 SWAP2 POP SWAP2 POP POP DUP1 PUSH0 ADD DUP1 SLOAD PUSH2 0x7DA SWAP1 PUSH2 0xD94 JUMP JUMPDEST DUP1 PUSH1 0x1F ADD PUSH1 0x20 DUP1 SWAP2 DIV MUL PUSH1 0x20 ADD PUSH1 0x40 MLOAD SWAP1 DUP2 ADD PUSH1 0x40 MSTORE DUP1 SWAP3 SWAP2 SWAP1 DUP2 DUP2 MSTORE PUSH1 0x20 ADD DUP3 DUP1 SLOAD PUSH2 0x806 SWAP1 PUSH2 0xD94 JUMP JUMPDEST DUP1 ISZERO PUSH2 0x851 JUMPI DUP1 PUSH1 0x1F LT PUSH2 0x828 JUMPI PUSH2 0x100 DUP1 DUP4 SLOAD DIV MUL DUP4 MSTORE SWAP2 PUSH1 0x20 ADD SWAP2 PUSH2 0x851 JUMP JUMPDEST DUP3 ADD SWAP2 SWAP1 PUSH0 MSTORE PUSH1 0x20 PUSH0 KECCAK256 SWAP1 JUMPDEST DUP2 SLOAD DUP2 MSTORE SWAP1 PUSH1 0x1 ADD SWAP1 PUSH1 0x20 ADD DUP1 DUP4 GT PUSH2 0x834 JUMPI DUP3 SWAP1 SUB PUSH1 0x1F AND DUP3 ADD SWAP2 JUMPDEST POP POP POP POP POP SWAP1 DUP1 PUSH1 0x1 ADD DUP1 SLOAD PUSH2 0x866 SWAP1 PUSH2 0xD94 JUMP JUMPDEST DUP1 PUSH1 0x1F ADD PUSH1 0x20 DUP1 SWAP2 DIV MUL PUSH1 0x20 ADD PUSH1 0x40 MLOAD SWAP1 DUP2 ADD PUSH1 0x40 MSTORE DUP1 SWAP3 SWAP2 SWAP1 DUP2 DUP2 MSTORE PUSH1 0x20 ADD DUP3 DUP1 SLOAD PUSH2 0x892 SWAP1 PUSH2 0xD94 JUMP JUMPDEST DUP1 ISZERO PUSH2 0x8DD JUMPI DUP1 PUSH1 0x1F LT PUSH2 0x8B4 JUMPI PUSH2 0x100 DUP1 DUP4 SLOAD DIV MUL DUP4 MSTORE SWAP2 PUSH1 0x20 ADD SWAP2 PUSH2 0x8DD JUMP JUMPDEST DUP3 ADD SWAP2 SWAP1 PUSH0 MSTORE PUSH1 0x20 PUSH0 KECCAK256 SWAP1 JUMPDEST DUP2 SLOAD DUP2 MSTORE SWAP1 PUSH1 0x1 ADD SWAP1 PUSH1 0x20 ADD DUP1 DUP4 GT PUSH2 0x8C0 JUMPI DUP3 SWAP1 SUB PUSH1 0x1F AND DUP3 ADD SWAP2 JUMPDEST POP POP POP POP POP SWAP1 POP DUP3 JUMP JUMPDEST PUSH0 PUSH1 0x40 MLOAD SWAP1 POP SWAP1 JUMP JUMPDEST PUSH0 DUP1 REVERT JUMPDEST PUSH0 DUP1 REVERT JUMPDEST PUSH0 DUP2 SWAP1 POP SWAP2 SWAP1 POP JUMP JUMPDEST PUSH2 0x90A DUP2 PUSH2 0x8F8 JUMP JUMPDEST DUP2 EQ PUSH2 0x914 JUMPI PUSH0 DUP1 REVERT JUMPDEST POP JUMP JUMPDEST PUSH0 DUP2 CALLDATALOAD SWAP1 POP PUSH2 0x925 DUP2 PUSH2 0x901 JUMP JUMPDEST SWAP3 SWAP2 POP POP JUMP JUMPDEST PUSH0 DUP1 REVERT JUMPDEST PUSH0 DUP1 REVERT JUMPDEST PUSH0 PUSH1 0x1F NOT PUSH1 0x1F DUP4 ADD AND SWAP1 POP SWAP2 SWAP1 POP JUMP JUMPDEST PUSH32 0x4E487B7100000000000000000000000000000000000000000000000000000000 PUSH0 MSTORE PUSH1 0x41 PUSH1 0x4 MSTORE PUSH1 0x24 PUSH0 REVERT JUMPDEST PUSH2 0x979 DUP3 PUSH2 0x933 JUMP JUMPDEST DUP2 ADD DUP2 DUP2 LT PUSH8 0xFFFFFFFFFFFFFFFF DUP3 GT OR ISZERO PUSH2 0x998 JUMPI PUSH2 0x997 PUSH2 0x943 JUMP JUMPDEST JUMPDEST DUP1 PUSH1 0x40 MSTORE POP POP POP JUMP JUMPDEST PUSH0 PUSH2 0x9AA PUSH2 0x8E7 JUMP JUMPDEST SWAP1 POP PUSH2 0x9B6 DUP3 DUP3 PUSH2 0x970 JUMP JUMPDEST SWAP2 SWAP1 POP JUMP JUMPDEST PUSH0 PUSH8 0xFFFFFFFFFFFFFFFF DUP3 GT ISZERO PUSH2 0x9D5 JUMPI PUSH2 0x9D4 PUSH2 0x943 JUMP JUMPDEST JUMPDEST PUSH2 0x9DE DUP3 PUSH2 0x933 JUMP JUMPDEST SWAP1 POP PUSH1 0x20 DUP2 ADD SWAP1 POP SWAP2 SWAP1 POP JUMP JUMPDEST DUP3 DUP2 DUP4 CALLDATACOPY PUSH0 DUP4 DUP4 ADD MSTORE POP POP POP JUMP JUMPDEST PUSH0 PUSH2 0xA0B PUSH2 0xA06 DUP5 PUSH2 0x9BB JUMP JUMPDEST PUSH2 0x9A1 JUMP JUMPDEST SWAP1 POP DUP3 DUP2 MSTORE PUSH1 0x20 DUP2 ADD DUP5 DUP5 DUP5 ADD GT ISZERO PUSH2 0xA27 JUMPI PUSH2 0xA26 PUSH2 0x92F JUMP JUMPDEST JUMPDEST PUSH2 0xA32 DUP5 DUP3 DUP6 PUSH2 0x9EB JUMP JUMPDEST POP SWAP4 SWAP3 POP POP POP JUMP JUMPDEST PUSH0 DUP3 PUSH1 0x1F DUP4 ADD SLT PUSH2 0xA4E JUMPI PUSH2 0xA4D PUSH2 0x92B JUMP JUMPDEST JUMPDEST DUP2 CALLDATALOAD PUSH2 0xA5E DUP5 DUP3 PUSH1 0x20 DUP7 ADD PUSH2 0x9F9 JUMP JUMPDEST SWAP2 POP POP SWAP3 SWAP2 POP POP JUMP JUMPDEST PUSH0 DUP1 PUSH0 PUSH1 0x60 DUP5 DUP7 SUB SLT ISZERO PUSH2 0xA7E JUMPI PUSH2 0xA7D PUSH2 0x8F0 JUMP JUMPDEST JUMPDEST PUSH0 PUSH2 0xA8B DUP7 DUP3 DUP8 ADD PUSH2 0x917 JUMP JUMPDEST SWAP4 POP POP PUSH1 0x20 DUP5 ADD CALLDATALOAD PUSH8 0xFFFFFFFFFFFFFFFF DUP2 GT ISZERO PUSH2 0xAAC JUMPI PUSH2 0xAAB PUSH2 0x8F4 JUMP JUMPDEST JUMPDEST PUSH2 0xAB8 DUP7 DUP3 DUP8 ADD PUSH2 0xA3A JUMP JUMPDEST SWAP3 POP POP PUSH1 0x40 DUP5 ADD CALLDATALOAD PUSH8 0xFFFFFFFFFFFFFFFF DUP2 GT ISZERO PUSH2 0xAD9 JUMPI PUSH2 0xAD8 PUSH2 0x8F4 JUMP JUMPDEST JUMPDEST PUSH2 0xAE5 DUP7 DUP3 DUP8 ADD PUSH2 0xA3A JUMP JUMPDEST SWAP2 POP POP SWAP3 POP SWAP3 POP SWAP3 JUMP JUMPDEST PUSH0 PUSH20 0xFFFFFFFFFFFFFFFFFFFFFFFFFFFFFFFFFFFFFFFF DUP3 AND SWAP1 POP SWAP2 SWAP1 POP JUMP JUMPDEST PUSH0 PUSH2 0xB18 DUP3 PUSH2 0xAEF JUMP JUMPDEST SWAP1 POP SWAP2 SWAP1 POP JUMP JUMPDEST PUSH2 0xB28 DUP2 PUSH2 0xB0E JUMP JUMPDEST DUP2 EQ PUSH2 0xB32 JUMPI PUSH0 DUP1 REVERT JUMPDEST POP JUMP JUMPDEST PUSH0 DUP2 CALLDATALOAD SWAP1 POP PUSH2 0xB43 DUP2 PUSH2 0xB1F JUMP JUMPDEST SWAP3 SWAP2 POP POP JUMP JUMPDEST PUSH0 DUP2 ISZERO ISZERO SWAP1 POP SWAP2 SWAP1 POP JUMP JUMPDEST PUSH2 0xB5D DUP2 PUSH2 0xB49 JUMP JUMPDEST DUP2 EQ PUSH2 0xB67 JUMPI PUSH0 DUP1 REVERT JUMPDEST POP JUMP JUMPDEST PUSH0 DUP2 CALLDATALOAD SWAP1 POP PUSH2 0xB78 DUP2 PUSH2 0xB54 JUMP JUMPDEST SWAP3 SWAP2 POP POP JUMP JUMPDEST PUSH0 DUP1 PUSH0 PUSH1 0x60 DUP5 DUP7 SUB SLT ISZERO PUSH2 0xB95 JUMPI PUSH2 0xB94 PUSH2 0x8F0 JUMP JUMPDEST JUMPDEST PUSH0 PUSH2 0xBA2 DUP7 DUP3 DUP8 ADD PUSH2 0xB35 JUMP JUMPDEST SWAP4 POP POP PUSH1 0x20 PUSH2 0xBB3 DUP7 DUP3 DUP8 ADD PUSH2 0x917 JUMP JUMPDEST SWAP3 POP POP PUSH1 0x40 PUSH2 0xBC4 DUP7 DUP3 DUP8 ADD PUSH2 0xB6A JUMP JUMPDEST SWAP2 POP POP SWAP3 POP SWAP3 POP SWAP3 JUMP JUMPDEST PUSH0 DUP1 PUSH1 0x40 DUP4 DUP6 SUB SLT ISZERO PUSH2 0xBE4 JUMPI PUSH2 0xBE3 PUSH2 0x8F0 JUMP JUMPDEST JUMPDEST PUSH0 PUSH2 0xBF1 DUP6 DUP3 DUP7 ADD PUSH2 0xB35 JUMP JUMPDEST SWAP3 POP POP PUSH1 0x20 PUSH2 0xC02 DUP6 DUP3 DUP7 ADD PUSH2 0x917 JUMP JUMPDEST SWAP2 POP POP SWAP3 POP SWAP3 SWAP1 POP JUMP JUMPDEST PUSH2 0xC15 DUP2 PUSH2 0xB49 JUMP JUMPDEST DUP3 MSTORE POP POP JUMP JUMPDEST PUSH0 PUSH1 0x20 DUP3 ADD SWAP1 POP PUSH2 0xC2E PUSH0 DUP4 ADD DUP5 PUSH2 0xC0C JUMP JUMPDEST SWAP3 SWAP2 POP POP JUMP JUMPDEST PUSH0 PUSH1 0x20 DUP3 DUP5 SUB SLT ISZERO PUSH2 0xC49 JUMPI PUSH2 0xC48 PUSH2 0x8F0 JUMP JUMPDEST JUMPDEST PUSH0 PUSH2 0xC56 DUP5 DUP3 DUP6 ADD PUSH2 0xB35 JUMP JUMPDEST SWAP2 POP POP SWAP3 SWAP2 POP POP JUMP JUMPDEST PUSH2 0xC68 DUP2 PUSH2 0x8F8 JUMP JUMPDEST DUP3 MSTORE POP POP JUMP JUMPDEST PUSH0 PUSH1 0x20 DUP3 ADD SWAP1 POP PUSH2 0xC81 PUSH0 DUP4 ADD DUP5 PUSH2 0xC5F JUMP JUMPDEST SWAP3 SWAP2 POP POP JUMP JUMPDEST PUSH0 PUSH1 0x20 DUP3 DUP5 SUB SLT ISZERO PUSH2 0xC9C JUMPI PUSH2 0xC9B PUSH2 0x8F0 JUMP JUMPDEST JUMPDEST PUSH0 PUSH2 0xCA9 DUP5 DUP3 DUP6 ADD PUSH2 0x917 JUMP JUMPDEST SWAP2 POP POP SWAP3 SWAP2 POP POP JUMP JUMPDEST PUSH0 DUP2 MLOAD SWAP1 POP SWAP2 SWAP1 POP JUMP JUMPDEST PUSH0 DUP3 DUP3 MSTORE PUSH1 0x20 DUP3 ADD SWAP1 POP SWAP3 SWAP2 POP POP JUMP JUMPDEST DUP3 DUP2 DUP4 MCOPY PUSH0 DUP4 DUP4 ADD MSTORE POP POP POP JUMP JUMPDEST PUSH0 PUSH2 0xCE4 DUP3 PUSH2 0xCB2 JUMP JUMPDEST PUSH2 0xCEE DUP2 DUP6 PUSH2 0xCBC JUMP JUMPDEST SWAP4 POP PUSH2 0xCFE DUP2 DUP6 PUSH1 0x20 DUP7 ADD PUSH2 0xCCC JUMP JUMPDEST PUSH2 0xD07 DUP2 PUSH2 0x933 JUMP JUMPDEST DUP5 ADD SWAP2 POP POP SWAP3 SWAP2 POP POP JUMP JUMPDEST PUSH0 PUSH1 0x20 DUP3 ADD SWAP1 POP DUP2 DUP2 SUB PUSH0 DUP4 ADD MSTORE PUSH2 0xD2A DUP2 DUP5 PUSH2 0xCDA JUMP JUMPDEST SWAP1 POP SWAP3 SWAP2 POP POP JUMP JUMPDEST PUSH0 PUSH1 0x40 DUP3 ADD SWAP1 POP DUP2 DUP2 SUB PUSH0 DUP4 ADD MSTORE PUSH2 0xD4A DUP2 DUP6 PUSH2 0xCDA JUMP JUMPDEST SWAP1 POP DUP2 DUP2 SUB PUSH1 0x20 DUP4 ADD MSTORE PUSH2 0xD5E DUP2 DUP5 PUSH2 0xCDA JUMP JUMPDEST SWAP1 POP SWAP4 SWAP3 POP POP POP JUMP JUMPDEST PUSH32 0x4E487B7100000000000000000000000000000000000000000000000000000000 PUSH0 MSTORE PUSH1 0x22 PUSH1 0x4 MSTORE PUSH1 0x24 PUSH0 REVERT JUMPDEST PUSH0 PUSH1 0x2 DUP3 DIV SWAP1 POP PUSH1 0x1 DUP3 AND DUP1 PUSH2 0xDAB JUMPI PUSH1 0x7F DUP3 AND SWAP2 POP JUMPDEST PUSH1 0x20 DUP3 LT DUP2 SUB PUSH2 0xDBE JUMPI PUSH2 0xDBD PUSH2 0xD67 JUMP JUMPDEST JUMPDEST POP SWAP2 SWAP1 POP JUMP JUMPDEST PUSH0 DUP2 SWAP1 POP DUP2 PUSH0 MSTORE PUSH1 0x20 PUSH0 KECCAK256 SWAP1 POP SWAP2 SWAP1 POP JUMP JUMPDEST PUSH0 PUSH1 0x20 PUSH1 0x1F DUP4 ADD DIV SWAP1 POP SWAP2 SWAP1 POP JUMP JUMPDEST PUSH0 DUP3 DUP3 SHL SWAP1 POP SWAP3 SWAP2 POP POP JUMP JUMPDEST PUSH0 PUSH1 0x8 DUP4 MUL PUSH2 0xE20 PUSH32 0xFFFFFFFFFFFFFFFFFFFFFFFFFFFFFFFFFFFFFFFFFFFFFFFFFFFFFFFFFFFFFFFF DUP3 PUSH2 0xDE5 JUMP JUMPDEST PUSH2 0xE2A DUP7 DUP4 PUSH2 0xDE5 JUMP JUMPDEST SWAP6 POP DUP1 NOT DUP5 AND SWAP4 POP DUP1 DUP7 AND DUP5 OR SWAP3 POP POP POP SWAP4 SWAP3 POP POP POP JUMP JUMPDEST PUSH0 DUP2 SWAP1 POP SWAP2 SWAP1 POP JUMP JUMPDEST PUSH0 PUSH2 0xE65 PUSH2 0xE60 PUSH2 0xE5B DUP5 PUSH2 0x8F8 JUMP JUMPDEST PUSH2 0xE42 JUMP JUMPDEST PUSH2 0x8F8 JUMP JUMPDEST SWAP1 POP SWAP2 SWAP1 POP JUMP JUMPDEST PUSH0 DUP2 SWAP1 POP SWAP2 SWAP1 POP JUMP JUMPDEST PUSH2 0xE7E DUP4 PUSH2 0xE4B JUMP JUMPDEST PUSH2 0xE92 PUSH2 0xE8A DUP3 PUSH2 0xE6C JUMP JUMPDEST DUP5 DUP5 SLOAD PUSH2 0xDF1 JUMP JUMPDEST DUP3 SSTORE POP POP POP POP JUMP JUMPDEST PUSH0 SWAP1 JUMP JUMPDEST PUSH2 0xEA6 PUSH2 0xE9A JUMP JUMPDEST PUSH2 0xEB1 DUP2 DUP5 DUP5 PUSH2 0xE75 JUMP JUMPDEST POP POP POP JUMP JUMPDEST JUMPDEST DUP2 DUP2 LT ISZERO PUSH2 0xED4 JUMPI PUSH2 0xEC9 PUSH0 DUP3 PUSH2 0xE9E JUMP JUMPDEST PUSH1 0x1 DUP2 ADD SWAP1 POP PUSH2 0xEB7 JUMP JUMPDEST POP POP JUMP JUMPDEST PUSH1 0x1F DUP3 GT ISZERO PUSH2 0xF19 JUMPI PUSH2 0xEEA DUP2 PUSH2 0xDC4 JUMP JUMPDEST PUSH2 0xEF3 DUP5 PUSH2 0xDD6 JUMP JUMPDEST DUP2 ADD PUSH1 0x20 DUP6 LT ISZERO PUSH2 0xF02 JUMPI DUP2 SWAP1 POP JUMPDEST PUSH2 0xF16 PUSH2 0xF0E DUP6 PUSH2 0xDD6 JUMP JUMPDEST DUP4 ADD DUP3 PUSH2 0xEB6 JUMP JUMPDEST POP POP JUMPDEST POP POP POP JUMP JUMPDEST PUSH0 DUP3 DUP3 SHR SWAP1 POP SWAP3 SWAP2 POP POP JUMP JUMPDEST PUSH0 PUSH2 0xF39 PUSH0 NOT DUP5 PUSH1 0x8 MUL PUSH2 0xF1E JUMP JUMPDEST NOT DUP1 DUP4 AND SWAP2 POP POP SWAP3 SWAP2 POP POP JUMP JUMPDEST PUSH0 PUSH2 0xF51 DUP4 DUP4 PUSH2 0xF2A JUMP JUMPDEST SWAP2 POP DUP3 PUSH1 0x2 MUL DUP3 OR SWAP1 POP SWAP3 SWAP2 POP POP JUMP JUMPDEST PUSH2 0xF6A DUP3 PUSH2 0xCB2 JUMP JUMPDEST PUSH8 0xFFFFFFFFFFFFFFFF DUP2 GT ISZERO PUSH2 0xF83 JUMPI PUSH2 0xF82 PUSH2 0x943 JUMP JUMPDEST JUMPDEST PUSH2 0xF8D DUP3 SLOAD PUSH2 0xD94 JUMP JUMPDEST PUSH2 0xF98 DUP3 DUP3 DUP6 PUSH2 0xED8 JUMP JUMPDEST PUSH0 PUSH1 0x20 SWAP1 POP PUSH1 0x1F DUP4 GT PUSH1 0x1 DUP2 EQ PUSH2 0xFC9 JUMPI PUSH0 DUP5 ISZERO PUSH2 0xFB7 JUMPI DUP3 DUP8 ADD MLOAD SWAP1 POP JUMPDEST PUSH2 0xFC1 DUP6 DUP3 PUSH2 0xF46 JUMP JUMPDEST DUP7 SSTORE POP PUSH2 0x1028 JUMP JUMPDEST PUSH1 0x1F NOT DUP5 AND PUSH2 0xFD7 DUP7 PUSH2 0xDC4 JUMP JUMPDEST PUSH0 JUMPDEST DUP3 DUP2 LT ISZERO PUSH2 0xFFE JUMPI DUP5 DUP10 ADD MLOAD DUP3 SSTORE PUSH1 0x1 DUP3 ADD SWAP2 POP PUSH1 0x20 DUP6 ADD SWAP5 POP PUSH1 0x20 DUP2 ADD SWAP1 POP PUSH2 0xFD9 JUMP JUMPDEST DUP7 DUP4 LT ISZERO PUSH2 0x101B JUMPI DUP5 DUP10 ADD MLOAD PUSH2 0x1017 PUSH1 0x1F DUP10 AND DUP3 PUSH2 0xF2A JUMP JUMPDEST DUP4 SSTORE POP JUMPDEST PUSH1 0x1 PUSH1 0x2 DUP9 MUL ADD DUP9 SSTORE POP POP POP JUMPDEST POP POP POP POP POP POP JUMP INVALID LOG2 PUSH5 0x6970667358 0x22 SLT KECCAK256 RETURNDATASIZE 0xC9 PUSH6 0x398066B66D7E BLOBHASH PUSH24 0xD533EBD84850BF22AEB14393BC880281488C081B7764736F PUSH13 0x634300081A0033000000000000 "
				},
				"gasEstimates": {
					"creation": {
						"codeDepositCost": "839600",
						"executionCost": "infinite",
						"totalCost": "infinite"
					},
					"external": {
						"MyBooks(address,uint256)": "infinite",
						"addBook(uint256,string,string)": "infinite",
						"addMyBook(uint256,string,string)": "infinite",
						"books(uint256)": "infinite",
						"get(address)": "2895",
						"get(address,uint256)": "3161",
						"myMap(address)": "2868",
						"names(uint256)": "infinite",
						"nestedMap(address,uint256)": "3116",
						"remove(address)": "5634",
						"remove(address,uint256)": "25047",
						"set(address,uint256)": "22933",
						"set(address,uint256,bool)": "25246"
					}
				},
				"methodIdentifiers": {
					"MyBooks(address,uint256)": "e5355268",
					"addBook(uint256,string,string)": "028414f2",
					"addMyBook(uint256,string,string)": "493ec707",
					"books(uint256)": "68744046",
					"get(address)": "c2bc2efc",
					"get(address,uint256)": "b464631b",
					"myMap(address)": "27cbd529",
					"names(uint256)": "4622ab03",
					"nestedMap(address,uint256)": "1481d24f",
					"remove(address)": "29092d0e",
					"remove(address,uint256)": "abe7f1ab",
					"set(address,uint256)": "3825d828",
					"set(address,uint256,bool)": "0b139194"
				}
			},
			"storageLayout": {
				"storage": [
					{
						"astId": 5,
						"contract": "LEARNING_SOLIDITY/Mapping.sol:MyMapping",
						"label": "myMap",
						"offset": 0,
						"slot": "0",
						"type": "t_mapping(t_address,t_uint256)"
					},
					{
						"astId": 9,
						"contract": "LEARNING_SOLIDITY/Mapping.sol:MyMapping",
						"label": "names",
						"offset": 0,
						"slot": "1",
						"type": "t_mapping(t_uint256,t_string_storage)"
					},
					{
						"astId": 15,
						"contract": "LEARNING_SOLIDITY/Mapping.sol:MyMapping",
						"label": "nestedMap",
						"offset": 0,
						"slot": "2",
						"type": "t_mapping(t_address,t_mapping(t_uint256,t_bool))"
					},
					{
						"astId": 128,
						"contract": "LEARNING_SOLIDITY/Mapping.sol:MyMapping",
						"label": "books",
						"offset": 0,
						"slot": "3",
						"type": "t_mapping(t_uint256,t_struct(Book)133_storage)"
					},
					{
						"astId": 159,
						"contract": "LEARNING_SOLIDITY/Mapping.sol:MyMapping",
						"label": "MyBooks",
						"offset": 0,
						"slot": "4",
						"type": "t_mapping(t_address,t_mapping(t_uint256,t_struct(Book)133_storage))"
					}
				],
				"types": {
					"t_address": {
						"encoding": "inplace",
						"label": "address",
						"numberOfBytes": "20"
					},
					"t_bool": {
						"encoding": "inplace",
						"label": "bool",
						"numberOfBytes": "1"
					},
					"t_mapping(t_address,t_mapping(t_uint256,t_bool))": {
						"encoding": "mapping",
						"key": "t_address",
						"label": "mapping(address => mapping(uint256 => bool))",
						"numberOfBytes": "32",
						"value": "t_mapping(t_uint256,t_bool)"
					},
					"t_mapping(t_address,t_mapping(t_uint256,t_struct(Book)133_storage))": {
						"encoding": "mapping",
						"key": "t_address",
						"label": "mapping(address => mapping(uint256 => struct MyMapping.Book))",
						"numberOfBytes": "32",
						"value": "t_mapping(t_uint256,t_struct(Book)133_storage)"
					},
					"t_mapping(t_address,t_uint256)": {
						"encoding": "mapping",
						"key": "t_address",
						"label": "mapping(address => uint256)",
						"numberOfBytes": "32",
						"value": "t_uint256"
					},
					"t_mapping(t_uint256,t_bool)": {
						"encoding": "mapping",
						"key": "t_uint256",
						"label": "mapping(uint256 => bool)",
						"numberOfBytes": "32",
						"value": "t_bool"
					},
					"t_mapping(t_uint256,t_string_storage)": {
						"encoding": "mapping",
						"key": "t_uint256",
						"label": "mapping(uint256 => string)",
						"numberOfBytes": "32",
						"value": "t_string_storage"
					},
					"t_mapping(t_uint256,t_struct(Book)133_storage)": {
						"encoding": "mapping",
						"key": "t_uint256",
						"label": "mapping(uint256 => struct MyMapping.Book)",
						"numberOfBytes": "32",
						"value": "t_struct(Book)133_storage"
					},
					"t_string_storage": {
						"encoding": "bytes",
						"label": "string",
						"numberOfBytes": "32"
					},
					"t_struct(Book)133_storage": {
						"encoding": "inplace",
						"label": "struct MyMapping.Book",
						"members": [
							{
								"astId": 130,
								"contract": "LEARNING_SOLIDITY/Mapping.sol:MyMapping",
								"label": "title",
								"offset": 0,
								"slot": "0",
								"type": "t_string_storage"
							},
							{
								"astId": 132,
								"contract": "LEARNING_SOLIDITY/Mapping.sol:MyMapping",
								"label": "author",
								"offset": 0,
								"slot": "1",
								"type": "t_string_storage"
							}
						],
						"numberOfBytes": "64"
					},
					"t_uint256": {
						"encoding": "inplace",
						"label": "uint256",
						"numberOfBytes": "32"
					}
				}
			},
			"userdoc": {
				"kind": "user",
				"methods": {},
				"version": 1
			}
		}
	}
}