{
	"LEARNING_SOLIDITY/Calling Other Contracts.sol": {
		"MyContract": {
			"abi": [
				{
					"inputs": [
						{
							"internalType": "address",
							"name": "_externalContract",
							"type": "address"
						}
					],
					"stateMutability": "nonpayable",
					"type": "constructor"
				},
				{
					"inputs": [],
					"name": "mustHaveSomeBalance",
					"outputs": [],
					"stateMutability": "nonpayable",
					"type": "function"
				}
			],
			"devdoc": {
				"kind": "dev",
				"methods": {},
				"version": 1
			},
			"evm": {
				"assembly": "    /* \"LEARNING_SOLIDITY/Calling Other Contracts.sol\":250:823  contract MyContract {... */\n  mstore(0x40, 0x80)\n    /* \"LEARNING_SOLIDITY/Calling Other Contracts.sol\":315:479  constructor(address _externalContract) {... */\n  callvalue\n  dup1\n  iszero\n  tag_1\n  jumpi\n  0x00\n  dup1\n  revert\ntag_1:\n  pop\n  mload(0x40)\n  sub(codesize, bytecodeSize)\n  dup1\n  bytecodeSize\n  dup4\n  codecopy\n  dup2\n  dup2\n  add\n  0x40\n  mstore\n  dup2\n  add\n  swap1\n  tag_2\n  swap2\n  swap1\n  tag_3\n  jump\t// in\ntag_2:\n    /* \"LEARNING_SOLIDITY/Calling Other Contracts.sol\":453:470  _externalContract */\n  dup1\n    /* \"LEARNING_SOLIDITY/Calling Other Contracts.sol\":421:437  externalContract */\n  0x00\n  dup1\n    /* \"LEARNING_SOLIDITY/Calling Other Contracts.sol\":421:471  externalContract = MinimalERC20(_externalContract) */\n  0x0100\n  exp\n  dup2\n  sload\n  dup2\n  0xffffffffffffffffffffffffffffffffffffffff\n  mul\n  not\n  and\n  swap1\n  dup4\n  0xffffffffffffffffffffffffffffffffffffffff\n  and\n  mul\n  or\n  swap1\n  sstore\n  pop\n    /* \"LEARNING_SOLIDITY/Calling Other Contracts.sol\":315:479  constructor(address _externalContract) {... */\n  pop\n    /* \"LEARNING_SOLIDITY/Calling Other Contracts.sol\":250:823  contract MyContract {... */\n  jump(tag_6)\n    /* \"#utility.yul\":88:205   */\ntag_8:\n    /* \"#utility.yul\":197:198   */\n  0x00\n    /* \"#utility.yul\":194:195   */\n  dup1\n    /* \"#utility.yul\":187:199   */\n  revert\n    /* \"#utility.yul\":334:460   */\ntag_10:\n    /* \"#utility.yul\":371:378   */\n  0x00\n    /* \"#utility.yul\":411:453   */\n  0xffffffffffffffffffffffffffffffffffffffff\n    /* \"#utility.yul\":404:409   */\n  dup3\n    /* \"#utility.yul\":400:454   */\n  and\n    /* \"#utility.yul\":389:454   */\n  swap1\n  pop\n    /* \"#utility.yul\":334:460   */\n  swap2\n  swap1\n  pop\n  jump\t// out\n    /* \"#utility.yul\":466:562   */\ntag_11:\n    /* \"#utility.yul\":503:510   */\n  0x00\n    /* \"#utility.yul\":532:556   */\n  tag_20\n    /* \"#utility.yul\":550:555   */\n  dup3\n    /* \"#utility.yul\":532:556   */\n  tag_10\n  jump\t// in\ntag_20:\n    /* \"#utility.yul\":521:556   */\n  swap1\n  pop\n    /* \"#utility.yul\":466:562   */\n  swap2\n  swap1\n  pop\n  jump\t// out\n    /* \"#utility.yul\":568:690   */\ntag_12:\n    /* \"#utility.yul\":641:665   */\n  tag_22\n    /* \"#utility.yul\":659:664   */\n  dup2\n    /* \"#utility.yul\":641:665   */\n  tag_11\n  jump\t// in\ntag_22:\n    /* \"#utility.yul\":634:639   */\n  dup2\n    /* \"#utility.yul\":631:666   */\n  eq\n    /* \"#utility.yul\":621:684   */\n  tag_23\n  jumpi\n    /* \"#utility.yul\":680:681   */\n  0x00\n    /* \"#utility.yul\":677:678   */\n  dup1\n    /* \"#utility.yul\":670:682   */\n  revert\n    /* \"#utility.yul\":621:684   */\ntag_23:\n    /* \"#utility.yul\":568:690   */\n  pop\n  jump\t// out\n    /* \"#utility.yul\":696:839   */\ntag_13:\n    /* \"#utility.yul\":753:758   */\n  0x00\n    /* \"#utility.yul\":784:790   */\n  dup2\n    /* \"#utility.yul\":778:791   */\n  mload\n    /* \"#utility.yul\":769:791   */\n  swap1\n  pop\n    /* \"#utility.yul\":800:833   */\n  tag_25\n    /* \"#utility.yul\":827:832   */\n  dup2\n    /* \"#utility.yul\":800:833   */\n  tag_12\n  jump\t// in\ntag_25:\n    /* \"#utility.yul\":696:839   */\n  swap3\n  swap2\n  pop\n  pop\n  jump\t// out\n    /* \"#utility.yul\":845:1196   */\ntag_3:\n    /* \"#utility.yul\":915:921   */\n  0x00\n    /* \"#utility.yul\":964:966   */\n  0x20\n    /* \"#utility.yul\":952:961   */\n  dup3\n    /* \"#utility.yul\":943:950   */\n  dup5\n    /* \"#utility.yul\":939:962   */\n  sub\n    /* \"#utility.yul\":935:967   */\n  slt\n    /* \"#utility.yul\":932:1051   */\n  iszero\n  tag_27\n  jumpi\n    /* \"#utility.yul\":970:1049   */\n  tag_28\n  tag_8\n  jump\t// in\ntag_28:\n    /* \"#utility.yul\":932:1051   */\ntag_27:\n    /* \"#utility.yul\":1090:1091   */\n  0x00\n    /* \"#utility.yul\":1115:1179   */\n  tag_29\n    /* \"#utility.yul\":1171:1178   */\n  dup5\n    /* \"#utility.yul\":1162:1168   */\n  dup3\n    /* \"#utility.yul\":1151:1160   */\n  dup6\n    /* \"#utility.yul\":1147:1169   */\n  add\n    /* \"#utility.yul\":1115:1179   */\n  tag_13\n  jump\t// in\ntag_29:\n    /* \"#utility.yul\":1105:1179   */\n  swap2\n  pop\n    /* \"#utility.yul\":1061:1189   */\n  pop\n    /* \"#utility.yul\":845:1196   */\n  swap3\n  swap2\n  pop\n  pop\n  jump\t// out\n    /* \"LEARNING_SOLIDITY/Calling Other Contracts.sol\":250:823  contract MyContract {... */\ntag_6:\n  dataSize(sub_0)\n  dup1\n  dataOffset(sub_0)\n  0x00\n  codecopy\n  0x00\n  return\nstop\n\nsub_0: assembly {\n        /* \"LEARNING_SOLIDITY/Calling Other Contracts.sol\":250:823  contract MyContract {... */\n      mstore(0x40, 0x80)\n      callvalue\n      dup1\n      iszero\n      tag_1\n      jumpi\n      0x00\n      dup1\n      revert\n    tag_1:\n      pop\n      jumpi(tag_2, lt(calldatasize, 0x04))\n      shr(0xe0, calldataload(0x00))\n      dup1\n      0x6af76fd8\n      eq\n      tag_3\n      jumpi\n    tag_2:\n      0x00\n      dup1\n      revert\n        /* \"LEARNING_SOLIDITY/Calling Other Contracts.sol\":487:820  function mustHaveSomeBalance() public {... */\n    tag_3:\n      tag_4\n      tag_5\n      jump\t// in\n    tag_4:\n      stop\n    tag_5:\n        /* \"LEARNING_SOLIDITY/Calling Other Contracts.sol\":668:680  uint balance */\n      0x00\n        /* \"LEARNING_SOLIDITY/Calling Other Contracts.sol\":683:699  externalContract */\n      dup1\n      0x00\n      swap1\n      sload\n      swap1\n      0x0100\n      exp\n      swap1\n      div\n      0xffffffffffffffffffffffffffffffffffffffff\n      and\n        /* \"LEARNING_SOLIDITY/Calling Other Contracts.sol\":683:709  externalContract.balanceOf */\n      0xffffffffffffffffffffffffffffffffffffffff\n      and\n      0x70a08231\n        /* \"LEARNING_SOLIDITY/Calling Other Contracts.sol\":710:720  msg.sender */\n      caller\n        /* \"LEARNING_SOLIDITY/Calling Other Contracts.sol\":683:721  externalContract.balanceOf(msg.sender) */\n      mload(0x40)\n      dup3\n      0xffffffff\n      and\n      0xe0\n      shl\n      dup2\n      mstore\n      0x04\n      add\n      tag_7\n      swap2\n      swap1\n      tag_8\n      jump\t// in\n    tag_7:\n      0x20\n      mload(0x40)\n      dup1\n      dup4\n      sub\n      dup2\n      dup7\n      gas\n      staticcall\n      iszero\n      dup1\n      iszero\n      tag_10\n      jumpi\n      returndatasize\n      0x00\n      dup1\n      returndatacopy\n      revert(0x00, returndatasize)\n    tag_10:\n      pop\n      pop\n      pop\n      pop\n      mload(0x40)\n      returndatasize\n      not(0x1f)\n      0x1f\n      dup3\n      add\n      and\n      dup3\n      add\n      dup1\n      0x40\n      mstore\n      pop\n      dup2\n      add\n      swap1\n      tag_11\n      swap2\n      swap1\n      tag_12\n      jump\t// in\n    tag_11:\n        /* \"LEARNING_SOLIDITY/Calling Other Contracts.sol\":668:721  uint balance = externalContract.balanceOf(msg.sender) */\n      swap1\n      pop\n        /* \"LEARNING_SOLIDITY/Calling Other Contracts.sol\":750:751  0 */\n      0x00\n        /* \"LEARNING_SOLIDITY/Calling Other Contracts.sol\":740:747  balance */\n      dup2\n        /* \"LEARNING_SOLIDITY/Calling Other Contracts.sol\":740:751  balance > 0 */\n      gt\n        /* \"LEARNING_SOLIDITY/Calling Other Contracts.sol\":732:802  require(balance > 0,  \"You don't own any tokens of external contract\") */\n      tag_13\n      jumpi\n      mload(0x40)\n      0x08c379a000000000000000000000000000000000000000000000000000000000\n      dup2\n      mstore\n      0x04\n      add\n      tag_14\n      swap1\n      tag_15\n      jump\t// in\n    tag_14:\n      mload(0x40)\n      dup1\n      swap2\n      sub\n      swap1\n      revert\n    tag_13:\n        /* \"LEARNING_SOLIDITY/Calling Other Contracts.sol\":525:820  {... */\n      pop\n        /* \"LEARNING_SOLIDITY/Calling Other Contracts.sol\":487:820  function mustHaveSomeBalance() public {... */\n      jump\t// out\n        /* \"#utility.yul\":7:133   */\n    tag_16:\n        /* \"#utility.yul\":44:51   */\n      0x00\n        /* \"#utility.yul\":84:126   */\n      0xffffffffffffffffffffffffffffffffffffffff\n        /* \"#utility.yul\":77:82   */\n      dup3\n        /* \"#utility.yul\":73:127   */\n      and\n        /* \"#utility.yul\":62:127   */\n      swap1\n      pop\n        /* \"#utility.yul\":7:133   */\n      swap2\n      swap1\n      pop\n      jump\t// out\n        /* \"#utility.yul\":139:235   */\n    tag_17:\n        /* \"#utility.yul\":176:183   */\n      0x00\n        /* \"#utility.yul\":205:229   */\n      tag_31\n        /* \"#utility.yul\":223:228   */\n      dup3\n        /* \"#utility.yul\":205:229   */\n      tag_16\n      jump\t// in\n    tag_31:\n        /* \"#utility.yul\":194:229   */\n      swap1\n      pop\n        /* \"#utility.yul\":139:235   */\n      swap2\n      swap1\n      pop\n      jump\t// out\n        /* \"#utility.yul\":241:359   */\n    tag_18:\n        /* \"#utility.yul\":328:352   */\n      tag_33\n        /* \"#utility.yul\":346:351   */\n      dup2\n        /* \"#utility.yul\":328:352   */\n      tag_17\n      jump\t// in\n    tag_33:\n        /* \"#utility.yul\":323:326   */\n      dup3\n        /* \"#utility.yul\":316:353   */\n      mstore\n        /* \"#utility.yul\":241:359   */\n      pop\n      pop\n      jump\t// out\n        /* \"#utility.yul\":365:587   */\n    tag_8:\n        /* \"#utility.yul\":458:462   */\n      0x00\n        /* \"#utility.yul\":496:498   */\n      0x20\n        /* \"#utility.yul\":485:494   */\n      dup3\n        /* \"#utility.yul\":481:499   */\n      add\n        /* \"#utility.yul\":473:499   */\n      swap1\n      pop\n        /* \"#utility.yul\":509:580   */\n      tag_35\n        /* \"#utility.yul\":577:578   */\n      0x00\n        /* \"#utility.yul\":566:575   */\n      dup4\n        /* \"#utility.yul\":562:579   */\n      add\n        /* \"#utility.yul\":553:559   */\n      dup5\n        /* \"#utility.yul\":509:580   */\n      tag_18\n      jump\t// in\n    tag_35:\n        /* \"#utility.yul\":365:587   */\n      swap3\n      swap2\n      pop\n      pop\n      jump\t// out\n        /* \"#utility.yul\":674:791   */\n    tag_20:\n        /* \"#utility.yul\":783:784   */\n      0x00\n        /* \"#utility.yul\":780:781   */\n      dup1\n        /* \"#utility.yul\":773:785   */\n      revert\n        /* \"#utility.yul\":920:997   */\n    tag_22:\n        /* \"#utility.yul\":957:964   */\n      0x00\n        /* \"#utility.yul\":986:991   */\n      dup2\n        /* \"#utility.yul\":975:991   */\n      swap1\n      pop\n        /* \"#utility.yul\":920:997   */\n      swap2\n      swap1\n      pop\n      jump\t// out\n        /* \"#utility.yul\":1003:1125   */\n    tag_23:\n        /* \"#utility.yul\":1076:1100   */\n      tag_41\n        /* \"#utility.yul\":1094:1099   */\n      dup2\n        /* \"#utility.yul\":1076:1100   */\n      tag_22\n      jump\t// in\n    tag_41:\n        /* \"#utility.yul\":1069:1074   */\n      dup2\n        /* \"#utility.yul\":1066:1101   */\n      eq\n        /* \"#utility.yul\":1056:1119   */\n      tag_42\n      jumpi\n        /* \"#utility.yul\":1115:1116   */\n      0x00\n        /* \"#utility.yul\":1112:1113   */\n      dup1\n        /* \"#utility.yul\":1105:1117   */\n      revert\n        /* \"#utility.yul\":1056:1119   */\n    tag_42:\n        /* \"#utility.yul\":1003:1125   */\n      pop\n      jump\t// out\n        /* \"#utility.yul\":1131:1274   */\n    tag_24:\n        /* \"#utility.yul\":1188:1193   */\n      0x00\n        /* \"#utility.yul\":1219:1225   */\n      dup2\n        /* \"#utility.yul\":1213:1226   */\n      mload\n        /* \"#utility.yul\":1204:1226   */\n      swap1\n      pop\n        /* \"#utility.yul\":1235:1268   */\n      tag_44\n        /* \"#utility.yul\":1262:1267   */\n      dup2\n        /* \"#utility.yul\":1235:1268   */\n      tag_23\n      jump\t// in\n    tag_44:\n        /* \"#utility.yul\":1131:1274   */\n      swap3\n      swap2\n      pop\n      pop\n      jump\t// out\n        /* \"#utility.yul\":1280:1631   */\n    tag_12:\n        /* \"#utility.yul\":1350:1356   */\n      0x00\n        /* \"#utility.yul\":1399:1401   */\n      0x20\n        /* \"#utility.yul\":1387:1396   */\n      dup3\n        /* \"#utility.yul\":1378:1385   */\n      dup5\n        /* \"#utility.yul\":1374:1397   */\n      sub\n        /* \"#utility.yul\":1370:1402   */\n      slt\n        /* \"#utility.yul\":1367:1486   */\n      iszero\n      tag_46\n      jumpi\n        /* \"#utility.yul\":1405:1484   */\n      tag_47\n      tag_20\n      jump\t// in\n    tag_47:\n        /* \"#utility.yul\":1367:1486   */\n    tag_46:\n        /* \"#utility.yul\":1525:1526   */\n      0x00\n        /* \"#utility.yul\":1550:1614   */\n      tag_48\n        /* \"#utility.yul\":1606:1613   */\n      dup5\n        /* \"#utility.yul\":1597:1603   */\n      dup3\n        /* \"#utility.yul\":1586:1595   */\n      dup6\n        /* \"#utility.yul\":1582:1604   */\n      add\n        /* \"#utility.yul\":1550:1614   */\n      tag_24\n      jump\t// in\n    tag_48:\n        /* \"#utility.yul\":1540:1614   */\n      swap2\n      pop\n        /* \"#utility.yul\":1496:1624   */\n      pop\n        /* \"#utility.yul\":1280:1631   */\n      swap3\n      swap2\n      pop\n      pop\n      jump\t// out\n        /* \"#utility.yul\":1637:1806   */\n    tag_25:\n        /* \"#utility.yul\":1721:1732   */\n      0x00\n        /* \"#utility.yul\":1755:1761   */\n      dup3\n        /* \"#utility.yul\":1750:1753   */\n      dup3\n        /* \"#utility.yul\":1743:1762   */\n      mstore\n        /* \"#utility.yul\":1795:1799   */\n      0x20\n        /* \"#utility.yul\":1790:1793   */\n      dup3\n        /* \"#utility.yul\":1786:1800   */\n      add\n        /* \"#utility.yul\":1771:1800   */\n      swap1\n      pop\n        /* \"#utility.yul\":1637:1806   */\n      swap3\n      swap2\n      pop\n      pop\n      jump\t// out\n        /* \"#utility.yul\":1812:2044   */\n    tag_26:\n        /* \"#utility.yul\":1952:1986   */\n      0x596f7520646f6e2774206f776e20616e7920746f6b656e73206f662065787465\n        /* \"#utility.yul\":1948:1949   */\n      0x00\n        /* \"#utility.yul\":1940:1946   */\n      dup3\n        /* \"#utility.yul\":1936:1950   */\n      add\n        /* \"#utility.yul\":1929:1987   */\n      mstore\n        /* \"#utility.yul\":2021:2036   */\n      0x726e616c20636f6e747261637400000000000000000000000000000000000000\n        /* \"#utility.yul\":2016:2018   */\n      0x20\n        /* \"#utility.yul\":2008:2014   */\n      dup3\n        /* \"#utility.yul\":2004:2019   */\n      add\n        /* \"#utility.yul\":1997:2037   */\n      mstore\n        /* \"#utility.yul\":1812:2044   */\n      pop\n      jump\t// out\n        /* \"#utility.yul\":2050:2416   */\n    tag_27:\n        /* \"#utility.yul\":2192:2195   */\n      0x00\n        /* \"#utility.yul\":2213:2280   */\n      tag_52\n        /* \"#utility.yul\":2277:2279   */\n      0x2d\n        /* \"#utility.yul\":2272:2275   */\n      dup4\n        /* \"#utility.yul\":2213:2280   */\n      tag_25\n      jump\t// in\n    tag_52:\n        /* \"#utility.yul\":2206:2280   */\n      swap2\n      pop\n        /* \"#utility.yul\":2289:2382   */\n      tag_53\n        /* \"#utility.yul\":2378:2381   */\n      dup3\n        /* \"#utility.yul\":2289:2382   */\n      tag_26\n      jump\t// in\n    tag_53:\n        /* \"#utility.yul\":2407:2409   */\n      0x40\n        /* \"#utility.yul\":2402:2405   */\n      dup3\n        /* \"#utility.yul\":2398:2410   */\n      add\n        /* \"#utility.yul\":2391:2410   */\n      swap1\n      pop\n        /* \"#utility.yul\":2050:2416   */\n      swap2\n      swap1\n      pop\n      jump\t// out\n        /* \"#utility.yul\":2422:2841   */\n    tag_15:\n        /* \"#utility.yul\":2588:2592   */\n      0x00\n        /* \"#utility.yul\":2626:2628   */\n      0x20\n        /* \"#utility.yul\":2615:2624   */\n      dup3\n        /* \"#utility.yul\":2611:2629   */\n      add\n        /* \"#utility.yul\":2603:2629   */\n      swap1\n      pop\n        /* \"#utility.yul\":2675:2684   */\n      dup2\n        /* \"#utility.yul\":2669:2673   */\n      dup2\n        /* \"#utility.yul\":2665:2685   */\n      sub\n        /* \"#utility.yul\":2661:2662   */\n      0x00\n        /* \"#utility.yul\":2650:2659   */\n      dup4\n        /* \"#utility.yul\":2646:2663   */\n      add\n        /* \"#utility.yul\":2639:2686   */\n      mstore\n        /* \"#utility.yul\":2703:2834   */\n      tag_55\n        /* \"#utility.yul\":2829:2833   */\n      dup2\n        /* \"#utility.yul\":2703:2834   */\n      tag_27\n      jump\t// in\n    tag_55:\n        /* \"#utility.yul\":2695:2834   */\n      swap1\n      pop\n        /* \"#utility.yul\":2422:2841   */\n      swap2\n      swap1\n      pop\n      jump\t// out\n\n    auxdata: 0xa2646970667358221220f018f8056024ee3e5df88fa942f627578ecd56243dafdfa230051e049a3a876364736f6c634300081a0033\n}\n",
				"bytecode": {
					"linkReferences": {},
					"object": "608060405234801561000f575f80fd5b506040516103b13803806103b1833981810160405281019061003191906100d4565b805f806101000a81548173ffffffffffffffffffffffffffffffffffffffff021916908373ffffffffffffffffffffffffffffffffffffffff160217905550506100ff565b5f80fd5b5f73ffffffffffffffffffffffffffffffffffffffff82169050919050565b5f6100a38261007a565b9050919050565b6100b381610099565b81146100bd575f80fd5b50565b5f815190506100ce816100aa565b92915050565b5f602082840312156100e9576100e8610076565b5b5f6100f6848285016100c0565b91505092915050565b6102a58061010c5f395ff3fe608060405234801561000f575f80fd5b5060043610610029575f3560e01c80636af76fd81461002d575b5f80fd5b610035610037565b005b5f805f9054906101000a900473ffffffffffffffffffffffffffffffffffffffff1673ffffffffffffffffffffffffffffffffffffffff166370a08231336040518263ffffffff1660e01b81526004016100919190610156565b602060405180830381865afa1580156100ac573d5f803e3d5ffd5b505050506040513d601f19601f820116820180604052508101906100d091906101a6565b90505f8111610114576040517f08c379a000000000000000000000000000000000000000000000000000000000815260040161010b90610251565b60405180910390fd5b50565b5f73ffffffffffffffffffffffffffffffffffffffff82169050919050565b5f61014082610117565b9050919050565b61015081610136565b82525050565b5f6020820190506101695f830184610147565b92915050565b5f80fd5b5f819050919050565b61018581610173565b811461018f575f80fd5b50565b5f815190506101a08161017c565b92915050565b5f602082840312156101bb576101ba61016f565b5b5f6101c884828501610192565b91505092915050565b5f82825260208201905092915050565b7f596f7520646f6e2774206f776e20616e7920746f6b656e73206f6620657874655f8201527f726e616c20636f6e747261637400000000000000000000000000000000000000602082015250565b5f61023b602d836101d1565b9150610246826101e1565b604082019050919050565b5f6020820190508181035f8301526102688161022f565b905091905056fea2646970667358221220f018f8056024ee3e5df88fa942f627578ecd56243dafdfa230051e049a3a876364736f6c634300081a0033",
					"opcodes": "PUSH1 0x80 PUSH1 0x40 MSTORE CALLVALUE DUP1 ISZERO PUSH2 0xF JUMPI PUSH0 DUP1 REVERT JUMPDEST POP PUSH1 0x40 MLOAD PUSH2 0x3B1 CODESIZE SUB DUP1 PUSH2 0x3B1 DUP4 CODECOPY DUP2 DUP2 ADD PUSH1 0x40 MSTORE DUP2 ADD SWAP1 PUSH2 0x31 SWAP2 SWAP1 PUSH2 0xD4 JUMP JUMPDEST DUP1 PUSH0 DUP1 PUSH2 0x100 EXP DUP2 SLOAD DUP2 PUSH20 0xFFFFFFFFFFFFFFFFFFFFFFFFFFFFFFFFFFFFFFFF MUL NOT AND SWAP1 DUP4 PUSH20 0xFFFFFFFFFFFFFFFFFFFFFFFFFFFFFFFFFFFFFFFF AND MUL OR SWAP1 SSTORE POP POP PUSH2 0xFF JUMP JUMPDEST PUSH0 DUP1 REVERT JUMPDEST PUSH0 PUSH20 0xFFFFFFFFFFFFFFFFFFFFFFFFFFFFFFFFFFFFFFFF DUP3 AND SWAP1 POP SWAP2 SWAP1 POP JUMP JUMPDEST PUSH0 PUSH2 0xA3 DUP3 PUSH2 0x7A JUMP JUMPDEST SWAP1 POP SWAP2 SWAP1 POP JUMP JUMPDEST PUSH2 0xB3 DUP2 PUSH2 0x99 JUMP JUMPDEST DUP2 EQ PUSH2 0xBD JUMPI PUSH0 DUP1 REVERT JUMPDEST POP JUMP JUMPDEST PUSH0 DUP2 MLOAD SWAP1 POP PUSH2 0xCE DUP2 PUSH2 0xAA JUMP JUMPDEST SWAP3 SWAP2 POP POP JUMP JUMPDEST PUSH0 PUSH1 0x20 DUP3 DUP5 SUB SLT ISZERO PUSH2 0xE9 JUMPI PUSH2 0xE8 PUSH2 0x76 JUMP JUMPDEST JUMPDEST PUSH0 PUSH2 0xF6 DUP5 DUP3 DUP6 ADD PUSH2 0xC0 JUMP JUMPDEST SWAP2 POP POP SWAP3 SWAP2 POP POP JUMP JUMPDEST PUSH2 0x2A5 DUP1 PUSH2 0x10C PUSH0 CODECOPY PUSH0 RETURN INVALID PUSH1 0x80 PUSH1 0x40 MSTORE CALLVALUE DUP1 ISZERO PUSH2 0xF JUMPI PUSH0 DUP1 REVERT JUMPDEST POP PUSH1 0x4 CALLDATASIZE LT PUSH2 0x29 JUMPI PUSH0 CALLDATALOAD PUSH1 0xE0 SHR DUP1 PUSH4 0x6AF76FD8 EQ PUSH2 0x2D JUMPI JUMPDEST PUSH0 DUP1 REVERT JUMPDEST PUSH2 0x35 PUSH2 0x37 JUMP JUMPDEST STOP JUMPDEST PUSH0 DUP1 PUSH0 SWAP1 SLOAD SWAP1 PUSH2 0x100 EXP SWAP1 DIV PUSH20 0xFFFFFFFFFFFFFFFFFFFFFFFFFFFFFFFFFFFFFFFF AND PUSH20 0xFFFFFFFFFFFFFFFFFFFFFFFFFFFFFFFFFFFFFFFF AND PUSH4 0x70A08231 CALLER PUSH1 0x40 MLOAD DUP3 PUSH4 0xFFFFFFFF AND PUSH1 0xE0 SHL DUP2 MSTORE PUSH1 0x4 ADD PUSH2 0x91 SWAP2 SWAP1 PUSH2 0x156 JUMP JUMPDEST PUSH1 0x20 PUSH1 0x40 MLOAD DUP1 DUP4 SUB DUP2 DUP7 GAS STATICCALL ISZERO DUP1 ISZERO PUSH2 0xAC JUMPI RETURNDATASIZE PUSH0 DUP1 RETURNDATACOPY RETURNDATASIZE PUSH0 REVERT JUMPDEST POP POP POP POP PUSH1 0x40 MLOAD RETURNDATASIZE PUSH1 0x1F NOT PUSH1 0x1F DUP3 ADD AND DUP3 ADD DUP1 PUSH1 0x40 MSTORE POP DUP2 ADD SWAP1 PUSH2 0xD0 SWAP2 SWAP1 PUSH2 0x1A6 JUMP JUMPDEST SWAP1 POP PUSH0 DUP2 GT PUSH2 0x114 JUMPI PUSH1 0x40 MLOAD PUSH32 0x8C379A000000000000000000000000000000000000000000000000000000000 DUP2 MSTORE PUSH1 0x4 ADD PUSH2 0x10B SWAP1 PUSH2 0x251 JUMP JUMPDEST PUSH1 0x40 MLOAD DUP1 SWAP2 SUB SWAP1 REVERT JUMPDEST POP JUMP JUMPDEST PUSH0 PUSH20 0xFFFFFFFFFFFFFFFFFFFFFFFFFFFFFFFFFFFFFFFF DUP3 AND SWAP1 POP SWAP2 SWAP1 POP JUMP JUMPDEST PUSH0 PUSH2 0x140 DUP3 PUSH2 0x117 JUMP JUMPDEST SWAP1 POP SWAP2 SWAP1 POP JUMP JUMPDEST PUSH2 0x150 DUP2 PUSH2 0x136 JUMP JUMPDEST DUP3 MSTORE POP POP JUMP JUMPDEST PUSH0 PUSH1 0x20 DUP3 ADD SWAP1 POP PUSH2 0x169 PUSH0 DUP4 ADD DUP5 PUSH2 0x147 JUMP JUMPDEST SWAP3 SWAP2 POP POP JUMP JUMPDEST PUSH0 DUP1 REVERT JUMPDEST PUSH0 DUP2 SWAP1 POP SWAP2 SWAP1 POP JUMP JUMPDEST PUSH2 0x185 DUP2 PUSH2 0x173 JUMP JUMPDEST DUP2 EQ PUSH2 0x18F JUMPI PUSH0 DUP1 REVERT JUMPDEST POP JUMP JUMPDEST PUSH0 DUP2 MLOAD SWAP1 POP PUSH2 0x1A0 DUP2 PUSH2 0x17C JUMP JUMPDEST SWAP3 SWAP2 POP POP JUMP JUMPDEST PUSH0 PUSH1 0x20 DUP3 DUP5 SUB SLT ISZERO PUSH2 0x1BB JUMPI PUSH2 0x1BA PUSH2 0x16F JUMP JUMPDEST JUMPDEST PUSH0 PUSH2 0x1C8 DUP5 DUP3 DUP6 ADD PUSH2 0x192 JUMP JUMPDEST SWAP2 POP POP SWAP3 SWAP2 POP POP JUMP JUMPDEST PUSH0 DUP3 DUP3 MSTORE PUSH1 0x20 DUP3 ADD SWAP1 POP SWAP3 SWAP2 POP POP JUMP JUMPDEST PUSH32 0x596F7520646F6E2774206F776E20616E7920746F6B656E73206F662065787465 PUSH0 DUP3 ADD MSTORE PUSH32 0x726E616C20636F6E747261637400000000000000000000000000000000000000 PUSH1 0x20 DUP3 ADD MSTORE POP JUMP JUMPDEST PUSH0 PUSH2 0x23B PUSH1 0x2D DUP4 PUSH2 0x1D1 JUMP JUMPDEST SWAP2 POP PUSH2 0x246 DUP3 PUSH2 0x1E1 JUMP JUMPDEST PUSH1 0x40 DUP3 ADD SWAP1 POP SWAP2 SWAP1 POP JUMP JUMPDEST PUSH0 PUSH1 0x20 DUP3 ADD SWAP1 POP DUP2 DUP2 SUB PUSH0 DUP4 ADD MSTORE PUSH2 0x268 DUP2 PUSH2 0x22F JUMP JUMPDEST SWAP1 POP SWAP2 SWAP1 POP JUMP INVALID LOG2 PUSH5 0x6970667358 0x22 SLT KECCAK256 CREATE XOR 0xF8 SDIV PUSH1 0x24 0xEE RETURNDATACOPY TSTORE 0xF8 DUP16 0xA9 TIMESTAMP 0xF6 0x27 JUMPI DUP15 0xCD JUMP 0x24 RETURNDATASIZE 0xAF 0xDF LOG2 ADDRESS SDIV 0x1E DIV SWAP11 GASPRICE DUP8 PUSH4 0x64736F6C PUSH4 0x4300081A STOP CALLER "
				},
				"gasEstimates": {
					"creation": {
						"codeDepositCost": "135400",
						"executionCost": "infinite",
						"totalCost": "infinite"
					},
					"external": {
						"mustHaveSomeBalance()": "infinite"
					}
				},
				"methodIdentifiers": {
					"mustHaveSomeBalance()": "6af76fd8"
				}
			},
			"storageLayout": {
				"storage": [
					{
						"astId": 12,
						"contract": "LEARNING_SOLIDITY/Calling Other Contracts.sol:MyContract",
						"label": "externalContract",
						"offset": 0,
						"slot": "0",
						"type": "t_contract(MinimalERC20)9"
					}
				],
				"types": {
					"t_contract(MinimalERC20)9": {
						"encoding": "inplace",
						"label": "contract MinimalERC20",
						"numberOfBytes": "20"
					}
				}
			},
			"userdoc": {
				"kind": "user",
				"methods": {},
				"version": 1
			}
		}
	}
}