{
	"data": {
		"bytecode": {
			"linkReferences": {},
			"object": "6080604052348015600e575f80fd5b5061021d8061001c5f395ff3fe608060405234801561000f575f80fd5b5060043610610055575f3560e01c80632fbebd38146100595780634e70b1dc1461008957806360fe47b1146100a75780636d4ce63c146100c3578063a92100cb146100e1575b5f80fd5b610073600480360381019061006e9190610194565b6100eb565b60405161008091906101ce565b60405180910390f35b610091610119565b60405161009e91906101ce565b60405180910390f35b6100c160048036038101906100bc9190610194565b61011e565b005b6100cb610127565b6040516100d891906101ce565b60405180910390f35b6100e961012f565b005b5f600a8210156100fd575f9050610114565b601482101561010f5760019050610114565b600290505b919050565b5f5481565b805f8190555050565b5f8054905090565b5f5b600a81101561015a57600381031561014d57600581031561015a575b8080600101915050610131565b50565b5f80fd5b5f819050919050565b61017381610161565b811461017d575f80fd5b50565b5f8135905061018e8161016a565b92915050565b5f602082840312156101a9576101a861015d565b5b5f6101b684828501610180565b91505092915050565b6101c881610161565b82525050565b5f6020820190506101e15f8301846101bf565b9291505056fea26469706673582212201fd3145d1530438de158370ac53eab5a5be2cd86fd337ee06587f455418b7a0d64736f6c634300081a0033",
			"opcodes": "PUSH1 0x80 PUSH1 0x40 MSTORE CALLVALUE DUP1 ISZERO PUSH1 0xE JUMPI PUSH0 DUP1 REVERT JUMPDEST POP PUSH2 0x21D DUP1 PUSH2 0x1C PUSH0 CODECOPY PUSH0 RETURN INVALID PUSH1 0x80 PUSH1 0x40 MSTORE CALLVALUE DUP1 ISZERO PUSH2 0xF JUMPI PUSH0 DUP1 REVERT JUMPDEST POP PUSH1 0x4 CALLDATASIZE LT PUSH2 0x55 JUMPI PUSH0 CALLDATALOAD PUSH1 0xE0 SHR DUP1 PUSH4 0x2FBEBD38 EQ PUSH2 0x59 JUMPI DUP1 PUSH4 0x4E70B1DC EQ PUSH2 0x89 JUMPI DUP1 PUSH4 0x60FE47B1 EQ PUSH2 0xA7 JUMPI DUP1 PUSH4 0x6D4CE63C EQ PUSH2 0xC3 JUMPI DUP1 PUSH4 0xA92100CB EQ PUSH2 0xE1 JUMPI JUMPDEST PUSH0 DUP1 REVERT JUMPDEST PUSH2 0x73 PUSH1 0x4 DUP1 CALLDATASIZE SUB DUP2 ADD SWAP1 PUSH2 0x6E SWAP2 SWAP1 PUSH2 0x194 JUMP JUMPDEST PUSH2 0xEB JUMP JUMPDEST PUSH1 0x40 MLOAD PUSH2 0x80 SWAP2 SWAP1 PUSH2 0x1CE JUMP JUMPDEST PUSH1 0x40 MLOAD DUP1 SWAP2 SUB SWAP1 RETURN JUMPDEST PUSH2 0x91 PUSH2 0x119 JUMP JUMPDEST PUSH1 0x40 MLOAD PUSH2 0x9E SWAP2 SWAP1 PUSH2 0x1CE JUMP JUMPDEST PUSH1 0x40 MLOAD DUP1 SWAP2 SUB SWAP1 RETURN JUMPDEST PUSH2 0xC1 PUSH1 0x4 DUP1 CALLDATASIZE SUB DUP2 ADD SWAP1 PUSH2 0xBC SWAP2 SWAP1 PUSH2 0x194 JUMP JUMPDEST PUSH2 0x11E JUMP JUMPDEST STOP JUMPDEST PUSH2 0xCB PUSH2 0x127 JUMP JUMPDEST PUSH1 0x40 MLOAD PUSH2 0xD8 SWAP2 SWAP1 PUSH2 0x1CE JUMP JUMPDEST PUSH1 0x40 MLOAD DUP1 SWAP2 SUB SWAP1 RETURN JUMPDEST PUSH2 0xE9 PUSH2 0x12F JUMP JUMPDEST STOP JUMPDEST PUSH0 PUSH1 0xA DUP3 LT ISZERO PUSH2 0xFD JUMPI PUSH0 SWAP1 POP PUSH2 0x114 JUMP JUMPDEST PUSH1 0x14 DUP3 LT ISZERO PUSH2 0x10F JUMPI PUSH1 0x1 SWAP1 POP PUSH2 0x114 JUMP JUMPDEST PUSH1 0x2 SWAP1 POP JUMPDEST SWAP2 SWAP1 POP JUMP JUMPDEST PUSH0 SLOAD DUP2 JUMP JUMPDEST DUP1 PUSH0 DUP2 SWAP1 SSTORE POP POP JUMP JUMPDEST PUSH0 DUP1 SLOAD SWAP1 POP SWAP1 JUMP JUMPDEST PUSH0 JUMPDEST PUSH1 0xA DUP2 LT ISZERO PUSH2 0x15A JUMPI PUSH1 0x3 DUP2 SUB ISZERO PUSH2 0x14D JUMPI PUSH1 0x5 DUP2 SUB ISZERO PUSH2 0x15A JUMPI JUMPDEST DUP1 DUP1 PUSH1 0x1 ADD SWAP2 POP POP PUSH2 0x131 JUMP JUMPDEST POP JUMP JUMPDEST PUSH0 DUP1 REVERT JUMPDEST PUSH0 DUP2 SWAP1 POP SWAP2 SWAP1 POP JUMP JUMPDEST PUSH2 0x173 DUP2 PUSH2 0x161 JUMP JUMPDEST DUP2 EQ PUSH2 0x17D JUMPI PUSH0 DUP1 REVERT JUMPDEST POP JUMP JUMPDEST PUSH0 DUP2 CALLDATALOAD SWAP1 POP PUSH2 0x18E DUP2 PUSH2 0x16A JUMP JUMPDEST SWAP3 SWAP2 POP POP JUMP JUMPDEST PUSH0 PUSH1 0x20 DUP3 DUP5 SUB SLT ISZERO PUSH2 0x1A9 JUMPI PUSH2 0x1A8 PUSH2 0x15D JUMP JUMPDEST JUMPDEST PUSH0 PUSH2 0x1B6 DUP5 DUP3 DUP6 ADD PUSH2 0x180 JUMP JUMPDEST SWAP2 POP POP SWAP3 SWAP2 POP POP JUMP JUMPDEST PUSH2 0x1C8 DUP2 PUSH2 0x161 JUMP JUMPDEST DUP3 MSTORE POP POP JUMP JUMPDEST PUSH0 PUSH1 0x20 DUP3 ADD SWAP1 POP PUSH2 0x1E1 PUSH0 DUP4 ADD DUP5 PUSH2 0x1BF JUMP JUMPDEST SWAP3 SWAP2 POP POP JUMP INVALID LOG2 PUSH5 0x6970667358 0x22 SLT KECCAK256 0x1F 0xD3 EQ TSTORE ISZERO ADDRESS NUMBER DUP14 0xE1 PC CALLDATACOPY EXP 0xC5 RETURNDATACOPY 0xAB GAS JUMPDEST 0xE2 0xCD DUP7 REVERT CALLER PUSH31 0xE06587F455418B7A0D64736F6C634300081A00330000000000000000000000 "
		},
		"gasEstimates": {
			"creation": {
				"codeDepositCost": "108200",
				"executionCost": "151",
				"totalCost": "108351"
			},
			"external": {
				"foo(uint256)": "infinite",
				"get()": "2476",
				"loop()": "infinite",
				"num()": "2424",
				"set(uint256)": "22536"
			}
		},
		"methodIdentifiers": {
			"foo(uint256)": "2fbebd38",
			"get()": "6d4ce63c",
			"loop()": "a92100cb",
			"num()": "4e70b1dc",
			"set(uint256)": "60fe47b1"
		}
	},
	"abi": [
		{
			"inputs": [
				{
					"internalType": "uint256",
					"name": "x",
					"type": "uint256"
				}
			],
			"name": "foo",
			"outputs": [
				{
					"internalType": "uint256",
					"name": "",
					"type": "uint256"
				}
			],
			"stateMutability": "nonpayable",
			"type": "function"
		},
		{
			"inputs": [],
			"name": "get",
			"outputs": [
				{
					"internalType": "uint256",
					"name": "",
					"type": "uint256"
				}
			],
			"stateMutability": "view",
			"type": "function"
		},
		{
			"inputs": [],
			"name": "loop",
			"outputs": [],
			"stateMutability": "nonpayable",
			"type": "function"
		},
		{
			"inputs": [],
			"name": "num",
			"outputs": [
				{
					"internalType": "uint256",
					"name": "",
					"type": "uint256"
				}
			],
			"stateMutability": "view",
			"type": "function"
		},
		{
			"inputs": [
				{
					"internalType": "uint256",
					"name": "_num",
					"type": "uint256"
				}
			],
			"name": "set",
			"outputs": [],
			"stateMutability": "nonpayable",
			"type": "function"
		}
	]
}