{
	"data": {
		"bytecode": {
			"linkReferences": {},
			"object": "60806040526040518060600160405280600160ff168152602001600260ff168152602001600360ff168152505f90600361003a929190610189565b5060405180606001604052806040518060400160405280600581526020017f6170706c6500000000000000000000000000000000000000000000000000000081525081526020016040518060400160405280600881526020017f6b67616f67656c6f00000000000000000000000000000000000000000000000081525081526020016040518060400160405280600781526020017f4c65746861626f0000000000000000000000000000000000000000000000000081525081525060019060036101059291906101d9565b5060405180604001604052806040518060600160405280600160ff168152602001600260ff168152602001600360ff1681525081526020016040518060600160405280600460ff168152602001600560ff168152602001600660ff168152508152506003906002610177929190610230565b50348015610183575f80fd5b5061064e565b828054828255905f5260205f209081019282156101c8579160200282015b828111156101c7578251829060ff169055916020019190600101906101a7565b5b5090506101d59190610289565b5090565b828054828255905f5260205f2090810192821561021f579160200282015b8281111561021e57825182908161020e919061057f565b50916020019190600101906101f7565b5b50905061022c91906102a4565b5090565b828054828255905f5260205f20908101928215610278579160200282015b8281111561027757825182906003610267929190610189565b509160200191906001019061024e565b5b50905061028591906102c7565b5090565b5b808211156102a0575f815f90555060010161028a565b5090565b5b808211156102c3575f81816102ba91906102ea565b506001016102a5565b5090565b5b808211156102e6575f81816102dd9190610327565b506001016102c8565b5090565b5080546102f6906103a9565b5f825580601f106103075750610324565b601f0160209004905f5260205f20908101906103239190610289565b5b50565b5080545f8255905f5260205f20908101906103429190610289565b50565b5f81519050919050565b7f4e487b71000000000000000000000000000000000000000000000000000000005f52604160045260245ffd5b7f4e487b71000000000000000000000000000000000000000000000000000000005f52602260045260245ffd5b5f60028204905060018216806103c057607f821691505b6020821081036103d3576103d261037c565b5b50919050565b5f819050815f5260205f209050919050565b5f6020601f8301049050919050565b5f82821b905092915050565b5f600883026104357fffffffffffffffffffffffffffffffffffffffffffffffffffffffffffffffff826103fa565b61043f86836103fa565b95508019841693508086168417925050509392505050565b5f819050919050565b5f819050919050565b5f61048361047e61047984610457565b610460565b610457565b9050919050565b5f819050919050565b61049c83610469565b6104b06104a88261048a565b848454610406565b825550505050565b5f90565b6104c46104b8565b6104cf818484610493565b505050565b5b818110156104f2576104e75f826104bc565b6001810190506104d5565b5050565b601f82111561053757610508816103d9565b610511846103eb565b81016020851015610520578190505b61053461052c856103eb565b8301826104d4565b50505b505050565b5f82821c905092915050565b5f6105575f198460080261053c565b1980831691505092915050565b5f61056f8383610548565b9150826002028217905092915050565b61058882610345565b67ffffffffffffffff8111156105a1576105a061034f565b5b6105ab82546103a9565b6105b68282856104f6565b5f60209050601f8311600181146105e7575f84156105d5578287015190505b6105df8582610564565b865550610646565b601f1984166105f5866103d9565b5f5b8281101561061c578489015182556001820191506020850194506020810190506105f7565b868310156106395784890151610635601f891682610548565b8355505b6001600288020188555050505b505050505050565b6109178061065b5f395ff3fe608060405234801561000f575f80fd5b5060043610610060575f3560e01c8063195f9ddb1461006457806326eb4dbb146100945780633a5fbaaa146100b25780636422c4c8146100ce5780639ae918c7146100fe578063c5a46ee61461012e575b5f80fd5b61007e60048036038101906100799190610384565b61015e565b60405161008b91906103d1565b60405180910390f35b61009c610194565b6040516100a991906103d1565b60405180910390f35b6100cc60048036038101906100c79190610526565b6101a0565b005b6100e860048036038101906100e3919061056d565b6101d5565b6040516100f591906105f8565b60405180910390f35b6101186004803603810190610113919061056d565b61027b565b60405161012591906103d1565b60405180910390f35b6101486004803603810190610143919061056d565b61029a565b60405161015591906105f8565b60405180910390f35b6003828154811061016d575f80fd5b905f5260205f20018181548110610182575f80fd5b905f5260205f20015f91509150505481565b5f600280549050905090565b600281908060018154018082558091505060019003905f5260205f20015f9091909190915090816101d19190610812565b5050565b600181815481106101e4575f80fd5b905f5260205f20015f9150905080546101fc90610645565b80601f016020809104026020016040519081016040528092919081815260200182805461022890610645565b80156102735780601f1061024a57610100808354040283529160200191610273565b820191905f5260205f20905b81548152906001019060200180831161025657829003601f168201915b505050505081565b5f8181548110610289575f80fd5b905f5260205f20015f915090505481565b600281815481106102a9575f80fd5b905f5260205f20015f9150905080546102c190610645565b80601f01602080910402602001604051908101604052809291908181526020018280546102ed90610645565b80156103385780601f1061030f57610100808354040283529160200191610338565b820191905f5260205f20905b81548152906001019060200180831161031b57829003601f168201915b505050505081565b5f604051905090565b5f80fd5b5f80fd5b5f819050919050565b61036381610351565b811461036d575f80fd5b50565b5f8135905061037e8161035a565b92915050565b5f806040838503121561039a57610399610349565b5b5f6103a785828601610370565b92505060206103b885828601610370565b9150509250929050565b6103cb81610351565b82525050565b5f6020820190506103e45f8301846103c2565b92915050565b5f80fd5b5f80fd5b5f601f19601f8301169050919050565b7f4e487b71000000000000000000000000000000000000000000000000000000005f52604160045260245ffd5b610438826103f2565b810181811067ffffffffffffffff8211171561045757610456610402565b5b80604052505050565b5f610469610340565b9050610475828261042f565b919050565b5f67ffffffffffffffff82111561049457610493610402565b5b61049d826103f2565b9050602081019050919050565b828183375f83830152505050565b5f6104ca6104c58461047a565b610460565b9050828152602081018484840111156104e6576104e56103ee565b5b6104f18482856104aa565b509392505050565b5f82601f83011261050d5761050c6103ea565b5b813561051d8482602086016104b8565b91505092915050565b5f6020828403121561053b5761053a610349565b5b5f82013567ffffffffffffffff8111156105585761055761034d565b5b610564848285016104f9565b91505092915050565b5f6020828403121561058257610581610349565b5b5f61058f84828501610370565b91505092915050565b5f81519050919050565b5f82825260208201905092915050565b8281835e5f83830152505050565b5f6105ca82610598565b6105d481856105a2565b93506105e48185602086016105b2565b6105ed816103f2565b840191505092915050565b5f6020820190508181035f83015261061081846105c0565b905092915050565b7f4e487b71000000000000000000000000000000000000000000000000000000005f52602260045260245ffd5b5f600282049050600182168061065c57607f821691505b60208210810361066f5761066e610618565b5b50919050565b5f819050815f5260205f209050919050565b5f6020601f8301049050919050565b5f82821b905092915050565b5f600883026106d17fffffffffffffffffffffffffffffffffffffffffffffffffffffffffffffffff82610696565b6106db8683610696565b95508019841693508086168417925050509392505050565b5f819050919050565b5f61071661071161070c84610351565b6106f3565b610351565b9050919050565b5f819050919050565b61072f836106fc565b61074361073b8261071d565b8484546106a2565b825550505050565b5f90565b61075761074b565b610762818484610726565b505050565b5b818110156107855761077a5f8261074f565b600181019050610768565b5050565b601f8211156107ca5761079b81610675565b6107a484610687565b810160208510156107b3578190505b6107c76107bf85610687565b830182610767565b50505b505050565b5f82821c905092915050565b5f6107ea5f19846008026107cf565b1980831691505092915050565b5f61080283836107db565b9150826002028217905092915050565b61081b82610598565b67ffffffffffffffff81111561083457610833610402565b5b61083e8254610645565b610849828285610789565b5f60209050601f83116001811461087a575f8415610868578287015190505b61087285826107f7565b8655506108d9565b601f19841661088886610675565b5f5b828110156108af5784890151825560018201915060208501945060208101905061088a565b868310156108cc57848901516108c8601f8916826107db565b8355505b6001600288020188555050505b50505050505056fea2646970667358221220df7316508ee92c7e068bec8506723402c19726c6b79c3b68bd367d59437453bc64736f6c634300081a0033",
			"opcodes": "PUSH1 0x80 PUSH1 0x40 MSTORE PUSH1 0x40 MLOAD DUP1 PUSH1 0x60 ADD PUSH1 0x40 MSTORE DUP1 PUSH1 0x1 PUSH1 0xFF AND DUP2 MSTORE PUSH1 0x20 ADD PUSH1 0x2 PUSH1 0xFF AND DUP2 MSTORE PUSH1 0x20 ADD PUSH1 0x3 PUSH1 0xFF AND DUP2 MSTORE POP PUSH0 SWAP1 PUSH1 0x3 PUSH2 0x3A SWAP3 SWAP2 SWAP1 PUSH2 0x189 JUMP JUMPDEST POP PUSH1 0x40 MLOAD DUP1 PUSH1 0x60 ADD PUSH1 0x40 MSTORE DUP1 PUSH1 0x40 MLOAD DUP1 PUSH1 0x40 ADD PUSH1 0x40 MSTORE DUP1 PUSH1 0x5 DUP2 MSTORE PUSH1 0x20 ADD PUSH32 0x6170706C65000000000000000000000000000000000000000000000000000000 DUP2 MSTORE POP DUP2 MSTORE PUSH1 0x20 ADD PUSH1 0x40 MLOAD DUP1 PUSH1 0x40 ADD PUSH1 0x40 MSTORE DUP1 PUSH1 0x8 DUP2 MSTORE PUSH1 0x20 ADD PUSH32 0x6B67616F67656C6F000000000000000000000000000000000000000000000000 DUP2 MSTORE POP DUP2 MSTORE PUSH1 0x20 ADD PUSH1 0x40 MLOAD DUP1 PUSH1 0x40 ADD PUSH1 0x40 MSTORE DUP1 PUSH1 0x7 DUP2 MSTORE PUSH1 0x20 ADD PUSH32 0x4C65746861626F00000000000000000000000000000000000000000000000000 DUP2 MSTORE POP DUP2 MSTORE POP PUSH1 0x1 SWAP1 PUSH1 0x3 PUSH2 0x105 SWAP3 SWAP2 SWAP1 PUSH2 0x1D9 JUMP JUMPDEST POP PUSH1 0x40 MLOAD DUP1 PUSH1 0x40 ADD PUSH1 0x40 MSTORE DUP1 PUSH1 0x40 MLOAD DUP1 PUSH1 0x60 ADD PUSH1 0x40 MSTORE DUP1 PUSH1 0x1 PUSH1 0xFF AND DUP2 MSTORE PUSH1 0x20 ADD PUSH1 0x2 PUSH1 0xFF AND DUP2 MSTORE PUSH1 0x20 ADD PUSH1 0x3 PUSH1 0xFF AND DUP2 MSTORE POP DUP2 MSTORE PUSH1 0x20 ADD PUSH1 0x40 MLOAD DUP1 PUSH1 0x60 ADD PUSH1 0x40 MSTORE DUP1 PUSH1 0x4 PUSH1 0xFF AND DUP2 MSTORE PUSH1 0x20 ADD PUSH1 0x5 PUSH1 0xFF AND DUP2 MSTORE PUSH1 0x20 ADD PUSH1 0x6 PUSH1 0xFF AND DUP2 MSTORE POP DUP2 MSTORE POP PUSH1 0x3 SWAP1 PUSH1 0x2 PUSH2 0x177 SWAP3 SWAP2 SWAP1 PUSH2 0x230 JUMP JUMPDEST POP CALLVALUE DUP1 ISZERO PUSH2 0x183 JUMPI PUSH0 DUP1 REVERT JUMPDEST POP PUSH2 0x64E JUMP JUMPDEST DUP3 DUP1 SLOAD DUP3 DUP3 SSTORE SWAP1 PUSH0 MSTORE PUSH1 0x20 PUSH0 KECCAK256 SWAP1 DUP2 ADD SWAP3 DUP3 ISZERO PUSH2 0x1C8 JUMPI SWAP2 PUSH1 0x20 MUL DUP3 ADD JUMPDEST DUP3 DUP2 GT ISZERO PUSH2 0x1C7 JUMPI DUP3 MLOAD DUP3 SWAP1 PUSH1 0xFF AND SWAP1 SSTORE SWAP2 PUSH1 0x20 ADD SWAP2 SWAP1 PUSH1 0x1 ADD SWAP1 PUSH2 0x1A7 JUMP JUMPDEST JUMPDEST POP SWAP1 POP PUSH2 0x1D5 SWAP2 SWAP1 PUSH2 0x289 JUMP JUMPDEST POP SWAP1 JUMP JUMPDEST DUP3 DUP1 SLOAD DUP3 DUP3 SSTORE SWAP1 PUSH0 MSTORE PUSH1 0x20 PUSH0 KECCAK256 SWAP1 DUP2 ADD SWAP3 DUP3 ISZERO PUSH2 0x21F JUMPI SWAP2 PUSH1 0x20 MUL DUP3 ADD JUMPDEST DUP3 DUP2 GT ISZERO PUSH2 0x21E JUMPI DUP3 MLOAD DUP3 SWAP1 DUP2 PUSH2 0x20E SWAP2 SWAP1 PUSH2 0x57F JUMP JUMPDEST POP SWAP2 PUSH1 0x20 ADD SWAP2 SWAP1 PUSH1 0x1 ADD SWAP1 PUSH2 0x1F7 JUMP JUMPDEST JUMPDEST POP SWAP1 POP PUSH2 0x22C SWAP2 SWAP1 PUSH2 0x2A4 JUMP JUMPDEST POP SWAP1 JUMP JUMPDEST DUP3 DUP1 SLOAD DUP3 DUP3 SSTORE SWAP1 PUSH0 MSTORE PUSH1 0x20 PUSH0 KECCAK256 SWAP1 DUP2 ADD SWAP3 DUP3 ISZERO PUSH2 0x278 JUMPI SWAP2 PUSH1 0x20 MUL DUP3 ADD JUMPDEST DUP3 DUP2 GT ISZERO PUSH2 0x277 JUMPI DUP3 MLOAD DUP3 SWAP1 PUSH1 0x3 PUSH2 0x267 SWAP3 SWAP2 SWAP1 PUSH2 0x189 JUMP JUMPDEST POP SWAP2 PUSH1 0x20 ADD SWAP2 SWAP1 PUSH1 0x1 ADD SWAP1 PUSH2 0x24E JUMP JUMPDEST JUMPDEST POP SWAP1 POP PUSH2 0x285 SWAP2 SWAP1 PUSH2 0x2C7 JUMP JUMPDEST POP SWAP1 JUMP JUMPDEST JUMPDEST DUP1 DUP3 GT ISZERO PUSH2 0x2A0 JUMPI PUSH0 DUP2 PUSH0 SWAP1 SSTORE POP PUSH1 0x1 ADD PUSH2 0x28A JUMP JUMPDEST POP SWAP1 JUMP JUMPDEST JUMPDEST DUP1 DUP3 GT ISZERO PUSH2 0x2C3 JUMPI PUSH0 DUP2 DUP2 PUSH2 0x2BA SWAP2 SWAP1 PUSH2 0x2EA JUMP JUMPDEST POP PUSH1 0x1 ADD PUSH2 0x2A5 JUMP JUMPDEST POP SWAP1 JUMP JUMPDEST JUMPDEST DUP1 DUP3 GT ISZERO PUSH2 0x2E6 JUMPI PUSH0 DUP2 DUP2 PUSH2 0x2DD SWAP2 SWAP1 PUSH2 0x327 JUMP JUMPDEST POP PUSH1 0x1 ADD PUSH2 0x2C8 JUMP JUMPDEST POP SWAP1 JUMP JUMPDEST POP DUP1 SLOAD PUSH2 0x2F6 SWAP1 PUSH2 0x3A9 JUMP JUMPDEST PUSH0 DUP3 SSTORE DUP1 PUSH1 0x1F LT PUSH2 0x307 JUMPI POP PUSH2 0x324 JUMP JUMPDEST PUSH1 0x1F ADD PUSH1 0x20 SWAP1 DIV SWAP1 PUSH0 MSTORE PUSH1 0x20 PUSH0 KECCAK256 SWAP1 DUP2 ADD SWAP1 PUSH2 0x323 SWAP2 SWAP1 PUSH2 0x289 JUMP JUMPDEST JUMPDEST POP JUMP JUMPDEST POP DUP1 SLOAD PUSH0 DUP3 SSTORE SWAP1 PUSH0 MSTORE PUSH1 0x20 PUSH0 KECCAK256 SWAP1 DUP2 ADD SWAP1 PUSH2 0x342 SWAP2 SWAP1 PUSH2 0x289 JUMP JUMPDEST POP JUMP JUMPDEST PUSH0 DUP2 MLOAD SWAP1 POP SWAP2 SWAP1 POP JUMP JUMPDEST PUSH32 0x4E487B7100000000000000000000000000000000000000000000000000000000 PUSH0 MSTORE PUSH1 0x41 PUSH1 0x4 MSTORE PUSH1 0x24 PUSH0 REVERT JUMPDEST PUSH32 0x4E487B7100000000000000000000000000000000000000000000000000000000 PUSH0 MSTORE PUSH1 0x22 PUSH1 0x4 MSTORE PUSH1 0x24 PUSH0 REVERT JUMPDEST PUSH0 PUSH1 0x2 DUP3 DIV SWAP1 POP PUSH1 0x1 DUP3 AND DUP1 PUSH2 0x3C0 JUMPI PUSH1 0x7F DUP3 AND SWAP2 POP JUMPDEST PUSH1 0x20 DUP3 LT DUP2 SUB PUSH2 0x3D3 JUMPI PUSH2 0x3D2 PUSH2 0x37C JUMP JUMPDEST JUMPDEST POP SWAP2 SWAP1 POP JUMP JUMPDEST PUSH0 DUP2 SWAP1 POP DUP2 PUSH0 MSTORE PUSH1 0x20 PUSH0 KECCAK256 SWAP1 POP SWAP2 SWAP1 POP JUMP JUMPDEST PUSH0 PUSH1 0x20 PUSH1 0x1F DUP4 ADD DIV SWAP1 POP SWAP2 SWAP1 POP JUMP JUMPDEST PUSH0 DUP3 DUP3 SHL SWAP1 POP SWAP3 SWAP2 POP POP JUMP JUMPDEST PUSH0 PUSH1 0x8 DUP4 MUL PUSH2 0x435 PUSH32 0xFFFFFFFFFFFFFFFFFFFFFFFFFFFFFFFFFFFFFFFFFFFFFFFFFFFFFFFFFFFFFFFF DUP3 PUSH2 0x3FA JUMP JUMPDEST PUSH2 0x43F DUP7 DUP4 PUSH2 0x3FA JUMP JUMPDEST SWAP6 POP DUP1 NOT DUP5 AND SWAP4 POP DUP1 DUP7 AND DUP5 OR SWAP3 POP POP POP SWAP4 SWAP3 POP POP POP JUMP JUMPDEST PUSH0 DUP2 SWAP1 POP SWAP2 SWAP1 POP JUMP JUMPDEST PUSH0 DUP2 SWAP1 POP SWAP2 SWAP1 POP JUMP JUMPDEST PUSH0 PUSH2 0x483 PUSH2 0x47E PUSH2 0x479 DUP5 PUSH2 0x457 JUMP JUMPDEST PUSH2 0x460 JUMP JUMPDEST PUSH2 0x457 JUMP JUMPDEST SWAP1 POP SWAP2 SWAP1 POP JUMP JUMPDEST PUSH0 DUP2 SWAP1 POP SWAP2 SWAP1 POP JUMP JUMPDEST PUSH2 0x49C DUP4 PUSH2 0x469 JUMP JUMPDEST PUSH2 0x4B0 PUSH2 0x4A8 DUP3 PUSH2 0x48A JUMP JUMPDEST DUP5 DUP5 SLOAD PUSH2 0x406 JUMP JUMPDEST DUP3 SSTORE POP POP POP POP JUMP JUMPDEST PUSH0 SWAP1 JUMP JUMPDEST PUSH2 0x4C4 PUSH2 0x4B8 JUMP JUMPDEST PUSH2 0x4CF DUP2 DUP5 DUP5 PUSH2 0x493 JUMP JUMPDEST POP POP POP JUMP JUMPDEST JUMPDEST DUP2 DUP2 LT ISZERO PUSH2 0x4F2 JUMPI PUSH2 0x4E7 PUSH0 DUP3 PUSH2 0x4BC JUMP JUMPDEST PUSH1 0x1 DUP2 ADD SWAP1 POP PUSH2 0x4D5 JUMP JUMPDEST POP POP JUMP JUMPDEST PUSH1 0x1F DUP3 GT ISZERO PUSH2 0x537 JUMPI PUSH2 0x508 DUP2 PUSH2 0x3D9 JUMP JUMPDEST PUSH2 0x511 DUP5 PUSH2 0x3EB JUMP JUMPDEST DUP2 ADD PUSH1 0x20 DUP6 LT ISZERO PUSH2 0x520 JUMPI DUP2 SWAP1 POP JUMPDEST PUSH2 0x534 PUSH2 0x52C DUP6 PUSH2 0x3EB JUMP JUMPDEST DUP4 ADD DUP3 PUSH2 0x4D4 JUMP JUMPDEST POP POP JUMPDEST POP POP POP JUMP JUMPDEST PUSH0 DUP3 DUP3 SHR SWAP1 POP SWAP3 SWAP2 POP POP JUMP JUMPDEST PUSH0 PUSH2 0x557 PUSH0 NOT DUP5 PUSH1 0x8 MUL PUSH2 0x53C JUMP JUMPDEST NOT DUP1 DUP4 AND SWAP2 POP POP SWAP3 SWAP2 POP POP JUMP JUMPDEST PUSH0 PUSH2 0x56F DUP4 DUP4 PUSH2 0x548 JUMP JUMPDEST SWAP2 POP DUP3 PUSH1 0x2 MUL DUP3 OR SWAP1 POP SWAP3 SWAP2 POP POP JUMP JUMPDEST PUSH2 0x588 DUP3 PUSH2 0x345 JUMP JUMPDEST PUSH8 0xFFFFFFFFFFFFFFFF DUP2 GT ISZERO PUSH2 0x5A1 JUMPI PUSH2 0x5A0 PUSH2 0x34F JUMP JUMPDEST JUMPDEST PUSH2 0x5AB DUP3 SLOAD PUSH2 0x3A9 JUMP JUMPDEST PUSH2 0x5B6 DUP3 DUP3 DUP6 PUSH2 0x4F6 JUMP JUMPDEST PUSH0 PUSH1 0x20 SWAP1 POP PUSH1 0x1F DUP4 GT PUSH1 0x1 DUP2 EQ PUSH2 0x5E7 JUMPI PUSH0 DUP5 ISZERO PUSH2 0x5D5 JUMPI DUP3 DUP8 ADD MLOAD SWAP1 POP JUMPDEST PUSH2 0x5DF DUP6 DUP3 PUSH2 0x564 JUMP JUMPDEST DUP7 SSTORE POP PUSH2 0x646 JUMP JUMPDEST PUSH1 0x1F NOT DUP5 AND PUSH2 0x5F5 DUP7 PUSH2 0x3D9 JUMP JUMPDEST PUSH0 JUMPDEST DUP3 DUP2 LT ISZERO PUSH2 0x61C JUMPI DUP5 DUP10 ADD MLOAD DUP3 SSTORE PUSH1 0x1 DUP3 ADD SWAP2 POP PUSH1 0x20 DUP6 ADD SWAP5 POP PUSH1 0x20 DUP2 ADD SWAP1 POP PUSH2 0x5F7 JUMP JUMPDEST DUP7 DUP4 LT ISZERO PUSH2 0x639 JUMPI DUP5 DUP10 ADD MLOAD PUSH2 0x635 PUSH1 0x1F DUP10 AND DUP3 PUSH2 0x548 JUMP JUMPDEST DUP4 SSTORE POP JUMPDEST PUSH1 0x1 PUSH1 0x2 DUP9 MUL ADD DUP9 SSTORE POP POP POP JUMPDEST POP POP POP POP POP POP JUMP JUMPDEST PUSH2 0x917 DUP1 PUSH2 0x65B PUSH0 CODECOPY PUSH0 RETURN INVALID PUSH1 0x80 PUSH1 0x40 MSTORE CALLVALUE DUP1 ISZERO PUSH2 0xF JUMPI PUSH0 DUP1 REVERT JUMPDEST POP PUSH1 0x4 CALLDATASIZE LT PUSH2 0x60 JUMPI PUSH0 CALLDATALOAD PUSH1 0xE0 SHR DUP1 PUSH4 0x195F9DDB EQ PUSH2 0x64 JUMPI DUP1 PUSH4 0x26EB4DBB EQ PUSH2 0x94 JUMPI DUP1 PUSH4 0x3A5FBAAA EQ PUSH2 0xB2 JUMPI DUP1 PUSH4 0x6422C4C8 EQ PUSH2 0xCE JUMPI DUP1 PUSH4 0x9AE918C7 EQ PUSH2 0xFE JUMPI DUP1 PUSH4 0xC5A46EE6 EQ PUSH2 0x12E JUMPI JUMPDEST PUSH0 DUP1 REVERT JUMPDEST PUSH2 0x7E PUSH1 0x4 DUP1 CALLDATASIZE SUB DUP2 ADD SWAP1 PUSH2 0x79 SWAP2 SWAP1 PUSH2 0x384 JUMP JUMPDEST PUSH2 0x15E JUMP JUMPDEST PUSH1 0x40 MLOAD PUSH2 0x8B SWAP2 SWAP1 PUSH2 0x3D1 JUMP JUMPDEST PUSH1 0x40 MLOAD DUP1 SWAP2 SUB SWAP1 RETURN JUMPDEST PUSH2 0x9C PUSH2 0x194 JUMP JUMPDEST PUSH1 0x40 MLOAD PUSH2 0xA9 SWAP2 SWAP1 PUSH2 0x3D1 JUMP JUMPDEST PUSH1 0x40 MLOAD DUP1 SWAP2 SUB SWAP1 RETURN JUMPDEST PUSH2 0xCC PUSH1 0x4 DUP1 CALLDATASIZE SUB DUP2 ADD SWAP1 PUSH2 0xC7 SWAP2 SWAP1 PUSH2 0x526 JUMP JUMPDEST PUSH2 0x1A0 JUMP JUMPDEST STOP JUMPDEST PUSH2 0xE8 PUSH1 0x4 DUP1 CALLDATASIZE SUB DUP2 ADD SWAP1 PUSH2 0xE3 SWAP2 SWAP1 PUSH2 0x56D JUMP JUMPDEST PUSH2 0x1D5 JUMP JUMPDEST PUSH1 0x40 MLOAD PUSH2 0xF5 SWAP2 SWAP1 PUSH2 0x5F8 JUMP JUMPDEST PUSH1 0x40 MLOAD DUP1 SWAP2 SUB SWAP1 RETURN JUMPDEST PUSH2 0x118 PUSH1 0x4 DUP1 CALLDATASIZE SUB DUP2 ADD SWAP1 PUSH2 0x113 SWAP2 SWAP1 PUSH2 0x56D JUMP JUMPDEST PUSH2 0x27B JUMP JUMPDEST PUSH1 0x40 MLOAD PUSH2 0x125 SWAP2 SWAP1 PUSH2 0x3D1 JUMP JUMPDEST PUSH1 0x40 MLOAD DUP1 SWAP2 SUB SWAP1 RETURN JUMPDEST PUSH2 0x148 PUSH1 0x4 DUP1 CALLDATASIZE SUB DUP2 ADD SWAP1 PUSH2 0x143 SWAP2 SWAP1 PUSH2 0x56D JUMP JUMPDEST PUSH2 0x29A JUMP JUMPDEST PUSH1 0x40 MLOAD PUSH2 0x155 SWAP2 SWAP1 PUSH2 0x5F8 JUMP JUMPDEST PUSH1 0x40 MLOAD DUP1 SWAP2 SUB SWAP1 RETURN JUMPDEST PUSH1 0x3 DUP3 DUP2 SLOAD DUP2 LT PUSH2 0x16D JUMPI PUSH0 DUP1 REVERT JUMPDEST SWAP1 PUSH0 MSTORE PUSH1 0x20 PUSH0 KECCAK256 ADD DUP2 DUP2 SLOAD DUP2 LT PUSH2 0x182 JUMPI PUSH0 DUP1 REVERT JUMPDEST SWAP1 PUSH0 MSTORE PUSH1 0x20 PUSH0 KECCAK256 ADD PUSH0 SWAP2 POP SWAP2 POP POP SLOAD DUP2 JUMP JUMPDEST PUSH0 PUSH1 0x2 DUP1 SLOAD SWAP1 POP SWAP1 POP SWAP1 JUMP JUMPDEST PUSH1 0x2 DUP2 SWAP1 DUP1 PUSH1 0x1 DUP2 SLOAD ADD DUP1 DUP3 SSTORE DUP1 SWAP2 POP POP PUSH1 0x1 SWAP1 SUB SWAP1 PUSH0 MSTORE PUSH1 0x20 PUSH0 KECCAK256 ADD PUSH0 SWAP1 SWAP2 SWAP1 SWAP2 SWAP1 SWAP2 POP SWAP1 DUP2 PUSH2 0x1D1 SWAP2 SWAP1 PUSH2 0x812 JUMP JUMPDEST POP POP JUMP JUMPDEST PUSH1 0x1 DUP2 DUP2 SLOAD DUP2 LT PUSH2 0x1E4 JUMPI PUSH0 DUP1 REVERT JUMPDEST SWAP1 PUSH0 MSTORE PUSH1 0x20 PUSH0 KECCAK256 ADD PUSH0 SWAP2 POP SWAP1 POP DUP1 SLOAD PUSH2 0x1FC SWAP1 PUSH2 0x645 JUMP JUMPDEST DUP1 PUSH1 0x1F ADD PUSH1 0x20 DUP1 SWAP2 DIV MUL PUSH1 0x20 ADD PUSH1 0x40 MLOAD SWAP1 DUP2 ADD PUSH1 0x40 MSTORE DUP1 SWAP3 SWAP2 SWAP1 DUP2 DUP2 MSTORE PUSH1 0x20 ADD DUP3 DUP1 SLOAD PUSH2 0x228 SWAP1 PUSH2 0x645 JUMP JUMPDEST DUP1 ISZERO PUSH2 0x273 JUMPI DUP1 PUSH1 0x1F LT PUSH2 0x24A JUMPI PUSH2 0x100 DUP1 DUP4 SLOAD DIV MUL DUP4 MSTORE SWAP2 PUSH1 0x20 ADD SWAP2 PUSH2 0x273 JUMP JUMPDEST DUP3 ADD SWAP2 SWAP1 PUSH0 MSTORE PUSH1 0x20 PUSH0 KECCAK256 SWAP1 JUMPDEST DUP2 SLOAD DUP2 MSTORE SWAP1 PUSH1 0x1 ADD SWAP1 PUSH1 0x20 ADD DUP1 DUP4 GT PUSH2 0x256 JUMPI DUP3 SWAP1 SUB PUSH1 0x1F AND DUP3 ADD SWAP2 JUMPDEST POP POP POP POP POP DUP2 JUMP JUMPDEST PUSH0 DUP2 DUP2 SLOAD DUP2 LT PUSH2 0x289 JUMPI PUSH0 DUP1 REVERT JUMPDEST SWAP1 PUSH0 MSTORE PUSH1 0x20 PUSH0 KECCAK256 ADD PUSH0 SWAP2 POP SWAP1 POP SLOAD DUP2 JUMP JUMPDEST PUSH1 0x2 DUP2 DUP2 SLOAD DUP2 LT PUSH2 0x2A9 JUMPI PUSH0 DUP1 REVERT JUMPDEST SWAP1 PUSH0 MSTORE PUSH1 0x20 PUSH0 KECCAK256 ADD PUSH0 SWAP2 POP SWAP1 POP DUP1 SLOAD PUSH2 0x2C1 SWAP1 PUSH2 0x645 JUMP JUMPDEST DUP1 PUSH1 0x1F ADD PUSH1 0x20 DUP1 SWAP2 DIV MUL PUSH1 0x20 ADD PUSH1 0x40 MLOAD SWAP1 DUP2 ADD PUSH1 0x40 MSTORE DUP1 SWAP3 SWAP2 SWAP1 DUP2 DUP2 MSTORE PUSH1 0x20 ADD DUP3 DUP1 SLOAD PUSH2 0x2ED SWAP1 PUSH2 0x645 JUMP JUMPDEST DUP1 ISZERO PUSH2 0x338 JUMPI DUP1 PUSH1 0x1F LT PUSH2 0x30F JUMPI PUSH2 0x100 DUP1 DUP4 SLOAD DIV MUL DUP4 MSTORE SWAP2 PUSH1 0x20 ADD SWAP2 PUSH2 0x338 JUMP JUMPDEST DUP3 ADD SWAP2 SWAP1 PUSH0 MSTORE PUSH1 0x20 PUSH0 KECCAK256 SWAP1 JUMPDEST DUP2 SLOAD DUP2 MSTORE SWAP1 PUSH1 0x1 ADD SWAP1 PUSH1 0x20 ADD DUP1 DUP4 GT PUSH2 0x31B JUMPI DUP3 SWAP1 SUB PUSH1 0x1F AND DUP3 ADD SWAP2 JUMPDEST POP POP POP POP POP DUP2 JUMP JUMPDEST PUSH0 PUSH1 0x40 MLOAD SWAP1 POP SWAP1 JUMP JUMPDEST PUSH0 DUP1 REVERT JUMPDEST PUSH0 DUP1 REVERT JUMPDEST PUSH0 DUP2 SWAP1 POP SWAP2 SWAP1 POP JUMP JUMPDEST PUSH2 0x363 DUP2 PUSH2 0x351 JUMP JUMPDEST DUP2 EQ PUSH2 0x36D JUMPI PUSH0 DUP1 REVERT JUMPDEST POP JUMP JUMPDEST PUSH0 DUP2 CALLDATALOAD SWAP1 POP PUSH2 0x37E DUP2 PUSH2 0x35A JUMP JUMPDEST SWAP3 SWAP2 POP POP JUMP JUMPDEST PUSH0 DUP1 PUSH1 0x40 DUP4 DUP6 SUB SLT ISZERO PUSH2 0x39A JUMPI PUSH2 0x399 PUSH2 0x349 JUMP JUMPDEST JUMPDEST PUSH0 PUSH2 0x3A7 DUP6 DUP3 DUP7 ADD PUSH2 0x370 JUMP JUMPDEST SWAP3 POP POP PUSH1 0x20 PUSH2 0x3B8 DUP6 DUP3 DUP7 ADD PUSH2 0x370 JUMP JUMPDEST SWAP2 POP POP SWAP3 POP SWAP3 SWAP1 POP JUMP JUMPDEST PUSH2 0x3CB DUP2 PUSH2 0x351 JUMP JUMPDEST DUP3 MSTORE POP POP JUMP JUMPDEST PUSH0 PUSH1 0x20 DUP3 ADD SWAP1 POP PUSH2 0x3E4 PUSH0 DUP4 ADD DUP5 PUSH2 0x3C2 JUMP JUMPDEST SWAP3 SWAP2 POP POP JUMP JUMPDEST PUSH0 DUP1 REVERT JUMPDEST PUSH0 DUP1 REVERT JUMPDEST PUSH0 PUSH1 0x1F NOT PUSH1 0x1F DUP4 ADD AND SWAP1 POP SWAP2 SWAP1 POP JUMP JUMPDEST PUSH32 0x4E487B7100000000000000000000000000000000000000000000000000000000 PUSH0 MSTORE PUSH1 0x41 PUSH1 0x4 MSTORE PUSH1 0x24 PUSH0 REVERT JUMPDEST PUSH2 0x438 DUP3 PUSH2 0x3F2 JUMP JUMPDEST DUP2 ADD DUP2 DUP2 LT PUSH8 0xFFFFFFFFFFFFFFFF DUP3 GT OR ISZERO PUSH2 0x457 JUMPI PUSH2 0x456 PUSH2 0x402 JUMP JUMPDEST JUMPDEST DUP1 PUSH1 0x40 MSTORE POP POP POP JUMP JUMPDEST PUSH0 PUSH2 0x469 PUSH2 0x340 JUMP JUMPDEST SWAP1 POP PUSH2 0x475 DUP3 DUP3 PUSH2 0x42F JUMP JUMPDEST SWAP2 SWAP1 POP JUMP JUMPDEST PUSH0 PUSH8 0xFFFFFFFFFFFFFFFF DUP3 GT ISZERO PUSH2 0x494 JUMPI PUSH2 0x493 PUSH2 0x402 JUMP JUMPDEST JUMPDEST PUSH2 0x49D DUP3 PUSH2 0x3F2 JUMP JUMPDEST SWAP1 POP PUSH1 0x20 DUP2 ADD SWAP1 POP SWAP2 SWAP1 POP JUMP JUMPDEST DUP3 DUP2 DUP4 CALLDATACOPY PUSH0 DUP4 DUP4 ADD MSTORE POP POP POP JUMP JUMPDEST PUSH0 PUSH2 0x4CA PUSH2 0x4C5 DUP5 PUSH2 0x47A JUMP JUMPDEST PUSH2 0x460 JUMP JUMPDEST SWAP1 POP DUP3 DUP2 MSTORE PUSH1 0x20 DUP2 ADD DUP5 DUP5 DUP5 ADD GT ISZERO PUSH2 0x4E6 JUMPI PUSH2 0x4E5 PUSH2 0x3EE JUMP JUMPDEST JUMPDEST PUSH2 0x4F1 DUP5 DUP3 DUP6 PUSH2 0x4AA JUMP JUMPDEST POP SWAP4 SWAP3 POP POP POP JUMP JUMPDEST PUSH0 DUP3 PUSH1 0x1F DUP4 ADD SLT PUSH2 0x50D JUMPI PUSH2 0x50C PUSH2 0x3EA JUMP JUMPDEST JUMPDEST DUP2 CALLDATALOAD PUSH2 0x51D DUP5 DUP3 PUSH1 0x20 DUP7 ADD PUSH2 0x4B8 JUMP JUMPDEST SWAP2 POP POP SWAP3 SWAP2 POP POP JUMP JUMPDEST PUSH0 PUSH1 0x20 DUP3 DUP5 SUB SLT ISZERO PUSH2 0x53B JUMPI PUSH2 0x53A PUSH2 0x349 JUMP JUMPDEST JUMPDEST PUSH0 DUP3 ADD CALLDATALOAD PUSH8 0xFFFFFFFFFFFFFFFF DUP2 GT ISZERO PUSH2 0x558 JUMPI PUSH2 0x557 PUSH2 0x34D JUMP JUMPDEST JUMPDEST PUSH2 0x564 DUP5 DUP3 DUP6 ADD PUSH2 0x4F9 JUMP JUMPDEST SWAP2 POP POP SWAP3 SWAP2 POP POP JUMP JUMPDEST PUSH0 PUSH1 0x20 DUP3 DUP5 SUB SLT ISZERO PUSH2 0x582 JUMPI PUSH2 0x581 PUSH2 0x349 JUMP JUMPDEST JUMPDEST PUSH0 PUSH2 0x58F DUP5 DUP3 DUP6 ADD PUSH2 0x370 JUMP JUMPDEST SWAP2 POP POP SWAP3 SWAP2 POP POP JUMP JUMPDEST PUSH0 DUP2 MLOAD SWAP1 POP SWAP2 SWAP1 POP JUMP JUMPDEST PUSH0 DUP3 DUP3 MSTORE PUSH1 0x20 DUP3 ADD SWAP1 POP SWAP3 SWAP2 POP POP JUMP JUMPDEST DUP3 DUP2 DUP4 MCOPY PUSH0 DUP4 DUP4 ADD MSTORE POP POP POP JUMP JUMPDEST PUSH0 PUSH2 0x5CA DUP3 PUSH2 0x598 JUMP JUMPDEST PUSH2 0x5D4 DUP2 DUP6 PUSH2 0x5A2 JUMP JUMPDEST SWAP4 POP PUSH2 0x5E4 DUP2 DUP6 PUSH1 0x20 DUP7 ADD PUSH2 0x5B2 JUMP JUMPDEST PUSH2 0x5ED DUP2 PUSH2 0x3F2 JUMP JUMPDEST DUP5 ADD SWAP2 POP POP SWAP3 SWAP2 POP POP JUMP JUMPDEST PUSH0 PUSH1 0x20 DUP3 ADD SWAP1 POP DUP2 DUP2 SUB PUSH0 DUP4 ADD MSTORE PUSH2 0x610 DUP2 DUP5 PUSH2 0x5C0 JUMP JUMPDEST SWAP1 POP SWAP3 SWAP2 POP POP JUMP JUMPDEST PUSH32 0x4E487B7100000000000000000000000000000000000000000000000000000000 PUSH0 MSTORE PUSH1 0x22 PUSH1 0x4 MSTORE PUSH1 0x24 PUSH0 REVERT JUMPDEST PUSH0 PUSH1 0x2 DUP3 DIV SWAP1 POP PUSH1 0x1 DUP3 AND DUP1 PUSH2 0x65C JUMPI PUSH1 0x7F DUP3 AND SWAP2 POP JUMPDEST PUSH1 0x20 DUP3 LT DUP2 SUB PUSH2 0x66F JUMPI PUSH2 0x66E PUSH2 0x618 JUMP JUMPDEST JUMPDEST POP SWAP2 SWAP1 POP JUMP JUMPDEST PUSH0 DUP2 SWAP1 POP DUP2 PUSH0 MSTORE PUSH1 0x20 PUSH0 KECCAK256 SWAP1 POP SWAP2 SWAP1 POP JUMP JUMPDEST PUSH0 PUSH1 0x20 PUSH1 0x1F DUP4 ADD DIV SWAP1 POP SWAP2 SWAP1 POP JUMP JUMPDEST PUSH0 DUP3 DUP3 SHL SWAP1 POP SWAP3 SWAP2 POP POP JUMP JUMPDEST PUSH0 PUSH1 0x8 DUP4 MUL PUSH2 0x6D1 PUSH32 0xFFFFFFFFFFFFFFFFFFFFFFFFFFFFFFFFFFFFFFFFFFFFFFFFFFFFFFFFFFFFFFFF DUP3 PUSH2 0x696 JUMP JUMPDEST PUSH2 0x6DB DUP7 DUP4 PUSH2 0x696 JUMP JUMPDEST SWAP6 POP DUP1 NOT DUP5 AND SWAP4 POP DUP1 DUP7 AND DUP5 OR SWAP3 POP POP POP SWAP4 SWAP3 POP POP POP JUMP JUMPDEST PUSH0 DUP2 SWAP1 POP SWAP2 SWAP1 POP JUMP JUMPDEST PUSH0 PUSH2 0x716 PUSH2 0x711 PUSH2 0x70C DUP5 PUSH2 0x351 JUMP JUMPDEST PUSH2 0x6F3 JUMP JUMPDEST PUSH2 0x351 JUMP JUMPDEST SWAP1 POP SWAP2 SWAP1 POP JUMP JUMPDEST PUSH0 DUP2 SWAP1 POP SWAP2 SWAP1 POP JUMP JUMPDEST PUSH2 0x72F DUP4 PUSH2 0x6FC JUMP JUMPDEST PUSH2 0x743 PUSH2 0x73B DUP3 PUSH2 0x71D JUMP JUMPDEST DUP5 DUP5 SLOAD PUSH2 0x6A2 JUMP JUMPDEST DUP3 SSTORE POP POP POP POP JUMP JUMPDEST PUSH0 SWAP1 JUMP JUMPDEST PUSH2 0x757 PUSH2 0x74B JUMP JUMPDEST PUSH2 0x762 DUP2 DUP5 DUP5 PUSH2 0x726 JUMP JUMPDEST POP POP POP JUMP JUMPDEST JUMPDEST DUP2 DUP2 LT ISZERO PUSH2 0x785 JUMPI PUSH2 0x77A PUSH0 DUP3 PUSH2 0x74F JUMP JUMPDEST PUSH1 0x1 DUP2 ADD SWAP1 POP PUSH2 0x768 JUMP JUMPDEST POP POP JUMP JUMPDEST PUSH1 0x1F DUP3 GT ISZERO PUSH2 0x7CA JUMPI PUSH2 0x79B DUP2 PUSH2 0x675 JUMP JUMPDEST PUSH2 0x7A4 DUP5 PUSH2 0x687 JUMP JUMPDEST DUP2 ADD PUSH1 0x20 DUP6 LT ISZERO PUSH2 0x7B3 JUMPI DUP2 SWAP1 POP JUMPDEST PUSH2 0x7C7 PUSH2 0x7BF DUP6 PUSH2 0x687 JUMP JUMPDEST DUP4 ADD DUP3 PUSH2 0x767 JUMP JUMPDEST POP POP JUMPDEST POP POP POP JUMP JUMPDEST PUSH0 DUP3 DUP3 SHR SWAP1 POP SWAP3 SWAP2 POP POP JUMP JUMPDEST PUSH0 PUSH2 0x7EA PUSH0 NOT DUP5 PUSH1 0x8 MUL PUSH2 0x7CF JUMP JUMPDEST NOT DUP1 DUP4 AND SWAP2 POP POP SWAP3 SWAP2 POP POP JUMP JUMPDEST PUSH0 PUSH2 0x802 DUP4 DUP4 PUSH2 0x7DB JUMP JUMPDEST SWAP2 POP DUP3 PUSH1 0x2 MUL DUP3 OR SWAP1 POP SWAP3 SWAP2 POP POP JUMP JUMPDEST PUSH2 0x81B DUP3 PUSH2 0x598 JUMP JUMPDEST PUSH8 0xFFFFFFFFFFFFFFFF DUP2 GT ISZERO PUSH2 0x834 JUMPI PUSH2 0x833 PUSH2 0x402 JUMP JUMPDEST JUMPDEST PUSH2 0x83E DUP3 SLOAD PUSH2 0x645 JUMP JUMPDEST PUSH2 0x849 DUP3 DUP3 DUP6 PUSH2 0x789 JUMP JUMPDEST PUSH0 PUSH1 0x20 SWAP1 POP PUSH1 0x1F DUP4 GT PUSH1 0x1 DUP2 EQ PUSH2 0x87A JUMPI PUSH0 DUP5 ISZERO PUSH2 0x868 JUMPI DUP3 DUP8 ADD MLOAD SWAP1 POP JUMPDEST PUSH2 0x872 DUP6 DUP3 PUSH2 0x7F7 JUMP JUMPDEST DUP7 SSTORE POP PUSH2 0x8D9 JUMP JUMPDEST PUSH1 0x1F NOT DUP5 AND PUSH2 0x888 DUP7 PUSH2 0x675 JUMP JUMPDEST PUSH0 JUMPDEST DUP3 DUP2 LT ISZERO PUSH2 0x8AF JUMPI DUP5 DUP10 ADD MLOAD DUP3 SSTORE PUSH1 0x1 DUP3 ADD SWAP2 POP PUSH1 0x20 DUP6 ADD SWAP5 POP PUSH1 0x20 DUP2 ADD SWAP1 POP PUSH2 0x88A JUMP JUMPDEST DUP7 DUP4 LT ISZERO PUSH2 0x8CC JUMPI DUP5 DUP10 ADD MLOAD PUSH2 0x8C8 PUSH1 0x1F DUP10 AND DUP3 PUSH2 0x7DB JUMP JUMPDEST DUP4 SSTORE POP JUMPDEST PUSH1 0x1 PUSH1 0x2 DUP9 MUL ADD DUP9 SSTORE POP POP POP JUMPDEST POP POP POP POP POP POP JUMP INVALID LOG2 PUSH5 0x6970667358 0x22 SLT KECCAK256 0xDF PUSH20 0x16508EE92C7E068BEC8506723402C19726C6B79C EXTCODESIZE PUSH9 0xBD367D59437453BC64 PUSH20 0x6F6C634300081A00330000000000000000000000 "
		},
		"gasEstimates": {
			"creation": {
				"codeDepositCost": "465400",
				"executionCost": "infinite",
				"totalCost": "infinite"
			},
			"external": {
				"addValue(string)": "infinite",
				"arrays2D(uint256,uint256)": "infinite",
				"stringArray(uint256)": "infinite",
				"uintArray(uint256)": "infinite",
				"value(uint256)": "infinite",
				"valueCount()": "2440"
			}
		},
		"methodIdentifiers": {
			"addValue(string)": "3a5fbaaa",
			"arrays2D(uint256,uint256)": "195f9ddb",
			"stringArray(uint256)": "6422c4c8",
			"uintArray(uint256)": "9ae918c7",
			"value(uint256)": "c5a46ee6",
			"valueCount()": "26eb4dbb"
		}
	},
	"abi": [
		{
			"inputs": [
				{
					"internalType": "string",
					"name": "_value",
					"type": "string"
				}
			],
			"name": "addValue",
			"outputs": [],
			"stateMutability": "nonpayable",
			"type": "function"
		},
		{
			"inputs": [
				{
					"internalType": "uint256",
					"name": "",
					"type": "uint256"
				},
				{
					"internalType": "uint256",
					"name": "",
					"type": "uint256"
				}
			],
			"name": "arrays2D",
			"outputs": [
				{
					"internalType": "uint256",
					"name": "",
					"type": "uint256"
				}
			],
			"stateMutability": "view",
			"type": "function"
		},
		{
			"inputs": [
				{
					"internalType": "uint256",
					"name": "",
					"type": "uint256"
				}
			],
			"name": "stringArray",
			"outputs": [
				{
					"internalType": "string",
					"name": "",
					"type": "string"
				}
			],
			"stateMutability": "view",
			"type": "function"
		},
		{
			"inputs": [
				{
					"internalType": "uint256",
					"name": "",
					"type": "uint256"
				}
			],
			"name": "uintArray",
			"outputs": [
				{
					"internalType": "uint256",
					"name": "",
					"type": "uint256"
				}
			],
			"stateMutability": "view",
			"type": "function"
		},
		{
			"inputs": [
				{
					"internalType": "uint256",
					"name": "",
					"type": "uint256"
				}
			],
			"name": "value",
			"outputs": [
				{
					"internalType": "string",
					"name": "",
					"type": "string"
				}
			],
			"stateMutability": "view",
			"type": "function"
		},
		{
			"inputs": [],
			"name": "valueCount",
			"outputs": [
				{
					"internalType": "uint256",
					"name": "",
					"type": "uint256"
				}
			],
			"stateMutability": "view",
			"type": "function"
		}
	]
}