{
	"CHAINLIST_SOLIDITY/TransferUSDCBasic.sol": {
		"TransferUSDCBasic": {
			"abi": [
				{
					"inputs": [],
					"stateMutability": "nonpayable",
					"type": "constructor"
				},
				{
					"inputs": [
						{
							"internalType": "uint256",
							"name": "currentBalance",
							"type": "uint256"
						},
						{
							"internalType": "uint256",
							"name": "calculatedFees",
							"type": "uint256"
						}
					],
					"name": "NotEnoughBalanceForFees",
					"type": "error"
				},
				{
					"inputs": [
						{
							"internalType": "uint256",
							"name": "currentBalance",
							"type": "uint256"
						}
					],
					"name": "NotEnoughBalanceUsdcForTransfer",
					"type": "error"
				},
				{
					"inputs": [],
					"name": "NothingToWithdraw",
					"type": "error"
				},
				{
					"anonymous": false,
					"inputs": [
						{
							"indexed": false,
							"internalType": "bytes32",
							"name": "messageId",
							"type": "bytes32"
						},
						{
							"indexed": false,
							"internalType": "uint64",
							"name": "destinationChainSelector",
							"type": "uint64"
						},
						{
							"indexed": false,
							"internalType": "address",
							"name": "receiver",
							"type": "address"
						},
						{
							"indexed": false,
							"internalType": "uint256",
							"name": "amount",
							"type": "uint256"
						},
						{
							"indexed": false,
							"internalType": "uint256",
							"name": "ccipFee",
							"type": "uint256"
						}
					],
					"name": "UsdcTransferred",
					"type": "event"
				},
				{
					"inputs": [],
					"name": "allowanceUsdc",
					"outputs": [
						{
							"internalType": "uint256",
							"name": "usdcAmount",
							"type": "uint256"
						}
					],
					"stateMutability": "view",
					"type": "function"
				},
				{
					"inputs": [
						{
							"internalType": "address",
							"name": "account",
							"type": "address"
						}
					],
					"name": "balancesOf",
					"outputs": [
						{
							"internalType": "uint256",
							"name": "linkBalance",
							"type": "uint256"
						},
						{
							"internalType": "uint256",
							"name": "usdcBalance",
							"type": "uint256"
						}
					],
					"stateMutability": "view",
					"type": "function"
				},
				{
					"inputs": [],
					"name": "owner",
					"outputs": [
						{
							"internalType": "address",
							"name": "",
							"type": "address"
						}
					],
					"stateMutability": "view",
					"type": "function"
				},
				{
					"inputs": [
						{
							"internalType": "address",
							"name": "_receiver",
							"type": "address"
						},
						{
							"internalType": "uint256",
							"name": "_amount",
							"type": "uint256"
						}
					],
					"name": "transferUsdcToSepolia",
					"outputs": [
						{
							"internalType": "bytes32",
							"name": "messageId",
							"type": "bytes32"
						}
					],
					"stateMutability": "nonpayable",
					"type": "function"
				},
				{
					"inputs": [
						{
							"internalType": "address",
							"name": "_beneficiary",
							"type": "address"
						},
						{
							"internalType": "address",
							"name": "_token",
							"type": "address"
						}
					],
					"name": "withdrawToken",
					"outputs": [],
					"stateMutability": "nonpayable",
					"type": "function"
				}
			],
			"devdoc": {
				"kind": "dev",
				"methods": {},
				"version": 1
			},
			"evm": {
				"assembly": "    /* \"CHAINLIST_SOLIDITY/TransferUSDCBasic.sol\":946:7182  contract TransferUSDCBasic {... */\n  mstore(0x40, 0xe0)\n    /* \"CHAINLIST_SOLIDITY/TransferUSDCBasic.sol\":1854:1896  0xF694E193200268f9a4868e4Aa017A0118C9a8177 */\n  0xf694e193200268f9a4868e4aa017a0118c9a8177\n    /* \"CHAINLIST_SOLIDITY/TransferUSDCBasic.sol\":1826:1896  address ccipRouterAddress = 0xF694E193200268f9a4868e4Aa017A0118C9a8177 */\n  0x01\n  exp(0x0100, 0x00)\n  dup2\n  sload\n  dup2\n  0xffffffffffffffffffffffffffffffffffffffff\n  mul\n  not\n  and\n  swap1\n  dup4\n  0xffffffffffffffffffffffffffffffffffffffff\n  and\n  mul\n  or\n  swap1\n  sstore\n  pop\n    /* \"CHAINLIST_SOLIDITY/TransferUSDCBasic.sol\":2002:2044  0x0b9d5D9136855f6FEc3c0993feE6E9CE8a297846 */\n  0x0b9d5d9136855f6fec3c0993fee6e9ce8a297846\n    /* \"CHAINLIST_SOLIDITY/TransferUSDCBasic.sol\":1980:2044  address linkAddress = 0x0b9d5D9136855f6FEc3c0993feE6E9CE8a297846 */\n  0x02\n  exp(0x0100, 0x00)\n  dup2\n  sload\n  dup2\n  0xffffffffffffffffffffffffffffffffffffffff\n  mul\n  not\n  and\n  swap1\n  dup4\n  0xffffffffffffffffffffffffffffffffffffffff\n  and\n  mul\n  or\n  swap1\n  sstore\n  pop\n    /* \"CHAINLIST_SOLIDITY/TransferUSDCBasic.sol\":2137:2179  0x5425890298aed601595a70AB815c96711a31Bc65 */\n  0x5425890298aed601595a70ab815c96711a31bc65\n    /* \"CHAINLIST_SOLIDITY/TransferUSDCBasic.sol\":2115:2179  address usdcAddress = 0x5425890298aed601595a70AB815c96711a31Bc65 */\n  0x03\n  exp(0x0100, 0x00)\n  dup2\n  sload\n  dup2\n  0xffffffffffffffffffffffffffffffffffffffff\n  mul\n  not\n  and\n  swap1\n  dup4\n  0xffffffffffffffffffffffffffffffffffffffff\n  and\n  mul\n  or\n  swap1\n  sstore\n  pop\n    /* \"CHAINLIST_SOLIDITY/TransferUSDCBasic.sol\":2287:2307  16015286601757825753 */\n  0xde41ba4fc9d91ad9\n    /* \"CHAINLIST_SOLIDITY/TransferUSDCBasic.sol\":2253:2307  uint64 destinationChainSelector = 16015286601757825753 */\n  0x03\n  exp(0x0100, 0x14)\n  dup2\n  sload\n  dup2\n  0xffffffffffffffff\n  mul\n  not\n  and\n  swap1\n  dup4\n  0xffffffffffffffff\n  and\n  mul\n  or\n  swap1\n  sstore\n  pop\n    /* \"CHAINLIST_SOLIDITY/TransferUSDCBasic.sol\":2714:3097  constructor() {... */\n  callvalue\n  dup1\n  iszero\n  tag_1\n  jumpi\n  0x00\n  dup1\n  revert\ntag_1:\n  pop\n    /* \"CHAINLIST_SOLIDITY/TransferUSDCBasic.sol\":2747:2757  msg.sender */\n  caller\n    /* \"CHAINLIST_SOLIDITY/TransferUSDCBasic.sol\":2739:2744  owner */\n  0x00\n  dup1\n    /* \"CHAINLIST_SOLIDITY/TransferUSDCBasic.sol\":2739:2757  owner = msg.sender */\n  0x0100\n  exp\n  dup2\n  sload\n  dup2\n  0xffffffffffffffffffffffffffffffffffffffff\n  mul\n  not\n  and\n  swap1\n  dup4\n  0xffffffffffffffffffffffffffffffffffffffff\n  and\n  mul\n  or\n  swap1\n  sstore\n  pop\n    /* \"CHAINLIST_SOLIDITY/TransferUSDCBasic.sol\":2853:2870  ccipRouterAddress */\n  0x01\n  0x00\n  swap1\n  sload\n  swap1\n  0x0100\n  exp\n  swap1\n  div\n  0xffffffffffffffffffffffffffffffffffffffff\n  and\n    /* \"CHAINLIST_SOLIDITY/TransferUSDCBasic.sol\":2826:2871  ccipRouter = IRouterClient(ccipRouterAddress) */\n  0xffffffffffffffffffffffffffffffffffffffff\n  and\n  0x80\n  dup2\n  0xffffffffffffffffffffffffffffffffffffffff\n  and\n  dup2\n  mstore\n  pop\n  pop\n    /* \"CHAINLIST_SOLIDITY/TransferUSDCBasic.sol\":2951:2962  linkAddress */\n  0x02\n  0x00\n  swap1\n  sload\n  swap1\n  0x0100\n  exp\n  swap1\n  div\n  0xffffffffffffffffffffffffffffffffffffffff\n  and\n    /* \"CHAINLIST_SOLIDITY/TransferUSDCBasic.sol\":2932:2963  linkToken = IERC20(linkAddress) */\n  0xffffffffffffffffffffffffffffffffffffffff\n  and\n  0xa0\n  dup2\n  0xffffffffffffffffffffffffffffffffffffffff\n  and\n  dup2\n  mstore\n  pop\n  pop\n    /* \"CHAINLIST_SOLIDITY/TransferUSDCBasic.sol\":3035:3046  usdcAddress */\n  0x03\n  0x00\n  swap1\n  sload\n  swap1\n  0x0100\n  exp\n  swap1\n  div\n  0xffffffffffffffffffffffffffffffffffffffff\n  and\n    /* \"CHAINLIST_SOLIDITY/TransferUSDCBasic.sol\":3016:3047  usdcToken = IERC20(usdcAddress) */\n  0xffffffffffffffffffffffffffffffffffffffff\n  and\n  0xc0\n  dup2\n  0xffffffffffffffffffffffffffffffffffffffff\n  and\n  dup2\n  mstore\n  pop\n  pop\n    /* \"CHAINLIST_SOLIDITY/TransferUSDCBasic.sol\":946:7182  contract TransferUSDCBasic {... */\n  mload(0x80)\n  mload(0xa0)\n  mload(0xc0)\n  codecopy(0x00, dataOffset(sub_0), dataSize(sub_0))\n  0x00\n  assignImmutable(\"0xfd5f3dc9a2e57daa140eb9226c5f29b54860b87a571ab0e6e6786455520c6f1c\")\n  0x00\n  assignImmutable(\"0xf253c72b94849cc9451012498d0522804bb37f8f4203658f6cb846231cfb9016\")\n  0x00\n  assignImmutable(\"0x1d2b7ce2c7309c0ae499257b4d570bbc2aa804a132076a507e13da63d22f2ea8\")\n  return(0x00, dataSize(sub_0))\nstop\n\nsub_0: assembly {\n        /* \"CHAINLIST_SOLIDITY/TransferUSDCBasic.sol\":946:7182  contract TransferUSDCBasic {... */\n      mstore(0x40, 0x80)\n      callvalue\n      dup1\n      iszero\n      tag_1\n      jumpi\n      0x00\n      dup1\n      revert\n    tag_1:\n      pop\n      jumpi(tag_2, lt(calldatasize, 0x04))\n      shr(0xe0, calldataload(0x00))\n      dup1\n      0x3aeac4e1\n      eq\n      tag_3\n      jumpi\n      dup1\n      0x6392a51f\n      eq\n      tag_4\n      jumpi\n      dup1\n      0x8da5cb5b\n      eq\n      tag_5\n      jumpi\n      dup1\n      0xed3bd5bc\n      eq\n      tag_6\n      jumpi\n      dup1\n      0xfe2c5d36\n      eq\n      tag_7\n      jumpi\n    tag_2:\n      0x00\n      dup1\n      revert\n        /* \"CHAINLIST_SOLIDITY/TransferUSDCBasic.sol\":6643:7179  function withdrawToken( ... */\n    tag_3:\n      tag_8\n      0x04\n      dup1\n      calldatasize\n      sub\n      dup2\n      add\n      swap1\n      tag_9\n      swap2\n      swap1\n      tag_10\n      jump\t// in\n    tag_9:\n      tag_11\n      jump\t// in\n    tag_8:\n      stop\n        /* \"CHAINLIST_SOLIDITY/TransferUSDCBasic.sol\":6117:6426  function balancesOf(address account) public view returns (uint256 linkBalance, uint256 usdcBalance) { ... */\n    tag_4:\n      tag_12\n      0x04\n      dup1\n      calldatasize\n      sub\n      dup2\n      add\n      swap1\n      tag_13\n      swap2\n      swap1\n      tag_14\n      jump\t// in\n    tag_13:\n      tag_15\n      jump\t// in\n    tag_12:\n      mload(0x40)\n      tag_16\n      swap3\n      swap2\n      swap1\n      tag_17\n      jump\t// in\n    tag_16:\n      mload(0x40)\n      dup1\n      swap2\n      sub\n      swap1\n      return\n        /* \"CHAINLIST_SOLIDITY/TransferUSDCBasic.sol\":1480:1500  address public owner */\n    tag_5:\n      tag_18\n      tag_19\n      jump\t// in\n    tag_18:\n      mload(0x40)\n      tag_20\n      swap2\n      swap1\n      tag_21\n      jump\t// in\n    tag_20:\n      mload(0x40)\n      dup1\n      swap2\n      sub\n      swap1\n      return\n        /* \"CHAINLIST_SOLIDITY/TransferUSDCBasic.sol\":5865:6109  function allowanceUsdc() public view returns (uint256 usdcAmount) { ... */\n    tag_6:\n      tag_22\n      tag_23\n      jump\t// in\n    tag_22:\n      mload(0x40)\n      tag_24\n      swap2\n      swap1\n      tag_25\n      jump\t// in\n    tag_24:\n      mload(0x40)\n      dup1\n      swap2\n      sub\n      swap1\n      return\n        /* \"CHAINLIST_SOLIDITY/TransferUSDCBasic.sol\":3105:5857  function transferUsdcToSepolia(... */\n    tag_7:\n      tag_26\n      0x04\n      dup1\n      calldatasize\n      sub\n      dup2\n      add\n      swap1\n      tag_27\n      swap2\n      swap1\n      tag_28\n      jump\t// in\n    tag_27:\n      tag_29\n      jump\t// in\n    tag_26:\n      mload(0x40)\n      tag_30\n      swap2\n      swap1\n      tag_31\n      jump\t// in\n    tag_30:\n      mload(0x40)\n      dup1\n      swap2\n      sub\n      swap1\n      return\n        /* \"CHAINLIST_SOLIDITY/TransferUSDCBasic.sol\":6643:7179  function withdrawToken( ... */\n    tag_11:\n        /* \"CHAINLIST_SOLIDITY/TransferUSDCBasic.sol\":6489:6494  owner */\n      0x00\n      dup1\n      sload\n      swap1\n      0x0100\n      exp\n      swap1\n      div\n      0xffffffffffffffffffffffffffffffffffffffff\n      and\n        /* \"CHAINLIST_SOLIDITY/TransferUSDCBasic.sol\":6475:6494  msg.sender == owner */\n      0xffffffffffffffffffffffffffffffffffffffff\n      and\n        /* \"CHAINLIST_SOLIDITY/TransferUSDCBasic.sol\":6475:6485  msg.sender */\n      caller\n        /* \"CHAINLIST_SOLIDITY/TransferUSDCBasic.sol\":6475:6494  msg.sender == owner */\n      0xffffffffffffffffffffffffffffffffffffffff\n      and\n      eq\n        /* \"CHAINLIST_SOLIDITY/TransferUSDCBasic.sol\":6467:6495  require(msg.sender == owner) */\n      tag_33\n      jumpi\n      0x00\n      dup1\n      revert\n    tag_33:\n        /* \"CHAINLIST_SOLIDITY/TransferUSDCBasic.sol\":6869:6883  uint256 amount */\n      0x00\n        /* \"CHAINLIST_SOLIDITY/TransferUSDCBasic.sol\":6893:6899  _token */\n      dup2\n        /* \"CHAINLIST_SOLIDITY/TransferUSDCBasic.sol\":6886:6910  IERC20(_token).balanceOf */\n      0xffffffffffffffffffffffffffffffffffffffff\n      and\n      0x70a08231\n        /* \"CHAINLIST_SOLIDITY/TransferUSDCBasic.sol\":6919:6923  this */\n      address\n        /* \"CHAINLIST_SOLIDITY/TransferUSDCBasic.sol\":6886:6925  IERC20(_token).balanceOf(address(this)) */\n      mload(0x40)\n      dup3\n      0xffffffff\n      and\n      0xe0\n      shl\n      dup2\n      mstore\n      0x04\n      add\n      tag_35\n      swap2\n      swap1\n      tag_21\n      jump\t// in\n    tag_35:\n      0x20\n      mload(0x40)\n      dup1\n      dup4\n      sub\n      dup2\n      dup7\n      gas\n      staticcall\n      iszero\n      dup1\n      iszero\n      tag_37\n      jumpi\n      returndatasize\n      0x00\n      dup1\n      returndatacopy\n      revert(0x00, returndatasize)\n    tag_37:\n      pop\n      pop\n      pop\n      pop\n      mload(0x40)\n      returndatasize\n      not(0x1f)\n      0x1f\n      dup3\n      add\n      and\n      dup3\n      add\n      dup1\n      0x40\n      mstore\n      pop\n      dup2\n      add\n      swap1\n      tag_38\n      swap2\n      swap1\n      tag_39\n      jump\t// in\n    tag_38:\n        /* \"CHAINLIST_SOLIDITY/TransferUSDCBasic.sol\":6869:6925  uint256 amount = IERC20(_token).balanceOf(address(this)) */\n      swap1\n      pop\n        /* \"CHAINLIST_SOLIDITY/TransferUSDCBasic.sol\":6952:6953  0 */\n      0x00\n        /* \"CHAINLIST_SOLIDITY/TransferUSDCBasic.sol\":6942:6948  amount */\n      dup2\n        /* \"CHAINLIST_SOLIDITY/TransferUSDCBasic.sol\":6942:6953  amount == 0 */\n      sub\n        /* \"CHAINLIST_SOLIDITY/TransferUSDCBasic.sol\":6938:6981  if (amount == 0) revert NothingToWithdraw() */\n      tag_40\n      jumpi\n        /* \"CHAINLIST_SOLIDITY/TransferUSDCBasic.sol\":6962:6981  NothingToWithdraw() */\n      mload(0x40)\n      0xd0d04f6000000000000000000000000000000000000000000000000000000000\n      dup2\n      mstore\n      0x04\n      add\n      mload(0x40)\n      dup1\n      swap2\n      sub\n      swap1\n      revert\n        /* \"CHAINLIST_SOLIDITY/TransferUSDCBasic.sol\":6938:6981  if (amount == 0) revert NothingToWithdraw() */\n    tag_40:\n        /* \"CHAINLIST_SOLIDITY/TransferUSDCBasic.sol\":7070:7076  _token */\n      dup2\n        /* \"CHAINLIST_SOLIDITY/TransferUSDCBasic.sol\":7063:7086  IERC20(_token).transfer */\n      0xffffffffffffffffffffffffffffffffffffffff\n      and\n      0xa9059cbb\n        /* \"CHAINLIST_SOLIDITY/TransferUSDCBasic.sol\":7087:7099  _beneficiary */\n      dup5\n        /* \"CHAINLIST_SOLIDITY/TransferUSDCBasic.sol\":7101:7107  amount */\n      dup4\n        /* \"CHAINLIST_SOLIDITY/TransferUSDCBasic.sol\":7063:7108  IERC20(_token).transfer(_beneficiary, amount) */\n      mload(0x40)\n      dup4\n      0xffffffff\n      and\n      0xe0\n      shl\n      dup2\n      mstore\n      0x04\n      add\n      tag_41\n      swap3\n      swap2\n      swap1\n      tag_42\n      jump\t// in\n    tag_41:\n      0x20\n      mload(0x40)\n      dup1\n      dup4\n      sub\n      dup2\n      0x00\n      dup8\n      gas\n      call\n      iszero\n      dup1\n      iszero\n      tag_44\n      jumpi\n      returndatasize\n      0x00\n      dup1\n      returndatacopy\n      revert(0x00, returndatasize)\n    tag_44:\n      pop\n      pop\n      pop\n      pop\n      mload(0x40)\n      returndatasize\n      not(0x1f)\n      0x1f\n      dup3\n      add\n      and\n      dup3\n      add\n      dup1\n      0x40\n      mstore\n      pop\n      dup2\n      add\n      swap1\n      tag_45\n      swap2\n      swap1\n      tag_46\n      jump\t// in\n    tag_45:\n      pop\n        /* \"CHAINLIST_SOLIDITY/TransferUSDCBasic.sol\":6856:7179  {  ... */\n      pop\n        /* \"CHAINLIST_SOLIDITY/TransferUSDCBasic.sol\":6643:7179  function withdrawToken( ... */\n      pop\n      pop\n      jump\t// out\n        /* \"CHAINLIST_SOLIDITY/TransferUSDCBasic.sol\":6117:6426  function balancesOf(address account) public view returns (uint256 linkBalance, uint256 usdcBalance) { ... */\n    tag_15:\n        /* \"CHAINLIST_SOLIDITY/TransferUSDCBasic.sol\":6175:6194  uint256 linkBalance */\n      0x00\n        /* \"CHAINLIST_SOLIDITY/TransferUSDCBasic.sol\":6196:6215  uint256 usdcBalance */\n      dup1\n        /* \"CHAINLIST_SOLIDITY/TransferUSDCBasic.sol\":6243:6252  linkToken */\n      immutable(\"0xf253c72b94849cc9451012498d0522804bb37f8f4203658f6cb846231cfb9016\")\n        /* \"CHAINLIST_SOLIDITY/TransferUSDCBasic.sol\":6243:6262  linkToken.balanceOf */\n      0xffffffffffffffffffffffffffffffffffffffff\n      and\n      0x70a08231\n        /* \"CHAINLIST_SOLIDITY/TransferUSDCBasic.sol\":6263:6270  account */\n      dup5\n        /* \"CHAINLIST_SOLIDITY/TransferUSDCBasic.sol\":6243:6271  linkToken.balanceOf(account) */\n      mload(0x40)\n      dup3\n      0xffffffff\n      and\n      0xe0\n      shl\n      dup2\n      mstore\n      0x04\n      add\n      tag_48\n      swap2\n      swap1\n      tag_21\n      jump\t// in\n    tag_48:\n      0x20\n      mload(0x40)\n      dup1\n      dup4\n      sub\n      dup2\n      dup7\n      gas\n      staticcall\n      iszero\n      dup1\n      iszero\n      tag_50\n      jumpi\n      returndatasize\n      0x00\n      dup1\n      returndatacopy\n      revert(0x00, returndatasize)\n    tag_50:\n      pop\n      pop\n      pop\n      pop\n      mload(0x40)\n      returndatasize\n      not(0x1f)\n      0x1f\n      dup3\n      add\n      and\n      dup3\n      add\n      dup1\n      0x40\n      mstore\n      pop\n      dup2\n      add\n      swap1\n      tag_51\n      swap2\n      swap1\n      tag_39\n      jump\t// in\n    tag_51:\n        /* \"CHAINLIST_SOLIDITY/TransferUSDCBasic.sol\":6229:6271  linkBalance = linkToken.balanceOf(account) */\n      swap2\n      pop\n        /* \"CHAINLIST_SOLIDITY/TransferUSDCBasic.sol\":6346:6355  usdcToken */\n      immutable(\"0xfd5f3dc9a2e57daa140eb9226c5f29b54860b87a571ab0e6e6786455520c6f1c\")\n        /* \"CHAINLIST_SOLIDITY/TransferUSDCBasic.sol\":6339:6366  IERC20(usdcToken).balanceOf */\n      0xffffffffffffffffffffffffffffffffffffffff\n      and\n      0x70a08231\n        /* \"CHAINLIST_SOLIDITY/TransferUSDCBasic.sol\":6367:6374  account */\n      dup5\n        /* \"CHAINLIST_SOLIDITY/TransferUSDCBasic.sol\":6339:6375  IERC20(usdcToken).balanceOf(account) */\n      mload(0x40)\n      dup3\n      0xffffffff\n      and\n      0xe0\n      shl\n      dup2\n      mstore\n      0x04\n      add\n      tag_52\n      swap2\n      swap1\n      tag_21\n      jump\t// in\n    tag_52:\n      0x20\n      mload(0x40)\n      dup1\n      dup4\n      sub\n      dup2\n      dup7\n      gas\n      staticcall\n      iszero\n      dup1\n      iszero\n      tag_54\n      jumpi\n      returndatasize\n      0x00\n      dup1\n      returndatacopy\n      revert(0x00, returndatasize)\n    tag_54:\n      pop\n      pop\n      pop\n      pop\n      mload(0x40)\n      returndatasize\n      not(0x1f)\n      0x1f\n      dup3\n      add\n      and\n      dup3\n      add\n      dup1\n      0x40\n      mstore\n      pop\n      dup2\n      add\n      swap1\n      tag_55\n      swap2\n      swap1\n      tag_39\n      jump\t// in\n    tag_55:\n        /* \"CHAINLIST_SOLIDITY/TransferUSDCBasic.sol\":6325:6375  usdcBalance = IERC20(usdcToken).balanceOf(account) */\n      swap1\n      pop\n        /* \"CHAINLIST_SOLIDITY/TransferUSDCBasic.sol\":6117:6426  function balancesOf(address account) public view returns (uint256 linkBalance, uint256 usdcBalance) { ... */\n      swap2\n      pop\n      swap2\n      jump\t// out\n        /* \"CHAINLIST_SOLIDITY/TransferUSDCBasic.sol\":1480:1500  address public owner */\n    tag_19:\n      0x00\n      dup1\n      sload\n      swap1\n      0x0100\n      exp\n      swap1\n      div\n      0xffffffffffffffffffffffffffffffffffffffff\n      and\n      dup2\n      jump\t// out\n        /* \"CHAINLIST_SOLIDITY/TransferUSDCBasic.sol\":5865:6109  function allowanceUsdc() public view returns (uint256 usdcAmount) { ... */\n    tag_23:\n        /* \"CHAINLIST_SOLIDITY/TransferUSDCBasic.sol\":5911:5929  uint256 usdcAmount */\n      0x00\n        /* \"CHAINLIST_SOLIDITY/TransferUSDCBasic.sol\":5956:5965  usdcToken */\n      immutable(\"0xfd5f3dc9a2e57daa140eb9226c5f29b54860b87a571ab0e6e6786455520c6f1c\")\n        /* \"CHAINLIST_SOLIDITY/TransferUSDCBasic.sol\":5956:5975  usdcToken.allowance */\n      0xffffffffffffffffffffffffffffffffffffffff\n      and\n      0xdd62ed3e\n        /* \"CHAINLIST_SOLIDITY/TransferUSDCBasic.sol\":5976:5986  msg.sender */\n      caller\n        /* \"CHAINLIST_SOLIDITY/TransferUSDCBasic.sol\":5996:6000  this */\n      address\n        /* \"CHAINLIST_SOLIDITY/TransferUSDCBasic.sol\":5956:6002  usdcToken.allowance(msg.sender, address(this)) */\n      mload(0x40)\n      dup4\n      0xffffffff\n      and\n      0xe0\n      shl\n      dup2\n      mstore\n      0x04\n      add\n      tag_57\n      swap3\n      swap2\n      swap1\n      tag_58\n      jump\t// in\n    tag_57:\n      0x20\n      mload(0x40)\n      dup1\n      dup4\n      sub\n      dup2\n      dup7\n      gas\n      staticcall\n      iszero\n      dup1\n      iszero\n      tag_60\n      jumpi\n      returndatasize\n      0x00\n      dup1\n      returndatacopy\n      revert(0x00, returndatasize)\n    tag_60:\n      pop\n      pop\n      pop\n      pop\n      mload(0x40)\n      returndatasize\n      not(0x1f)\n      0x1f\n      dup3\n      add\n      and\n      dup3\n      add\n      dup1\n      0x40\n      mstore\n      pop\n      dup2\n      add\n      swap1\n      tag_61\n      swap2\n      swap1\n      tag_39\n      jump\t// in\n    tag_61:\n        /* \"CHAINLIST_SOLIDITY/TransferUSDCBasic.sol\":5943:6002  usdcAmount = usdcToken.allowance(msg.sender, address(this)) */\n      swap1\n      pop\n        /* \"CHAINLIST_SOLIDITY/TransferUSDCBasic.sol\":5865:6109  function allowanceUsdc() public view returns (uint256 usdcAmount) { ... */\n      swap1\n      jump\t// out\n        /* \"CHAINLIST_SOLIDITY/TransferUSDCBasic.sol\":3105:5857  function transferUsdcToSepolia(... */\n    tag_29:\n        /* \"CHAINLIST_SOLIDITY/TransferUSDCBasic.sol\":3302:3319  bytes32 messageId */\n      0x00\n        /* \"CHAINLIST_SOLIDITY/TransferUSDCBasic.sol\":3438:3481  Client.EVMTokenAmount[] memory tokenAmounts */\n      dup1\n        /* \"CHAINLIST_SOLIDITY/TransferUSDCBasic.sol\":3512:3513  1 */\n      0x01\n        /* \"CHAINLIST_SOLIDITY/TransferUSDCBasic.sol\":3484:3514  new Client.EVMTokenAmount[](1) */\n      0xffffffffffffffff\n      dup2\n      gt\n      iszero\n      tag_63\n      jumpi\n      tag_64\n      tag_65\n      jump\t// in\n    tag_64:\n    tag_63:\n      mload(0x40)\n      swap1\n      dup1\n      dup3\n      mstore\n      dup1\n      0x20\n      mul\n      0x20\n      add\n      dup3\n      add\n      0x40\n      mstore\n      dup1\n      iszero\n      tag_66\n      jumpi\n      dup2\n      0x20\n      add\n    tag_67:\n      tag_68\n      tag_69\n      jump\t// in\n    tag_68:\n      dup2\n      mstore\n      0x20\n      add\n      swap1\n      0x01\n      swap1\n      sub\n      swap1\n      dup2\n      tag_67\n      jumpi\n      swap1\n      pop\n    tag_66:\n      pop\n        /* \"CHAINLIST_SOLIDITY/TransferUSDCBasic.sol\":3438:3514  Client.EVMTokenAmount[] memory tokenAmounts = new Client.EVMTokenAmount[](1) */\n      swap1\n      pop\n        /* \"CHAINLIST_SOLIDITY/TransferUSDCBasic.sol\":3536:3576  Client.EVMTokenAmount memory tokenAmount */\n      0x00\n        /* \"CHAINLIST_SOLIDITY/TransferUSDCBasic.sol\":3579:3751  Client.EVMTokenAmount({ ... */\n      mload(0x40)\n      dup1\n      0x40\n      add\n      0x40\n      mstore\n      dup1\n        /* \"CHAINLIST_SOLIDITY/TransferUSDCBasic.sol\":3632:3641  usdcToken */\n      immutable(\"0xfd5f3dc9a2e57daa140eb9226c5f29b54860b87a571ab0e6e6786455520c6f1c\")\n        /* \"CHAINLIST_SOLIDITY/TransferUSDCBasic.sol\":3579:3751  Client.EVMTokenAmount({ ... */\n      0xffffffffffffffffffffffffffffffffffffffff\n      and\n      dup2\n      mstore\n      0x20\n      add\n        /* \"CHAINLIST_SOLIDITY/TransferUSDCBasic.sol\":3701:3708  _amount */\n      dup6\n        /* \"CHAINLIST_SOLIDITY/TransferUSDCBasic.sol\":3579:3751  Client.EVMTokenAmount({ ... */\n      dup2\n      mstore\n      pop\n        /* \"CHAINLIST_SOLIDITY/TransferUSDCBasic.sol\":3536:3751  Client.EVMTokenAmount memory tokenAmount = Client.EVMTokenAmount({ ... */\n      swap1\n      pop\n        /* \"CHAINLIST_SOLIDITY/TransferUSDCBasic.sol\":3790:3801  tokenAmount */\n      dup1\n        /* \"CHAINLIST_SOLIDITY/TransferUSDCBasic.sol\":3772:3784  tokenAmounts */\n      dup3\n        /* \"CHAINLIST_SOLIDITY/TransferUSDCBasic.sol\":3785:3786  0 */\n      0x00\n        /* \"CHAINLIST_SOLIDITY/TransferUSDCBasic.sol\":3772:3787  tokenAmounts[0] */\n      dup2\n      mload\n      dup2\n      lt\n      tag_70\n      jumpi\n      tag_71\n      tag_72\n      jump\t// in\n    tag_71:\n    tag_70:\n      0x20\n      mul\n      0x20\n      add\n      add\n        /* \"CHAINLIST_SOLIDITY/TransferUSDCBasic.sol\":3772:3801  tokenAmounts[0] = tokenAmount */\n      dup2\n      swap1\n      mstore\n      pop\n        /* \"CHAINLIST_SOLIDITY/TransferUSDCBasic.sol\":3862:3898  Client.EVM2AnyMessage memory message */\n      0x00\n        /* \"CHAINLIST_SOLIDITY/TransferUSDCBasic.sol\":3901:4401  Client.EVM2AnyMessage({ ... */\n      mload(0x40)\n      dup1\n      0xa0\n      add\n      0x40\n      mstore\n      dup1\n        /* \"CHAINLIST_SOLIDITY/TransferUSDCBasic.sol\":3960:3969  _receiver */\n      dup8\n        /* \"CHAINLIST_SOLIDITY/TransferUSDCBasic.sol\":3949:3970  abi.encode(_receiver) */\n      add(0x20, mload(0x40))\n      tag_73\n      swap2\n      swap1\n      tag_21\n      jump\t// in\n    tag_73:\n      mload(0x40)\n      0x20\n      dup2\n      dup4\n      sub\n      sub\n      dup2\n      mstore\n      swap1\n      0x40\n      mstore\n        /* \"CHAINLIST_SOLIDITY/TransferUSDCBasic.sol\":3901:4401  Client.EVM2AnyMessage({ ... */\n      dup2\n      mstore\n      0x20\n      add\n      mload(0x40)\n      dup1\n      0x20\n      add\n      0x40\n      mstore\n      dup1\n      0x00\n      dup2\n      mstore\n      pop\n      dup2\n      mstore\n      0x20\n      add\n        /* \"CHAINLIST_SOLIDITY/TransferUSDCBasic.sol\":4097:4109  tokenAmounts */\n      dup5\n        /* \"CHAINLIST_SOLIDITY/TransferUSDCBasic.sol\":3901:4401  Client.EVM2AnyMessage({ ... */\n      dup2\n      mstore\n      0x20\n      add\n        /* \"CHAINLIST_SOLIDITY/TransferUSDCBasic.sol\":4342:4351  linkToken */\n      immutable(\"0xf253c72b94849cc9451012498d0522804bb37f8f4203658f6cb846231cfb9016\")\n        /* \"CHAINLIST_SOLIDITY/TransferUSDCBasic.sol\":3901:4401  Client.EVM2AnyMessage({ ... */\n      0xffffffffffffffffffffffffffffffffffffffff\n      and\n      dup2\n      mstore\n      0x20\n      add\n        /* \"CHAINLIST_SOLIDITY/TransferUSDCBasic.sol\":4178:4309  Client._argsToBytes( ... */\n      tag_74\n        /* \"CHAINLIST_SOLIDITY/TransferUSDCBasic.sol\":4217:4253  Client.EVMExtraArgsV1({gasLimit: 0}) */\n      mload(0x40)\n      dup1\n      0x20\n      add\n      0x40\n      mstore\n      dup1\n        /* \"CHAINLIST_SOLIDITY/TransferUSDCBasic.sol\":4250:4251  0 */\n      0x00\n        /* \"CHAINLIST_SOLIDITY/TransferUSDCBasic.sol\":4217:4253  Client.EVMExtraArgsV1({gasLimit: 0}) */\n      dup2\n      mstore\n      pop\n        /* \"CHAINLIST_SOLIDITY/TransferUSDCBasic.sol\":4178:4197  Client._argsToBytes */\n      tag_75\n        /* \"CHAINLIST_SOLIDITY/TransferUSDCBasic.sol\":4178:4309  Client._argsToBytes( ... */\n      jump\t// in\n    tag_74:\n        /* \"CHAINLIST_SOLIDITY/TransferUSDCBasic.sol\":3901:4401  Client.EVM2AnyMessage({ ... */\n      dup2\n      mstore\n      pop\n        /* \"CHAINLIST_SOLIDITY/TransferUSDCBasic.sol\":3862:4401  Client.EVM2AnyMessage memory message = Client.EVM2AnyMessage({ ... */\n      swap1\n      pop\n        /* \"CHAINLIST_SOLIDITY/TransferUSDCBasic.sol\":4414:4429  uint256 ccipFee */\n      0x00\n        /* \"CHAINLIST_SOLIDITY/TransferUSDCBasic.sol\":4432:4442  ccipRouter */\n      immutable(\"0x1d2b7ce2c7309c0ae499257b4d570bbc2aa804a132076a507e13da63d22f2ea8\")\n        /* \"CHAINLIST_SOLIDITY/TransferUSDCBasic.sol\":4432:4449  ccipRouter.getFee */\n      0xffffffffffffffffffffffffffffffffffffffff\n      and\n      0x20487ded\n        /* \"CHAINLIST_SOLIDITY/TransferUSDCBasic.sol\":4465:4489  destinationChainSelector */\n      0x03\n      0x14\n      swap1\n      sload\n      swap1\n      0x0100\n      exp\n      swap1\n      div\n      0xffffffffffffffff\n      and\n        /* \"CHAINLIST_SOLIDITY/TransferUSDCBasic.sol\":4552:4559  message */\n      dup5\n        /* \"CHAINLIST_SOLIDITY/TransferUSDCBasic.sol\":4432:4611  ccipRouter.getFee( ... */\n      mload(0x40)\n      dup4\n      0xffffffff\n      and\n      0xe0\n      shl\n      dup2\n      mstore\n      0x04\n      add\n      tag_76\n      swap3\n      swap2\n      swap1\n      tag_77\n      jump\t// in\n    tag_76:\n      0x20\n      mload(0x40)\n      dup1\n      dup4\n      sub\n      dup2\n      dup7\n      gas\n      staticcall\n      iszero\n      dup1\n      iszero\n      tag_79\n      jumpi\n      returndatasize\n      0x00\n      dup1\n      returndatacopy\n      revert(0x00, returndatasize)\n    tag_79:\n      pop\n      pop\n      pop\n      pop\n      mload(0x40)\n      returndatasize\n      not(0x1f)\n      0x1f\n      dup3\n      add\n      and\n      dup3\n      add\n      dup1\n      0x40\n      mstore\n      pop\n      dup2\n      add\n      swap1\n      tag_80\n      swap2\n      swap1\n      tag_39\n      jump\t// in\n    tag_80:\n        /* \"CHAINLIST_SOLIDITY/TransferUSDCBasic.sol\":4414:4611  uint256 ccipFee = ccipRouter.getFee( ... */\n      swap1\n      pop\n        /* \"CHAINLIST_SOLIDITY/TransferUSDCBasic.sol\":4638:4647  linkToken */\n      immutable(\"0xf253c72b94849cc9451012498d0522804bb37f8f4203658f6cb846231cfb9016\")\n        /* \"CHAINLIST_SOLIDITY/TransferUSDCBasic.sol\":4638:4657  linkToken.balanceOf */\n      0xffffffffffffffffffffffffffffffffffffffff\n      and\n      0x70a08231\n        /* \"CHAINLIST_SOLIDITY/TransferUSDCBasic.sol\":4666:4670  this */\n      address\n        /* \"CHAINLIST_SOLIDITY/TransferUSDCBasic.sol\":4638:4672  linkToken.balanceOf(address(this)) */\n      mload(0x40)\n      dup3\n      0xffffffff\n      and\n      0xe0\n      shl\n      dup2\n      mstore\n      0x04\n      add\n      tag_81\n      swap2\n      swap1\n      tag_21\n      jump\t// in\n    tag_81:\n      0x20\n      mload(0x40)\n      dup1\n      dup4\n      sub\n      dup2\n      dup7\n      gas\n      staticcall\n      iszero\n      dup1\n      iszero\n      tag_83\n      jumpi\n      returndatasize\n      0x00\n      dup1\n      returndatacopy\n      revert(0x00, returndatasize)\n    tag_83:\n      pop\n      pop\n      pop\n      pop\n      mload(0x40)\n      returndatasize\n      not(0x1f)\n      0x1f\n      dup3\n      add\n      and\n      dup3\n      add\n      dup1\n      0x40\n      mstore\n      pop\n      dup2\n      add\n      swap1\n      tag_84\n      swap2\n      swap1\n      tag_39\n      jump\t// in\n    tag_84:\n        /* \"CHAINLIST_SOLIDITY/TransferUSDCBasic.sol\":4628:4635  ccipFee */\n      dup2\n        /* \"CHAINLIST_SOLIDITY/TransferUSDCBasic.sol\":4628:4672  ccipFee > linkToken.balanceOf(address(this)) */\n      gt\n        /* \"CHAINLIST_SOLIDITY/TransferUSDCBasic.sol\":4624:4763  if (ccipFee > linkToken.balanceOf(address(this))) ... */\n      iszero\n      tag_85\n      jumpi\n        /* \"CHAINLIST_SOLIDITY/TransferUSDCBasic.sol\":4719:4728  linkToken */\n      immutable(\"0xf253c72b94849cc9451012498d0522804bb37f8f4203658f6cb846231cfb9016\")\n        /* \"CHAINLIST_SOLIDITY/TransferUSDCBasic.sol\":4719:4738  linkToken.balanceOf */\n      0xffffffffffffffffffffffffffffffffffffffff\n      and\n      0x70a08231\n        /* \"CHAINLIST_SOLIDITY/TransferUSDCBasic.sol\":4747:4751  this */\n      address\n        /* \"CHAINLIST_SOLIDITY/TransferUSDCBasic.sol\":4719:4753  linkToken.balanceOf(address(this)) */\n      mload(0x40)\n      dup3\n      0xffffffff\n      and\n      0xe0\n      shl\n      dup2\n      mstore\n      0x04\n      add\n      tag_86\n      swap2\n      swap1\n      tag_21\n      jump\t// in\n    tag_86:\n      0x20\n      mload(0x40)\n      dup1\n      dup4\n      sub\n      dup2\n      dup7\n      gas\n      staticcall\n      iszero\n      dup1\n      iszero\n      tag_88\n      jumpi\n      returndatasize\n      0x00\n      dup1\n      returndatacopy\n      revert(0x00, returndatasize)\n    tag_88:\n      pop\n      pop\n      pop\n      pop\n      mload(0x40)\n      returndatasize\n      not(0x1f)\n      0x1f\n      dup3\n      add\n      and\n      dup3\n      add\n      dup1\n      0x40\n      mstore\n      pop\n      dup2\n      add\n      swap1\n      tag_89\n      swap2\n      swap1\n      tag_39\n      jump\t// in\n    tag_89:\n        /* \"CHAINLIST_SOLIDITY/TransferUSDCBasic.sol\":4755:4762  ccipFee */\n      dup2\n        /* \"CHAINLIST_SOLIDITY/TransferUSDCBasic.sol\":4695:4763  NotEnoughBalanceForFees(linkToken.balanceOf(address(this)), ccipFee) */\n      mload(0x40)\n      0x28fdcaa100000000000000000000000000000000000000000000000000000000\n      dup2\n      mstore\n      0x04\n      add\n      tag_90\n      swap3\n      swap2\n      swap1\n      tag_17\n      jump\t// in\n    tag_90:\n      mload(0x40)\n      dup1\n      swap2\n      sub\n      swap1\n      revert\n        /* \"CHAINLIST_SOLIDITY/TransferUSDCBasic.sol\":4624:4763  if (ccipFee > linkToken.balanceOf(address(this))) ... */\n    tag_85:\n        /* \"CHAINLIST_SOLIDITY/TransferUSDCBasic.sol\":4868:4877  linkToken */\n      immutable(\"0xf253c72b94849cc9451012498d0522804bb37f8f4203658f6cb846231cfb9016\")\n        /* \"CHAINLIST_SOLIDITY/TransferUSDCBasic.sol\":4868:4885  linkToken.approve */\n      0xffffffffffffffffffffffffffffffffffffffff\n      and\n      0x095ea7b3\n        /* \"CHAINLIST_SOLIDITY/TransferUSDCBasic.sol\":4894:4904  ccipRouter */\n      immutable(\"0x1d2b7ce2c7309c0ae499257b4d570bbc2aa804a132076a507e13da63d22f2ea8\")\n        /* \"CHAINLIST_SOLIDITY/TransferUSDCBasic.sol\":4907:4914  ccipFee */\n      dup4\n        /* \"CHAINLIST_SOLIDITY/TransferUSDCBasic.sol\":4868:4915  linkToken.approve(address(ccipRouter), ccipFee) */\n      mload(0x40)\n      dup4\n      0xffffffff\n      and\n      0xe0\n      shl\n      dup2\n      mstore\n      0x04\n      add\n      tag_91\n      swap3\n      swap2\n      swap1\n      tag_42\n      jump\t// in\n    tag_91:\n      0x20\n      mload(0x40)\n      dup1\n      dup4\n      sub\n      dup2\n      0x00\n      dup8\n      gas\n      call\n      iszero\n      dup1\n      iszero\n      tag_93\n      jumpi\n      returndatasize\n      0x00\n      dup1\n      returndatacopy\n      revert(0x00, returndatasize)\n    tag_93:\n      pop\n      pop\n      pop\n      pop\n      mload(0x40)\n      returndatasize\n      not(0x1f)\n      0x1f\n      dup3\n      add\n      and\n      dup3\n      add\n      dup1\n      0x40\n      mstore\n      pop\n      dup2\n      add\n      swap1\n      tag_94\n      swap2\n      swap1\n      tag_46\n      jump\t// in\n    tag_94:\n      pop\n        /* \"CHAINLIST_SOLIDITY/TransferUSDCBasic.sol\":5023:5032  usdcToken */\n      immutable(\"0xfd5f3dc9a2e57daa140eb9226c5f29b54860b87a571ab0e6e6786455520c6f1c\")\n        /* \"CHAINLIST_SOLIDITY/TransferUSDCBasic.sol\":5023:5042  usdcToken.balanceOf */\n      0xffffffffffffffffffffffffffffffffffffffff\n      and\n      0x70a08231\n        /* \"CHAINLIST_SOLIDITY/TransferUSDCBasic.sol\":5043:5053  msg.sender */\n      caller\n        /* \"CHAINLIST_SOLIDITY/TransferUSDCBasic.sol\":5023:5054  usdcToken.balanceOf(msg.sender) */\n      mload(0x40)\n      dup3\n      0xffffffff\n      and\n      0xe0\n      shl\n      dup2\n      mstore\n      0x04\n      add\n      tag_95\n      swap2\n      swap1\n      tag_21\n      jump\t// in\n    tag_95:\n      0x20\n      mload(0x40)\n      dup1\n      dup4\n      sub\n      dup2\n      dup7\n      gas\n      staticcall\n      iszero\n      dup1\n      iszero\n      tag_97\n      jumpi\n      returndatasize\n      0x00\n      dup1\n      returndatacopy\n      revert(0x00, returndatasize)\n    tag_97:\n      pop\n      pop\n      pop\n      pop\n      mload(0x40)\n      returndatasize\n      not(0x1f)\n      0x1f\n      dup3\n      add\n      and\n      dup3\n      add\n      dup1\n      0x40\n      mstore\n      pop\n      dup2\n      add\n      swap1\n      tag_98\n      swap2\n      swap1\n      tag_39\n      jump\t// in\n    tag_98:\n        /* \"CHAINLIST_SOLIDITY/TransferUSDCBasic.sol\":5013:5020  _amount */\n      dup7\n        /* \"CHAINLIST_SOLIDITY/TransferUSDCBasic.sol\":5013:5054  _amount > usdcToken.balanceOf(msg.sender) */\n      gt\n        /* \"CHAINLIST_SOLIDITY/TransferUSDCBasic.sol\":5009:5141  if (_amount > usdcToken.balanceOf(msg.sender)) ... */\n      iszero\n      tag_99\n      jumpi\n        /* \"CHAINLIST_SOLIDITY/TransferUSDCBasic.sol\":5109:5118  usdcToken */\n      immutable(\"0xfd5f3dc9a2e57daa140eb9226c5f29b54860b87a571ab0e6e6786455520c6f1c\")\n        /* \"CHAINLIST_SOLIDITY/TransferUSDCBasic.sol\":5109:5128  usdcToken.balanceOf */\n      0xffffffffffffffffffffffffffffffffffffffff\n      and\n      0x70a08231\n        /* \"CHAINLIST_SOLIDITY/TransferUSDCBasic.sol\":5129:5139  msg.sender */\n      caller\n        /* \"CHAINLIST_SOLIDITY/TransferUSDCBasic.sol\":5109:5140  usdcToken.balanceOf(msg.sender) */\n      mload(0x40)\n      dup3\n      0xffffffff\n      and\n      0xe0\n      shl\n      dup2\n      mstore\n      0x04\n      add\n      tag_100\n      swap2\n      swap1\n      tag_21\n      jump\t// in\n    tag_100:\n      0x20\n      mload(0x40)\n      dup1\n      dup4\n      sub\n      dup2\n      dup7\n      gas\n      staticcall\n      iszero\n      dup1\n      iszero\n      tag_102\n      jumpi\n      returndatasize\n      0x00\n      dup1\n      returndatacopy\n      revert(0x00, returndatasize)\n    tag_102:\n      pop\n      pop\n      pop\n      pop\n      mload(0x40)\n      returndatasize\n      not(0x1f)\n      0x1f\n      dup3\n      add\n      and\n      dup3\n      add\n      dup1\n      0x40\n      mstore\n      pop\n      dup2\n      add\n      swap1\n      tag_103\n      swap2\n      swap1\n      tag_39\n      jump\t// in\n    tag_103:\n        /* \"CHAINLIST_SOLIDITY/TransferUSDCBasic.sol\":5077:5141  NotEnoughBalanceUsdcForTransfer(usdcToken.balanceOf(msg.sender)) */\n      mload(0x40)\n      0x6212cf3b00000000000000000000000000000000000000000000000000000000\n      dup2\n      mstore\n      0x04\n      add\n      tag_104\n      swap2\n      swap1\n      tag_25\n      jump\t// in\n    tag_104:\n      mload(0x40)\n      dup1\n      swap2\n      sub\n      swap1\n      revert\n        /* \"CHAINLIST_SOLIDITY/TransferUSDCBasic.sol\":5009:5141  if (_amount > usdcToken.balanceOf(msg.sender)) ... */\n    tag_99:\n        /* \"CHAINLIST_SOLIDITY/TransferUSDCBasic.sol\":5223:5285  usdcToken.safeTransferFrom(msg.sender, address(this), _amount) */\n      tag_105\n        /* \"CHAINLIST_SOLIDITY/TransferUSDCBasic.sol\":5250:5260  msg.sender */\n      caller\n        /* \"CHAINLIST_SOLIDITY/TransferUSDCBasic.sol\":5270:5274  this */\n      address\n        /* \"CHAINLIST_SOLIDITY/TransferUSDCBasic.sol\":5277:5284  _amount */\n      dup9\n        /* \"CHAINLIST_SOLIDITY/TransferUSDCBasic.sol\":5223:5232  usdcToken */\n      immutable(\"0xfd5f3dc9a2e57daa140eb9226c5f29b54860b87a571ab0e6e6786455520c6f1c\")\n        /* \"CHAINLIST_SOLIDITY/TransferUSDCBasic.sol\":5223:5249  usdcToken.safeTransferFrom */\n      0xffffffffffffffffffffffffffffffffffffffff\n      and\n      tag_106\n      swap1\n        /* \"CHAINLIST_SOLIDITY/TransferUSDCBasic.sol\":5223:5285  usdcToken.safeTransferFrom(msg.sender, address(this), _amount) */\n      swap4\n      swap3\n      swap2\n      swap1\n      0xffffffff\n      and\n      jump\t// in\n    tag_105:\n        /* \"CHAINLIST_SOLIDITY/TransferUSDCBasic.sol\":5361:5370  usdcToken */\n      immutable(\"0xfd5f3dc9a2e57daa140eb9226c5f29b54860b87a571ab0e6e6786455520c6f1c\")\n        /* \"CHAINLIST_SOLIDITY/TransferUSDCBasic.sol\":5361:5378  usdcToken.approve */\n      0xffffffffffffffffffffffffffffffffffffffff\n      and\n      0x095ea7b3\n        /* \"CHAINLIST_SOLIDITY/TransferUSDCBasic.sol\":5387:5397  ccipRouter */\n      immutable(\"0x1d2b7ce2c7309c0ae499257b4d570bbc2aa804a132076a507e13da63d22f2ea8\")\n        /* \"CHAINLIST_SOLIDITY/TransferUSDCBasic.sol\":5400:5407  _amount */\n      dup9\n        /* \"CHAINLIST_SOLIDITY/TransferUSDCBasic.sol\":5361:5408  usdcToken.approve(address(ccipRouter), _amount) */\n      mload(0x40)\n      dup4\n      0xffffffff\n      and\n      0xe0\n      shl\n      dup2\n      mstore\n      0x04\n      add\n      tag_107\n      swap3\n      swap2\n      swap1\n      tag_42\n      jump\t// in\n    tag_107:\n      0x20\n      mload(0x40)\n      dup1\n      dup4\n      sub\n      dup2\n      0x00\n      dup8\n      gas\n      call\n      iszero\n      dup1\n      iszero\n      tag_109\n      jumpi\n      returndatasize\n      0x00\n      dup1\n      returndatacopy\n      revert(0x00, returndatasize)\n    tag_109:\n      pop\n      pop\n      pop\n      pop\n      mload(0x40)\n      returndatasize\n      not(0x1f)\n      0x1f\n      dup3\n      add\n      and\n      dup3\n      add\n      dup1\n      0x40\n      mstore\n      pop\n      dup2\n      add\n      swap1\n      tag_110\n      swap2\n      swap1\n      tag_46\n      jump\t// in\n    tag_110:\n      pop\n        /* \"CHAINLIST_SOLIDITY/TransferUSDCBasic.sol\":5514:5524  ccipRouter */\n      immutable(\"0x1d2b7ce2c7309c0ae499257b4d570bbc2aa804a132076a507e13da63d22f2ea8\")\n        /* \"CHAINLIST_SOLIDITY/TransferUSDCBasic.sol\":5514:5533  ccipRouter.ccipSend */\n      0xffffffffffffffffffffffffffffffffffffffff\n      and\n      0x96f4e9f9\n        /* \"CHAINLIST_SOLIDITY/TransferUSDCBasic.sol\":5534:5558  destinationChainSelector */\n      0x03\n      0x14\n      swap1\n      sload\n      swap1\n      0x0100\n      exp\n      swap1\n      div\n      0xffffffffffffffff\n      and\n        /* \"CHAINLIST_SOLIDITY/TransferUSDCBasic.sol\":5560:5567  message */\n      dup5\n        /* \"CHAINLIST_SOLIDITY/TransferUSDCBasic.sol\":5514:5568  ccipRouter.ccipSend(destinationChainSelector, message) */\n      mload(0x40)\n      dup4\n      0xffffffff\n      and\n      0xe0\n      shl\n      dup2\n      mstore\n      0x04\n      add\n      tag_111\n      swap3\n      swap2\n      swap1\n      tag_77\n      jump\t// in\n    tag_111:\n      0x20\n      mload(0x40)\n      dup1\n      dup4\n      sub\n      dup2\n      0x00\n      dup8\n      gas\n      call\n      iszero\n      dup1\n      iszero\n      tag_113\n      jumpi\n      returndatasize\n      0x00\n      dup1\n      returndatacopy\n      revert(0x00, returndatasize)\n    tag_113:\n      pop\n      pop\n      pop\n      pop\n      mload(0x40)\n      returndatasize\n      not(0x1f)\n      0x1f\n      dup3\n      add\n      and\n      dup3\n      add\n      dup1\n      0x40\n      mstore\n      pop\n      dup2\n      add\n      swap1\n      tag_114\n      swap2\n      swap1\n      tag_115\n      jump\t// in\n    tag_114:\n        /* \"CHAINLIST_SOLIDITY/TransferUSDCBasic.sol\":5502:5568  messageId = ccipRouter.ccipSend(destinationChainSelector, message) */\n      swap5\n      pop\n        /* \"CHAINLIST_SOLIDITY/TransferUSDCBasic.sol\":5646:5849  UsdcTransferred( ... */\n      0xb55a3d3f1ccd1c10f00aff03ad884028d98fa1d478fae03acecbf884ce8e8fbc\n        /* \"CHAINLIST_SOLIDITY/TransferUSDCBasic.sol\":5677:5686  messageId */\n      dup6\n        /* \"CHAINLIST_SOLIDITY/TransferUSDCBasic.sol\":5746:5770  destinationChainSelector */\n      0x03\n      0x14\n      swap1\n      sload\n      swap1\n      0x0100\n      exp\n      swap1\n      div\n      0xffffffffffffffff\n      and\n        /* \"CHAINLIST_SOLIDITY/TransferUSDCBasic.sol\":5785:5794  _receiver */\n      dup10\n        /* \"CHAINLIST_SOLIDITY/TransferUSDCBasic.sol\":5809:5816  _amount */\n      dup10\n        /* \"CHAINLIST_SOLIDITY/TransferUSDCBasic.sol\":5831:5838  ccipFee */\n      dup6\n        /* \"CHAINLIST_SOLIDITY/TransferUSDCBasic.sol\":5646:5849  UsdcTransferred( ... */\n      mload(0x40)\n      tag_116\n      swap6\n      swap5\n      swap4\n      swap3\n      swap2\n      swap1\n      tag_117\n      jump\t// in\n    tag_116:\n      mload(0x40)\n      dup1\n      swap2\n      sub\n      swap1\n      log1\n        /* \"CHAINLIST_SOLIDITY/TransferUSDCBasic.sol\":3372:5857  {   // Create an array to hold token amounts (1 element)... */\n      pop\n      pop\n      pop\n      pop\n        /* \"CHAINLIST_SOLIDITY/TransferUSDCBasic.sol\":3105:5857  function transferUsdcToSepolia(... */\n      swap3\n      swap2\n      pop\n      pop\n      jump\t// out\n        /* \"@chainlink/contracts-ccip/src/v0.8/ccip/libraries/Client.sol\":1286:1456  function _argsToBytes(EVMExtraArgsV1 memory extraArgs) internal pure returns (bytes memory bts) {... */\n    tag_75:\n        /* \"@chainlink/contracts-ccip/src/v0.8/ccip/libraries/Client.sol\":1364:1380  bytes memory bts */\n      0x60\n        /* \"@chainlink/contracts-ccip/src/v0.8/ccip/libraries/Client.sol\":1218:1228  0x97a657c9 */\n      0x97a657c9\n        /* \"@chainlink/contracts-ccip/src/v0.8/ccip/libraries/Client.sol\":1418:1439  EVM_EXTRA_ARGS_V1_TAG */\n      0xe0\n      shl\n        /* \"@chainlink/contracts-ccip/src/v0.8/ccip/libraries/Client.sol\":1441:1450  extraArgs */\n      dup3\n        /* \"@chainlink/contracts-ccip/src/v0.8/ccip/libraries/Client.sol\":1395:1451  abi.encodeWithSelector(EVM_EXTRA_ARGS_V1_TAG, extraArgs) */\n      add(0x24, mload(0x40))\n      tag_119\n      swap2\n      swap1\n      tag_120\n      jump\t// in\n    tag_119:\n      mload(0x40)\n      0x20\n      dup2\n      dup4\n      sub\n      sub\n      dup2\n      mstore\n      swap1\n      0x40\n      mstore\n      swap1\n      not(0xffffffffffffffffffffffffffffffffffffffffffffffffffffffff)\n      and\n      0x20\n      dup3\n      add\n      dup1\n      mload\n      0xffffffffffffffffffffffffffffffffffffffffffffffffffffffff\n      dup4\n      dup2\n      dup4\n      and\n      or\n      dup4\n      mstore\n      pop\n      pop\n      pop\n      pop\n        /* \"@chainlink/contracts-ccip/src/v0.8/ccip/libraries/Client.sol\":1388:1451  return abi.encodeWithSelector(EVM_EXTRA_ARGS_V1_TAG, extraArgs) */\n      swap1\n      pop\n        /* \"@chainlink/contracts-ccip/src/v0.8/ccip/libraries/Client.sol\":1286:1456  function _argsToBytes(EVMExtraArgsV1 memory extraArgs) internal pure returns (bytes memory bts) {... */\n      swap2\n      swap1\n      pop\n      jump\t// out\n        /* \"@chainlink/contracts-ccip/src/v0.8/vendor/openzeppelin-solidity/v4.8.0/token/ERC20/utils/SafeERC20.sol\":948:1165  function safeTransferFrom(... */\n    tag_106:\n        /* \"@chainlink/contracts-ccip/src/v0.8/vendor/openzeppelin-solidity/v4.8.0/token/ERC20/utils/SafeERC20.sol\":1064:1160  _callOptionalReturn(token, abi.encodeWithSelector(token.transferFrom.selector, from, to, value)) */\n      tag_122\n        /* \"@chainlink/contracts-ccip/src/v0.8/vendor/openzeppelin-solidity/v4.8.0/token/ERC20/utils/SafeERC20.sol\":1084:1089  token */\n      dup5\n        /* \"@chainlink/contracts-ccip/src/v0.8/vendor/openzeppelin-solidity/v4.8.0/token/ERC20/utils/SafeERC20.sol\":1114:1141  token.transferFrom.selector */\n      shl(0xe0, 0x23b872dd)\n        /* \"@chainlink/contracts-ccip/src/v0.8/vendor/openzeppelin-solidity/v4.8.0/token/ERC20/utils/SafeERC20.sol\":1143:1147  from */\n      dup6\n        /* \"@chainlink/contracts-ccip/src/v0.8/vendor/openzeppelin-solidity/v4.8.0/token/ERC20/utils/SafeERC20.sol\":1149:1151  to */\n      dup6\n        /* \"@chainlink/contracts-ccip/src/v0.8/vendor/openzeppelin-solidity/v4.8.0/token/ERC20/utils/SafeERC20.sol\":1153:1158  value */\n      dup6\n        /* \"@chainlink/contracts-ccip/src/v0.8/vendor/openzeppelin-solidity/v4.8.0/token/ERC20/utils/SafeERC20.sol\":1091:1159  abi.encodeWithSelector(token.transferFrom.selector, from, to, value) */\n      add(0x24, mload(0x40))\n      tag_123\n      swap4\n      swap3\n      swap2\n      swap1\n      tag_124\n      jump\t// in\n    tag_123:\n      mload(0x40)\n      0x20\n      dup2\n      dup4\n      sub\n      sub\n      dup2\n      mstore\n      swap1\n      0x40\n      mstore\n      swap1\n      not(0xffffffffffffffffffffffffffffffffffffffffffffffffffffffff)\n      and\n      0x20\n      dup3\n      add\n      dup1\n      mload\n      0xffffffffffffffffffffffffffffffffffffffffffffffffffffffff\n      dup4\n      dup2\n      dup4\n      and\n      or\n      dup4\n      mstore\n      pop\n      pop\n      pop\n      pop\n        /* \"@chainlink/contracts-ccip/src/v0.8/vendor/openzeppelin-solidity/v4.8.0/token/ERC20/utils/SafeERC20.sol\":1064:1083  _callOptionalReturn */\n      tag_125\n        /* \"@chainlink/contracts-ccip/src/v0.8/vendor/openzeppelin-solidity/v4.8.0/token/ERC20/utils/SafeERC20.sol\":1064:1160  _callOptionalReturn(token, abi.encodeWithSelector(token.transferFrom.selector, from, to, value)) */\n      jump\t// in\n    tag_122:\n        /* \"@chainlink/contracts-ccip/src/v0.8/vendor/openzeppelin-solidity/v4.8.0/token/ERC20/utils/SafeERC20.sol\":948:1165  function safeTransferFrom(... */\n      pop\n      pop\n      pop\n      pop\n      jump\t// out\n        /* \"@chainlink/contracts-ccip/src/v0.8/vendor/openzeppelin-solidity/v4.8.0/token/ERC20/utils/SafeERC20.sol\":3485:4153  function _callOptionalReturn(IERC20 token, bytes memory data) private {... */\n    tag_125:\n        /* \"@chainlink/contracts-ccip/src/v0.8/vendor/openzeppelin-solidity/v4.8.0/token/ERC20/utils/SafeERC20.sol\":3888:3911  bytes memory returndata */\n      0x00\n        /* \"@chainlink/contracts-ccip/src/v0.8/vendor/openzeppelin-solidity/v4.8.0/token/ERC20/utils/SafeERC20.sol\":3914:3983  address(token).functionCall(data, \"SafeERC20: low-level call failed\") */\n      tag_127\n        /* \"@chainlink/contracts-ccip/src/v0.8/vendor/openzeppelin-solidity/v4.8.0/token/ERC20/utils/SafeERC20.sol\":3942:3946  data */\n      dup3\n        /* \"@chainlink/contracts-ccip/src/v0.8/vendor/openzeppelin-solidity/v4.8.0/token/ERC20/utils/SafeERC20.sol\":3914:3983  address(token).functionCall(data, \"SafeERC20: low-level call failed\") */\n      mload(0x40)\n      dup1\n      0x40\n      add\n      0x40\n      mstore\n      dup1\n      0x20\n      dup2\n      mstore\n      0x20\n      add\n      0x5361666545524332303a206c6f772d6c6576656c2063616c6c206661696c6564\n      dup2\n      mstore\n      pop\n        /* \"@chainlink/contracts-ccip/src/v0.8/vendor/openzeppelin-solidity/v4.8.0/token/ERC20/utils/SafeERC20.sol\":3922:3927  token */\n      dup6\n        /* \"@chainlink/contracts-ccip/src/v0.8/vendor/openzeppelin-solidity/v4.8.0/token/ERC20/utils/SafeERC20.sol\":3914:3941  address(token).functionCall */\n      0xffffffffffffffffffffffffffffffffffffffff\n      and\n      tag_128\n      swap1\n        /* \"@chainlink/contracts-ccip/src/v0.8/vendor/openzeppelin-solidity/v4.8.0/token/ERC20/utils/SafeERC20.sol\":3914:3983  address(token).functionCall(data, \"SafeERC20: low-level call failed\") */\n      swap3\n      swap2\n      swap1\n      0xffffffff\n      and\n      jump\t// in\n    tag_127:\n        /* \"@chainlink/contracts-ccip/src/v0.8/vendor/openzeppelin-solidity/v4.8.0/token/ERC20/utils/SafeERC20.sol\":3888:3983  bytes memory returndata = address(token).functionCall(data, \"SafeERC20: low-level call failed\") */\n      swap1\n      pop\n        /* \"@chainlink/contracts-ccip/src/v0.8/vendor/openzeppelin-solidity/v4.8.0/token/ERC20/utils/SafeERC20.sol\":4013:4014  0 */\n      0x00\n        /* \"@chainlink/contracts-ccip/src/v0.8/vendor/openzeppelin-solidity/v4.8.0/token/ERC20/utils/SafeERC20.sol\":3993:4003  returndata */\n      dup2\n        /* \"@chainlink/contracts-ccip/src/v0.8/vendor/openzeppelin-solidity/v4.8.0/token/ERC20/utils/SafeERC20.sol\":3993:4010  returndata.length */\n      mload\n        /* \"@chainlink/contracts-ccip/src/v0.8/vendor/openzeppelin-solidity/v4.8.0/token/ERC20/utils/SafeERC20.sol\":3993:4014  returndata.length > 0 */\n      gt\n        /* \"@chainlink/contracts-ccip/src/v0.8/vendor/openzeppelin-solidity/v4.8.0/token/ERC20/utils/SafeERC20.sol\":3989:4149  if (returndata.length > 0) {... */\n      iszero\n      tag_129\n      jumpi\n        /* \"@chainlink/contracts-ccip/src/v0.8/vendor/openzeppelin-solidity/v4.8.0/token/ERC20/utils/SafeERC20.sol\":4076:4086  returndata */\n      dup1\n        /* \"@chainlink/contracts-ccip/src/v0.8/vendor/openzeppelin-solidity/v4.8.0/token/ERC20/utils/SafeERC20.sol\":4065:4095  abi.decode(returndata, (bool)) */\n      dup1\n      0x20\n      add\n      swap1\n      mload\n      dup2\n      add\n      swap1\n      tag_130\n      swap2\n      swap1\n      tag_46\n      jump\t// in\n    tag_130:\n        /* \"@chainlink/contracts-ccip/src/v0.8/vendor/openzeppelin-solidity/v4.8.0/token/ERC20/utils/SafeERC20.sol\":4057:4142  require(abi.decode(returndata, (bool)), \"SafeERC20: ERC20 operation did not succeed\") */\n      tag_131\n      jumpi\n      mload(0x40)\n      0x08c379a000000000000000000000000000000000000000000000000000000000\n      dup2\n      mstore\n      0x04\n      add\n      tag_132\n      swap1\n      tag_133\n      jump\t// in\n    tag_132:\n      mload(0x40)\n      dup1\n      swap2\n      sub\n      swap1\n      revert\n    tag_131:\n        /* \"@chainlink/contracts-ccip/src/v0.8/vendor/openzeppelin-solidity/v4.8.0/token/ERC20/utils/SafeERC20.sol\":3989:4149  if (returndata.length > 0) {... */\n    tag_129:\n        /* \"@chainlink/contracts-ccip/src/v0.8/vendor/openzeppelin-solidity/v4.8.0/token/ERC20/utils/SafeERC20.sol\":3555:4153  {... */\n      pop\n        /* \"@chainlink/contracts-ccip/src/v0.8/vendor/openzeppelin-solidity/v4.8.0/token/ERC20/utils/SafeERC20.sol\":3485:4153  function _callOptionalReturn(IERC20 token, bytes memory data) private {... */\n      pop\n      pop\n      jump\t// out\n        /* \"@chainlink/contracts-ccip/src/v0.8/vendor/openzeppelin-solidity/v4.8.0/utils/Address.sol\":3695:3898  function functionCall(... */\n    tag_128:\n        /* \"@chainlink/contracts-ccip/src/v0.8/vendor/openzeppelin-solidity/v4.8.0/utils/Address.sol\":3814:3826  bytes memory */\n      0x60\n        /* \"@chainlink/contracts-ccip/src/v0.8/vendor/openzeppelin-solidity/v4.8.0/utils/Address.sol\":3841:3893  functionCallWithValue(target, data, 0, errorMessage) */\n      tag_135\n        /* \"@chainlink/contracts-ccip/src/v0.8/vendor/openzeppelin-solidity/v4.8.0/utils/Address.sol\":3863:3869  target */\n      dup5\n        /* \"@chainlink/contracts-ccip/src/v0.8/vendor/openzeppelin-solidity/v4.8.0/utils/Address.sol\":3871:3875  data */\n      dup5\n        /* \"@chainlink/contracts-ccip/src/v0.8/vendor/openzeppelin-solidity/v4.8.0/utils/Address.sol\":3877:3878  0 */\n      0x00\n        /* \"@chainlink/contracts-ccip/src/v0.8/vendor/openzeppelin-solidity/v4.8.0/utils/Address.sol\":3880:3892  errorMessage */\n      dup6\n        /* \"@chainlink/contracts-ccip/src/v0.8/vendor/openzeppelin-solidity/v4.8.0/utils/Address.sol\":3841:3862  functionCallWithValue */\n      tag_136\n        /* \"@chainlink/contracts-ccip/src/v0.8/vendor/openzeppelin-solidity/v4.8.0/utils/Address.sol\":3841:3893  functionCallWithValue(target, data, 0, errorMessage) */\n      jump\t// in\n    tag_135:\n        /* \"@chainlink/contracts-ccip/src/v0.8/vendor/openzeppelin-solidity/v4.8.0/utils/Address.sol\":3834:3893  return functionCallWithValue(target, data, 0, errorMessage) */\n      swap1\n      pop\n        /* \"@chainlink/contracts-ccip/src/v0.8/vendor/openzeppelin-solidity/v4.8.0/utils/Address.sol\":3695:3898  function functionCall(... */\n      swap4\n      swap3\n      pop\n      pop\n      pop\n      jump\t// out\n        /* \"@chainlink/contracts-ccip/src/v0.8/vendor/openzeppelin-solidity/v4.8.0/utils/Address.sol\":4704:5118  function functionCallWithValue(... */\n    tag_136:\n        /* \"@chainlink/contracts-ccip/src/v0.8/vendor/openzeppelin-solidity/v4.8.0/utils/Address.sol\":4851:4863  bytes memory */\n      0x60\n        /* \"@chainlink/contracts-ccip/src/v0.8/vendor/openzeppelin-solidity/v4.8.0/utils/Address.sol\":4904:4909  value */\n      dup3\n        /* \"@chainlink/contracts-ccip/src/v0.8/vendor/openzeppelin-solidity/v4.8.0/utils/Address.sol\":4879:4900  address(this).balance */\n      selfbalance\n        /* \"@chainlink/contracts-ccip/src/v0.8/vendor/openzeppelin-solidity/v4.8.0/utils/Address.sol\":4879:4909  address(this).balance >= value */\n      lt\n      iszero\n        /* \"@chainlink/contracts-ccip/src/v0.8/vendor/openzeppelin-solidity/v4.8.0/utils/Address.sol\":4871:4952  require(address(this).balance >= value, \"Address: insufficient balance for call\") */\n      tag_138\n      jumpi\n      mload(0x40)\n      0x08c379a000000000000000000000000000000000000000000000000000000000\n      dup2\n      mstore\n      0x04\n      add\n      tag_139\n      swap1\n      tag_140\n      jump\t// in\n    tag_139:\n      mload(0x40)\n      dup1\n      swap2\n      sub\n      swap1\n      revert\n    tag_138:\n        /* \"@chainlink/contracts-ccip/src/v0.8/vendor/openzeppelin-solidity/v4.8.0/utils/Address.sol\":4959:4971  bool success */\n      0x00\n        /* \"@chainlink/contracts-ccip/src/v0.8/vendor/openzeppelin-solidity/v4.8.0/utils/Address.sol\":4973:4996  bytes memory returndata */\n      dup1\n        /* \"@chainlink/contracts-ccip/src/v0.8/vendor/openzeppelin-solidity/v4.8.0/utils/Address.sol\":5000:5006  target */\n      dup7\n        /* \"@chainlink/contracts-ccip/src/v0.8/vendor/openzeppelin-solidity/v4.8.0/utils/Address.sol\":5000:5011  target.call */\n      0xffffffffffffffffffffffffffffffffffffffff\n      and\n        /* \"@chainlink/contracts-ccip/src/v0.8/vendor/openzeppelin-solidity/v4.8.0/utils/Address.sol\":5019:5024  value */\n      dup6\n        /* \"@chainlink/contracts-ccip/src/v0.8/vendor/openzeppelin-solidity/v4.8.0/utils/Address.sol\":5026:5030  data */\n      dup8\n        /* \"@chainlink/contracts-ccip/src/v0.8/vendor/openzeppelin-solidity/v4.8.0/utils/Address.sol\":5000:5031  target.call{value: value}(data) */\n      mload(0x40)\n      tag_141\n      swap2\n      swap1\n      tag_142\n      jump\t// in\n    tag_141:\n      0x00\n      mload(0x40)\n      dup1\n      dup4\n      sub\n      dup2\n      dup6\n      dup8\n      gas\n      call\n      swap3\n      pop\n      pop\n      pop\n      returndatasize\n      dup1\n      0x00\n      dup2\n      eq\n      tag_145\n      jumpi\n      mload(0x40)\n      swap2\n      pop\n      and(add(returndatasize, 0x3f), not(0x1f))\n      dup3\n      add\n      0x40\n      mstore\n      returndatasize\n      dup3\n      mstore\n      returndatasize\n      0x00\n      0x20\n      dup5\n      add\n      returndatacopy\n      jump(tag_144)\n    tag_145:\n      0x60\n      swap2\n      pop\n    tag_144:\n      pop\n        /* \"@chainlink/contracts-ccip/src/v0.8/vendor/openzeppelin-solidity/v4.8.0/utils/Address.sol\":4958:5031  (bool success, bytes memory returndata) = target.call{value: value}(data) */\n      swap2\n      pop\n      swap2\n      pop\n        /* \"@chainlink/contracts-ccip/src/v0.8/vendor/openzeppelin-solidity/v4.8.0/utils/Address.sol\":5044:5113  verifyCallResultFromTarget(target, success, returndata, errorMessage) */\n      tag_146\n        /* \"@chainlink/contracts-ccip/src/v0.8/vendor/openzeppelin-solidity/v4.8.0/utils/Address.sol\":5071:5077  target */\n      dup8\n        /* \"@chainlink/contracts-ccip/src/v0.8/vendor/openzeppelin-solidity/v4.8.0/utils/Address.sol\":5079:5086  success */\n      dup4\n        /* \"@chainlink/contracts-ccip/src/v0.8/vendor/openzeppelin-solidity/v4.8.0/utils/Address.sol\":5088:5098  returndata */\n      dup4\n        /* \"@chainlink/contracts-ccip/src/v0.8/vendor/openzeppelin-solidity/v4.8.0/utils/Address.sol\":5100:5112  errorMessage */\n      dup8\n        /* \"@chainlink/contracts-ccip/src/v0.8/vendor/openzeppelin-solidity/v4.8.0/utils/Address.sol\":5044:5070  verifyCallResultFromTarget */\n      tag_147\n        /* \"@chainlink/contracts-ccip/src/v0.8/vendor/openzeppelin-solidity/v4.8.0/utils/Address.sol\":5044:5113  verifyCallResultFromTarget(target, success, returndata, errorMessage) */\n      jump\t// in\n    tag_146:\n        /* \"@chainlink/contracts-ccip/src/v0.8/vendor/openzeppelin-solidity/v4.8.0/utils/Address.sol\":5037:5113  return verifyCallResultFromTarget(target, success, returndata, errorMessage) */\n      swap3\n      pop\n      pop\n      pop\n        /* \"@chainlink/contracts-ccip/src/v0.8/vendor/openzeppelin-solidity/v4.8.0/utils/Address.sol\":4704:5118  function functionCallWithValue(... */\n      swap5\n      swap4\n      pop\n      pop\n      pop\n      pop\n      jump\t// out\n        /* \"@chainlink/contracts-ccip/src/v0.8/vendor/openzeppelin-solidity/v4.8.0/utils/Address.sol\":7048:7596  function verifyCallResultFromTarget(... */\n    tag_147:\n        /* \"@chainlink/contracts-ccip/src/v0.8/vendor/openzeppelin-solidity/v4.8.0/utils/Address.sol\":7210:7222  bytes memory */\n      0x60\n        /* \"@chainlink/contracts-ccip/src/v0.8/vendor/openzeppelin-solidity/v4.8.0/utils/Address.sol\":7234:7241  success */\n      dup4\n        /* \"@chainlink/contracts-ccip/src/v0.8/vendor/openzeppelin-solidity/v4.8.0/utils/Address.sol\":7230:7592  if (success) {... */\n      iszero\n      tag_149\n      jumpi\n        /* \"@chainlink/contracts-ccip/src/v0.8/vendor/openzeppelin-solidity/v4.8.0/utils/Address.sol\":7276:7277  0 */\n      0x00\n        /* \"@chainlink/contracts-ccip/src/v0.8/vendor/openzeppelin-solidity/v4.8.0/utils/Address.sol\":7255:7265  returndata */\n      dup4\n        /* \"@chainlink/contracts-ccip/src/v0.8/vendor/openzeppelin-solidity/v4.8.0/utils/Address.sol\":7255:7272  returndata.length */\n      mload\n        /* \"@chainlink/contracts-ccip/src/v0.8/vendor/openzeppelin-solidity/v4.8.0/utils/Address.sol\":7255:7277  returndata.length == 0 */\n      sub\n        /* \"@chainlink/contracts-ccip/src/v0.8/vendor/openzeppelin-solidity/v4.8.0/utils/Address.sol\":7251:7507  if (returndata.length == 0) {... */\n      tag_150\n      jumpi\n        /* \"@chainlink/contracts-ccip/src/v0.8/vendor/openzeppelin-solidity/v4.8.0/utils/Address.sol\":7446:7464  isContract(target) */\n      tag_151\n        /* \"@chainlink/contracts-ccip/src/v0.8/vendor/openzeppelin-solidity/v4.8.0/utils/Address.sol\":7457:7463  target */\n      dup6\n        /* \"@chainlink/contracts-ccip/src/v0.8/vendor/openzeppelin-solidity/v4.8.0/utils/Address.sol\":7446:7456  isContract */\n      tag_152\n        /* \"@chainlink/contracts-ccip/src/v0.8/vendor/openzeppelin-solidity/v4.8.0/utils/Address.sol\":7446:7464  isContract(target) */\n      jump\t// in\n    tag_151:\n        /* \"@chainlink/contracts-ccip/src/v0.8/vendor/openzeppelin-solidity/v4.8.0/utils/Address.sol\":7438:7498  require(isContract(target), \"Address: call to non-contract\") */\n      tag_153\n      jumpi\n      mload(0x40)\n      0x08c379a000000000000000000000000000000000000000000000000000000000\n      dup2\n      mstore\n      0x04\n      add\n      tag_154\n      swap1\n      tag_155\n      jump\t// in\n    tag_154:\n      mload(0x40)\n      dup1\n      swap2\n      sub\n      swap1\n      revert\n    tag_153:\n        /* \"@chainlink/contracts-ccip/src/v0.8/vendor/openzeppelin-solidity/v4.8.0/utils/Address.sol\":7251:7507  if (returndata.length == 0) {... */\n    tag_150:\n        /* \"@chainlink/contracts-ccip/src/v0.8/vendor/openzeppelin-solidity/v4.8.0/utils/Address.sol\":7521:7531  returndata */\n      dup3\n        /* \"@chainlink/contracts-ccip/src/v0.8/vendor/openzeppelin-solidity/v4.8.0/utils/Address.sol\":7514:7531  return returndata */\n      swap1\n      pop\n      jump(tag_148)\n        /* \"@chainlink/contracts-ccip/src/v0.8/vendor/openzeppelin-solidity/v4.8.0/utils/Address.sol\":7230:7592  if (success) {... */\n    tag_149:\n        /* \"@chainlink/contracts-ccip/src/v0.8/vendor/openzeppelin-solidity/v4.8.0/utils/Address.sol\":7552:7585  _revert(returndata, errorMessage) */\n      tag_157\n        /* \"@chainlink/contracts-ccip/src/v0.8/vendor/openzeppelin-solidity/v4.8.0/utils/Address.sol\":7560:7570  returndata */\n      dup4\n        /* \"@chainlink/contracts-ccip/src/v0.8/vendor/openzeppelin-solidity/v4.8.0/utils/Address.sol\":7572:7584  errorMessage */\n      dup4\n        /* \"@chainlink/contracts-ccip/src/v0.8/vendor/openzeppelin-solidity/v4.8.0/utils/Address.sol\":7552:7559  _revert */\n      tag_158\n        /* \"@chainlink/contracts-ccip/src/v0.8/vendor/openzeppelin-solidity/v4.8.0/utils/Address.sol\":7552:7585  _revert(returndata, errorMessage) */\n      jump\t// in\n    tag_157:\n        /* \"@chainlink/contracts-ccip/src/v0.8/vendor/openzeppelin-solidity/v4.8.0/utils/Address.sol\":7048:7596  function verifyCallResultFromTarget(... */\n    tag_148:\n      swap5\n      swap4\n      pop\n      pop\n      pop\n      pop\n      jump\t// out\n        /* \"@chainlink/contracts-ccip/src/v0.8/vendor/openzeppelin-solidity/v4.8.0/utils/Address.sol\":1121:1423  function isContract(address account) internal view returns (bool) {... */\n    tag_152:\n        /* \"@chainlink/contracts-ccip/src/v0.8/vendor/openzeppelin-solidity/v4.8.0/utils/Address.sol\":1181:1185  bool */\n      0x00\n        /* \"@chainlink/contracts-ccip/src/v0.8/vendor/openzeppelin-solidity/v4.8.0/utils/Address.sol\":1417:1418  0 */\n      dup1\n        /* \"@chainlink/contracts-ccip/src/v0.8/vendor/openzeppelin-solidity/v4.8.0/utils/Address.sol\":1395:1402  account */\n      dup3\n        /* \"@chainlink/contracts-ccip/src/v0.8/vendor/openzeppelin-solidity/v4.8.0/utils/Address.sol\":1395:1414  account.code.length */\n      0xffffffffffffffffffffffffffffffffffffffff\n      and\n      extcodesize\n        /* \"@chainlink/contracts-ccip/src/v0.8/vendor/openzeppelin-solidity/v4.8.0/utils/Address.sol\":1395:1418  account.code.length > 0 */\n      gt\n        /* \"@chainlink/contracts-ccip/src/v0.8/vendor/openzeppelin-solidity/v4.8.0/utils/Address.sol\":1388:1418  return account.code.length > 0 */\n      swap1\n      pop\n        /* \"@chainlink/contracts-ccip/src/v0.8/vendor/openzeppelin-solidity/v4.8.0/utils/Address.sol\":1121:1423  function isContract(address account) internal view returns (bool) {... */\n      swap2\n      swap1\n      pop\n      jump\t// out\n        /* \"@chainlink/contracts-ccip/src/v0.8/vendor/openzeppelin-solidity/v4.8.0/utils/Address.sol\":8062:8538  function _revert(bytes memory returndata, string memory errorMessage) private pure {... */\n    tag_158:\n        /* \"@chainlink/contracts-ccip/src/v0.8/vendor/openzeppelin-solidity/v4.8.0/utils/Address.sol\":8233:8234  0 */\n      0x00\n        /* \"@chainlink/contracts-ccip/src/v0.8/vendor/openzeppelin-solidity/v4.8.0/utils/Address.sol\":8213:8223  returndata */\n      dup3\n        /* \"@chainlink/contracts-ccip/src/v0.8/vendor/openzeppelin-solidity/v4.8.0/utils/Address.sol\":8213:8230  returndata.length */\n      mload\n        /* \"@chainlink/contracts-ccip/src/v0.8/vendor/openzeppelin-solidity/v4.8.0/utils/Address.sol\":8213:8234  returndata.length > 0 */\n      gt\n        /* \"@chainlink/contracts-ccip/src/v0.8/vendor/openzeppelin-solidity/v4.8.0/utils/Address.sol\":8209:8534  if (returndata.length > 0) {... */\n      iszero\n      tag_161\n      jumpi\n        /* \"@chainlink/contracts-ccip/src/v0.8/vendor/openzeppelin-solidity/v4.8.0/utils/Address.sol\":8415:8425  returndata */\n      dup2\n        /* \"@chainlink/contracts-ccip/src/v0.8/vendor/openzeppelin-solidity/v4.8.0/utils/Address.sol\":8409:8426  mload(returndata) */\n      mload\n        /* \"@chainlink/contracts-ccip/src/v0.8/vendor/openzeppelin-solidity/v4.8.0/utils/Address.sol\":8463:8478  returndata_size */\n      dup1\n        /* \"@chainlink/contracts-ccip/src/v0.8/vendor/openzeppelin-solidity/v4.8.0/utils/Address.sol\":8450:8460  returndata */\n      dup4\n        /* \"@chainlink/contracts-ccip/src/v0.8/vendor/openzeppelin-solidity/v4.8.0/utils/Address.sol\":8446:8448  32 */\n      0x20\n        /* \"@chainlink/contracts-ccip/src/v0.8/vendor/openzeppelin-solidity/v4.8.0/utils/Address.sol\":8442:8461  add(32, returndata) */\n      add\n        /* \"@chainlink/contracts-ccip/src/v0.8/vendor/openzeppelin-solidity/v4.8.0/utils/Address.sol\":8435:8479  revert(add(32, returndata), returndata_size) */\n      revert\n        /* \"@chainlink/contracts-ccip/src/v0.8/vendor/openzeppelin-solidity/v4.8.0/utils/Address.sol\":8209:8534  if (returndata.length > 0) {... */\n    tag_161:\n        /* \"@chainlink/contracts-ccip/src/v0.8/vendor/openzeppelin-solidity/v4.8.0/utils/Address.sol\":8514:8526  errorMessage */\n      dup1\n        /* \"@chainlink/contracts-ccip/src/v0.8/vendor/openzeppelin-solidity/v4.8.0/utils/Address.sol\":8507:8527  revert(errorMessage) */\n      mload(0x40)\n      0x08c379a000000000000000000000000000000000000000000000000000000000\n      dup2\n      mstore\n      0x04\n      add\n      tag_163\n      swap2\n      swap1\n      tag_164\n      jump\t// in\n    tag_163:\n      mload(0x40)\n      dup1\n      swap2\n      sub\n      swap1\n      revert\n    tag_69:\n      mload(0x40)\n      dup1\n      0x40\n      add\n      0x40\n      mstore\n      dup1\n      and(0xffffffffffffffffffffffffffffffffffffffff, 0x00)\n      dup2\n      mstore\n      0x20\n      add\n      0x00\n      dup2\n      mstore\n      pop\n      swap1\n      jump\t// out\n        /* \"#utility.yul\":88:205   */\n    tag_166:\n        /* \"#utility.yul\":197:198   */\n      0x00\n        /* \"#utility.yul\":194:195   */\n      dup1\n        /* \"#utility.yul\":187:199   */\n      revert\n        /* \"#utility.yul\":334:460   */\n    tag_168:\n        /* \"#utility.yul\":371:378   */\n      0x00\n        /* \"#utility.yul\":411:453   */\n      0xffffffffffffffffffffffffffffffffffffffff\n        /* \"#utility.yul\":404:409   */\n      dup3\n        /* \"#utility.yul\":400:454   */\n      and\n        /* \"#utility.yul\":389:454   */\n      swap1\n      pop\n        /* \"#utility.yul\":334:460   */\n      swap2\n      swap1\n      pop\n      jump\t// out\n        /* \"#utility.yul\":466:562   */\n    tag_169:\n        /* \"#utility.yul\":503:510   */\n      0x00\n        /* \"#utility.yul\":532:556   */\n      tag_220\n        /* \"#utility.yul\":550:555   */\n      dup3\n        /* \"#utility.yul\":532:556   */\n      tag_168\n      jump\t// in\n    tag_220:\n        /* \"#utility.yul\":521:556   */\n      swap1\n      pop\n        /* \"#utility.yul\":466:562   */\n      swap2\n      swap1\n      pop\n      jump\t// out\n        /* \"#utility.yul\":568:690   */\n    tag_170:\n        /* \"#utility.yul\":641:665   */\n      tag_222\n        /* \"#utility.yul\":659:664   */\n      dup2\n        /* \"#utility.yul\":641:665   */\n      tag_169\n      jump\t// in\n    tag_222:\n        /* \"#utility.yul\":634:639   */\n      dup2\n        /* \"#utility.yul\":631:666   */\n      eq\n        /* \"#utility.yul\":621:684   */\n      tag_223\n      jumpi\n        /* \"#utility.yul\":680:681   */\n      0x00\n        /* \"#utility.yul\":677:678   */\n      dup1\n        /* \"#utility.yul\":670:682   */\n      revert\n        /* \"#utility.yul\":621:684   */\n    tag_223:\n        /* \"#utility.yul\":568:690   */\n      pop\n      jump\t// out\n        /* \"#utility.yul\":696:835   */\n    tag_171:\n        /* \"#utility.yul\":742:747   */\n      0x00\n        /* \"#utility.yul\":780:786   */\n      dup2\n        /* \"#utility.yul\":767:787   */\n      calldataload\n        /* \"#utility.yul\":758:787   */\n      swap1\n      pop\n        /* \"#utility.yul\":796:829   */\n      tag_225\n        /* \"#utility.yul\":823:828   */\n      dup2\n        /* \"#utility.yul\":796:829   */\n      tag_170\n      jump\t// in\n    tag_225:\n        /* \"#utility.yul\":696:835   */\n      swap3\n      swap2\n      pop\n      pop\n      jump\t// out\n        /* \"#utility.yul\":841:1315   */\n    tag_10:\n        /* \"#utility.yul\":909:915   */\n      0x00\n        /* \"#utility.yul\":917:923   */\n      dup1\n        /* \"#utility.yul\":966:968   */\n      0x40\n        /* \"#utility.yul\":954:963   */\n      dup4\n        /* \"#utility.yul\":945:952   */\n      dup6\n        /* \"#utility.yul\":941:964   */\n      sub\n        /* \"#utility.yul\":937:969   */\n      slt\n        /* \"#utility.yul\":934:1053   */\n      iszero\n      tag_227\n      jumpi\n        /* \"#utility.yul\":972:1051   */\n      tag_228\n      tag_166\n      jump\t// in\n    tag_228:\n        /* \"#utility.yul\":934:1053   */\n    tag_227:\n        /* \"#utility.yul\":1092:1093   */\n      0x00\n        /* \"#utility.yul\":1117:1170   */\n      tag_229\n        /* \"#utility.yul\":1162:1169   */\n      dup6\n        /* \"#utility.yul\":1153:1159   */\n      dup3\n        /* \"#utility.yul\":1142:1151   */\n      dup7\n        /* \"#utility.yul\":1138:1160   */\n      add\n        /* \"#utility.yul\":1117:1170   */\n      tag_171\n      jump\t// in\n    tag_229:\n        /* \"#utility.yul\":1107:1170   */\n      swap3\n      pop\n        /* \"#utility.yul\":1063:1180   */\n      pop\n        /* \"#utility.yul\":1219:1221   */\n      0x20\n        /* \"#utility.yul\":1245:1298   */\n      tag_230\n        /* \"#utility.yul\":1290:1297   */\n      dup6\n        /* \"#utility.yul\":1281:1287   */\n      dup3\n        /* \"#utility.yul\":1270:1279   */\n      dup7\n        /* \"#utility.yul\":1266:1288   */\n      add\n        /* \"#utility.yul\":1245:1298   */\n      tag_171\n      jump\t// in\n    tag_230:\n        /* \"#utility.yul\":1235:1298   */\n      swap2\n      pop\n        /* \"#utility.yul\":1190:1308   */\n      pop\n        /* \"#utility.yul\":841:1315   */\n      swap3\n      pop\n      swap3\n      swap1\n      pop\n      jump\t// out\n        /* \"#utility.yul\":1321:1650   */\n    tag_14:\n        /* \"#utility.yul\":1380:1386   */\n      0x00\n        /* \"#utility.yul\":1429:1431   */\n      0x20\n        /* \"#utility.yul\":1417:1426   */\n      dup3\n        /* \"#utility.yul\":1408:1415   */\n      dup5\n        /* \"#utility.yul\":1404:1427   */\n      sub\n        /* \"#utility.yul\":1400:1432   */\n      slt\n        /* \"#utility.yul\":1397:1516   */\n      iszero\n      tag_232\n      jumpi\n        /* \"#utility.yul\":1435:1514   */\n      tag_233\n      tag_166\n      jump\t// in\n    tag_233:\n        /* \"#utility.yul\":1397:1516   */\n    tag_232:\n        /* \"#utility.yul\":1555:1556   */\n      0x00\n        /* \"#utility.yul\":1580:1633   */\n      tag_234\n        /* \"#utility.yul\":1625:1632   */\n      dup5\n        /* \"#utility.yul\":1616:1622   */\n      dup3\n        /* \"#utility.yul\":1605:1614   */\n      dup6\n        /* \"#utility.yul\":1601:1623   */\n      add\n        /* \"#utility.yul\":1580:1633   */\n      tag_171\n      jump\t// in\n    tag_234:\n        /* \"#utility.yul\":1570:1633   */\n      swap2\n      pop\n        /* \"#utility.yul\":1526:1643   */\n      pop\n        /* \"#utility.yul\":1321:1650   */\n      swap3\n      swap2\n      pop\n      pop\n      jump\t// out\n        /* \"#utility.yul\":1656:1733   */\n    tag_172:\n        /* \"#utility.yul\":1693:1700   */\n      0x00\n        /* \"#utility.yul\":1722:1727   */\n      dup2\n        /* \"#utility.yul\":1711:1727   */\n      swap1\n      pop\n        /* \"#utility.yul\":1656:1733   */\n      swap2\n      swap1\n      pop\n      jump\t// out\n        /* \"#utility.yul\":1739:1857   */\n    tag_173:\n        /* \"#utility.yul\":1826:1850   */\n      tag_237\n        /* \"#utility.yul\":1844:1849   */\n      dup2\n        /* \"#utility.yul\":1826:1850   */\n      tag_172\n      jump\t// in\n    tag_237:\n        /* \"#utility.yul\":1821:1824   */\n      dup3\n        /* \"#utility.yul\":1814:1851   */\n      mstore\n        /* \"#utility.yul\":1739:1857   */\n      pop\n      pop\n      jump\t// out\n        /* \"#utility.yul\":1863:2195   */\n    tag_17:\n        /* \"#utility.yul\":1984:1988   */\n      0x00\n        /* \"#utility.yul\":2022:2024   */\n      0x40\n        /* \"#utility.yul\":2011:2020   */\n      dup3\n        /* \"#utility.yul\":2007:2025   */\n      add\n        /* \"#utility.yul\":1999:2025   */\n      swap1\n      pop\n        /* \"#utility.yul\":2035:2106   */\n      tag_239\n        /* \"#utility.yul\":2103:2104   */\n      0x00\n        /* \"#utility.yul\":2092:2101   */\n      dup4\n        /* \"#utility.yul\":2088:2105   */\n      add\n        /* \"#utility.yul\":2079:2085   */\n      dup6\n        /* \"#utility.yul\":2035:2106   */\n      tag_173\n      jump\t// in\n    tag_239:\n        /* \"#utility.yul\":2116:2188   */\n      tag_240\n        /* \"#utility.yul\":2184:2186   */\n      0x20\n        /* \"#utility.yul\":2173:2182   */\n      dup4\n        /* \"#utility.yul\":2169:2187   */\n      add\n        /* \"#utility.yul\":2160:2166   */\n      dup5\n        /* \"#utility.yul\":2116:2188   */\n      tag_173\n      jump\t// in\n    tag_240:\n        /* \"#utility.yul\":1863:2195   */\n      swap4\n      swap3\n      pop\n      pop\n      pop\n      jump\t// out\n        /* \"#utility.yul\":2201:2319   */\n    tag_174:\n        /* \"#utility.yul\":2288:2312   */\n      tag_242\n        /* \"#utility.yul\":2306:2311   */\n      dup2\n        /* \"#utility.yul\":2288:2312   */\n      tag_169\n      jump\t// in\n    tag_242:\n        /* \"#utility.yul\":2283:2286   */\n      dup3\n        /* \"#utility.yul\":2276:2313   */\n      mstore\n        /* \"#utility.yul\":2201:2319   */\n      pop\n      pop\n      jump\t// out\n        /* \"#utility.yul\":2325:2547   */\n    tag_21:\n        /* \"#utility.yul\":2418:2422   */\n      0x00\n        /* \"#utility.yul\":2456:2458   */\n      0x20\n        /* \"#utility.yul\":2445:2454   */\n      dup3\n        /* \"#utility.yul\":2441:2459   */\n      add\n        /* \"#utility.yul\":2433:2459   */\n      swap1\n      pop\n        /* \"#utility.yul\":2469:2540   */\n      tag_244\n        /* \"#utility.yul\":2537:2538   */\n      0x00\n        /* \"#utility.yul\":2526:2535   */\n      dup4\n        /* \"#utility.yul\":2522:2539   */\n      add\n        /* \"#utility.yul\":2513:2519   */\n      dup5\n        /* \"#utility.yul\":2469:2540   */\n      tag_174\n      jump\t// in\n    tag_244:\n        /* \"#utility.yul\":2325:2547   */\n      swap3\n      swap2\n      pop\n      pop\n      jump\t// out\n        /* \"#utility.yul\":2553:2775   */\n    tag_25:\n        /* \"#utility.yul\":2646:2650   */\n      0x00\n        /* \"#utility.yul\":2684:2686   */\n      0x20\n        /* \"#utility.yul\":2673:2682   */\n      dup3\n        /* \"#utility.yul\":2669:2687   */\n      add\n        /* \"#utility.yul\":2661:2687   */\n      swap1\n      pop\n        /* \"#utility.yul\":2697:2768   */\n      tag_246\n        /* \"#utility.yul\":2765:2766   */\n      0x00\n        /* \"#utility.yul\":2754:2763   */\n      dup4\n        /* \"#utility.yul\":2750:2767   */\n      add\n        /* \"#utility.yul\":2741:2747   */\n      dup5\n        /* \"#utility.yul\":2697:2768   */\n      tag_173\n      jump\t// in\n    tag_246:\n        /* \"#utility.yul\":2553:2775   */\n      swap3\n      swap2\n      pop\n      pop\n      jump\t// out\n        /* \"#utility.yul\":2781:2903   */\n    tag_175:\n        /* \"#utility.yul\":2854:2878   */\n      tag_248\n        /* \"#utility.yul\":2872:2877   */\n      dup2\n        /* \"#utility.yul\":2854:2878   */\n      tag_172\n      jump\t// in\n    tag_248:\n        /* \"#utility.yul\":2847:2852   */\n      dup2\n        /* \"#utility.yul\":2844:2879   */\n      eq\n        /* \"#utility.yul\":2834:2897   */\n      tag_249\n      jumpi\n        /* \"#utility.yul\":2893:2894   */\n      0x00\n        /* \"#utility.yul\":2890:2891   */\n      dup1\n        /* \"#utility.yul\":2883:2895   */\n      revert\n        /* \"#utility.yul\":2834:2897   */\n    tag_249:\n        /* \"#utility.yul\":2781:2903   */\n      pop\n      jump\t// out\n        /* \"#utility.yul\":2909:3048   */\n    tag_176:\n        /* \"#utility.yul\":2955:2960   */\n      0x00\n        /* \"#utility.yul\":2993:2999   */\n      dup2\n        /* \"#utility.yul\":2980:3000   */\n      calldataload\n        /* \"#utility.yul\":2971:3000   */\n      swap1\n      pop\n        /* \"#utility.yul\":3009:3042   */\n      tag_251\n        /* \"#utility.yul\":3036:3041   */\n      dup2\n        /* \"#utility.yul\":3009:3042   */\n      tag_175\n      jump\t// in\n    tag_251:\n        /* \"#utility.yul\":2909:3048   */\n      swap3\n      swap2\n      pop\n      pop\n      jump\t// out\n        /* \"#utility.yul\":3054:3528   */\n    tag_28:\n        /* \"#utility.yul\":3122:3128   */\n      0x00\n        /* \"#utility.yul\":3130:3136   */\n      dup1\n        /* \"#utility.yul\":3179:3181   */\n      0x40\n        /* \"#utility.yul\":3167:3176   */\n      dup4\n        /* \"#utility.yul\":3158:3165   */\n      dup6\n        /* \"#utility.yul\":3154:3177   */\n      sub\n        /* \"#utility.yul\":3150:3182   */\n      slt\n        /* \"#utility.yul\":3147:3266   */\n      iszero\n      tag_253\n      jumpi\n        /* \"#utility.yul\":3185:3264   */\n      tag_254\n      tag_166\n      jump\t// in\n    tag_254:\n        /* \"#utility.yul\":3147:3266   */\n    tag_253:\n        /* \"#utility.yul\":3305:3306   */\n      0x00\n        /* \"#utility.yul\":3330:3383   */\n      tag_255\n        /* \"#utility.yul\":3375:3382   */\n      dup6\n        /* \"#utility.yul\":3366:3372   */\n      dup3\n        /* \"#utility.yul\":3355:3364   */\n      dup7\n        /* \"#utility.yul\":3351:3373   */\n      add\n        /* \"#utility.yul\":3330:3383   */\n      tag_171\n      jump\t// in\n    tag_255:\n        /* \"#utility.yul\":3320:3383   */\n      swap3\n      pop\n        /* \"#utility.yul\":3276:3393   */\n      pop\n        /* \"#utility.yul\":3432:3434   */\n      0x20\n        /* \"#utility.yul\":3458:3511   */\n      tag_256\n        /* \"#utility.yul\":3503:3510   */\n      dup6\n        /* \"#utility.yul\":3494:3500   */\n      dup3\n        /* \"#utility.yul\":3483:3492   */\n      dup7\n        /* \"#utility.yul\":3479:3501   */\n      add\n        /* \"#utility.yul\":3458:3511   */\n      tag_176\n      jump\t// in\n    tag_256:\n        /* \"#utility.yul\":3448:3511   */\n      swap2\n      pop\n        /* \"#utility.yul\":3403:3521   */\n      pop\n        /* \"#utility.yul\":3054:3528   */\n      swap3\n      pop\n      swap3\n      swap1\n      pop\n      jump\t// out\n        /* \"#utility.yul\":3534:3611   */\n    tag_177:\n        /* \"#utility.yul\":3571:3578   */\n      0x00\n        /* \"#utility.yul\":3600:3605   */\n      dup2\n        /* \"#utility.yul\":3589:3605   */\n      swap1\n      pop\n        /* \"#utility.yul\":3534:3611   */\n      swap2\n      swap1\n      pop\n      jump\t// out\n        /* \"#utility.yul\":3617:3735   */\n    tag_178:\n        /* \"#utility.yul\":3704:3728   */\n      tag_259\n        /* \"#utility.yul\":3722:3727   */\n      dup2\n        /* \"#utility.yul\":3704:3728   */\n      tag_177\n      jump\t// in\n    tag_259:\n        /* \"#utility.yul\":3699:3702   */\n      dup3\n        /* \"#utility.yul\":3692:3729   */\n      mstore\n        /* \"#utility.yul\":3617:3735   */\n      pop\n      pop\n      jump\t// out\n        /* \"#utility.yul\":3741:3963   */\n    tag_31:\n        /* \"#utility.yul\":3834:3838   */\n      0x00\n        /* \"#utility.yul\":3872:3874   */\n      0x20\n        /* \"#utility.yul\":3861:3870   */\n      dup3\n        /* \"#utility.yul\":3857:3875   */\n      add\n        /* \"#utility.yul\":3849:3875   */\n      swap1\n      pop\n        /* \"#utility.yul\":3885:3956   */\n      tag_261\n        /* \"#utility.yul\":3953:3954   */\n      0x00\n        /* \"#utility.yul\":3942:3951   */\n      dup4\n        /* \"#utility.yul\":3938:3955   */\n      add\n        /* \"#utility.yul\":3929:3935   */\n      dup5\n        /* \"#utility.yul\":3885:3956   */\n      tag_178\n      jump\t// in\n    tag_261:\n        /* \"#utility.yul\":3741:3963   */\n      swap3\n      swap2\n      pop\n      pop\n      jump\t// out\n        /* \"#utility.yul\":3969:4112   */\n    tag_179:\n        /* \"#utility.yul\":4026:4031   */\n      0x00\n        /* \"#utility.yul\":4057:4063   */\n      dup2\n        /* \"#utility.yul\":4051:4064   */\n      mload\n        /* \"#utility.yul\":4042:4064   */\n      swap1\n      pop\n        /* \"#utility.yul\":4073:4106   */\n      tag_263\n        /* \"#utility.yul\":4100:4105   */\n      dup2\n        /* \"#utility.yul\":4073:4106   */\n      tag_175\n      jump\t// in\n    tag_263:\n        /* \"#utility.yul\":3969:4112   */\n      swap3\n      swap2\n      pop\n      pop\n      jump\t// out\n        /* \"#utility.yul\":4118:4469   */\n    tag_39:\n        /* \"#utility.yul\":4188:4194   */\n      0x00\n        /* \"#utility.yul\":4237:4239   */\n      0x20\n        /* \"#utility.yul\":4225:4234   */\n      dup3\n        /* \"#utility.yul\":4216:4223   */\n      dup5\n        /* \"#utility.yul\":4212:4235   */\n      sub\n        /* \"#utility.yul\":4208:4240   */\n      slt\n        /* \"#utility.yul\":4205:4324   */\n      iszero\n      tag_265\n      jumpi\n        /* \"#utility.yul\":4243:4322   */\n      tag_266\n      tag_166\n      jump\t// in\n    tag_266:\n        /* \"#utility.yul\":4205:4324   */\n    tag_265:\n        /* \"#utility.yul\":4363:4364   */\n      0x00\n        /* \"#utility.yul\":4388:4452   */\n      tag_267\n        /* \"#utility.yul\":4444:4451   */\n      dup5\n        /* \"#utility.yul\":4435:4441   */\n      dup3\n        /* \"#utility.yul\":4424:4433   */\n      dup6\n        /* \"#utility.yul\":4420:4442   */\n      add\n        /* \"#utility.yul\":4388:4452   */\n      tag_179\n      jump\t// in\n    tag_267:\n        /* \"#utility.yul\":4378:4452   */\n      swap2\n      pop\n        /* \"#utility.yul\":4334:4462   */\n      pop\n        /* \"#utility.yul\":4118:4469   */\n      swap3\n      swap2\n      pop\n      pop\n      jump\t// out\n        /* \"#utility.yul\":4475:4807   */\n    tag_42:\n        /* \"#utility.yul\":4596:4600   */\n      0x00\n        /* \"#utility.yul\":4634:4636   */\n      0x40\n        /* \"#utility.yul\":4623:4632   */\n      dup3\n        /* \"#utility.yul\":4619:4637   */\n      add\n        /* \"#utility.yul\":4611:4637   */\n      swap1\n      pop\n        /* \"#utility.yul\":4647:4718   */\n      tag_269\n        /* \"#utility.yul\":4715:4716   */\n      0x00\n        /* \"#utility.yul\":4704:4713   */\n      dup4\n        /* \"#utility.yul\":4700:4717   */\n      add\n        /* \"#utility.yul\":4691:4697   */\n      dup6\n        /* \"#utility.yul\":4647:4718   */\n      tag_174\n      jump\t// in\n    tag_269:\n        /* \"#utility.yul\":4728:4800   */\n      tag_270\n        /* \"#utility.yul\":4796:4798   */\n      0x20\n        /* \"#utility.yul\":4785:4794   */\n      dup4\n        /* \"#utility.yul\":4781:4799   */\n      add\n        /* \"#utility.yul\":4772:4778   */\n      dup5\n        /* \"#utility.yul\":4728:4800   */\n      tag_173\n      jump\t// in\n    tag_270:\n        /* \"#utility.yul\":4475:4807   */\n      swap4\n      swap3\n      pop\n      pop\n      pop\n      jump\t// out\n        /* \"#utility.yul\":4813:4903   */\n    tag_180:\n        /* \"#utility.yul\":4847:4854   */\n      0x00\n        /* \"#utility.yul\":4890:4895   */\n      dup2\n        /* \"#utility.yul\":4883:4896   */\n      iszero\n        /* \"#utility.yul\":4876:4897   */\n      iszero\n        /* \"#utility.yul\":4865:4897   */\n      swap1\n      pop\n        /* \"#utility.yul\":4813:4903   */\n      swap2\n      swap1\n      pop\n      jump\t// out\n        /* \"#utility.yul\":4909:5025   */\n    tag_181:\n        /* \"#utility.yul\":4979:5000   */\n      tag_273\n        /* \"#utility.yul\":4994:4999   */\n      dup2\n        /* \"#utility.yul\":4979:5000   */\n      tag_180\n      jump\t// in\n    tag_273:\n        /* \"#utility.yul\":4972:4977   */\n      dup2\n        /* \"#utility.yul\":4969:5001   */\n      eq\n        /* \"#utility.yul\":4959:5019   */\n      tag_274\n      jumpi\n        /* \"#utility.yul\":5015:5016   */\n      0x00\n        /* \"#utility.yul\":5012:5013   */\n      dup1\n        /* \"#utility.yul\":5005:5017   */\n      revert\n        /* \"#utility.yul\":4959:5019   */\n    tag_274:\n        /* \"#utility.yul\":4909:5025   */\n      pop\n      jump\t// out\n        /* \"#utility.yul\":5031:5168   */\n    tag_182:\n        /* \"#utility.yul\":5085:5090   */\n      0x00\n        /* \"#utility.yul\":5116:5122   */\n      dup2\n        /* \"#utility.yul\":5110:5123   */\n      mload\n        /* \"#utility.yul\":5101:5123   */\n      swap1\n      pop\n        /* \"#utility.yul\":5132:5162   */\n      tag_276\n        /* \"#utility.yul\":5156:5161   */\n      dup2\n        /* \"#utility.yul\":5132:5162   */\n      tag_181\n      jump\t// in\n    tag_276:\n        /* \"#utility.yul\":5031:5168   */\n      swap3\n      swap2\n      pop\n      pop\n      jump\t// out\n        /* \"#utility.yul\":5174:5519   */\n    tag_46:\n        /* \"#utility.yul\":5241:5247   */\n      0x00\n        /* \"#utility.yul\":5290:5292   */\n      0x20\n        /* \"#utility.yul\":5278:5287   */\n      dup3\n        /* \"#utility.yul\":5269:5276   */\n      dup5\n        /* \"#utility.yul\":5265:5288   */\n      sub\n        /* \"#utility.yul\":5261:5293   */\n      slt\n        /* \"#utility.yul\":5258:5377   */\n      iszero\n      tag_278\n      jumpi\n        /* \"#utility.yul\":5296:5375   */\n      tag_279\n      tag_166\n      jump\t// in\n    tag_279:\n        /* \"#utility.yul\":5258:5377   */\n    tag_278:\n        /* \"#utility.yul\":5416:5417   */\n      0x00\n        /* \"#utility.yul\":5441:5502   */\n      tag_280\n        /* \"#utility.yul\":5494:5501   */\n      dup5\n        /* \"#utility.yul\":5485:5491   */\n      dup3\n        /* \"#utility.yul\":5474:5483   */\n      dup6\n        /* \"#utility.yul\":5470:5492   */\n      add\n        /* \"#utility.yul\":5441:5502   */\n      tag_182\n      jump\t// in\n    tag_280:\n        /* \"#utility.yul\":5431:5502   */\n      swap2\n      pop\n        /* \"#utility.yul\":5387:5512   */\n      pop\n        /* \"#utility.yul\":5174:5519   */\n      swap3\n      swap2\n      pop\n      pop\n      jump\t// out\n        /* \"#utility.yul\":5525:5857   */\n    tag_58:\n        /* \"#utility.yul\":5646:5650   */\n      0x00\n        /* \"#utility.yul\":5684:5686   */\n      0x40\n        /* \"#utility.yul\":5673:5682   */\n      dup3\n        /* \"#utility.yul\":5669:5687   */\n      add\n        /* \"#utility.yul\":5661:5687   */\n      swap1\n      pop\n        /* \"#utility.yul\":5697:5768   */\n      tag_282\n        /* \"#utility.yul\":5765:5766   */\n      0x00\n        /* \"#utility.yul\":5754:5763   */\n      dup4\n        /* \"#utility.yul\":5750:5767   */\n      add\n        /* \"#utility.yul\":5741:5747   */\n      dup6\n        /* \"#utility.yul\":5697:5768   */\n      tag_174\n      jump\t// in\n    tag_282:\n        /* \"#utility.yul\":5778:5850   */\n      tag_283\n        /* \"#utility.yul\":5846:5848   */\n      0x20\n        /* \"#utility.yul\":5835:5844   */\n      dup4\n        /* \"#utility.yul\":5831:5849   */\n      add\n        /* \"#utility.yul\":5822:5828   */\n      dup5\n        /* \"#utility.yul\":5778:5850   */\n      tag_174\n      jump\t// in\n    tag_283:\n        /* \"#utility.yul\":5525:5857   */\n      swap4\n      swap3\n      pop\n      pop\n      pop\n      jump\t// out\n        /* \"#utility.yul\":5863:6043   */\n    tag_65:\n        /* \"#utility.yul\":5911:5988   */\n      0x4e487b7100000000000000000000000000000000000000000000000000000000\n        /* \"#utility.yul\":5908:5909   */\n      0x00\n        /* \"#utility.yul\":5901:5989   */\n      mstore\n        /* \"#utility.yul\":6008:6012   */\n      0x41\n        /* \"#utility.yul\":6005:6006   */\n      0x04\n        /* \"#utility.yul\":5998:6013   */\n      mstore\n        /* \"#utility.yul\":6032:6036   */\n      0x24\n        /* \"#utility.yul\":6029:6030   */\n      0x00\n        /* \"#utility.yul\":6022:6037   */\n      revert\n        /* \"#utility.yul\":6049:6229   */\n    tag_72:\n        /* \"#utility.yul\":6097:6174   */\n      0x4e487b7100000000000000000000000000000000000000000000000000000000\n        /* \"#utility.yul\":6094:6095   */\n      0x00\n        /* \"#utility.yul\":6087:6175   */\n      mstore\n        /* \"#utility.yul\":6194:6198   */\n      0x32\n        /* \"#utility.yul\":6191:6192   */\n      0x04\n        /* \"#utility.yul\":6184:6199   */\n      mstore\n        /* \"#utility.yul\":6218:6222   */\n      0x24\n        /* \"#utility.yul\":6215:6216   */\n      0x00\n        /* \"#utility.yul\":6208:6223   */\n      revert\n        /* \"#utility.yul\":6235:6336   */\n    tag_183:\n        /* \"#utility.yul\":6271:6278   */\n      0x00\n        /* \"#utility.yul\":6311:6329   */\n      0xffffffffffffffff\n        /* \"#utility.yul\":6304:6309   */\n      dup3\n        /* \"#utility.yul\":6300:6330   */\n      and\n        /* \"#utility.yul\":6289:6330   */\n      swap1\n      pop\n        /* \"#utility.yul\":6235:6336   */\n      swap2\n      swap1\n      pop\n      jump\t// out\n        /* \"#utility.yul\":6342:6457   */\n    tag_184:\n        /* \"#utility.yul\":6427:6450   */\n      tag_288\n        /* \"#utility.yul\":6444:6449   */\n      dup2\n        /* \"#utility.yul\":6427:6450   */\n      tag_183\n      jump\t// in\n    tag_288:\n        /* \"#utility.yul\":6422:6425   */\n      dup3\n        /* \"#utility.yul\":6415:6451   */\n      mstore\n        /* \"#utility.yul\":6342:6457   */\n      pop\n      pop\n      jump\t// out\n        /* \"#utility.yul\":6463:6561   */\n    tag_185:\n        /* \"#utility.yul\":6514:6520   */\n      0x00\n        /* \"#utility.yul\":6548:6553   */\n      dup2\n        /* \"#utility.yul\":6542:6554   */\n      mload\n        /* \"#utility.yul\":6532:6554   */\n      swap1\n      pop\n        /* \"#utility.yul\":6463:6561   */\n      swap2\n      swap1\n      pop\n      jump\t// out\n        /* \"#utility.yul\":6567:6725   */\n    tag_186:\n        /* \"#utility.yul\":6640:6651   */\n      0x00\n        /* \"#utility.yul\":6674:6680   */\n      dup3\n        /* \"#utility.yul\":6669:6672   */\n      dup3\n        /* \"#utility.yul\":6662:6681   */\n      mstore\n        /* \"#utility.yul\":6714:6718   */\n      0x20\n        /* \"#utility.yul\":6709:6712   */\n      dup3\n        /* \"#utility.yul\":6705:6719   */\n      add\n        /* \"#utility.yul\":6690:6719   */\n      swap1\n      pop\n        /* \"#utility.yul\":6567:6725   */\n      swap3\n      swap2\n      pop\n      pop\n      jump\t// out\n        /* \"#utility.yul\":6731:6870   */\n    tag_187:\n        /* \"#utility.yul\":6820:6826   */\n      dup3\n        /* \"#utility.yul\":6815:6818   */\n      dup2\n        /* \"#utility.yul\":6810:6813   */\n      dup4\n        /* \"#utility.yul\":6804:6827   */\n      mcopy\n        /* \"#utility.yul\":6861:6862   */\n      0x00\n        /* \"#utility.yul\":6852:6858   */\n      dup4\n        /* \"#utility.yul\":6847:6850   */\n      dup4\n        /* \"#utility.yul\":6843:6859   */\n      add\n        /* \"#utility.yul\":6836:6863   */\n      mstore\n        /* \"#utility.yul\":6731:6870   */\n      pop\n      pop\n      pop\n      jump\t// out\n        /* \"#utility.yul\":6876:6978   */\n    tag_188:\n        /* \"#utility.yul\":6917:6923   */\n      0x00\n        /* \"#utility.yul\":6968:6970   */\n      0x1f\n        /* \"#utility.yul\":6964:6971   */\n      not\n        /* \"#utility.yul\":6959:6961   */\n      0x1f\n        /* \"#utility.yul\":6952:6957   */\n      dup4\n        /* \"#utility.yul\":6948:6962   */\n      add\n        /* \"#utility.yul\":6944:6972   */\n      and\n        /* \"#utility.yul\":6934:6972   */\n      swap1\n      pop\n        /* \"#utility.yul\":6876:6978   */\n      swap2\n      swap1\n      pop\n      jump\t// out\n        /* \"#utility.yul\":6984:7337   */\n    tag_189:\n        /* \"#utility.yul\":7060:7063   */\n      0x00\n        /* \"#utility.yul\":7088:7126   */\n      tag_294\n        /* \"#utility.yul\":7120:7125   */\n      dup3\n        /* \"#utility.yul\":7088:7126   */\n      tag_185\n      jump\t// in\n    tag_294:\n        /* \"#utility.yul\":7142:7202   */\n      tag_295\n        /* \"#utility.yul\":7195:7201   */\n      dup2\n        /* \"#utility.yul\":7190:7193   */\n      dup6\n        /* \"#utility.yul\":7142:7202   */\n      tag_186\n      jump\t// in\n    tag_295:\n        /* \"#utility.yul\":7135:7202   */\n      swap4\n      pop\n        /* \"#utility.yul\":7211:7276   */\n      tag_296\n        /* \"#utility.yul\":7269:7275   */\n      dup2\n        /* \"#utility.yul\":7264:7267   */\n      dup6\n        /* \"#utility.yul\":7257:7261   */\n      0x20\n        /* \"#utility.yul\":7250:7255   */\n      dup7\n        /* \"#utility.yul\":7246:7262   */\n      add\n        /* \"#utility.yul\":7211:7276   */\n      tag_187\n      jump\t// in\n    tag_296:\n        /* \"#utility.yul\":7301:7330   */\n      tag_297\n        /* \"#utility.yul\":7323:7329   */\n      dup2\n        /* \"#utility.yul\":7301:7330   */\n      tag_188\n      jump\t// in\n    tag_297:\n        /* \"#utility.yul\":7296:7299   */\n      dup5\n        /* \"#utility.yul\":7292:7331   */\n      add\n        /* \"#utility.yul\":7285:7331   */\n      swap2\n      pop\n        /* \"#utility.yul\":7064:7337   */\n      pop\n        /* \"#utility.yul\":6984:7337   */\n      swap3\n      swap2\n      pop\n      pop\n      jump\t// out\n        /* \"#utility.yul\":7343:7487   */\n    tag_190:\n        /* \"#utility.yul\":7440:7446   */\n      0x00\n        /* \"#utility.yul\":7474:7479   */\n      dup2\n        /* \"#utility.yul\":7468:7480   */\n      mload\n        /* \"#utility.yul\":7458:7480   */\n      swap1\n      pop\n        /* \"#utility.yul\":7343:7487   */\n      swap2\n      swap1\n      pop\n      jump\t// out\n        /* \"#utility.yul\":7493:7697   */\n    tag_191:\n        /* \"#utility.yul\":7612:7623   */\n      0x00\n        /* \"#utility.yul\":7646:7652   */\n      dup3\n        /* \"#utility.yul\":7641:7644   */\n      dup3\n        /* \"#utility.yul\":7634:7653   */\n      mstore\n        /* \"#utility.yul\":7686:7690   */\n      0x20\n        /* \"#utility.yul\":7681:7684   */\n      dup3\n        /* \"#utility.yul\":7677:7691   */\n      add\n        /* \"#utility.yul\":7662:7691   */\n      swap1\n      pop\n        /* \"#utility.yul\":7493:7697   */\n      swap3\n      swap2\n      pop\n      pop\n      jump\t// out\n        /* \"#utility.yul\":7703:7865   */\n    tag_192:\n        /* \"#utility.yul\":7800:7804   */\n      0x00\n        /* \"#utility.yul\":7823:7826   */\n      dup2\n        /* \"#utility.yul\":7815:7826   */\n      swap1\n      pop\n        /* \"#utility.yul\":7853:7857   */\n      0x20\n        /* \"#utility.yul\":7848:7851   */\n      dup3\n        /* \"#utility.yul\":7844:7858   */\n      add\n        /* \"#utility.yul\":7836:7858   */\n      swap1\n      pop\n        /* \"#utility.yul\":7703:7865   */\n      swap2\n      swap1\n      pop\n      jump\t// out\n        /* \"#utility.yul\":7871:7979   */\n    tag_193:\n        /* \"#utility.yul\":7948:7972   */\n      tag_302\n        /* \"#utility.yul\":7966:7971   */\n      dup2\n        /* \"#utility.yul\":7948:7972   */\n      tag_169\n      jump\t// in\n    tag_302:\n        /* \"#utility.yul\":7943:7946   */\n      dup3\n        /* \"#utility.yul\":7936:7973   */\n      mstore\n        /* \"#utility.yul\":7871:7979   */\n      pop\n      pop\n      jump\t// out\n        /* \"#utility.yul\":7985:8093   */\n    tag_194:\n        /* \"#utility.yul\":8062:8086   */\n      tag_304\n        /* \"#utility.yul\":8080:8085   */\n      dup2\n        /* \"#utility.yul\":8062:8086   */\n      tag_172\n      jump\t// in\n    tag_304:\n        /* \"#utility.yul\":8057:8060   */\n      dup3\n        /* \"#utility.yul\":8050:8087   */\n      mstore\n        /* \"#utility.yul\":7985:8093   */\n      pop\n      pop\n      jump\t// out\n        /* \"#utility.yul\":8167:8677   */\n    tag_195:\n        /* \"#utility.yul\":8314:8318   */\n      0x40\n        /* \"#utility.yul\":8309:8312   */\n      dup3\n        /* \"#utility.yul\":8305:8319   */\n      add\n        /* \"#utility.yul\":8402:8406   */\n      0x00\n        /* \"#utility.yul\":8395:8400   */\n      dup3\n        /* \"#utility.yul\":8391:8407   */\n      add\n        /* \"#utility.yul\":8385:8408   */\n      mload\n        /* \"#utility.yul\":8421:8484   */\n      tag_306\n        /* \"#utility.yul\":8478:8482   */\n      0x00\n        /* \"#utility.yul\":8473:8476   */\n      dup6\n        /* \"#utility.yul\":8469:8483   */\n      add\n        /* \"#utility.yul\":8455:8467   */\n      dup3\n        /* \"#utility.yul\":8421:8484   */\n      tag_193\n      jump\t// in\n    tag_306:\n        /* \"#utility.yul\":8329:8494   */\n      pop\n        /* \"#utility.yul\":8578:8582   */\n      0x20\n        /* \"#utility.yul\":8571:8576   */\n      dup3\n        /* \"#utility.yul\":8567:8583   */\n      add\n        /* \"#utility.yul\":8561:8584   */\n      mload\n        /* \"#utility.yul\":8597:8660   */\n      tag_307\n        /* \"#utility.yul\":8654:8658   */\n      0x20\n        /* \"#utility.yul\":8649:8652   */\n      dup6\n        /* \"#utility.yul\":8645:8659   */\n      add\n        /* \"#utility.yul\":8631:8643   */\n      dup3\n        /* \"#utility.yul\":8597:8660   */\n      tag_194\n      jump\t// in\n    tag_307:\n        /* \"#utility.yul\":8504:8670   */\n      pop\n        /* \"#utility.yul\":8283:8677   */\n      pop\n        /* \"#utility.yul\":8167:8677   */\n      pop\n      pop\n      jump\t// out\n        /* \"#utility.yul\":8683:8982   */\n    tag_196:\n        /* \"#utility.yul\":8812:8822   */\n      0x00\n        /* \"#utility.yul\":8833:8939   */\n      tag_309\n        /* \"#utility.yul\":8935:8938   */\n      dup4\n        /* \"#utility.yul\":8927:8933   */\n      dup4\n        /* \"#utility.yul\":8833:8939   */\n      tag_195\n      jump\t// in\n    tag_309:\n        /* \"#utility.yul\":8971:8975   */\n      0x40\n        /* \"#utility.yul\":8966:8969   */\n      dup4\n        /* \"#utility.yul\":8962:8976   */\n      add\n        /* \"#utility.yul\":8948:8976   */\n      swap1\n      pop\n        /* \"#utility.yul\":8683:8982   */\n      swap3\n      swap2\n      pop\n      pop\n      jump\t// out\n        /* \"#utility.yul\":8988:9131   */\n    tag_197:\n        /* \"#utility.yul\":9088:9092   */\n      0x00\n        /* \"#utility.yul\":9120:9124   */\n      0x20\n        /* \"#utility.yul\":9115:9118   */\n      dup3\n        /* \"#utility.yul\":9111:9125   */\n      add\n        /* \"#utility.yul\":9103:9125   */\n      swap1\n      pop\n        /* \"#utility.yul\":8988:9131   */\n      swap2\n      swap1\n      pop\n      jump\t// out\n        /* \"#utility.yul\":9209:10161   */\n    tag_198:\n        /* \"#utility.yul\":9378:9381   */\n      0x00\n        /* \"#utility.yul\":9407:9491   */\n      tag_312\n        /* \"#utility.yul\":9485:9490   */\n      dup3\n        /* \"#utility.yul\":9407:9491   */\n      tag_190\n      jump\t// in\n    tag_312:\n        /* \"#utility.yul\":9507:9613   */\n      tag_313\n        /* \"#utility.yul\":9606:9612   */\n      dup2\n        /* \"#utility.yul\":9601:9604   */\n      dup6\n        /* \"#utility.yul\":9507:9613   */\n      tag_191\n      jump\t// in\n    tag_313:\n        /* \"#utility.yul\":9500:9613   */\n      swap4\n      pop\n        /* \"#utility.yul\":9637:9723   */\n      tag_314\n        /* \"#utility.yul\":9717:9722   */\n      dup4\n        /* \"#utility.yul\":9637:9723   */\n      tag_192\n      jump\t// in\n    tag_314:\n        /* \"#utility.yul\":9746:9753   */\n      dup1\n        /* \"#utility.yul\":9777:9778   */\n      0x00\n        /* \"#utility.yul\":9762:10136   */\n    tag_315:\n        /* \"#utility.yul\":9787:9793   */\n      dup4\n        /* \"#utility.yul\":9784:9785   */\n      dup2\n        /* \"#utility.yul\":9781:9794   */\n      lt\n        /* \"#utility.yul\":9762:10136   */\n      iszero\n      tag_317\n      jumpi\n        /* \"#utility.yul\":9863:9869   */\n      dup2\n        /* \"#utility.yul\":9857:9870   */\n      mload\n        /* \"#utility.yul\":9890:10013   */\n      tag_318\n        /* \"#utility.yul\":10009:10012   */\n      dup9\n        /* \"#utility.yul\":9994:10007   */\n      dup3\n        /* \"#utility.yul\":9890:10013   */\n      tag_196\n      jump\t// in\n    tag_318:\n        /* \"#utility.yul\":9883:10013   */\n      swap8\n      pop\n        /* \"#utility.yul\":10036:10126   */\n      tag_319\n        /* \"#utility.yul\":10119:10125   */\n      dup4\n        /* \"#utility.yul\":10036:10126   */\n      tag_197\n      jump\t// in\n    tag_319:\n        /* \"#utility.yul\":10026:10126   */\n      swap3\n      pop\n        /* \"#utility.yul\":9822:10136   */\n      pop\n        /* \"#utility.yul\":9809:9810   */\n      0x01\n        /* \"#utility.yul\":9806:9807   */\n      dup2\n        /* \"#utility.yul\":9802:9811   */\n      add\n        /* \"#utility.yul\":9797:9811   */\n      swap1\n      pop\n        /* \"#utility.yul\":9762:10136   */\n      jump(tag_315)\n    tag_317:\n        /* \"#utility.yul\":9766:9780   */\n      pop\n        /* \"#utility.yul\":10152:10155   */\n      dup6\n        /* \"#utility.yul\":10145:10155   */\n      swap4\n      pop\n        /* \"#utility.yul\":9383:10161   */\n      pop\n      pop\n      pop\n        /* \"#utility.yul\":9209:10161   */\n      swap3\n      swap2\n      pop\n      pop\n      jump\t// out\n        /* \"#utility.yul\":10235:11691   */\n    tag_199:\n        /* \"#utility.yul\":10364:10367   */\n      0x00\n        /* \"#utility.yul\":10400:10404   */\n      0xa0\n        /* \"#utility.yul\":10395:10398   */\n      dup4\n        /* \"#utility.yul\":10391:10405   */\n      add\n        /* \"#utility.yul\":10491:10495   */\n      0x00\n        /* \"#utility.yul\":10484:10489   */\n      dup4\n        /* \"#utility.yul\":10480:10496   */\n      add\n        /* \"#utility.yul\":10474:10497   */\n      mload\n        /* \"#utility.yul\":10544:10547   */\n      dup5\n        /* \"#utility.yul\":10538:10542   */\n      dup3\n        /* \"#utility.yul\":10534:10548   */\n      sub\n        /* \"#utility.yul\":10527:10531   */\n      0x00\n        /* \"#utility.yul\":10522:10525   */\n      dup7\n        /* \"#utility.yul\":10518:10532   */\n      add\n        /* \"#utility.yul\":10511:10549   */\n      mstore\n        /* \"#utility.yul\":10570:10641   */\n      tag_321\n        /* \"#utility.yul\":10636:10640   */\n      dup3\n        /* \"#utility.yul\":10622:10634   */\n      dup3\n        /* \"#utility.yul\":10570:10641   */\n      tag_189\n      jump\t// in\n    tag_321:\n        /* \"#utility.yul\":10562:10641   */\n      swap2\n      pop\n        /* \"#utility.yul\":10415:10652   */\n      pop\n        /* \"#utility.yul\":10734:10738   */\n      0x20\n        /* \"#utility.yul\":10727:10732   */\n      dup4\n        /* \"#utility.yul\":10723:10739   */\n      add\n        /* \"#utility.yul\":10717:10740   */\n      mload\n        /* \"#utility.yul\":10787:10790   */\n      dup5\n        /* \"#utility.yul\":10781:10785   */\n      dup3\n        /* \"#utility.yul\":10777:10791   */\n      sub\n        /* \"#utility.yul\":10770:10774   */\n      0x20\n        /* \"#utility.yul\":10765:10768   */\n      dup7\n        /* \"#utility.yul\":10761:10775   */\n      add\n        /* \"#utility.yul\":10754:10792   */\n      mstore\n        /* \"#utility.yul\":10813:10884   */\n      tag_322\n        /* \"#utility.yul\":10879:10883   */\n      dup3\n        /* \"#utility.yul\":10865:10877   */\n      dup3\n        /* \"#utility.yul\":10813:10884   */\n      tag_189\n      jump\t// in\n    tag_322:\n        /* \"#utility.yul\":10805:10884   */\n      swap2\n      pop\n        /* \"#utility.yul\":10662:10895   */\n      pop\n        /* \"#utility.yul\":10985:10989   */\n      0x40\n        /* \"#utility.yul\":10978:10983   */\n      dup4\n        /* \"#utility.yul\":10974:10990   */\n      add\n        /* \"#utility.yul\":10968:10991   */\n      mload\n        /* \"#utility.yul\":11038:11041   */\n      dup5\n        /* \"#utility.yul\":11032:11036   */\n      dup3\n        /* \"#utility.yul\":11028:11042   */\n      sub\n        /* \"#utility.yul\":11021:11025   */\n      0x40\n        /* \"#utility.yul\":11016:11019   */\n      dup7\n        /* \"#utility.yul\":11012:11026   */\n      add\n        /* \"#utility.yul\":11005:11043   */\n      mstore\n        /* \"#utility.yul\":11064:11227   */\n      tag_323\n        /* \"#utility.yul\":11222:11226   */\n      dup3\n        /* \"#utility.yul\":11208:11220   */\n      dup3\n        /* \"#utility.yul\":11064:11227   */\n      tag_198\n      jump\t// in\n    tag_323:\n        /* \"#utility.yul\":11056:11227   */\n      swap2\n      pop\n        /* \"#utility.yul\":10905:11238   */\n      pop\n        /* \"#utility.yul\":11324:11328   */\n      0x60\n        /* \"#utility.yul\":11317:11322   */\n      dup4\n        /* \"#utility.yul\":11313:11329   */\n      add\n        /* \"#utility.yul\":11307:11330   */\n      mload\n        /* \"#utility.yul\":11343:11406   */\n      tag_324\n        /* \"#utility.yul\":11400:11404   */\n      0x60\n        /* \"#utility.yul\":11395:11398   */\n      dup7\n        /* \"#utility.yul\":11391:11405   */\n      add\n        /* \"#utility.yul\":11377:11389   */\n      dup3\n        /* \"#utility.yul\":11343:11406   */\n      tag_193\n      jump\t// in\n    tag_324:\n        /* \"#utility.yul\":11248:11416   */\n      pop\n        /* \"#utility.yul\":11503:11507   */\n      0x80\n        /* \"#utility.yul\":11496:11501   */\n      dup4\n        /* \"#utility.yul\":11492:11508   */\n      add\n        /* \"#utility.yul\":11486:11509   */\n      mload\n        /* \"#utility.yul\":11556:11559   */\n      dup5\n        /* \"#utility.yul\":11550:11554   */\n      dup3\n        /* \"#utility.yul\":11546:11560   */\n      sub\n        /* \"#utility.yul\":11539:11543   */\n      0x80\n        /* \"#utility.yul\":11534:11537   */\n      dup7\n        /* \"#utility.yul\":11530:11544   */\n      add\n        /* \"#utility.yul\":11523:11561   */\n      mstore\n        /* \"#utility.yul\":11582:11653   */\n      tag_325\n        /* \"#utility.yul\":11648:11652   */\n      dup3\n        /* \"#utility.yul\":11634:11646   */\n      dup3\n        /* \"#utility.yul\":11582:11653   */\n      tag_189\n      jump\t// in\n    tag_325:\n        /* \"#utility.yul\":11574:11653   */\n      swap2\n      pop\n        /* \"#utility.yul\":11426:11664   */\n      pop\n        /* \"#utility.yul\":11681:11685   */\n      dup1\n        /* \"#utility.yul\":11674:11685   */\n      swap2\n      pop\n        /* \"#utility.yul\":10369:11691   */\n      pop\n        /* \"#utility.yul\":10235:11691   */\n      swap3\n      swap2\n      pop\n      pop\n      jump\t// out\n        /* \"#utility.yul\":11697:12196   */\n    tag_77:\n        /* \"#utility.yul\":11876:11880   */\n      0x00\n        /* \"#utility.yul\":11914:11916   */\n      0x40\n        /* \"#utility.yul\":11903:11912   */\n      dup3\n        /* \"#utility.yul\":11899:11917   */\n      add\n        /* \"#utility.yul\":11891:11917   */\n      swap1\n      pop\n        /* \"#utility.yul\":11927:11996   */\n      tag_327\n        /* \"#utility.yul\":11993:11994   */\n      0x00\n        /* \"#utility.yul\":11982:11991   */\n      dup4\n        /* \"#utility.yul\":11978:11995   */\n      add\n        /* \"#utility.yul\":11969:11975   */\n      dup6\n        /* \"#utility.yul\":11927:11996   */\n      tag_184\n      jump\t// in\n    tag_327:\n        /* \"#utility.yul\":12043:12052   */\n      dup2\n        /* \"#utility.yul\":12037:12041   */\n      dup2\n        /* \"#utility.yul\":12033:12053   */\n      sub\n        /* \"#utility.yul\":12028:12030   */\n      0x20\n        /* \"#utility.yul\":12017:12026   */\n      dup4\n        /* \"#utility.yul\":12013:12031   */\n      add\n        /* \"#utility.yul\":12006:12054   */\n      mstore\n        /* \"#utility.yul\":12071:12189   */\n      tag_328\n        /* \"#utility.yul\":12184:12188   */\n      dup2\n        /* \"#utility.yul\":12175:12181   */\n      dup5\n        /* \"#utility.yul\":12071:12189   */\n      tag_199\n      jump\t// in\n    tag_328:\n        /* \"#utility.yul\":12063:12189   */\n      swap1\n      pop\n        /* \"#utility.yul\":11697:12196   */\n      swap4\n      swap3\n      pop\n      pop\n      pop\n      jump\t// out\n        /* \"#utility.yul\":12202:12324   */\n    tag_200:\n        /* \"#utility.yul\":12275:12299   */\n      tag_330\n        /* \"#utility.yul\":12293:12298   */\n      dup2\n        /* \"#utility.yul\":12275:12299   */\n      tag_177\n      jump\t// in\n    tag_330:\n        /* \"#utility.yul\":12268:12273   */\n      dup2\n        /* \"#utility.yul\":12265:12300   */\n      eq\n        /* \"#utility.yul\":12255:12318   */\n      tag_331\n      jumpi\n        /* \"#utility.yul\":12314:12315   */\n      0x00\n        /* \"#utility.yul\":12311:12312   */\n      dup1\n        /* \"#utility.yul\":12304:12316   */\n      revert\n        /* \"#utility.yul\":12255:12318   */\n    tag_331:\n        /* \"#utility.yul\":12202:12324   */\n      pop\n      jump\t// out\n        /* \"#utility.yul\":12330:12473   */\n    tag_201:\n        /* \"#utility.yul\":12387:12392   */\n      0x00\n        /* \"#utility.yul\":12418:12424   */\n      dup2\n        /* \"#utility.yul\":12412:12425   */\n      mload\n        /* \"#utility.yul\":12403:12425   */\n      swap1\n      pop\n        /* \"#utility.yul\":12434:12467   */\n      tag_333\n        /* \"#utility.yul\":12461:12466   */\n      dup2\n        /* \"#utility.yul\":12434:12467   */\n      tag_200\n      jump\t// in\n    tag_333:\n        /* \"#utility.yul\":12330:12473   */\n      swap3\n      swap2\n      pop\n      pop\n      jump\t// out\n        /* \"#utility.yul\":12479:12830   */\n    tag_115:\n        /* \"#utility.yul\":12549:12555   */\n      0x00\n        /* \"#utility.yul\":12598:12600   */\n      0x20\n        /* \"#utility.yul\":12586:12595   */\n      dup3\n        /* \"#utility.yul\":12577:12584   */\n      dup5\n        /* \"#utility.yul\":12573:12596   */\n      sub\n        /* \"#utility.yul\":12569:12601   */\n      slt\n        /* \"#utility.yul\":12566:12685   */\n      iszero\n      tag_335\n      jumpi\n        /* \"#utility.yul\":12604:12683   */\n      tag_336\n      tag_166\n      jump\t// in\n    tag_336:\n        /* \"#utility.yul\":12566:12685   */\n    tag_335:\n        /* \"#utility.yul\":12724:12725   */\n      0x00\n        /* \"#utility.yul\":12749:12813   */\n      tag_337\n        /* \"#utility.yul\":12805:12812   */\n      dup5\n        /* \"#utility.yul\":12796:12802   */\n      dup3\n        /* \"#utility.yul\":12785:12794   */\n      dup6\n        /* \"#utility.yul\":12781:12803   */\n      add\n        /* \"#utility.yul\":12749:12813   */\n      tag_201\n      jump\t// in\n    tag_337:\n        /* \"#utility.yul\":12739:12813   */\n      swap2\n      pop\n        /* \"#utility.yul\":12695:12823   */\n      pop\n        /* \"#utility.yul\":12479:12830   */\n      swap3\n      swap2\n      pop\n      pop\n      jump\t// out\n        /* \"#utility.yul\":12836:13496   */\n    tag_117:\n        /* \"#utility.yul\":13039:13043   */\n      0x00\n        /* \"#utility.yul\":13077:13080   */\n      0xa0\n        /* \"#utility.yul\":13066:13075   */\n      dup3\n        /* \"#utility.yul\":13062:13081   */\n      add\n        /* \"#utility.yul\":13054:13081   */\n      swap1\n      pop\n        /* \"#utility.yul\":13091:13162   */\n      tag_339\n        /* \"#utility.yul\":13159:13160   */\n      0x00\n        /* \"#utility.yul\":13148:13157   */\n      dup4\n        /* \"#utility.yul\":13144:13161   */\n      add\n        /* \"#utility.yul\":13135:13141   */\n      dup9\n        /* \"#utility.yul\":13091:13162   */\n      tag_178\n      jump\t// in\n    tag_339:\n        /* \"#utility.yul\":13172:13242   */\n      tag_340\n        /* \"#utility.yul\":13238:13240   */\n      0x20\n        /* \"#utility.yul\":13227:13236   */\n      dup4\n        /* \"#utility.yul\":13223:13241   */\n      add\n        /* \"#utility.yul\":13214:13220   */\n      dup8\n        /* \"#utility.yul\":13172:13242   */\n      tag_184\n      jump\t// in\n    tag_340:\n        /* \"#utility.yul\":13252:13324   */\n      tag_341\n        /* \"#utility.yul\":13320:13322   */\n      0x40\n        /* \"#utility.yul\":13309:13318   */\n      dup4\n        /* \"#utility.yul\":13305:13323   */\n      add\n        /* \"#utility.yul\":13296:13302   */\n      dup7\n        /* \"#utility.yul\":13252:13324   */\n      tag_174\n      jump\t// in\n    tag_341:\n        /* \"#utility.yul\":13334:13406   */\n      tag_342\n        /* \"#utility.yul\":13402:13404   */\n      0x60\n        /* \"#utility.yul\":13391:13400   */\n      dup4\n        /* \"#utility.yul\":13387:13405   */\n      add\n        /* \"#utility.yul\":13378:13384   */\n      dup6\n        /* \"#utility.yul\":13334:13406   */\n      tag_173\n      jump\t// in\n    tag_342:\n        /* \"#utility.yul\":13416:13489   */\n      tag_343\n        /* \"#utility.yul\":13484:13487   */\n      0x80\n        /* \"#utility.yul\":13473:13482   */\n      dup4\n        /* \"#utility.yul\":13469:13488   */\n      add\n        /* \"#utility.yul\":13460:13466   */\n      dup5\n        /* \"#utility.yul\":13416:13489   */\n      tag_173\n      jump\t// in\n    tag_343:\n        /* \"#utility.yul\":12836:13496   */\n      swap7\n      swap6\n      pop\n      pop\n      pop\n      pop\n      pop\n      pop\n      jump\t// out\n        /* \"#utility.yul\":13570:13917   */\n    tag_202:\n        /* \"#utility.yul\":13727:13731   */\n      0x20\n        /* \"#utility.yul\":13722:13725   */\n      dup3\n        /* \"#utility.yul\":13718:13732   */\n      add\n        /* \"#utility.yul\":13818:13822   */\n      0x00\n        /* \"#utility.yul\":13811:13816   */\n      dup3\n        /* \"#utility.yul\":13807:13823   */\n      add\n        /* \"#utility.yul\":13801:13824   */\n      mload\n        /* \"#utility.yul\":13837:13900   */\n      tag_345\n        /* \"#utility.yul\":13894:13898   */\n      0x00\n        /* \"#utility.yul\":13889:13892   */\n      dup6\n        /* \"#utility.yul\":13885:13899   */\n      add\n        /* \"#utility.yul\":13871:13883   */\n      dup3\n        /* \"#utility.yul\":13837:13900   */\n      tag_194\n      jump\t// in\n    tag_345:\n        /* \"#utility.yul\":13742:13910   */\n      pop\n        /* \"#utility.yul\":13696:13917   */\n      pop\n        /* \"#utility.yul\":13570:13917   */\n      pop\n      pop\n      jump\t// out\n        /* \"#utility.yul\":13923:14265   */\n    tag_120:\n        /* \"#utility.yul\":14076:14080   */\n      0x00\n        /* \"#utility.yul\":14114:14116   */\n      0x20\n        /* \"#utility.yul\":14103:14112   */\n      dup3\n        /* \"#utility.yul\":14099:14117   */\n      add\n        /* \"#utility.yul\":14091:14117   */\n      swap1\n      pop\n        /* \"#utility.yul\":14127:14258   */\n      tag_347\n        /* \"#utility.yul\":14255:14256   */\n      0x00\n        /* \"#utility.yul\":14244:14253   */\n      dup4\n        /* \"#utility.yul\":14240:14257   */\n      add\n        /* \"#utility.yul\":14231:14237   */\n      dup5\n        /* \"#utility.yul\":14127:14258   */\n      tag_202\n      jump\t// in\n    tag_347:\n        /* \"#utility.yul\":13923:14265   */\n      swap3\n      swap2\n      pop\n      pop\n      jump\t// out\n        /* \"#utility.yul\":14271:14713   */\n    tag_124:\n        /* \"#utility.yul\":14420:14424   */\n      0x00\n        /* \"#utility.yul\":14458:14460   */\n      0x60\n        /* \"#utility.yul\":14447:14456   */\n      dup3\n        /* \"#utility.yul\":14443:14461   */\n      add\n        /* \"#utility.yul\":14435:14461   */\n      swap1\n      pop\n        /* \"#utility.yul\":14471:14542   */\n      tag_349\n        /* \"#utility.yul\":14539:14540   */\n      0x00\n        /* \"#utility.yul\":14528:14537   */\n      dup4\n        /* \"#utility.yul\":14524:14541   */\n      add\n        /* \"#utility.yul\":14515:14521   */\n      dup7\n        /* \"#utility.yul\":14471:14542   */\n      tag_174\n      jump\t// in\n    tag_349:\n        /* \"#utility.yul\":14552:14624   */\n      tag_350\n        /* \"#utility.yul\":14620:14622   */\n      0x20\n        /* \"#utility.yul\":14609:14618   */\n      dup4\n        /* \"#utility.yul\":14605:14623   */\n      add\n        /* \"#utility.yul\":14596:14602   */\n      dup6\n        /* \"#utility.yul\":14552:14624   */\n      tag_174\n      jump\t// in\n    tag_350:\n        /* \"#utility.yul\":14634:14706   */\n      tag_351\n        /* \"#utility.yul\":14702:14704   */\n      0x40\n        /* \"#utility.yul\":14691:14700   */\n      dup4\n        /* \"#utility.yul\":14687:14705   */\n      add\n        /* \"#utility.yul\":14678:14684   */\n      dup5\n        /* \"#utility.yul\":14634:14706   */\n      tag_173\n      jump\t// in\n    tag_351:\n        /* \"#utility.yul\":14271:14713   */\n      swap5\n      swap4\n      pop\n      pop\n      pop\n      pop\n      jump\t// out\n        /* \"#utility.yul\":14719:14888   */\n    tag_203:\n        /* \"#utility.yul\":14803:14814   */\n      0x00\n        /* \"#utility.yul\":14837:14843   */\n      dup3\n        /* \"#utility.yul\":14832:14835   */\n      dup3\n        /* \"#utility.yul\":14825:14844   */\n      mstore\n        /* \"#utility.yul\":14877:14881   */\n      0x20\n        /* \"#utility.yul\":14872:14875   */\n      dup3\n        /* \"#utility.yul\":14868:14882   */\n      add\n        /* \"#utility.yul\":14853:14882   */\n      swap1\n      pop\n        /* \"#utility.yul\":14719:14888   */\n      swap3\n      swap2\n      pop\n      pop\n      jump\t// out\n        /* \"#utility.yul\":14894:15123   */\n    tag_204:\n        /* \"#utility.yul\":15034:15068   */\n      0x5361666545524332303a204552433230206f7065726174696f6e20646964206e\n        /* \"#utility.yul\":15030:15031   */\n      0x00\n        /* \"#utility.yul\":15022:15028   */\n      dup3\n        /* \"#utility.yul\":15018:15032   */\n      add\n        /* \"#utility.yul\":15011:15069   */\n      mstore\n        /* \"#utility.yul\":15103:15115   */\n      0x6f74207375636365656400000000000000000000000000000000000000000000\n        /* \"#utility.yul\":15098:15100   */\n      0x20\n        /* \"#utility.yul\":15090:15096   */\n      dup3\n        /* \"#utility.yul\":15086:15101   */\n      add\n        /* \"#utility.yul\":15079:15116   */\n      mstore\n        /* \"#utility.yul\":14894:15123   */\n      pop\n      jump\t// out\n        /* \"#utility.yul\":15129:15495   */\n    tag_205:\n        /* \"#utility.yul\":15271:15274   */\n      0x00\n        /* \"#utility.yul\":15292:15359   */\n      tag_355\n        /* \"#utility.yul\":15356:15358   */\n      0x2a\n        /* \"#utility.yul\":15351:15354   */\n      dup4\n        /* \"#utility.yul\":15292:15359   */\n      tag_203\n      jump\t// in\n    tag_355:\n        /* \"#utility.yul\":15285:15359   */\n      swap2\n      pop\n        /* \"#utility.yul\":15368:15461   */\n      tag_356\n        /* \"#utility.yul\":15457:15460   */\n      dup3\n        /* \"#utility.yul\":15368:15461   */\n      tag_204\n      jump\t// in\n    tag_356:\n        /* \"#utility.yul\":15486:15488   */\n      0x40\n        /* \"#utility.yul\":15481:15484   */\n      dup3\n        /* \"#utility.yul\":15477:15489   */\n      add\n        /* \"#utility.yul\":15470:15489   */\n      swap1\n      pop\n        /* \"#utility.yul\":15129:15495   */\n      swap2\n      swap1\n      pop\n      jump\t// out\n        /* \"#utility.yul\":15501:15920   */\n    tag_133:\n        /* \"#utility.yul\":15667:15671   */\n      0x00\n        /* \"#utility.yul\":15705:15707   */\n      0x20\n        /* \"#utility.yul\":15694:15703   */\n      dup3\n        /* \"#utility.yul\":15690:15708   */\n      add\n        /* \"#utility.yul\":15682:15708   */\n      swap1\n      pop\n        /* \"#utility.yul\":15754:15763   */\n      dup2\n        /* \"#utility.yul\":15748:15752   */\n      dup2\n        /* \"#utility.yul\":15744:15764   */\n      sub\n        /* \"#utility.yul\":15740:15741   */\n      0x00\n        /* \"#utility.yul\":15729:15738   */\n      dup4\n        /* \"#utility.yul\":15725:15742   */\n      add\n        /* \"#utility.yul\":15718:15765   */\n      mstore\n        /* \"#utility.yul\":15782:15913   */\n      tag_358\n        /* \"#utility.yul\":15908:15912   */\n      dup2\n        /* \"#utility.yul\":15782:15913   */\n      tag_205\n      jump\t// in\n    tag_358:\n        /* \"#utility.yul\":15774:15913   */\n      swap1\n      pop\n        /* \"#utility.yul\":15501:15920   */\n      swap2\n      swap1\n      pop\n      jump\t// out\n        /* \"#utility.yul\":15926:16151   */\n    tag_206:\n        /* \"#utility.yul\":16066:16100   */\n      0x416464726573733a20696e73756666696369656e742062616c616e636520666f\n        /* \"#utility.yul\":16062:16063   */\n      0x00\n        /* \"#utility.yul\":16054:16060   */\n      dup3\n        /* \"#utility.yul\":16050:16064   */\n      add\n        /* \"#utility.yul\":16043:16101   */\n      mstore\n        /* \"#utility.yul\":16135:16143   */\n      0x722063616c6c0000000000000000000000000000000000000000000000000000\n        /* \"#utility.yul\":16130:16132   */\n      0x20\n        /* \"#utility.yul\":16122:16128   */\n      dup3\n        /* \"#utility.yul\":16118:16133   */\n      add\n        /* \"#utility.yul\":16111:16144   */\n      mstore\n        /* \"#utility.yul\":15926:16151   */\n      pop\n      jump\t// out\n        /* \"#utility.yul\":16157:16523   */\n    tag_207:\n        /* \"#utility.yul\":16299:16302   */\n      0x00\n        /* \"#utility.yul\":16320:16387   */\n      tag_361\n        /* \"#utility.yul\":16384:16386   */\n      0x26\n        /* \"#utility.yul\":16379:16382   */\n      dup4\n        /* \"#utility.yul\":16320:16387   */\n      tag_203\n      jump\t// in\n    tag_361:\n        /* \"#utility.yul\":16313:16387   */\n      swap2\n      pop\n        /* \"#utility.yul\":16396:16489   */\n      tag_362\n        /* \"#utility.yul\":16485:16488   */\n      dup3\n        /* \"#utility.yul\":16396:16489   */\n      tag_206\n      jump\t// in\n    tag_362:\n        /* \"#utility.yul\":16514:16516   */\n      0x40\n        /* \"#utility.yul\":16509:16512   */\n      dup3\n        /* \"#utility.yul\":16505:16517   */\n      add\n        /* \"#utility.yul\":16498:16517   */\n      swap1\n      pop\n        /* \"#utility.yul\":16157:16523   */\n      swap2\n      swap1\n      pop\n      jump\t// out\n        /* \"#utility.yul\":16529:16948   */\n    tag_140:\n        /* \"#utility.yul\":16695:16699   */\n      0x00\n        /* \"#utility.yul\":16733:16735   */\n      0x20\n        /* \"#utility.yul\":16722:16731   */\n      dup3\n        /* \"#utility.yul\":16718:16736   */\n      add\n        /* \"#utility.yul\":16710:16736   */\n      swap1\n      pop\n        /* \"#utility.yul\":16782:16791   */\n      dup2\n        /* \"#utility.yul\":16776:16780   */\n      dup2\n        /* \"#utility.yul\":16772:16792   */\n      sub\n        /* \"#utility.yul\":16768:16769   */\n      0x00\n        /* \"#utility.yul\":16757:16766   */\n      dup4\n        /* \"#utility.yul\":16753:16770   */\n      add\n        /* \"#utility.yul\":16746:16793   */\n      mstore\n        /* \"#utility.yul\":16810:16941   */\n      tag_364\n        /* \"#utility.yul\":16936:16940   */\n      dup2\n        /* \"#utility.yul\":16810:16941   */\n      tag_207\n      jump\t// in\n    tag_364:\n        /* \"#utility.yul\":16802:16941   */\n      swap1\n      pop\n        /* \"#utility.yul\":16529:16948   */\n      swap2\n      swap1\n      pop\n      jump\t// out\n        /* \"#utility.yul\":16954:17101   */\n    tag_208:\n        /* \"#utility.yul\":17055:17066   */\n      0x00\n        /* \"#utility.yul\":17092:17095   */\n      dup2\n        /* \"#utility.yul\":17077:17095   */\n      swap1\n      pop\n        /* \"#utility.yul\":16954:17101   */\n      swap3\n      swap2\n      pop\n      pop\n      jump\t// out\n        /* \"#utility.yul\":17107:17493   */\n    tag_209:\n        /* \"#utility.yul\":17211:17214   */\n      0x00\n        /* \"#utility.yul\":17239:17277   */\n      tag_367\n        /* \"#utility.yul\":17271:17276   */\n      dup3\n        /* \"#utility.yul\":17239:17277   */\n      tag_185\n      jump\t// in\n    tag_367:\n        /* \"#utility.yul\":17293:17381   */\n      tag_368\n        /* \"#utility.yul\":17374:17380   */\n      dup2\n        /* \"#utility.yul\":17369:17372   */\n      dup6\n        /* \"#utility.yul\":17293:17381   */\n      tag_208\n      jump\t// in\n    tag_368:\n        /* \"#utility.yul\":17286:17381   */\n      swap4\n      pop\n        /* \"#utility.yul\":17390:17455   */\n      tag_369\n        /* \"#utility.yul\":17448:17454   */\n      dup2\n        /* \"#utility.yul\":17443:17446   */\n      dup6\n        /* \"#utility.yul\":17436:17440   */\n      0x20\n        /* \"#utility.yul\":17429:17434   */\n      dup7\n        /* \"#utility.yul\":17425:17441   */\n      add\n        /* \"#utility.yul\":17390:17455   */\n      tag_187\n      jump\t// in\n    tag_369:\n        /* \"#utility.yul\":17480:17486   */\n      dup1\n        /* \"#utility.yul\":17475:17478   */\n      dup5\n        /* \"#utility.yul\":17471:17487   */\n      add\n        /* \"#utility.yul\":17464:17487   */\n      swap2\n      pop\n        /* \"#utility.yul\":17215:17493   */\n      pop\n        /* \"#utility.yul\":17107:17493   */\n      swap3\n      swap2\n      pop\n      pop\n      jump\t// out\n        /* \"#utility.yul\":17499:17770   */\n    tag_142:\n        /* \"#utility.yul\":17629:17632   */\n      0x00\n        /* \"#utility.yul\":17651:17744   */\n      tag_371\n        /* \"#utility.yul\":17740:17743   */\n      dup3\n        /* \"#utility.yul\":17731:17737   */\n      dup5\n        /* \"#utility.yul\":17651:17744   */\n      tag_209\n      jump\t// in\n    tag_371:\n        /* \"#utility.yul\":17644:17744   */\n      swap2\n      pop\n        /* \"#utility.yul\":17761:17764   */\n      dup2\n        /* \"#utility.yul\":17754:17764   */\n      swap1\n      pop\n        /* \"#utility.yul\":17499:17770   */\n      swap3\n      swap2\n      pop\n      pop\n      jump\t// out\n        /* \"#utility.yul\":17776:17955   */\n    tag_210:\n        /* \"#utility.yul\":17916:17947   */\n      0x416464726573733a2063616c6c20746f206e6f6e2d636f6e7472616374000000\n        /* \"#utility.yul\":17912:17913   */\n      0x00\n        /* \"#utility.yul\":17904:17910   */\n      dup3\n        /* \"#utility.yul\":17900:17914   */\n      add\n        /* \"#utility.yul\":17893:17948   */\n      mstore\n        /* \"#utility.yul\":17776:17955   */\n      pop\n      jump\t// out\n        /* \"#utility.yul\":17961:18327   */\n    tag_211:\n        /* \"#utility.yul\":18103:18106   */\n      0x00\n        /* \"#utility.yul\":18124:18191   */\n      tag_374\n        /* \"#utility.yul\":18188:18190   */\n      0x1d\n        /* \"#utility.yul\":18183:18186   */\n      dup4\n        /* \"#utility.yul\":18124:18191   */\n      tag_203\n      jump\t// in\n    tag_374:\n        /* \"#utility.yul\":18117:18191   */\n      swap2\n      pop\n        /* \"#utility.yul\":18200:18293   */\n      tag_375\n        /* \"#utility.yul\":18289:18292   */\n      dup3\n        /* \"#utility.yul\":18200:18293   */\n      tag_210\n      jump\t// in\n    tag_375:\n        /* \"#utility.yul\":18318:18320   */\n      0x20\n        /* \"#utility.yul\":18313:18316   */\n      dup3\n        /* \"#utility.yul\":18309:18321   */\n      add\n        /* \"#utility.yul\":18302:18321   */\n      swap1\n      pop\n        /* \"#utility.yul\":17961:18327   */\n      swap2\n      swap1\n      pop\n      jump\t// out\n        /* \"#utility.yul\":18333:18752   */\n    tag_155:\n        /* \"#utility.yul\":18499:18503   */\n      0x00\n        /* \"#utility.yul\":18537:18539   */\n      0x20\n        /* \"#utility.yul\":18526:18535   */\n      dup3\n        /* \"#utility.yul\":18522:18540   */\n      add\n        /* \"#utility.yul\":18514:18540   */\n      swap1\n      pop\n        /* \"#utility.yul\":18586:18595   */\n      dup2\n        /* \"#utility.yul\":18580:18584   */\n      dup2\n        /* \"#utility.yul\":18576:18596   */\n      sub\n        /* \"#utility.yul\":18572:18573   */\n      0x00\n        /* \"#utility.yul\":18561:18570   */\n      dup4\n        /* \"#utility.yul\":18557:18574   */\n      add\n        /* \"#utility.yul\":18550:18597   */\n      mstore\n        /* \"#utility.yul\":18614:18745   */\n      tag_377\n        /* \"#utility.yul\":18740:18744   */\n      dup2\n        /* \"#utility.yul\":18614:18745   */\n      tag_211\n      jump\t// in\n    tag_377:\n        /* \"#utility.yul\":18606:18745   */\n      swap1\n      pop\n        /* \"#utility.yul\":18333:18752   */\n      swap2\n      swap1\n      pop\n      jump\t// out\n        /* \"#utility.yul\":18758:18857   */\n    tag_212:\n        /* \"#utility.yul\":18810:18816   */\n      0x00\n        /* \"#utility.yul\":18844:18849   */\n      dup2\n        /* \"#utility.yul\":18838:18850   */\n      mload\n        /* \"#utility.yul\":18828:18850   */\n      swap1\n      pop\n        /* \"#utility.yul\":18758:18857   */\n      swap2\n      swap1\n      pop\n      jump\t// out\n        /* \"#utility.yul\":18863:19240   */\n    tag_213:\n        /* \"#utility.yul\":18951:18954   */\n      0x00\n        /* \"#utility.yul\":18979:19018   */\n      tag_380\n        /* \"#utility.yul\":19012:19017   */\n      dup3\n        /* \"#utility.yul\":18979:19018   */\n      tag_212\n      jump\t// in\n    tag_380:\n        /* \"#utility.yul\":19034:19105   */\n      tag_381\n        /* \"#utility.yul\":19098:19104   */\n      dup2\n        /* \"#utility.yul\":19093:19096   */\n      dup6\n        /* \"#utility.yul\":19034:19105   */\n      tag_203\n      jump\t// in\n    tag_381:\n        /* \"#utility.yul\":19027:19105   */\n      swap4\n      pop\n        /* \"#utility.yul\":19114:19179   */\n      tag_382\n        /* \"#utility.yul\":19172:19178   */\n      dup2\n        /* \"#utility.yul\":19167:19170   */\n      dup6\n        /* \"#utility.yul\":19160:19164   */\n      0x20\n        /* \"#utility.yul\":19153:19158   */\n      dup7\n        /* \"#utility.yul\":19149:19165   */\n      add\n        /* \"#utility.yul\":19114:19179   */\n      tag_187\n      jump\t// in\n    tag_382:\n        /* \"#utility.yul\":19204:19233   */\n      tag_383\n        /* \"#utility.yul\":19226:19232   */\n      dup2\n        /* \"#utility.yul\":19204:19233   */\n      tag_188\n      jump\t// in\n    tag_383:\n        /* \"#utility.yul\":19199:19202   */\n      dup5\n        /* \"#utility.yul\":19195:19234   */\n      add\n        /* \"#utility.yul\":19188:19234   */\n      swap2\n      pop\n        /* \"#utility.yul\":18955:19240   */\n      pop\n        /* \"#utility.yul\":18863:19240   */\n      swap3\n      swap2\n      pop\n      pop\n      jump\t// out\n        /* \"#utility.yul\":19246:19559   */\n    tag_164:\n        /* \"#utility.yul\":19359:19363   */\n      0x00\n        /* \"#utility.yul\":19397:19399   */\n      0x20\n        /* \"#utility.yul\":19386:19395   */\n      dup3\n        /* \"#utility.yul\":19382:19400   */\n      add\n        /* \"#utility.yul\":19374:19400   */\n      swap1\n      pop\n        /* \"#utility.yul\":19446:19455   */\n      dup2\n        /* \"#utility.yul\":19440:19444   */\n      dup2\n        /* \"#utility.yul\":19436:19456   */\n      sub\n        /* \"#utility.yul\":19432:19433   */\n      0x00\n        /* \"#utility.yul\":19421:19430   */\n      dup4\n        /* \"#utility.yul\":19417:19434   */\n      add\n        /* \"#utility.yul\":19410:19457   */\n      mstore\n        /* \"#utility.yul\":19474:19552   */\n      tag_385\n        /* \"#utility.yul\":19547:19551   */\n      dup2\n        /* \"#utility.yul\":19538:19544   */\n      dup5\n        /* \"#utility.yul\":19474:19552   */\n      tag_213\n      jump\t// in\n    tag_385:\n        /* \"#utility.yul\":19466:19552   */\n      swap1\n      pop\n        /* \"#utility.yul\":19246:19559   */\n      swap3\n      swap2\n      pop\n      pop\n      jump\t// out\n\n    auxdata: 0xa2646970667358221220dc99b3b222a862f68e018a4a653b448239803db001a1957cd4bb14f3ac7bb75e64736f6c634300081a0033\n}\n",
				"bytecode": {
					"linkReferences": {},
					"object": "60e060405273f694e193200268f9a4868e4aa017a0118c9a817760015f6101000a81548173ffffffffffffffffffffffffffffffffffffffff021916908373ffffffffffffffffffffffffffffffffffffffff160217905550730b9d5d9136855f6fec3c0993fee6e9ce8a29784660025f6101000a81548173ffffffffffffffffffffffffffffffffffffffff021916908373ffffffffffffffffffffffffffffffffffffffff160217905550735425890298aed601595a70ab815c96711a31bc6560035f6101000a81548173ffffffffffffffffffffffffffffffffffffffff021916908373ffffffffffffffffffffffffffffffffffffffff16021790555067de41ba4fc9d91ad9600360146101000a81548167ffffffffffffffff021916908367ffffffffffffffff16021790555034801561013c575f80fd5b50335f806101000a81548173ffffffffffffffffffffffffffffffffffffffff021916908373ffffffffffffffffffffffffffffffffffffffff16021790555060015f9054906101000a900473ffffffffffffffffffffffffffffffffffffffff1673ffffffffffffffffffffffffffffffffffffffff1660808173ffffffffffffffffffffffffffffffffffffffff168152505060025f9054906101000a900473ffffffffffffffffffffffffffffffffffffffff1673ffffffffffffffffffffffffffffffffffffffff1660a08173ffffffffffffffffffffffffffffffffffffffff168152505060035f9054906101000a900473ffffffffffffffffffffffffffffffffffffffff1673ffffffffffffffffffffffffffffffffffffffff1660c08173ffffffffffffffffffffffffffffffffffffffff168152505060805160a05160c0516119226103005f395f818161033b015281816103fe01528181610502015281816108ea0152818161098901528181610a630152610aaa01525f81816102a1015281816105ae015281816106b901528181610758015261082e01525f81816106070152818161086a01528181610ae60152610b6601526119225ff3fe608060405234801561000f575f80fd5b5060043610610055575f3560e01c80633aeac4e1146100595780636392a51f146100755780638da5cb5b146100a6578063ed3bd5bc146100c4578063fe2c5d36146100e2575b5f80fd5b610073600480360381019061006e9190611094565b610112565b005b61008f600480360381019061008a91906110d2565b61029d565b60405161009d929190611115565b60405180910390f35b6100ae6103d8565b6040516100bb919061114b565b60405180910390f35b6100cc6103fb565b6040516100d99190611164565b60405180910390f35b6100fc60048036038101906100f791906111a7565b61049b565b60405161010991906111fd565b60405180910390f35b5f8054906101000a900473ffffffffffffffffffffffffffffffffffffffff1673ffffffffffffffffffffffffffffffffffffffff163373ffffffffffffffffffffffffffffffffffffffff1614610168575f80fd5b5f8173ffffffffffffffffffffffffffffffffffffffff166370a08231306040518263ffffffff1660e01b81526004016101a2919061114b565b602060405180830381865afa1580156101bd573d5f803e3d5ffd5b505050506040513d601f19601f820116820180604052508101906101e1919061122a565b90505f810361021c576040517fd0d04f6000000000000000000000000000000000000000000000000000000000815260040160405180910390fd5b8173ffffffffffffffffffffffffffffffffffffffff1663a9059cbb84836040518363ffffffff1660e01b8152600401610257929190611255565b6020604051808303815f875af1158015610273573d5f803e3d5ffd5b505050506040513d601f19601f8201168201806040525081019061029791906112b1565b50505050565b5f807f000000000000000000000000000000000000000000000000000000000000000073ffffffffffffffffffffffffffffffffffffffff166370a08231846040518263ffffffff1660e01b81526004016102f8919061114b565b602060405180830381865afa158015610313573d5f803e3d5ffd5b505050506040513d601f19601f82011682018060405250810190610337919061122a565b91507f000000000000000000000000000000000000000000000000000000000000000073ffffffffffffffffffffffffffffffffffffffff166370a08231846040518263ffffffff1660e01b8152600401610392919061114b565b602060405180830381865afa1580156103ad573d5f803e3d5ffd5b505050506040513d601f19601f820116820180604052508101906103d1919061122a565b9050915091565b5f8054906101000a900473ffffffffffffffffffffffffffffffffffffffff1681565b5f7f000000000000000000000000000000000000000000000000000000000000000073ffffffffffffffffffffffffffffffffffffffff1663dd62ed3e33306040518363ffffffff1660e01b81526004016104579291906112dc565b602060405180830381865afa158015610472573d5f803e3d5ffd5b505050506040513d601f19601f82011682018060405250810190610496919061122a565b905090565b5f80600167ffffffffffffffff8111156104b8576104b7611303565b5b6040519080825280602002602001820160405280156104f157816020015b6104de611008565b8152602001906001900390816104d65790505b5090505f60405180604001604052807f000000000000000000000000000000000000000000000000000000000000000073ffffffffffffffffffffffffffffffffffffffff16815260200185815250905080825f8151811061055657610555611330565b5b60200260200101819052505f6040518060a001604052808760405160200161057e919061114b565b604051602081830303815290604052815260200160405180602001604052805f81525081526020018481526020017f000000000000000000000000000000000000000000000000000000000000000073ffffffffffffffffffffffffffffffffffffffff1681526020016105ff60405180602001604052805f815250610c76565b81525090505f7f000000000000000000000000000000000000000000000000000000000000000073ffffffffffffffffffffffffffffffffffffffff166320487ded600360149054906101000a900467ffffffffffffffff16846040518363ffffffff1660e01b815260040161067692919061156a565b602060405180830381865afa158015610691573d5f803e3d5ffd5b505050506040513d601f19601f820116820180604052508101906106b5919061122a565b90507f000000000000000000000000000000000000000000000000000000000000000073ffffffffffffffffffffffffffffffffffffffff166370a08231306040518263ffffffff1660e01b8152600401610710919061114b565b602060405180830381865afa15801561072b573d5f803e3d5ffd5b505050506040513d601f19601f8201168201806040525081019061074f919061122a565b81111561082c577f000000000000000000000000000000000000000000000000000000000000000073ffffffffffffffffffffffffffffffffffffffff166370a08231306040518263ffffffff1660e01b81526004016107af919061114b565b602060405180830381865afa1580156107ca573d5f803e3d5ffd5b505050506040513d601f19601f820116820180604052508101906107ee919061122a565b816040517f28fdcaa1000000000000000000000000000000000000000000000000000000008152600401610823929190611115565b60405180910390fd5b7f000000000000000000000000000000000000000000000000000000000000000073ffffffffffffffffffffffffffffffffffffffff1663095ea7b37f0000000000000000000000000000000000000000000000000000000000000000836040518363ffffffff1660e01b81526004016108a7929190611255565b6020604051808303815f875af11580156108c3573d5f803e3d5ffd5b505050506040513d601f19601f820116820180604052508101906108e791906112b1565b507f000000000000000000000000000000000000000000000000000000000000000073ffffffffffffffffffffffffffffffffffffffff166370a08231336040518263ffffffff1660e01b8152600401610941919061114b565b602060405180830381865afa15801561095c573d5f803e3d5ffd5b505050506040513d601f19601f82011682018060405250810190610980919061122a565b861115610a5b577f000000000000000000000000000000000000000000000000000000000000000073ffffffffffffffffffffffffffffffffffffffff166370a08231336040518263ffffffff1660e01b81526004016109e0919061114b565b602060405180830381865afa1580156109fb573d5f803e3d5ffd5b505050506040513d601f19601f82011682018060405250810190610a1f919061122a565b6040517f6212cf3b000000000000000000000000000000000000000000000000000000008152600401610a529190611164565b60405180910390fd5b610aa83330887f000000000000000000000000000000000000000000000000000000000000000073ffffffffffffffffffffffffffffffffffffffff16610cf5909392919063ffffffff16565b7f000000000000000000000000000000000000000000000000000000000000000073ffffffffffffffffffffffffffffffffffffffff1663095ea7b37f0000000000000000000000000000000000000000000000000000000000000000886040518363ffffffff1660e01b8152600401610b23929190611255565b6020604051808303815f875af1158015610b3f573d5f803e3d5ffd5b505050506040513d601f19601f82011682018060405250810190610b6391906112b1565b507f000000000000000000000000000000000000000000000000000000000000000073ffffffffffffffffffffffffffffffffffffffff166396f4e9f9600360149054906101000a900467ffffffffffffffff16846040518363ffffffff1660e01b8152600401610bd592919061156a565b6020604051808303815f875af1158015610bf1573d5f803e3d5ffd5b505050506040513d601f19601f82011682018060405250810190610c1591906115c2565b94507fb55a3d3f1ccd1c10f00aff03ad884028d98fa1d478fae03acecbf884ce8e8fbc85600360149054906101000a900467ffffffffffffffff16898985604051610c649594939291906115ed565b60405180910390a15050505092915050565b60606397a657c960e01b82604051602401610c919190611658565b604051602081830303815290604052907bffffffffffffffffffffffffffffffffffffffffffffffffffffffff19166020820180517bffffffffffffffffffffffffffffffffffffffffffffffffffffffff83818316178352505050509050919050565b610d78846323b872dd60e01b858585604051602401610d1693929190611671565b604051602081830303815290604052907bffffffffffffffffffffffffffffffffffffffffffffffffffffffff19166020820180517bffffffffffffffffffffffffffffffffffffffffffffffffffffffff8381831617835250505050610d7e565b50505050565b5f610ddf826040518060400160405280602081526020017f5361666545524332303a206c6f772d6c6576656c2063616c6c206661696c65648152508573ffffffffffffffffffffffffffffffffffffffff16610e439092919063ffffffff16565b90505f81511115610e3e5780806020019051810190610dfe91906112b1565b610e3d576040517f08c379a0000000000000000000000000000000000000000000000000000000008152600401610e3490611726565b60405180910390fd5b5b505050565b6060610e5184845f85610e5a565b90509392505050565b606082471015610e9f576040517f08c379a0000000000000000000000000000000000000000000000000000000008152600401610e96906117b4565b60405180910390fd5b5f808673ffffffffffffffffffffffffffffffffffffffff168587604051610ec7919061180c565b5f6040518083038185875af1925050503d805f8114610f01576040519150601f19603f3d011682016040523d82523d5f602084013e610f06565b606091505b5091509150610f1787838387610f23565b92505050949350505050565b60608315610f84575f835103610f7c57610f3c85610f97565b610f7b576040517f08c379a0000000000000000000000000000000000000000000000000000000008152600401610f729061186c565b60405180910390fd5b5b829050610f8f565b610f8e8383610fb9565b5b949350505050565b5f808273ffffffffffffffffffffffffffffffffffffffff163b119050919050565b5f82511115610fcb5781518083602001fd5b806040517f08c379a0000000000000000000000000000000000000000000000000000000008152600401610fff91906118cc565b60405180910390fd5b60405180604001604052805f73ffffffffffffffffffffffffffffffffffffffff1681526020015f81525090565b5f80fd5b5f73ffffffffffffffffffffffffffffffffffffffff82169050919050565b5f6110638261103a565b9050919050565b61107381611059565b811461107d575f80fd5b50565b5f8135905061108e8161106a565b92915050565b5f80604083850312156110aa576110a9611036565b5b5f6110b785828601611080565b92505060206110c885828601611080565b9150509250929050565b5f602082840312156110e7576110e6611036565b5b5f6110f484828501611080565b91505092915050565b5f819050919050565b61110f816110fd565b82525050565b5f6040820190506111285f830185611106565b6111356020830184611106565b9392505050565b61114581611059565b82525050565b5f60208201905061115e5f83018461113c565b92915050565b5f6020820190506111775f830184611106565b92915050565b611186816110fd565b8114611190575f80fd5b50565b5f813590506111a18161117d565b92915050565b5f80604083850312156111bd576111bc611036565b5b5f6111ca85828601611080565b92505060206111db85828601611193565b9150509250929050565b5f819050919050565b6111f7816111e5565b82525050565b5f6020820190506112105f8301846111ee565b92915050565b5f815190506112248161117d565b92915050565b5f6020828403121561123f5761123e611036565b5b5f61124c84828501611216565b91505092915050565b5f6040820190506112685f83018561113c565b6112756020830184611106565b9392505050565b5f8115159050919050565b6112908161127c565b811461129a575f80fd5b50565b5f815190506112ab81611287565b92915050565b5f602082840312156112c6576112c5611036565b5b5f6112d38482850161129d565b91505092915050565b5f6040820190506112ef5f83018561113c565b6112fc602083018461113c565b9392505050565b7f4e487b71000000000000000000000000000000000000000000000000000000005f52604160045260245ffd5b7f4e487b71000000000000000000000000000000000000000000000000000000005f52603260045260245ffd5b5f67ffffffffffffffff82169050919050565b6113798161135d565b82525050565b5f81519050919050565b5f82825260208201905092915050565b8281835e5f83830152505050565b5f601f19601f8301169050919050565b5f6113c18261137f565b6113cb8185611389565b93506113db818560208601611399565b6113e4816113a7565b840191505092915050565b5f81519050919050565b5f82825260208201905092915050565b5f819050602082019050919050565b61142181611059565b82525050565b611430816110fd565b82525050565b604082015f82015161144a5f850182611418565b50602082015161145d6020850182611427565b50505050565b5f61146e8383611436565b60408301905092915050565b5f602082019050919050565b5f611490826113ef565b61149a81856113f9565b93506114a583611409565b805f5b838110156114d55781516114bc8882611463565b97506114c78361147a565b9250506001810190506114a8565b5085935050505092915050565b5f60a083015f8301518482035f8601526114fc82826113b7565b9150506020830151848203602086015261151682826113b7565b915050604083015184820360408601526115308282611486565b91505060608301516115456060860182611418565b506080830151848203608086015261155d82826113b7565b9150508091505092915050565b5f60408201905061157d5f830185611370565b818103602083015261158f81846114e2565b90509392505050565b6115a1816111e5565b81146115ab575f80fd5b50565b5f815190506115bc81611598565b92915050565b5f602082840312156115d7576115d6611036565b5b5f6115e4848285016115ae565b91505092915050565b5f60a0820190506116005f8301886111ee565b61160d6020830187611370565b61161a604083018661113c565b6116276060830185611106565b6116346080830184611106565b9695505050505050565b602082015f8201516116525f850182611427565b50505050565b5f60208201905061166b5f83018461163e565b92915050565b5f6060820190506116845f83018661113c565b611691602083018561113c565b61169e6040830184611106565b949350505050565b5f82825260208201905092915050565b7f5361666545524332303a204552433230206f7065726174696f6e20646964206e5f8201527f6f74207375636365656400000000000000000000000000000000000000000000602082015250565b5f611710602a836116a6565b915061171b826116b6565b604082019050919050565b5f6020820190508181035f83015261173d81611704565b9050919050565b7f416464726573733a20696e73756666696369656e742062616c616e636520666f5f8201527f722063616c6c0000000000000000000000000000000000000000000000000000602082015250565b5f61179e6026836116a6565b91506117a982611744565b604082019050919050565b5f6020820190508181035f8301526117cb81611792565b9050919050565b5f81905092915050565b5f6117e68261137f565b6117f081856117d2565b9350611800818560208601611399565b80840191505092915050565b5f61181782846117dc565b915081905092915050565b7f416464726573733a2063616c6c20746f206e6f6e2d636f6e74726163740000005f82015250565b5f611856601d836116a6565b915061186182611822565b602082019050919050565b5f6020820190508181035f8301526118838161184a565b9050919050565b5f81519050919050565b5f61189e8261188a565b6118a881856116a6565b93506118b8818560208601611399565b6118c1816113a7565b840191505092915050565b5f6020820190508181035f8301526118e48184611894565b90509291505056fea2646970667358221220dc99b3b222a862f68e018a4a653b448239803db001a1957cd4bb14f3ac7bb75e64736f6c634300081a0033",
					"opcodes": "PUSH1 0xE0 PUSH1 0x40 MSTORE PUSH20 0xF694E193200268F9A4868E4AA017A0118C9A8177 PUSH1 0x1 PUSH0 PUSH2 0x100 EXP DUP2 SLOAD DUP2 PUSH20 0xFFFFFFFFFFFFFFFFFFFFFFFFFFFFFFFFFFFFFFFF MUL NOT AND SWAP1 DUP4 PUSH20 0xFFFFFFFFFFFFFFFFFFFFFFFFFFFFFFFFFFFFFFFF AND MUL OR SWAP1 SSTORE POP PUSH20 0xB9D5D9136855F6FEC3C0993FEE6E9CE8A297846 PUSH1 0x2 PUSH0 PUSH2 0x100 EXP DUP2 SLOAD DUP2 PUSH20 0xFFFFFFFFFFFFFFFFFFFFFFFFFFFFFFFFFFFFFFFF MUL NOT AND SWAP1 DUP4 PUSH20 0xFFFFFFFFFFFFFFFFFFFFFFFFFFFFFFFFFFFFFFFF AND MUL OR SWAP1 SSTORE POP PUSH20 0x5425890298AED601595A70AB815C96711A31BC65 PUSH1 0x3 PUSH0 PUSH2 0x100 EXP DUP2 SLOAD DUP2 PUSH20 0xFFFFFFFFFFFFFFFFFFFFFFFFFFFFFFFFFFFFFFFF MUL NOT AND SWAP1 DUP4 PUSH20 0xFFFFFFFFFFFFFFFFFFFFFFFFFFFFFFFFFFFFFFFF AND MUL OR SWAP1 SSTORE POP PUSH8 0xDE41BA4FC9D91AD9 PUSH1 0x3 PUSH1 0x14 PUSH2 0x100 EXP DUP2 SLOAD DUP2 PUSH8 0xFFFFFFFFFFFFFFFF MUL NOT AND SWAP1 DUP4 PUSH8 0xFFFFFFFFFFFFFFFF AND MUL OR SWAP1 SSTORE POP CALLVALUE DUP1 ISZERO PUSH2 0x13C JUMPI PUSH0 DUP1 REVERT JUMPDEST POP CALLER PUSH0 DUP1 PUSH2 0x100 EXP DUP2 SLOAD DUP2 PUSH20 0xFFFFFFFFFFFFFFFFFFFFFFFFFFFFFFFFFFFFFFFF MUL NOT AND SWAP1 DUP4 PUSH20 0xFFFFFFFFFFFFFFFFFFFFFFFFFFFFFFFFFFFFFFFF AND MUL OR SWAP1 SSTORE POP PUSH1 0x1 PUSH0 SWAP1 SLOAD SWAP1 PUSH2 0x100 EXP SWAP1 DIV PUSH20 0xFFFFFFFFFFFFFFFFFFFFFFFFFFFFFFFFFFFFFFFF AND PUSH20 0xFFFFFFFFFFFFFFFFFFFFFFFFFFFFFFFFFFFFFFFF AND PUSH1 0x80 DUP2 PUSH20 0xFFFFFFFFFFFFFFFFFFFFFFFFFFFFFFFFFFFFFFFF AND DUP2 MSTORE POP POP PUSH1 0x2 PUSH0 SWAP1 SLOAD SWAP1 PUSH2 0x100 EXP SWAP1 DIV PUSH20 0xFFFFFFFFFFFFFFFFFFFFFFFFFFFFFFFFFFFFFFFF AND PUSH20 0xFFFFFFFFFFFFFFFFFFFFFFFFFFFFFFFFFFFFFFFF AND PUSH1 0xA0 DUP2 PUSH20 0xFFFFFFFFFFFFFFFFFFFFFFFFFFFFFFFFFFFFFFFF AND DUP2 MSTORE POP POP PUSH1 0x3 PUSH0 SWAP1 SLOAD SWAP1 PUSH2 0x100 EXP SWAP1 DIV PUSH20 0xFFFFFFFFFFFFFFFFFFFFFFFFFFFFFFFFFFFFFFFF AND PUSH20 0xFFFFFFFFFFFFFFFFFFFFFFFFFFFFFFFFFFFFFFFF AND PUSH1 0xC0 DUP2 PUSH20 0xFFFFFFFFFFFFFFFFFFFFFFFFFFFFFFFFFFFFFFFF AND DUP2 MSTORE POP POP PUSH1 0x80 MLOAD PUSH1 0xA0 MLOAD PUSH1 0xC0 MLOAD PUSH2 0x1922 PUSH2 0x300 PUSH0 CODECOPY PUSH0 DUP2 DUP2 PUSH2 0x33B ADD MSTORE DUP2 DUP2 PUSH2 0x3FE ADD MSTORE DUP2 DUP2 PUSH2 0x502 ADD MSTORE DUP2 DUP2 PUSH2 0x8EA ADD MSTORE DUP2 DUP2 PUSH2 0x989 ADD MSTORE DUP2 DUP2 PUSH2 0xA63 ADD MSTORE PUSH2 0xAAA ADD MSTORE PUSH0 DUP2 DUP2 PUSH2 0x2A1 ADD MSTORE DUP2 DUP2 PUSH2 0x5AE ADD MSTORE DUP2 DUP2 PUSH2 0x6B9 ADD MSTORE DUP2 DUP2 PUSH2 0x758 ADD MSTORE PUSH2 0x82E ADD MSTORE PUSH0 DUP2 DUP2 PUSH2 0x607 ADD MSTORE DUP2 DUP2 PUSH2 0x86A ADD MSTORE DUP2 DUP2 PUSH2 0xAE6 ADD MSTORE PUSH2 0xB66 ADD MSTORE PUSH2 0x1922 PUSH0 RETURN INVALID PUSH1 0x80 PUSH1 0x40 MSTORE CALLVALUE DUP1 ISZERO PUSH2 0xF JUMPI PUSH0 DUP1 REVERT JUMPDEST POP PUSH1 0x4 CALLDATASIZE LT PUSH2 0x55 JUMPI PUSH0 CALLDATALOAD PUSH1 0xE0 SHR DUP1 PUSH4 0x3AEAC4E1 EQ PUSH2 0x59 JUMPI DUP1 PUSH4 0x6392A51F EQ PUSH2 0x75 JUMPI DUP1 PUSH4 0x8DA5CB5B EQ PUSH2 0xA6 JUMPI DUP1 PUSH4 0xED3BD5BC EQ PUSH2 0xC4 JUMPI DUP1 PUSH4 0xFE2C5D36 EQ PUSH2 0xE2 JUMPI JUMPDEST PUSH0 DUP1 REVERT JUMPDEST PUSH2 0x73 PUSH1 0x4 DUP1 CALLDATASIZE SUB DUP2 ADD SWAP1 PUSH2 0x6E SWAP2 SWAP1 PUSH2 0x1094 JUMP JUMPDEST PUSH2 0x112 JUMP JUMPDEST STOP JUMPDEST PUSH2 0x8F PUSH1 0x4 DUP1 CALLDATASIZE SUB DUP2 ADD SWAP1 PUSH2 0x8A SWAP2 SWAP1 PUSH2 0x10D2 JUMP JUMPDEST PUSH2 0x29D JUMP JUMPDEST PUSH1 0x40 MLOAD PUSH2 0x9D SWAP3 SWAP2 SWAP1 PUSH2 0x1115 JUMP JUMPDEST PUSH1 0x40 MLOAD DUP1 SWAP2 SUB SWAP1 RETURN JUMPDEST PUSH2 0xAE PUSH2 0x3D8 JUMP JUMPDEST PUSH1 0x40 MLOAD PUSH2 0xBB SWAP2 SWAP1 PUSH2 0x114B JUMP JUMPDEST PUSH1 0x40 MLOAD DUP1 SWAP2 SUB SWAP1 RETURN JUMPDEST PUSH2 0xCC PUSH2 0x3FB JUMP JUMPDEST PUSH1 0x40 MLOAD PUSH2 0xD9 SWAP2 SWAP1 PUSH2 0x1164 JUMP JUMPDEST PUSH1 0x40 MLOAD DUP1 SWAP2 SUB SWAP1 RETURN JUMPDEST PUSH2 0xFC PUSH1 0x4 DUP1 CALLDATASIZE SUB DUP2 ADD SWAP1 PUSH2 0xF7 SWAP2 SWAP1 PUSH2 0x11A7 JUMP JUMPDEST PUSH2 0x49B JUMP JUMPDEST PUSH1 0x40 MLOAD PUSH2 0x109 SWAP2 SWAP1 PUSH2 0x11FD JUMP JUMPDEST PUSH1 0x40 MLOAD DUP1 SWAP2 SUB SWAP1 RETURN JUMPDEST PUSH0 DUP1 SLOAD SWAP1 PUSH2 0x100 EXP SWAP1 DIV PUSH20 0xFFFFFFFFFFFFFFFFFFFFFFFFFFFFFFFFFFFFFFFF AND PUSH20 0xFFFFFFFFFFFFFFFFFFFFFFFFFFFFFFFFFFFFFFFF AND CALLER PUSH20 0xFFFFFFFFFFFFFFFFFFFFFFFFFFFFFFFFFFFFFFFF AND EQ PUSH2 0x168 JUMPI PUSH0 DUP1 REVERT JUMPDEST PUSH0 DUP2 PUSH20 0xFFFFFFFFFFFFFFFFFFFFFFFFFFFFFFFFFFFFFFFF AND PUSH4 0x70A08231 ADDRESS PUSH1 0x40 MLOAD DUP3 PUSH4 0xFFFFFFFF AND PUSH1 0xE0 SHL DUP2 MSTORE PUSH1 0x4 ADD PUSH2 0x1A2 SWAP2 SWAP1 PUSH2 0x114B JUMP JUMPDEST PUSH1 0x20 PUSH1 0x40 MLOAD DUP1 DUP4 SUB DUP2 DUP7 GAS STATICCALL ISZERO DUP1 ISZERO PUSH2 0x1BD JUMPI RETURNDATASIZE PUSH0 DUP1 RETURNDATACOPY RETURNDATASIZE PUSH0 REVERT JUMPDEST POP POP POP POP PUSH1 0x40 MLOAD RETURNDATASIZE PUSH1 0x1F NOT PUSH1 0x1F DUP3 ADD AND DUP3 ADD DUP1 PUSH1 0x40 MSTORE POP DUP2 ADD SWAP1 PUSH2 0x1E1 SWAP2 SWAP1 PUSH2 0x122A JUMP JUMPDEST SWAP1 POP PUSH0 DUP2 SUB PUSH2 0x21C JUMPI PUSH1 0x40 MLOAD PUSH32 0xD0D04F6000000000000000000000000000000000000000000000000000000000 DUP2 MSTORE PUSH1 0x4 ADD PUSH1 0x40 MLOAD DUP1 SWAP2 SUB SWAP1 REVERT JUMPDEST DUP2 PUSH20 0xFFFFFFFFFFFFFFFFFFFFFFFFFFFFFFFFFFFFFFFF AND PUSH4 0xA9059CBB DUP5 DUP4 PUSH1 0x40 MLOAD DUP4 PUSH4 0xFFFFFFFF AND PUSH1 0xE0 SHL DUP2 MSTORE PUSH1 0x4 ADD PUSH2 0x257 SWAP3 SWAP2 SWAP1 PUSH2 0x1255 JUMP JUMPDEST PUSH1 0x20 PUSH1 0x40 MLOAD DUP1 DUP4 SUB DUP2 PUSH0 DUP8 GAS CALL ISZERO DUP1 ISZERO PUSH2 0x273 JUMPI RETURNDATASIZE PUSH0 DUP1 RETURNDATACOPY RETURNDATASIZE PUSH0 REVERT JUMPDEST POP POP POP POP PUSH1 0x40 MLOAD RETURNDATASIZE PUSH1 0x1F NOT PUSH1 0x1F DUP3 ADD AND DUP3 ADD DUP1 PUSH1 0x40 MSTORE POP DUP2 ADD SWAP1 PUSH2 0x297 SWAP2 SWAP1 PUSH2 0x12B1 JUMP JUMPDEST POP POP POP POP JUMP JUMPDEST PUSH0 DUP1 PUSH32 0x0 PUSH20 0xFFFFFFFFFFFFFFFFFFFFFFFFFFFFFFFFFFFFFFFF AND PUSH4 0x70A08231 DUP5 PUSH1 0x40 MLOAD DUP3 PUSH4 0xFFFFFFFF AND PUSH1 0xE0 SHL DUP2 MSTORE PUSH1 0x4 ADD PUSH2 0x2F8 SWAP2 SWAP1 PUSH2 0x114B JUMP JUMPDEST PUSH1 0x20 PUSH1 0x40 MLOAD DUP1 DUP4 SUB DUP2 DUP7 GAS STATICCALL ISZERO DUP1 ISZERO PUSH2 0x313 JUMPI RETURNDATASIZE PUSH0 DUP1 RETURNDATACOPY RETURNDATASIZE PUSH0 REVERT JUMPDEST POP POP POP POP PUSH1 0x40 MLOAD RETURNDATASIZE PUSH1 0x1F NOT PUSH1 0x1F DUP3 ADD AND DUP3 ADD DUP1 PUSH1 0x40 MSTORE POP DUP2 ADD SWAP1 PUSH2 0x337 SWAP2 SWAP1 PUSH2 0x122A JUMP JUMPDEST SWAP2 POP PUSH32 0x0 PUSH20 0xFFFFFFFFFFFFFFFFFFFFFFFFFFFFFFFFFFFFFFFF AND PUSH4 0x70A08231 DUP5 PUSH1 0x40 MLOAD DUP3 PUSH4 0xFFFFFFFF AND PUSH1 0xE0 SHL DUP2 MSTORE PUSH1 0x4 ADD PUSH2 0x392 SWAP2 SWAP1 PUSH2 0x114B JUMP JUMPDEST PUSH1 0x20 PUSH1 0x40 MLOAD DUP1 DUP4 SUB DUP2 DUP7 GAS STATICCALL ISZERO DUP1 ISZERO PUSH2 0x3AD JUMPI RETURNDATASIZE PUSH0 DUP1 RETURNDATACOPY RETURNDATASIZE PUSH0 REVERT JUMPDEST POP POP POP POP PUSH1 0x40 MLOAD RETURNDATASIZE PUSH1 0x1F NOT PUSH1 0x1F DUP3 ADD AND DUP3 ADD DUP1 PUSH1 0x40 MSTORE POP DUP2 ADD SWAP1 PUSH2 0x3D1 SWAP2 SWAP1 PUSH2 0x122A JUMP JUMPDEST SWAP1 POP SWAP2 POP SWAP2 JUMP JUMPDEST PUSH0 DUP1 SLOAD SWAP1 PUSH2 0x100 EXP SWAP1 DIV PUSH20 0xFFFFFFFFFFFFFFFFFFFFFFFFFFFFFFFFFFFFFFFF AND DUP2 JUMP JUMPDEST PUSH0 PUSH32 0x0 PUSH20 0xFFFFFFFFFFFFFFFFFFFFFFFFFFFFFFFFFFFFFFFF AND PUSH4 0xDD62ED3E CALLER ADDRESS PUSH1 0x40 MLOAD DUP4 PUSH4 0xFFFFFFFF AND PUSH1 0xE0 SHL DUP2 MSTORE PUSH1 0x4 ADD PUSH2 0x457 SWAP3 SWAP2 SWAP1 PUSH2 0x12DC JUMP JUMPDEST PUSH1 0x20 PUSH1 0x40 MLOAD DUP1 DUP4 SUB DUP2 DUP7 GAS STATICCALL ISZERO DUP1 ISZERO PUSH2 0x472 JUMPI RETURNDATASIZE PUSH0 DUP1 RETURNDATACOPY RETURNDATASIZE PUSH0 REVERT JUMPDEST POP POP POP POP PUSH1 0x40 MLOAD RETURNDATASIZE PUSH1 0x1F NOT PUSH1 0x1F DUP3 ADD AND DUP3 ADD DUP1 PUSH1 0x40 MSTORE POP DUP2 ADD SWAP1 PUSH2 0x496 SWAP2 SWAP1 PUSH2 0x122A JUMP JUMPDEST SWAP1 POP SWAP1 JUMP JUMPDEST PUSH0 DUP1 PUSH1 0x1 PUSH8 0xFFFFFFFFFFFFFFFF DUP2 GT ISZERO PUSH2 0x4B8 JUMPI PUSH2 0x4B7 PUSH2 0x1303 JUMP JUMPDEST JUMPDEST PUSH1 0x40 MLOAD SWAP1 DUP1 DUP3 MSTORE DUP1 PUSH1 0x20 MUL PUSH1 0x20 ADD DUP3 ADD PUSH1 0x40 MSTORE DUP1 ISZERO PUSH2 0x4F1 JUMPI DUP2 PUSH1 0x20 ADD JUMPDEST PUSH2 0x4DE PUSH2 0x1008 JUMP JUMPDEST DUP2 MSTORE PUSH1 0x20 ADD SWAP1 PUSH1 0x1 SWAP1 SUB SWAP1 DUP2 PUSH2 0x4D6 JUMPI SWAP1 POP JUMPDEST POP SWAP1 POP PUSH0 PUSH1 0x40 MLOAD DUP1 PUSH1 0x40 ADD PUSH1 0x40 MSTORE DUP1 PUSH32 0x0 PUSH20 0xFFFFFFFFFFFFFFFFFFFFFFFFFFFFFFFFFFFFFFFF AND DUP2 MSTORE PUSH1 0x20 ADD DUP6 DUP2 MSTORE POP SWAP1 POP DUP1 DUP3 PUSH0 DUP2 MLOAD DUP2 LT PUSH2 0x556 JUMPI PUSH2 0x555 PUSH2 0x1330 JUMP JUMPDEST JUMPDEST PUSH1 0x20 MUL PUSH1 0x20 ADD ADD DUP2 SWAP1 MSTORE POP PUSH0 PUSH1 0x40 MLOAD DUP1 PUSH1 0xA0 ADD PUSH1 0x40 MSTORE DUP1 DUP8 PUSH1 0x40 MLOAD PUSH1 0x20 ADD PUSH2 0x57E SWAP2 SWAP1 PUSH2 0x114B JUMP JUMPDEST PUSH1 0x40 MLOAD PUSH1 0x20 DUP2 DUP4 SUB SUB DUP2 MSTORE SWAP1 PUSH1 0x40 MSTORE DUP2 MSTORE PUSH1 0x20 ADD PUSH1 0x40 MLOAD DUP1 PUSH1 0x20 ADD PUSH1 0x40 MSTORE DUP1 PUSH0 DUP2 MSTORE POP DUP2 MSTORE PUSH1 0x20 ADD DUP5 DUP2 MSTORE PUSH1 0x20 ADD PUSH32 0x0 PUSH20 0xFFFFFFFFFFFFFFFFFFFFFFFFFFFFFFFFFFFFFFFF AND DUP2 MSTORE PUSH1 0x20 ADD PUSH2 0x5FF PUSH1 0x40 MLOAD DUP1 PUSH1 0x20 ADD PUSH1 0x40 MSTORE DUP1 PUSH0 DUP2 MSTORE POP PUSH2 0xC76 JUMP JUMPDEST DUP2 MSTORE POP SWAP1 POP PUSH0 PUSH32 0x0 PUSH20 0xFFFFFFFFFFFFFFFFFFFFFFFFFFFFFFFFFFFFFFFF AND PUSH4 0x20487DED PUSH1 0x3 PUSH1 0x14 SWAP1 SLOAD SWAP1 PUSH2 0x100 EXP SWAP1 DIV PUSH8 0xFFFFFFFFFFFFFFFF AND DUP5 PUSH1 0x40 MLOAD DUP4 PUSH4 0xFFFFFFFF AND PUSH1 0xE0 SHL DUP2 MSTORE PUSH1 0x4 ADD PUSH2 0x676 SWAP3 SWAP2 SWAP1 PUSH2 0x156A JUMP JUMPDEST PUSH1 0x20 PUSH1 0x40 MLOAD DUP1 DUP4 SUB DUP2 DUP7 GAS STATICCALL ISZERO DUP1 ISZERO PUSH2 0x691 JUMPI RETURNDATASIZE PUSH0 DUP1 RETURNDATACOPY RETURNDATASIZE PUSH0 REVERT JUMPDEST POP POP POP POP PUSH1 0x40 MLOAD RETURNDATASIZE PUSH1 0x1F NOT PUSH1 0x1F DUP3 ADD AND DUP3 ADD DUP1 PUSH1 0x40 MSTORE POP DUP2 ADD SWAP1 PUSH2 0x6B5 SWAP2 SWAP1 PUSH2 0x122A JUMP JUMPDEST SWAP1 POP PUSH32 0x0 PUSH20 0xFFFFFFFFFFFFFFFFFFFFFFFFFFFFFFFFFFFFFFFF AND PUSH4 0x70A08231 ADDRESS PUSH1 0x40 MLOAD DUP3 PUSH4 0xFFFFFFFF AND PUSH1 0xE0 SHL DUP2 MSTORE PUSH1 0x4 ADD PUSH2 0x710 SWAP2 SWAP1 PUSH2 0x114B JUMP JUMPDEST PUSH1 0x20 PUSH1 0x40 MLOAD DUP1 DUP4 SUB DUP2 DUP7 GAS STATICCALL ISZERO DUP1 ISZERO PUSH2 0x72B JUMPI RETURNDATASIZE PUSH0 DUP1 RETURNDATACOPY RETURNDATASIZE PUSH0 REVERT JUMPDEST POP POP POP POP PUSH1 0x40 MLOAD RETURNDATASIZE PUSH1 0x1F NOT PUSH1 0x1F DUP3 ADD AND DUP3 ADD DUP1 PUSH1 0x40 MSTORE POP DUP2 ADD SWAP1 PUSH2 0x74F SWAP2 SWAP1 PUSH2 0x122A JUMP JUMPDEST DUP2 GT ISZERO PUSH2 0x82C JUMPI PUSH32 0x0 PUSH20 0xFFFFFFFFFFFFFFFFFFFFFFFFFFFFFFFFFFFFFFFF AND PUSH4 0x70A08231 ADDRESS PUSH1 0x40 MLOAD DUP3 PUSH4 0xFFFFFFFF AND PUSH1 0xE0 SHL DUP2 MSTORE PUSH1 0x4 ADD PUSH2 0x7AF SWAP2 SWAP1 PUSH2 0x114B JUMP JUMPDEST PUSH1 0x20 PUSH1 0x40 MLOAD DUP1 DUP4 SUB DUP2 DUP7 GAS STATICCALL ISZERO DUP1 ISZERO PUSH2 0x7CA JUMPI RETURNDATASIZE PUSH0 DUP1 RETURNDATACOPY RETURNDATASIZE PUSH0 REVERT JUMPDEST POP POP POP POP PUSH1 0x40 MLOAD RETURNDATASIZE PUSH1 0x1F NOT PUSH1 0x1F DUP3 ADD AND DUP3 ADD DUP1 PUSH1 0x40 MSTORE POP DUP2 ADD SWAP1 PUSH2 0x7EE SWAP2 SWAP1 PUSH2 0x122A JUMP JUMPDEST DUP2 PUSH1 0x40 MLOAD PUSH32 0x28FDCAA100000000000000000000000000000000000000000000000000000000 DUP2 MSTORE PUSH1 0x4 ADD PUSH2 0x823 SWAP3 SWAP2 SWAP1 PUSH2 0x1115 JUMP JUMPDEST PUSH1 0x40 MLOAD DUP1 SWAP2 SUB SWAP1 REVERT JUMPDEST PUSH32 0x0 PUSH20 0xFFFFFFFFFFFFFFFFFFFFFFFFFFFFFFFFFFFFFFFF AND PUSH4 0x95EA7B3 PUSH32 0x0 DUP4 PUSH1 0x40 MLOAD DUP4 PUSH4 0xFFFFFFFF AND PUSH1 0xE0 SHL DUP2 MSTORE PUSH1 0x4 ADD PUSH2 0x8A7 SWAP3 SWAP2 SWAP1 PUSH2 0x1255 JUMP JUMPDEST PUSH1 0x20 PUSH1 0x40 MLOAD DUP1 DUP4 SUB DUP2 PUSH0 DUP8 GAS CALL ISZERO DUP1 ISZERO PUSH2 0x8C3 JUMPI RETURNDATASIZE PUSH0 DUP1 RETURNDATACOPY RETURNDATASIZE PUSH0 REVERT JUMPDEST POP POP POP POP PUSH1 0x40 MLOAD RETURNDATASIZE PUSH1 0x1F NOT PUSH1 0x1F DUP3 ADD AND DUP3 ADD DUP1 PUSH1 0x40 MSTORE POP DUP2 ADD SWAP1 PUSH2 0x8E7 SWAP2 SWAP1 PUSH2 0x12B1 JUMP JUMPDEST POP PUSH32 0x0 PUSH20 0xFFFFFFFFFFFFFFFFFFFFFFFFFFFFFFFFFFFFFFFF AND PUSH4 0x70A08231 CALLER PUSH1 0x40 MLOAD DUP3 PUSH4 0xFFFFFFFF AND PUSH1 0xE0 SHL DUP2 MSTORE PUSH1 0x4 ADD PUSH2 0x941 SWAP2 SWAP1 PUSH2 0x114B JUMP JUMPDEST PUSH1 0x20 PUSH1 0x40 MLOAD DUP1 DUP4 SUB DUP2 DUP7 GAS STATICCALL ISZERO DUP1 ISZERO PUSH2 0x95C JUMPI RETURNDATASIZE PUSH0 DUP1 RETURNDATACOPY RETURNDATASIZE PUSH0 REVERT JUMPDEST POP POP POP POP PUSH1 0x40 MLOAD RETURNDATASIZE PUSH1 0x1F NOT PUSH1 0x1F DUP3 ADD AND DUP3 ADD DUP1 PUSH1 0x40 MSTORE POP DUP2 ADD SWAP1 PUSH2 0x980 SWAP2 SWAP1 PUSH2 0x122A JUMP JUMPDEST DUP7 GT ISZERO PUSH2 0xA5B JUMPI PUSH32 0x0 PUSH20 0xFFFFFFFFFFFFFFFFFFFFFFFFFFFFFFFFFFFFFFFF AND PUSH4 0x70A08231 CALLER PUSH1 0x40 MLOAD DUP3 PUSH4 0xFFFFFFFF AND PUSH1 0xE0 SHL DUP2 MSTORE PUSH1 0x4 ADD PUSH2 0x9E0 SWAP2 SWAP1 PUSH2 0x114B JUMP JUMPDEST PUSH1 0x20 PUSH1 0x40 MLOAD DUP1 DUP4 SUB DUP2 DUP7 GAS STATICCALL ISZERO DUP1 ISZERO PUSH2 0x9FB JUMPI RETURNDATASIZE PUSH0 DUP1 RETURNDATACOPY RETURNDATASIZE PUSH0 REVERT JUMPDEST POP POP POP POP PUSH1 0x40 MLOAD RETURNDATASIZE PUSH1 0x1F NOT PUSH1 0x1F DUP3 ADD AND DUP3 ADD DUP1 PUSH1 0x40 MSTORE POP DUP2 ADD SWAP1 PUSH2 0xA1F SWAP2 SWAP1 PUSH2 0x122A JUMP JUMPDEST PUSH1 0x40 MLOAD PUSH32 0x6212CF3B00000000000000000000000000000000000000000000000000000000 DUP2 MSTORE PUSH1 0x4 ADD PUSH2 0xA52 SWAP2 SWAP1 PUSH2 0x1164 JUMP JUMPDEST PUSH1 0x40 MLOAD DUP1 SWAP2 SUB SWAP1 REVERT JUMPDEST PUSH2 0xAA8 CALLER ADDRESS DUP9 PUSH32 0x0 PUSH20 0xFFFFFFFFFFFFFFFFFFFFFFFFFFFFFFFFFFFFFFFF AND PUSH2 0xCF5 SWAP1 SWAP4 SWAP3 SWAP2 SWAP1 PUSH4 0xFFFFFFFF AND JUMP JUMPDEST PUSH32 0x0 PUSH20 0xFFFFFFFFFFFFFFFFFFFFFFFFFFFFFFFFFFFFFFFF AND PUSH4 0x95EA7B3 PUSH32 0x0 DUP9 PUSH1 0x40 MLOAD DUP4 PUSH4 0xFFFFFFFF AND PUSH1 0xE0 SHL DUP2 MSTORE PUSH1 0x4 ADD PUSH2 0xB23 SWAP3 SWAP2 SWAP1 PUSH2 0x1255 JUMP JUMPDEST PUSH1 0x20 PUSH1 0x40 MLOAD DUP1 DUP4 SUB DUP2 PUSH0 DUP8 GAS CALL ISZERO DUP1 ISZERO PUSH2 0xB3F JUMPI RETURNDATASIZE PUSH0 DUP1 RETURNDATACOPY RETURNDATASIZE PUSH0 REVERT JUMPDEST POP POP POP POP PUSH1 0x40 MLOAD RETURNDATASIZE PUSH1 0x1F NOT PUSH1 0x1F DUP3 ADD AND DUP3 ADD DUP1 PUSH1 0x40 MSTORE POP DUP2 ADD SWAP1 PUSH2 0xB63 SWAP2 SWAP1 PUSH2 0x12B1 JUMP JUMPDEST POP PUSH32 0x0 PUSH20 0xFFFFFFFFFFFFFFFFFFFFFFFFFFFFFFFFFFFFFFFF AND PUSH4 0x96F4E9F9 PUSH1 0x3 PUSH1 0x14 SWAP1 SLOAD SWAP1 PUSH2 0x100 EXP SWAP1 DIV PUSH8 0xFFFFFFFFFFFFFFFF AND DUP5 PUSH1 0x40 MLOAD DUP4 PUSH4 0xFFFFFFFF AND PUSH1 0xE0 SHL DUP2 MSTORE PUSH1 0x4 ADD PUSH2 0xBD5 SWAP3 SWAP2 SWAP1 PUSH2 0x156A JUMP JUMPDEST PUSH1 0x20 PUSH1 0x40 MLOAD DUP1 DUP4 SUB DUP2 PUSH0 DUP8 GAS CALL ISZERO DUP1 ISZERO PUSH2 0xBF1 JUMPI RETURNDATASIZE PUSH0 DUP1 RETURNDATACOPY RETURNDATASIZE PUSH0 REVERT JUMPDEST POP POP POP POP PUSH1 0x40 MLOAD RETURNDATASIZE PUSH1 0x1F NOT PUSH1 0x1F DUP3 ADD AND DUP3 ADD DUP1 PUSH1 0x40 MSTORE POP DUP2 ADD SWAP1 PUSH2 0xC15 SWAP2 SWAP1 PUSH2 0x15C2 JUMP JUMPDEST SWAP5 POP PUSH32 0xB55A3D3F1CCD1C10F00AFF03AD884028D98FA1D478FAE03ACECBF884CE8E8FBC DUP6 PUSH1 0x3 PUSH1 0x14 SWAP1 SLOAD SWAP1 PUSH2 0x100 EXP SWAP1 DIV PUSH8 0xFFFFFFFFFFFFFFFF AND DUP10 DUP10 DUP6 PUSH1 0x40 MLOAD PUSH2 0xC64 SWAP6 SWAP5 SWAP4 SWAP3 SWAP2 SWAP1 PUSH2 0x15ED JUMP JUMPDEST PUSH1 0x40 MLOAD DUP1 SWAP2 SUB SWAP1 LOG1 POP POP POP POP SWAP3 SWAP2 POP POP JUMP JUMPDEST PUSH1 0x60 PUSH4 0x97A657C9 PUSH1 0xE0 SHL DUP3 PUSH1 0x40 MLOAD PUSH1 0x24 ADD PUSH2 0xC91 SWAP2 SWAP1 PUSH2 0x1658 JUMP JUMPDEST PUSH1 0x40 MLOAD PUSH1 0x20 DUP2 DUP4 SUB SUB DUP2 MSTORE SWAP1 PUSH1 0x40 MSTORE SWAP1 PUSH28 0xFFFFFFFFFFFFFFFFFFFFFFFFFFFFFFFFFFFFFFFFFFFFFFFFFFFFFFFF NOT AND PUSH1 0x20 DUP3 ADD DUP1 MLOAD PUSH28 0xFFFFFFFFFFFFFFFFFFFFFFFFFFFFFFFFFFFFFFFFFFFFFFFFFFFFFFFF DUP4 DUP2 DUP4 AND OR DUP4 MSTORE POP POP POP POP SWAP1 POP SWAP2 SWAP1 POP JUMP JUMPDEST PUSH2 0xD78 DUP5 PUSH4 0x23B872DD PUSH1 0xE0 SHL DUP6 DUP6 DUP6 PUSH1 0x40 MLOAD PUSH1 0x24 ADD PUSH2 0xD16 SWAP4 SWAP3 SWAP2 SWAP1 PUSH2 0x1671 JUMP JUMPDEST PUSH1 0x40 MLOAD PUSH1 0x20 DUP2 DUP4 SUB SUB DUP2 MSTORE SWAP1 PUSH1 0x40 MSTORE SWAP1 PUSH28 0xFFFFFFFFFFFFFFFFFFFFFFFFFFFFFFFFFFFFFFFFFFFFFFFFFFFFFFFF NOT AND PUSH1 0x20 DUP3 ADD DUP1 MLOAD PUSH28 0xFFFFFFFFFFFFFFFFFFFFFFFFFFFFFFFFFFFFFFFFFFFFFFFFFFFFFFFF DUP4 DUP2 DUP4 AND OR DUP4 MSTORE POP POP POP POP PUSH2 0xD7E JUMP JUMPDEST POP POP POP POP JUMP JUMPDEST PUSH0 PUSH2 0xDDF DUP3 PUSH1 0x40 MLOAD DUP1 PUSH1 0x40 ADD PUSH1 0x40 MSTORE DUP1 PUSH1 0x20 DUP2 MSTORE PUSH1 0x20 ADD PUSH32 0x5361666545524332303A206C6F772D6C6576656C2063616C6C206661696C6564 DUP2 MSTORE POP DUP6 PUSH20 0xFFFFFFFFFFFFFFFFFFFFFFFFFFFFFFFFFFFFFFFF AND PUSH2 0xE43 SWAP1 SWAP3 SWAP2 SWAP1 PUSH4 0xFFFFFFFF AND JUMP JUMPDEST SWAP1 POP PUSH0 DUP2 MLOAD GT ISZERO PUSH2 0xE3E JUMPI DUP1 DUP1 PUSH1 0x20 ADD SWAP1 MLOAD DUP2 ADD SWAP1 PUSH2 0xDFE SWAP2 SWAP1 PUSH2 0x12B1 JUMP JUMPDEST PUSH2 0xE3D JUMPI PUSH1 0x40 MLOAD PUSH32 0x8C379A000000000000000000000000000000000000000000000000000000000 DUP2 MSTORE PUSH1 0x4 ADD PUSH2 0xE34 SWAP1 PUSH2 0x1726 JUMP JUMPDEST PUSH1 0x40 MLOAD DUP1 SWAP2 SUB SWAP1 REVERT JUMPDEST JUMPDEST POP POP POP JUMP JUMPDEST PUSH1 0x60 PUSH2 0xE51 DUP5 DUP5 PUSH0 DUP6 PUSH2 0xE5A JUMP JUMPDEST SWAP1 POP SWAP4 SWAP3 POP POP POP JUMP JUMPDEST PUSH1 0x60 DUP3 SELFBALANCE LT ISZERO PUSH2 0xE9F JUMPI PUSH1 0x40 MLOAD PUSH32 0x8C379A000000000000000000000000000000000000000000000000000000000 DUP2 MSTORE PUSH1 0x4 ADD PUSH2 0xE96 SWAP1 PUSH2 0x17B4 JUMP JUMPDEST PUSH1 0x40 MLOAD DUP1 SWAP2 SUB SWAP1 REVERT JUMPDEST PUSH0 DUP1 DUP7 PUSH20 0xFFFFFFFFFFFFFFFFFFFFFFFFFFFFFFFFFFFFFFFF AND DUP6 DUP8 PUSH1 0x40 MLOAD PUSH2 0xEC7 SWAP2 SWAP1 PUSH2 0x180C JUMP JUMPDEST PUSH0 PUSH1 0x40 MLOAD DUP1 DUP4 SUB DUP2 DUP6 DUP8 GAS CALL SWAP3 POP POP POP RETURNDATASIZE DUP1 PUSH0 DUP2 EQ PUSH2 0xF01 JUMPI PUSH1 0x40 MLOAD SWAP2 POP PUSH1 0x1F NOT PUSH1 0x3F RETURNDATASIZE ADD AND DUP3 ADD PUSH1 0x40 MSTORE RETURNDATASIZE DUP3 MSTORE RETURNDATASIZE PUSH0 PUSH1 0x20 DUP5 ADD RETURNDATACOPY PUSH2 0xF06 JUMP JUMPDEST PUSH1 0x60 SWAP2 POP JUMPDEST POP SWAP2 POP SWAP2 POP PUSH2 0xF17 DUP8 DUP4 DUP4 DUP8 PUSH2 0xF23 JUMP JUMPDEST SWAP3 POP POP POP SWAP5 SWAP4 POP POP POP POP JUMP JUMPDEST PUSH1 0x60 DUP4 ISZERO PUSH2 0xF84 JUMPI PUSH0 DUP4 MLOAD SUB PUSH2 0xF7C JUMPI PUSH2 0xF3C DUP6 PUSH2 0xF97 JUMP JUMPDEST PUSH2 0xF7B JUMPI PUSH1 0x40 MLOAD PUSH32 0x8C379A000000000000000000000000000000000000000000000000000000000 DUP2 MSTORE PUSH1 0x4 ADD PUSH2 0xF72 SWAP1 PUSH2 0x186C JUMP JUMPDEST PUSH1 0x40 MLOAD DUP1 SWAP2 SUB SWAP1 REVERT JUMPDEST JUMPDEST DUP3 SWAP1 POP PUSH2 0xF8F JUMP JUMPDEST PUSH2 0xF8E DUP4 DUP4 PUSH2 0xFB9 JUMP JUMPDEST JUMPDEST SWAP5 SWAP4 POP POP POP POP JUMP JUMPDEST PUSH0 DUP1 DUP3 PUSH20 0xFFFFFFFFFFFFFFFFFFFFFFFFFFFFFFFFFFFFFFFF AND EXTCODESIZE GT SWAP1 POP SWAP2 SWAP1 POP JUMP JUMPDEST PUSH0 DUP3 MLOAD GT ISZERO PUSH2 0xFCB JUMPI DUP2 MLOAD DUP1 DUP4 PUSH1 0x20 ADD REVERT JUMPDEST DUP1 PUSH1 0x40 MLOAD PUSH32 0x8C379A000000000000000000000000000000000000000000000000000000000 DUP2 MSTORE PUSH1 0x4 ADD PUSH2 0xFFF SWAP2 SWAP1 PUSH2 0x18CC JUMP JUMPDEST PUSH1 0x40 MLOAD DUP1 SWAP2 SUB SWAP1 REVERT JUMPDEST PUSH1 0x40 MLOAD DUP1 PUSH1 0x40 ADD PUSH1 0x40 MSTORE DUP1 PUSH0 PUSH20 0xFFFFFFFFFFFFFFFFFFFFFFFFFFFFFFFFFFFFFFFF AND DUP2 MSTORE PUSH1 0x20 ADD PUSH0 DUP2 MSTORE POP SWAP1 JUMP JUMPDEST PUSH0 DUP1 REVERT JUMPDEST PUSH0 PUSH20 0xFFFFFFFFFFFFFFFFFFFFFFFFFFFFFFFFFFFFFFFF DUP3 AND SWAP1 POP SWAP2 SWAP1 POP JUMP JUMPDEST PUSH0 PUSH2 0x1063 DUP3 PUSH2 0x103A JUMP JUMPDEST SWAP1 POP SWAP2 SWAP1 POP JUMP JUMPDEST PUSH2 0x1073 DUP2 PUSH2 0x1059 JUMP JUMPDEST DUP2 EQ PUSH2 0x107D JUMPI PUSH0 DUP1 REVERT JUMPDEST POP JUMP JUMPDEST PUSH0 DUP2 CALLDATALOAD SWAP1 POP PUSH2 0x108E DUP2 PUSH2 0x106A JUMP JUMPDEST SWAP3 SWAP2 POP POP JUMP JUMPDEST PUSH0 DUP1 PUSH1 0x40 DUP4 DUP6 SUB SLT ISZERO PUSH2 0x10AA JUMPI PUSH2 0x10A9 PUSH2 0x1036 JUMP JUMPDEST JUMPDEST PUSH0 PUSH2 0x10B7 DUP6 DUP3 DUP7 ADD PUSH2 0x1080 JUMP JUMPDEST SWAP3 POP POP PUSH1 0x20 PUSH2 0x10C8 DUP6 DUP3 DUP7 ADD PUSH2 0x1080 JUMP JUMPDEST SWAP2 POP POP SWAP3 POP SWAP3 SWAP1 POP JUMP JUMPDEST PUSH0 PUSH1 0x20 DUP3 DUP5 SUB SLT ISZERO PUSH2 0x10E7 JUMPI PUSH2 0x10E6 PUSH2 0x1036 JUMP JUMPDEST JUMPDEST PUSH0 PUSH2 0x10F4 DUP5 DUP3 DUP6 ADD PUSH2 0x1080 JUMP JUMPDEST SWAP2 POP POP SWAP3 SWAP2 POP POP JUMP JUMPDEST PUSH0 DUP2 SWAP1 POP SWAP2 SWAP1 POP JUMP JUMPDEST PUSH2 0x110F DUP2 PUSH2 0x10FD JUMP JUMPDEST DUP3 MSTORE POP POP JUMP JUMPDEST PUSH0 PUSH1 0x40 DUP3 ADD SWAP1 POP PUSH2 0x1128 PUSH0 DUP4 ADD DUP6 PUSH2 0x1106 JUMP JUMPDEST PUSH2 0x1135 PUSH1 0x20 DUP4 ADD DUP5 PUSH2 0x1106 JUMP JUMPDEST SWAP4 SWAP3 POP POP POP JUMP JUMPDEST PUSH2 0x1145 DUP2 PUSH2 0x1059 JUMP JUMPDEST DUP3 MSTORE POP POP JUMP JUMPDEST PUSH0 PUSH1 0x20 DUP3 ADD SWAP1 POP PUSH2 0x115E PUSH0 DUP4 ADD DUP5 PUSH2 0x113C JUMP JUMPDEST SWAP3 SWAP2 POP POP JUMP JUMPDEST PUSH0 PUSH1 0x20 DUP3 ADD SWAP1 POP PUSH2 0x1177 PUSH0 DUP4 ADD DUP5 PUSH2 0x1106 JUMP JUMPDEST SWAP3 SWAP2 POP POP JUMP JUMPDEST PUSH2 0x1186 DUP2 PUSH2 0x10FD JUMP JUMPDEST DUP2 EQ PUSH2 0x1190 JUMPI PUSH0 DUP1 REVERT JUMPDEST POP JUMP JUMPDEST PUSH0 DUP2 CALLDATALOAD SWAP1 POP PUSH2 0x11A1 DUP2 PUSH2 0x117D JUMP JUMPDEST SWAP3 SWAP2 POP POP JUMP JUMPDEST PUSH0 DUP1 PUSH1 0x40 DUP4 DUP6 SUB SLT ISZERO PUSH2 0x11BD JUMPI PUSH2 0x11BC PUSH2 0x1036 JUMP JUMPDEST JUMPDEST PUSH0 PUSH2 0x11CA DUP6 DUP3 DUP7 ADD PUSH2 0x1080 JUMP JUMPDEST SWAP3 POP POP PUSH1 0x20 PUSH2 0x11DB DUP6 DUP3 DUP7 ADD PUSH2 0x1193 JUMP JUMPDEST SWAP2 POP POP SWAP3 POP SWAP3 SWAP1 POP JUMP JUMPDEST PUSH0 DUP2 SWAP1 POP SWAP2 SWAP1 POP JUMP JUMPDEST PUSH2 0x11F7 DUP2 PUSH2 0x11E5 JUMP JUMPDEST DUP3 MSTORE POP POP JUMP JUMPDEST PUSH0 PUSH1 0x20 DUP3 ADD SWAP1 POP PUSH2 0x1210 PUSH0 DUP4 ADD DUP5 PUSH2 0x11EE JUMP JUMPDEST SWAP3 SWAP2 POP POP JUMP JUMPDEST PUSH0 DUP2 MLOAD SWAP1 POP PUSH2 0x1224 DUP2 PUSH2 0x117D JUMP JUMPDEST SWAP3 SWAP2 POP POP JUMP JUMPDEST PUSH0 PUSH1 0x20 DUP3 DUP5 SUB SLT ISZERO PUSH2 0x123F JUMPI PUSH2 0x123E PUSH2 0x1036 JUMP JUMPDEST JUMPDEST PUSH0 PUSH2 0x124C DUP5 DUP3 DUP6 ADD PUSH2 0x1216 JUMP JUMPDEST SWAP2 POP POP SWAP3 SWAP2 POP POP JUMP JUMPDEST PUSH0 PUSH1 0x40 DUP3 ADD SWAP1 POP PUSH2 0x1268 PUSH0 DUP4 ADD DUP6 PUSH2 0x113C JUMP JUMPDEST PUSH2 0x1275 PUSH1 0x20 DUP4 ADD DUP5 PUSH2 0x1106 JUMP JUMPDEST SWAP4 SWAP3 POP POP POP JUMP JUMPDEST PUSH0 DUP2 ISZERO ISZERO SWAP1 POP SWAP2 SWAP1 POP JUMP JUMPDEST PUSH2 0x1290 DUP2 PUSH2 0x127C JUMP JUMPDEST DUP2 EQ PUSH2 0x129A JUMPI PUSH0 DUP1 REVERT JUMPDEST POP JUMP JUMPDEST PUSH0 DUP2 MLOAD SWAP1 POP PUSH2 0x12AB DUP2 PUSH2 0x1287 JUMP JUMPDEST SWAP3 SWAP2 POP POP JUMP JUMPDEST PUSH0 PUSH1 0x20 DUP3 DUP5 SUB SLT ISZERO PUSH2 0x12C6 JUMPI PUSH2 0x12C5 PUSH2 0x1036 JUMP JUMPDEST JUMPDEST PUSH0 PUSH2 0x12D3 DUP5 DUP3 DUP6 ADD PUSH2 0x129D JUMP JUMPDEST SWAP2 POP POP SWAP3 SWAP2 POP POP JUMP JUMPDEST PUSH0 PUSH1 0x40 DUP3 ADD SWAP1 POP PUSH2 0x12EF PUSH0 DUP4 ADD DUP6 PUSH2 0x113C JUMP JUMPDEST PUSH2 0x12FC PUSH1 0x20 DUP4 ADD DUP5 PUSH2 0x113C JUMP JUMPDEST SWAP4 SWAP3 POP POP POP JUMP JUMPDEST PUSH32 0x4E487B7100000000000000000000000000000000000000000000000000000000 PUSH0 MSTORE PUSH1 0x41 PUSH1 0x4 MSTORE PUSH1 0x24 PUSH0 REVERT JUMPDEST PUSH32 0x4E487B7100000000000000000000000000000000000000000000000000000000 PUSH0 MSTORE PUSH1 0x32 PUSH1 0x4 MSTORE PUSH1 0x24 PUSH0 REVERT JUMPDEST PUSH0 PUSH8 0xFFFFFFFFFFFFFFFF DUP3 AND SWAP1 POP SWAP2 SWAP1 POP JUMP JUMPDEST PUSH2 0x1379 DUP2 PUSH2 0x135D JUMP JUMPDEST DUP3 MSTORE POP POP JUMP JUMPDEST PUSH0 DUP2 MLOAD SWAP1 POP SWAP2 SWAP1 POP JUMP JUMPDEST PUSH0 DUP3 DUP3 MSTORE PUSH1 0x20 DUP3 ADD SWAP1 POP SWAP3 SWAP2 POP POP JUMP JUMPDEST DUP3 DUP2 DUP4 MCOPY PUSH0 DUP4 DUP4 ADD MSTORE POP POP POP JUMP JUMPDEST PUSH0 PUSH1 0x1F NOT PUSH1 0x1F DUP4 ADD AND SWAP1 POP SWAP2 SWAP1 POP JUMP JUMPDEST PUSH0 PUSH2 0x13C1 DUP3 PUSH2 0x137F JUMP JUMPDEST PUSH2 0x13CB DUP2 DUP6 PUSH2 0x1389 JUMP JUMPDEST SWAP4 POP PUSH2 0x13DB DUP2 DUP6 PUSH1 0x20 DUP7 ADD PUSH2 0x1399 JUMP JUMPDEST PUSH2 0x13E4 DUP2 PUSH2 0x13A7 JUMP JUMPDEST DUP5 ADD SWAP2 POP POP SWAP3 SWAP2 POP POP JUMP JUMPDEST PUSH0 DUP2 MLOAD SWAP1 POP SWAP2 SWAP1 POP JUMP JUMPDEST PUSH0 DUP3 DUP3 MSTORE PUSH1 0x20 DUP3 ADD SWAP1 POP SWAP3 SWAP2 POP POP JUMP JUMPDEST PUSH0 DUP2 SWAP1 POP PUSH1 0x20 DUP3 ADD SWAP1 POP SWAP2 SWAP1 POP JUMP JUMPDEST PUSH2 0x1421 DUP2 PUSH2 0x1059 JUMP JUMPDEST DUP3 MSTORE POP POP JUMP JUMPDEST PUSH2 0x1430 DUP2 PUSH2 0x10FD JUMP JUMPDEST DUP3 MSTORE POP POP JUMP JUMPDEST PUSH1 0x40 DUP3 ADD PUSH0 DUP3 ADD MLOAD PUSH2 0x144A PUSH0 DUP6 ADD DUP3 PUSH2 0x1418 JUMP JUMPDEST POP PUSH1 0x20 DUP3 ADD MLOAD PUSH2 0x145D PUSH1 0x20 DUP6 ADD DUP3 PUSH2 0x1427 JUMP JUMPDEST POP POP POP POP JUMP JUMPDEST PUSH0 PUSH2 0x146E DUP4 DUP4 PUSH2 0x1436 JUMP JUMPDEST PUSH1 0x40 DUP4 ADD SWAP1 POP SWAP3 SWAP2 POP POP JUMP JUMPDEST PUSH0 PUSH1 0x20 DUP3 ADD SWAP1 POP SWAP2 SWAP1 POP JUMP JUMPDEST PUSH0 PUSH2 0x1490 DUP3 PUSH2 0x13EF JUMP JUMPDEST PUSH2 0x149A DUP2 DUP6 PUSH2 0x13F9 JUMP JUMPDEST SWAP4 POP PUSH2 0x14A5 DUP4 PUSH2 0x1409 JUMP JUMPDEST DUP1 PUSH0 JUMPDEST DUP4 DUP2 LT ISZERO PUSH2 0x14D5 JUMPI DUP2 MLOAD PUSH2 0x14BC DUP9 DUP3 PUSH2 0x1463 JUMP JUMPDEST SWAP8 POP PUSH2 0x14C7 DUP4 PUSH2 0x147A JUMP JUMPDEST SWAP3 POP POP PUSH1 0x1 DUP2 ADD SWAP1 POP PUSH2 0x14A8 JUMP JUMPDEST POP DUP6 SWAP4 POP POP POP POP SWAP3 SWAP2 POP POP JUMP JUMPDEST PUSH0 PUSH1 0xA0 DUP4 ADD PUSH0 DUP4 ADD MLOAD DUP5 DUP3 SUB PUSH0 DUP7 ADD MSTORE PUSH2 0x14FC DUP3 DUP3 PUSH2 0x13B7 JUMP JUMPDEST SWAP2 POP POP PUSH1 0x20 DUP4 ADD MLOAD DUP5 DUP3 SUB PUSH1 0x20 DUP7 ADD MSTORE PUSH2 0x1516 DUP3 DUP3 PUSH2 0x13B7 JUMP JUMPDEST SWAP2 POP POP PUSH1 0x40 DUP4 ADD MLOAD DUP5 DUP3 SUB PUSH1 0x40 DUP7 ADD MSTORE PUSH2 0x1530 DUP3 DUP3 PUSH2 0x1486 JUMP JUMPDEST SWAP2 POP POP PUSH1 0x60 DUP4 ADD MLOAD PUSH2 0x1545 PUSH1 0x60 DUP7 ADD DUP3 PUSH2 0x1418 JUMP JUMPDEST POP PUSH1 0x80 DUP4 ADD MLOAD DUP5 DUP3 SUB PUSH1 0x80 DUP7 ADD MSTORE PUSH2 0x155D DUP3 DUP3 PUSH2 0x13B7 JUMP JUMPDEST SWAP2 POP POP DUP1 SWAP2 POP POP SWAP3 SWAP2 POP POP JUMP JUMPDEST PUSH0 PUSH1 0x40 DUP3 ADD SWAP1 POP PUSH2 0x157D PUSH0 DUP4 ADD DUP6 PUSH2 0x1370 JUMP JUMPDEST DUP2 DUP2 SUB PUSH1 0x20 DUP4 ADD MSTORE PUSH2 0x158F DUP2 DUP5 PUSH2 0x14E2 JUMP JUMPDEST SWAP1 POP SWAP4 SWAP3 POP POP POP JUMP JUMPDEST PUSH2 0x15A1 DUP2 PUSH2 0x11E5 JUMP JUMPDEST DUP2 EQ PUSH2 0x15AB JUMPI PUSH0 DUP1 REVERT JUMPDEST POP JUMP JUMPDEST PUSH0 DUP2 MLOAD SWAP1 POP PUSH2 0x15BC DUP2 PUSH2 0x1598 JUMP JUMPDEST SWAP3 SWAP2 POP POP JUMP JUMPDEST PUSH0 PUSH1 0x20 DUP3 DUP5 SUB SLT ISZERO PUSH2 0x15D7 JUMPI PUSH2 0x15D6 PUSH2 0x1036 JUMP JUMPDEST JUMPDEST PUSH0 PUSH2 0x15E4 DUP5 DUP3 DUP6 ADD PUSH2 0x15AE JUMP JUMPDEST SWAP2 POP POP SWAP3 SWAP2 POP POP JUMP JUMPDEST PUSH0 PUSH1 0xA0 DUP3 ADD SWAP1 POP PUSH2 0x1600 PUSH0 DUP4 ADD DUP9 PUSH2 0x11EE JUMP JUMPDEST PUSH2 0x160D PUSH1 0x20 DUP4 ADD DUP8 PUSH2 0x1370 JUMP JUMPDEST PUSH2 0x161A PUSH1 0x40 DUP4 ADD DUP7 PUSH2 0x113C JUMP JUMPDEST PUSH2 0x1627 PUSH1 0x60 DUP4 ADD DUP6 PUSH2 0x1106 JUMP JUMPDEST PUSH2 0x1634 PUSH1 0x80 DUP4 ADD DUP5 PUSH2 0x1106 JUMP JUMPDEST SWAP7 SWAP6 POP POP POP POP POP POP JUMP JUMPDEST PUSH1 0x20 DUP3 ADD PUSH0 DUP3 ADD MLOAD PUSH2 0x1652 PUSH0 DUP6 ADD DUP3 PUSH2 0x1427 JUMP JUMPDEST POP POP POP POP JUMP JUMPDEST PUSH0 PUSH1 0x20 DUP3 ADD SWAP1 POP PUSH2 0x166B PUSH0 DUP4 ADD DUP5 PUSH2 0x163E JUMP JUMPDEST SWAP3 SWAP2 POP POP JUMP JUMPDEST PUSH0 PUSH1 0x60 DUP3 ADD SWAP1 POP PUSH2 0x1684 PUSH0 DUP4 ADD DUP7 PUSH2 0x113C JUMP JUMPDEST PUSH2 0x1691 PUSH1 0x20 DUP4 ADD DUP6 PUSH2 0x113C JUMP JUMPDEST PUSH2 0x169E PUSH1 0x40 DUP4 ADD DUP5 PUSH2 0x1106 JUMP JUMPDEST SWAP5 SWAP4 POP POP POP POP JUMP JUMPDEST PUSH0 DUP3 DUP3 MSTORE PUSH1 0x20 DUP3 ADD SWAP1 POP SWAP3 SWAP2 POP POP JUMP JUMPDEST PUSH32 0x5361666545524332303A204552433230206F7065726174696F6E20646964206E PUSH0 DUP3 ADD MSTORE PUSH32 0x6F74207375636365656400000000000000000000000000000000000000000000 PUSH1 0x20 DUP3 ADD MSTORE POP JUMP JUMPDEST PUSH0 PUSH2 0x1710 PUSH1 0x2A DUP4 PUSH2 0x16A6 JUMP JUMPDEST SWAP2 POP PUSH2 0x171B DUP3 PUSH2 0x16B6 JUMP JUMPDEST PUSH1 0x40 DUP3 ADD SWAP1 POP SWAP2 SWAP1 POP JUMP JUMPDEST PUSH0 PUSH1 0x20 DUP3 ADD SWAP1 POP DUP2 DUP2 SUB PUSH0 DUP4 ADD MSTORE PUSH2 0x173D DUP2 PUSH2 0x1704 JUMP JUMPDEST SWAP1 POP SWAP2 SWAP1 POP JUMP JUMPDEST PUSH32 0x416464726573733A20696E73756666696369656E742062616C616E636520666F PUSH0 DUP3 ADD MSTORE PUSH32 0x722063616C6C0000000000000000000000000000000000000000000000000000 PUSH1 0x20 DUP3 ADD MSTORE POP JUMP JUMPDEST PUSH0 PUSH2 0x179E PUSH1 0x26 DUP4 PUSH2 0x16A6 JUMP JUMPDEST SWAP2 POP PUSH2 0x17A9 DUP3 PUSH2 0x1744 JUMP JUMPDEST PUSH1 0x40 DUP3 ADD SWAP1 POP SWAP2 SWAP1 POP JUMP JUMPDEST PUSH0 PUSH1 0x20 DUP3 ADD SWAP1 POP DUP2 DUP2 SUB PUSH0 DUP4 ADD MSTORE PUSH2 0x17CB DUP2 PUSH2 0x1792 JUMP JUMPDEST SWAP1 POP SWAP2 SWAP1 POP JUMP JUMPDEST PUSH0 DUP2 SWAP1 POP SWAP3 SWAP2 POP POP JUMP JUMPDEST PUSH0 PUSH2 0x17E6 DUP3 PUSH2 0x137F JUMP JUMPDEST PUSH2 0x17F0 DUP2 DUP6 PUSH2 0x17D2 JUMP JUMPDEST SWAP4 POP PUSH2 0x1800 DUP2 DUP6 PUSH1 0x20 DUP7 ADD PUSH2 0x1399 JUMP JUMPDEST DUP1 DUP5 ADD SWAP2 POP POP SWAP3 SWAP2 POP POP JUMP JUMPDEST PUSH0 PUSH2 0x1817 DUP3 DUP5 PUSH2 0x17DC JUMP JUMPDEST SWAP2 POP DUP2 SWAP1 POP SWAP3 SWAP2 POP POP JUMP JUMPDEST PUSH32 0x416464726573733A2063616C6C20746F206E6F6E2D636F6E7472616374000000 PUSH0 DUP3 ADD MSTORE POP JUMP JUMPDEST PUSH0 PUSH2 0x1856 PUSH1 0x1D DUP4 PUSH2 0x16A6 JUMP JUMPDEST SWAP2 POP PUSH2 0x1861 DUP3 PUSH2 0x1822 JUMP JUMPDEST PUSH1 0x20 DUP3 ADD SWAP1 POP SWAP2 SWAP1 POP JUMP JUMPDEST PUSH0 PUSH1 0x20 DUP3 ADD SWAP1 POP DUP2 DUP2 SUB PUSH0 DUP4 ADD MSTORE PUSH2 0x1883 DUP2 PUSH2 0x184A JUMP JUMPDEST SWAP1 POP SWAP2 SWAP1 POP JUMP JUMPDEST PUSH0 DUP2 MLOAD SWAP1 POP SWAP2 SWAP1 POP JUMP JUMPDEST PUSH0 PUSH2 0x189E DUP3 PUSH2 0x188A JUMP JUMPDEST PUSH2 0x18A8 DUP2 DUP6 PUSH2 0x16A6 JUMP JUMPDEST SWAP4 POP PUSH2 0x18B8 DUP2 DUP6 PUSH1 0x20 DUP7 ADD PUSH2 0x1399 JUMP JUMPDEST PUSH2 0x18C1 DUP2 PUSH2 0x13A7 JUMP JUMPDEST DUP5 ADD SWAP2 POP POP SWAP3 SWAP2 POP POP JUMP JUMPDEST PUSH0 PUSH1 0x20 DUP3 ADD SWAP1 POP DUP2 DUP2 SUB PUSH0 DUP4 ADD MSTORE PUSH2 0x18E4 DUP2 DUP5 PUSH2 0x1894 JUMP JUMPDEST SWAP1 POP SWAP3 SWAP2 POP POP JUMP INVALID LOG2 PUSH5 0x6970667358 0x22 SLT KECCAK256 0xDC SWAP10 0xB3 0xB2 0x22 0xA8 PUSH3 0xF68E01 DUP11 BLOBBASEFEE PUSH6 0x3B448239803D 0xB0 ADD LOG1 SWAP6 PUSH29 0xD4BB14F3AC7BB75E64736F6C634300081A003300000000000000000000 "
				},
				"gasEstimates": {
					"creation": {
						"codeDepositCost": "1286800",
						"executionCost": "infinite",
						"totalCost": "infinite"
					},
					"external": {
						"allowanceUsdc()": "infinite",
						"balancesOf(address)": "infinite",
						"owner()": "2527",
						"transferUsdcToSepolia(address,uint256)": "infinite",
						"withdrawToken(address,address)": "infinite"
					}
				},
				"methodIdentifiers": {
					"allowanceUsdc()": "ed3bd5bc",
					"balancesOf(address)": "6392a51f",
					"owner()": "8da5cb5b",
					"transferUsdcToSepolia(address,uint256)": "fe2c5d36",
					"withdrawToken(address,address)": "3aeac4e1"
				}
			},
			"storageLayout": {
				"storage": [
					{
						"astId": 876,
						"contract": "CHAINLIST_SOLIDITY/TransferUSDCBasic.sol:TransferUSDCBasic",
						"label": "owner",
						"offset": 0,
						"slot": "0",
						"type": "t_address"
					},
					{
						"astId": 888,
						"contract": "CHAINLIST_SOLIDITY/TransferUSDCBasic.sol:TransferUSDCBasic",
						"label": "ccipRouterAddress",
						"offset": 0,
						"slot": "1",
						"type": "t_address"
					},
					{
						"astId": 891,
						"contract": "CHAINLIST_SOLIDITY/TransferUSDCBasic.sol:TransferUSDCBasic",
						"label": "linkAddress",
						"offset": 0,
						"slot": "2",
						"type": "t_address"
					},
					{
						"astId": 894,
						"contract": "CHAINLIST_SOLIDITY/TransferUSDCBasic.sol:TransferUSDCBasic",
						"label": "usdcAddress",
						"offset": 0,
						"slot": "3",
						"type": "t_address"
					},
					{
						"astId": 897,
						"contract": "CHAINLIST_SOLIDITY/TransferUSDCBasic.sol:TransferUSDCBasic",
						"label": "destinationChainSelector",
						"offset": 20,
						"slot": "3",
						"type": "t_uint64"
					}
				],
				"types": {
					"t_address": {
						"encoding": "inplace",
						"label": "address",
						"numberOfBytes": "20"
					},
					"t_uint64": {
						"encoding": "inplace",
						"label": "uint64",
						"numberOfBytes": "8"
					}
				}
			},
			"userdoc": {
				"kind": "user",
				"methods": {},
				"notice": "THIS IS AN EXAMPLE CONTRACT THAT USES HARDCODED VALUES FOR CLARITY. THIS IS AN EXAMPLE CONTRACT THAT USES UN-AUDITED CODE. DO NOT USE THIS CODE IN PRODUCTION.",
				"version": 1
			}
		}
	}
}